{
  "_format": "hh-sol-artifact-1",
  "contractName": "GoldenRatio",
  "sourceName": "contracts/GoldenRatio.sol",
  "abi": [
    {
      "inputs": [],
      "stateMutability": "nonpayable",
      "type": "constructor"
    },
    {
      "inputs": [
        {
          "internalType": "address",
          "name": "sender",
          "type": "address"
        },
        {
          "internalType": "uint256",
          "name": "tokenId",
          "type": "uint256"
        },
        {
          "internalType": "address",
          "name": "owner",
          "type": "address"
        }
      ],
      "name": "ERC721IncorrectOwner",
      "type": "error"
    },
    {
      "inputs": [
        {
          "internalType": "address",
          "name": "operator",
          "type": "address"
        },
        {
          "internalType": "uint256",
          "name": "tokenId",
          "type": "uint256"
        }
      ],
      "name": "ERC721InsufficientApproval",
      "type": "error"
    },
    {
      "inputs": [
        {
          "internalType": "address",
          "name": "approver",
          "type": "address"
        }
      ],
      "name": "ERC721InvalidApprover",
      "type": "error"
    },
    {
      "inputs": [
        {
          "internalType": "address",
          "name": "operator",
          "type": "address"
        }
      ],
      "name": "ERC721InvalidOperator",
      "type": "error"
    },
    {
      "inputs": [
        {
          "internalType": "address",
          "name": "owner",
          "type": "address"
        }
      ],
      "name": "ERC721InvalidOwner",
      "type": "error"
    },
    {
      "inputs": [
        {
          "internalType": "address",
          "name": "receiver",
          "type": "address"
        }
      ],
      "name": "ERC721InvalidReceiver",
      "type": "error"
    },
    {
      "inputs": [
        {
          "internalType": "address",
          "name": "sender",
          "type": "address"
        }
      ],
      "name": "ERC721InvalidSender",
      "type": "error"
    },
    {
      "inputs": [
        {
          "internalType": "uint256",
          "name": "tokenId",
          "type": "uint256"
        }
      ],
      "name": "ERC721NonexistentToken",
      "type": "error"
    },
    {
      "inputs": [],
      "name": "InsufficientPayment",
      "type": "error"
    },
    {
      "inputs": [],
      "name": "Nonexistent",
      "type": "error"
    },
    {
      "inputs": [
        {
          "internalType": "address",
          "name": "owner",
          "type": "address"
        }
      ],
      "name": "OwnableInvalidOwner",
      "type": "error"
    },
    {
      "inputs": [
        {
          "internalType": "address",
          "name": "account",
          "type": "address"
        }
      ],
      "name": "OwnableUnauthorizedAccount",
      "type": "error"
    },
    {
      "inputs": [],
      "name": "SoldOut",
      "type": "error"
    },
    {
      "anonymous": false,
      "inputs": [
        {
          "indexed": true,
          "internalType": "address",
          "name": "owner",
          "type": "address"
        },
        {
          "indexed": true,
          "internalType": "address",
          "name": "approved",
          "type": "address"
        },
        {
          "indexed": true,
          "internalType": "uint256",
          "name": "tokenId",
          "type": "uint256"
        }
      ],
      "name": "Approval",
      "type": "event"
    },
    {
      "anonymous": false,
      "inputs": [
        {
          "indexed": true,
          "internalType": "address",
          "name": "owner",
          "type": "address"
        },
        {
          "indexed": true,
          "internalType": "address",
          "name": "operator",
          "type": "address"
        },
        {
          "indexed": false,
          "internalType": "bool",
          "name": "approved",
          "type": "bool"
        }
      ],
      "name": "ApprovalForAll",
      "type": "event"
    },
    {
      "anonymous": false,
      "inputs": [
        {
          "indexed": true,
          "internalType": "address",
          "name": "to",
          "type": "address"
        },
        {
          "indexed": true,
          "internalType": "uint256",
          "name": "tokenId",
          "type": "uint256"
        },
        {
          "indexed": false,
          "internalType": "bytes32",
          "name": "seed",
          "type": "bytes32"
        }
      ],
      "name": "Minted",
      "type": "event"
    },
    {
      "anonymous": false,
      "inputs": [
        {
          "indexed": true,
          "internalType": "address",
          "name": "previousOwner",
          "type": "address"
        },
        {
          "indexed": true,
          "internalType": "address",
          "name": "newOwner",
          "type": "address"
        }
      ],
      "name": "OwnershipTransferred",
      "type": "event"
    },
    {
      "anonymous": false,
      "inputs": [
        {
          "indexed": true,
          "internalType": "address",
          "name": "from",
          "type": "address"
        },
        {
          "indexed": true,
          "internalType": "address",
          "name": "to",
          "type": "address"
        },
        {
          "indexed": true,
          "internalType": "uint256",
          "name": "tokenId",
          "type": "uint256"
        }
      ],
      "name": "Transfer",
      "type": "event"
    },
    {
      "inputs": [],
      "name": "MAX_SUPPLY",
      "outputs": [
        {
          "internalType": "uint256",
          "name": "",
          "type": "uint256"
        }
      ],
      "stateMutability": "view",
      "type": "function"
    },
    {
      "inputs": [],
      "name": "MINT_PRICE",
      "outputs": [
        {
          "internalType": "uint256",
          "name": "",
          "type": "uint256"
        }
      ],
      "stateMutability": "view",
      "type": "function"
    },
    {
      "inputs": [
        {
          "internalType": "address",
          "name": "to",
          "type": "address"
        },
        {
          "internalType": "uint256",
          "name": "tokenId",
          "type": "uint256"
        }
      ],
      "name": "approve",
      "outputs": [],
      "stateMutability": "nonpayable",
      "type": "function"
    },
    {
      "inputs": [
        {
          "internalType": "address",
          "name": "owner",
          "type": "address"
        }
      ],
      "name": "balanceOf",
      "outputs": [
        {
          "internalType": "uint256",
          "name": "",
          "type": "uint256"
        }
      ],
      "stateMutability": "view",
      "type": "function"
    },
    {
      "inputs": [
        {
          "internalType": "uint256",
          "name": "tokenId",
          "type": "uint256"
        }
      ],
      "name": "getApproved",
      "outputs": [
        {
          "internalType": "address",
          "name": "",
          "type": "address"
        }
      ],
      "stateMutability": "view",
      "type": "function"
    },
    {
      "inputs": [
        {
          "internalType": "address",
          "name": "owner",
          "type": "address"
        },
        {
          "internalType": "address",
          "name": "operator",
          "type": "address"
        }
      ],
      "name": "isApprovedForAll",
      "outputs": [
        {
          "internalType": "bool",
          "name": "",
          "type": "bool"
        }
      ],
      "stateMutability": "view",
      "type": "function"
    },
    {
      "inputs": [],
      "name": "mint",
      "outputs": [],
      "stateMutability": "payable",
      "type": "function"
    },
    {
      "inputs": [],
      "name": "name",
      "outputs": [
        {
          "internalType": "string",
          "name": "",
          "type": "string"
        }
      ],
      "stateMutability": "view",
      "type": "function"
    },
    {
      "inputs": [],
      "name": "owner",
      "outputs": [
        {
          "internalType": "address",
          "name": "",
          "type": "address"
        }
      ],
      "stateMutability": "view",
      "type": "function"
    },
    {
      "inputs": [
        {
          "internalType": "uint256",
          "name": "tokenId",
          "type": "uint256"
        }
      ],
      "name": "ownerOf",
      "outputs": [
        {
          "internalType": "address",
          "name": "",
          "type": "address"
        }
      ],
      "stateMutability": "view",
      "type": "function"
    },
    {
      "inputs": [],
      "name": "renounceOwnership",
      "outputs": [],
      "stateMutability": "nonpayable",
      "type": "function"
    },
    {
      "inputs": [
        {
          "internalType": "address",
          "name": "from",
          "type": "address"
        },
        {
          "internalType": "address",
          "name": "to",
          "type": "address"
        },
        {
          "internalType": "uint256",
          "name": "tokenId",
          "type": "uint256"
        }
      ],
      "name": "safeTransferFrom",
      "outputs": [],
      "stateMutability": "nonpayable",
      "type": "function"
    },
    {
      "inputs": [
        {
          "internalType": "address",
          "name": "from",
          "type": "address"
        },
        {
          "internalType": "address",
          "name": "to",
          "type": "address"
        },
        {
          "internalType": "uint256",
          "name": "tokenId",
          "type": "uint256"
        },
        {
          "internalType": "bytes",
          "name": "data",
          "type": "bytes"
        }
      ],
      "name": "safeTransferFrom",
      "outputs": [],
      "stateMutability": "nonpayable",
      "type": "function"
    },
    {
      "inputs": [
        {
          "internalType": "uint256",
          "name": "tokenId",
          "type": "uint256"
        }
      ],
      "name": "seedOf",
      "outputs": [
        {
          "internalType": "bytes32",
          "name": "",
          "type": "bytes32"
        }
      ],
      "stateMutability": "view",
      "type": "function"
    },
    {
      "inputs": [
        {
          "internalType": "address",
          "name": "operator",
          "type": "address"
        },
        {
          "internalType": "bool",
          "name": "approved",
          "type": "bool"
        }
      ],
      "name": "setApprovalForAll",
      "outputs": [],
      "stateMutability": "nonpayable",
      "type": "function"
    },
    {
      "inputs": [
        {
          "internalType": "bytes4",
          "name": "interfaceId",
          "type": "bytes4"
        }
      ],
      "name": "supportsInterface",
      "outputs": [
        {
          "internalType": "bool",
          "name": "",
          "type": "bool"
        }
      ],
      "stateMutability": "view",
      "type": "function"
    },
    {
      "inputs": [],
      "name": "symbol",
      "outputs": [
        {
          "internalType": "string",
          "name": "",
          "type": "string"
        }
      ],
      "stateMutability": "view",
      "type": "function"
    },
    {
      "inputs": [
        {
          "internalType": "uint256",
          "name": "tokenId",
          "type": "uint256"
        }
      ],
      "name": "tokenURI",
      "outputs": [
        {
          "internalType": "string",
          "name": "",
          "type": "string"
        }
      ],
      "stateMutability": "view",
      "type": "function"
    },
    {
      "inputs": [],
      "name": "totalMinted",
      "outputs": [
        {
          "internalType": "uint256",
          "name": "",
          "type": "uint256"
        }
      ],
      "stateMutability": "view",
      "type": "function"
    },
    {
      "inputs": [
        {
          "internalType": "address",
          "name": "from",
          "type": "address"
        },
        {
          "internalType": "address",
          "name": "to",
          "type": "address"
        },
        {
          "internalType": "uint256",
          "name": "tokenId",
          "type": "uint256"
        }
      ],
      "name": "transferFrom",
      "outputs": [],
      "stateMutability": "nonpayable",
      "type": "function"
    },
    {
      "inputs": [
        {
          "internalType": "address",
          "name": "newOwner",
          "type": "address"
        }
      ],
      "name": "transferOwnership",
      "outputs": [],
      "stateMutability": "nonpayable",
      "type": "function"
    },
    {
      "inputs": [],
      "name": "withdraw",
      "outputs": [],
      "stateMutability": "nonpayable",
      "type": "function"
    }
  ],
  "bytecode": "0x60806040523480156200001157600080fd5b50336040518060400160405280600c81526020016b476f6c64656e20526174696f60a01b8152506040518060400160405280600381526020016250484960e81b8152508160009081620000659190620001b1565b506001620000748282620001b1565b5050506001600160a01b038116620000a657604051631e4fbdf760e01b81526000600482015260240160405180910390fd5b620000b181620000b8565b506200027d565b600680546001600160a01b038381166001600160a01b0319831681179093556040519116919082907f8be0079c531659141344cd1fd0a4f28419497f9722a3daafe3b4186f6b6457e090600090a35050565b634e487b7160e01b600052604160045260246000fd5b600181811c908216806200013557607f821691505b6020821081036200015657634e487b7160e01b600052602260045260246000fd5b50919050565b601f821115620001ac576000816000526020600020601f850160051c81016020861015620001875750805b601f850160051c820191505b81811015620001a85782815560010162000193565b5050505b505050565b81516001600160401b03811115620001cd57620001cd6200010a565b620001e581620001de845462000120565b846200015c565b602080601f8311600181146200021d5760008415620002045750858301515b600019600386901b1c1916600185901b178555620001a8565b600085815260208120601f198616915b828110156200024e578886015182559484019460019091019084016200022d565b50858210156200026d5787850151600019600388901b60f8161c191681555b5050505050600190811b01905550565b6136ef806200028d6000396000f3fe6080604052600436106101355760003560e01c8063715018a6116100ab578063a2309ff81161006f578063a2309ff814610333578063b88d4fde14610348578063c002d23d14610368578063c87b56dd14610383578063e985e9c5146103a3578063f2fde38b146103c357600080fd5b8063715018a6146102ab57806382829f74146102c05780638da5cb5b146102e057806395d89b41146102fe578063a22cb4651461031357600080fd5b806323b872dd116100fd57806323b872dd146101f357806332cb6b0c146102135780633ccfd60b1461023657806342842e0e1461024b5780636352211e1461026b57806370a082311461028b57600080fd5b806301ffc9a71461013a57806306fdde031461016f578063081812fc14610191578063095ea7b3146101c95780631249c58b146101eb575b600080fd5b34801561014657600080fd5b5061015a6101553660046121d7565b6103e3565b60405190151581526020015b60405180910390f35b34801561017b57600080fd5b50610184610435565b6040516101669190612244565b34801561019d57600080fd5b506101b16101ac366004612257565b6104c7565b6040516001600160a01b039091168152602001610166565b3480156101d557600080fd5b506101e96101e436600461228c565b6104f0565b005b6101e96104ff565b3480156101ff57600080fd5b506101e961020e3660046122b6565b6106ba565b34801561021f57600080fd5b50610228603d81565b604051908152602001610166565b34801561024257600080fd5b506101e961073f565b34801561025757600080fd5b506101e96102663660046122b6565b6107f0565b34801561027757600080fd5b506101b1610286366004612257565b61080b565b34801561029757600080fd5b506102286102a63660046122f2565b610816565b3480156102b757600080fd5b506101e961085e565b3480156102cc57600080fd5b506102286102db366004612257565b610872565b3480156102ec57600080fd5b506006546001600160a01b03166101b1565b34801561030a57600080fd5b506101846108ba565b34801561031f57600080fd5b506101e961032e36600461230d565b6108c9565b34801561033f57600080fd5b50600754610228565b34801561035457600080fd5b506101e961036336600461235f565b6108d4565b34801561037457600080fd5b5061022866db8ec5c71e800081565b34801561038f57600080fd5b5061018461039e366004612257565b6108ec565b3480156103af57600080fd5b5061015a6103be36600461243b565b610a27565b3480156103cf57600080fd5b506101e96103de3660046122f2565b610a55565b60006001600160e01b031982166380ac58cd60e01b148061041457506001600160e01b03198216635b5e139f60e01b145b8061042f57506301ffc9a760e01b6001600160e01b03198316145b92915050565b6060600080546104449061246e565b80601f01602080910402602001604051908101604052809291908181526020018280546104709061246e565b80156104bd5780601f10610492576101008083540402835291602001916104bd565b820191906000526020600020905b8154815290600101906020018083116104a057829003601f168201915b5050505050905090565b60006104d282610a90565b506000828152600460205260409020546001600160a01b031661042f565b6104fb828233610ac9565b5050565b603d60075410610522576040516352df9fe560e01b815260040160405180910390fd5b66db8ec5c71e800034101561054a5760405163cd1c886760e01b815260040160405180910390fd5b600060076000815461055b906124be565b91829055509050600061056f6001436124d7565b6040805191406020830152810183905233606090811b6bffffffffffffffffffffffff19169082015242607482015260940160408051601f19818403018152918152815160209283012060008581526008909352912081905590506105d43383610ad6565b604051818152829033907fc263b302aec62d29105026245f19e16f8e0137066ccd4a8bd941f716bd4096bb9060200160405180910390a3600061061e66db8ec5c71e8000346124d7565b905080156106b557604051600090339083908381818185875af1925050503d8060008114610668576040519150601f19603f3d011682016040523d82523d6000602084013e61066d565b606091505b50509050806106b35760405162461bcd60e51b815260206004820152600d60248201526c1499599d5b990819985a5b1959609a1b60448201526064015b60405180910390fd5b505b505050565b6001600160a01b0382166106e457604051633250574960e11b8152600060048201526024016106aa565b60006106f1838333610b3b565b9050836001600160a01b0316816001600160a01b0316146106b3576040516364283d7b60e01b81526001600160a01b03808616600483015260248201849052821660448201526064016106aa565b610747610c36565b600061075b6006546001600160a01b031690565b6001600160a01b03164760405160006040518083038185875af1925050503d80600081146107a5576040519150601f19603f3d011682016040523d82523d6000602084013e6107aa565b606091505b50509050806107ed5760405162461bcd60e51b815260206004820152600f60248201526e15da5d1a191c985dc819985a5b1959608a1b60448201526064016106aa565b50565b6106b5838383604051806020016040528060008152506108d4565b600061042f82610a90565b60006001600160a01b038216610842576040516322718ad960e21b8152600060048201526024016106aa565b506001600160a01b031660009081526003602052604090205490565b610866610c36565b6108706000610c63565b565b6000818152600260205260408120546001600160a01b03166108a75760405163367f2f2f60e11b815260040160405180910390fd5b5060009081526008602052604090205490565b6060600180546104449061246e565b6104fb338383610cb5565b6108df8484846106ba565b6106b33385858585610d54565b6000818152600260205260409020546060906001600160a01b03166109245760405163367f2f2f60e11b815260040160405180910390fd5b6000828152600860205260408120549061093d82610e7f565b9050816000610955610950600884612500565b610fcf565b9050600061097061096b6004602086901c612500565b611151565b9050600061097e8589611221565b9050600061098b82611282565b90506000838561099a8c6112a8565b6040516020016109ac93929190612530565b604051602081830303815290604052905060006109c88b6112a8565b8384846040516020016109de9493929190612647565b60405160208183030381529060405290506109f881611282565b604051602001610a08919061285c565b6040516020818303038152906040529950505050505050505050919050565b6001600160a01b03918216600090815260056020908152604080832093909416825291909152205460ff1690565b610a5d610c36565b6001600160a01b038116610a8757604051631e4fbdf760e01b8152600060048201526024016106aa565b6107ed81610c63565b6000818152600260205260408120546001600160a01b03168061042f57604051637e27328960e01b8152600481018490526024016106aa565b6106b5838383600161133b565b6001600160a01b038216610b0057604051633250574960e11b8152600060048201526024016106aa565b6000610b0e83836000610b3b565b90506001600160a01b038116156106b5576040516339e3563760e11b8152600060048201526024016106aa565b6000828152600260205260408120546001600160a01b0390811690831615610b6857610b68818486611441565b6001600160a01b03811615610ba657610b8560008560008061133b565b6001600160a01b038116600090815260036020526040902080546000190190555b6001600160a01b03851615610bd5576001600160a01b0385166000908152600360205260409020805460010190555b60008481526002602052604080822080546001600160a01b0319166001600160a01b0389811691821790925591518793918516917fddf252ad1be2c89b69c2b068fc378daa952ba7f163c4a11628f55a4df523b3ef91a490505b9392505050565b6006546001600160a01b031633146108705760405163118cdaa760e01b81523360048201526024016106aa565b600680546001600160a01b038381166001600160a01b0319831681179093556040519116919082907f8be0079c531659141344cd1fd0a4f28419497f9722a3daafe3b4186f6b6457e090600090a35050565b6001600160a01b038216610ce757604051630b61174360e31b81526001600160a01b03831660048201526024016106aa565b6001600160a01b03838116600081815260056020908152604080832094871680845294825291829020805460ff191686151590811790915591519182527f17307eab39ab6107e8899845ad3d59bd9653f200f220920489ca2b5937696c31910160405180910390a3505050565b6001600160a01b0383163b15610e7857604051630a85bd0160e11b81526001600160a01b0384169063150b7a0290610d969088908890879087906004016128a1565b6020604051808303816000875af1925050508015610dd1575060408051601f3d908101601f19168201909252610dce918101906128de565b60015b610e3a573d808015610dff576040519150601f19603f3d011682016040523d82523d6000602084013e610e04565b606091505b508051600003610e3257604051633250574960e11b81526001600160a01b03851660048201526024016106aa565b805160208201fd5b6001600160e01b03198116630a85bd0160e11b14610e7657604051633250574960e11b81526001600160a01b03851660048201526024016106aa565b505b5050505050565b604080518082018252601081526f181899199a1a9b1b9c1cb0b131b232b360811b6020820152815182815260608181018452926000919060208201818036833701905050905060005b6020811015610fc757826004868360208110610ee657610ee66128fb565b835191901a90911c60ff16908110610f0057610f006128fb565b01602001516001600160f81b03191682610f1b836002612911565b81518110610f2b57610f2b6128fb565b60200101906001600160f81b031916908160001a90535082858260208110610f5557610f556128fb565b1a60f81b60f81c600f1660ff1681518110610f7257610f726128fb565b01602001516001600160f81b03191682610f8d836002612911565b610f98906001612928565b81518110610fa857610fa86128fb565b60200101906001600160f81b031916908160001a905350600101610ec8565b509392505050565b60608160000361100457505060408051808201909152600f81526e436c6173736963204261756861757360881b602082015290565b8160010361103457505060408051808201909152600c81526b4461726b205072696d61727960a01b602082015290565b8160020361106457505060408051808201909152600c81526b0aecad2dac2e4408ac2e4e8d60a31b602082015290565b8160030361109657505060408051808201909152600e81526d10dbdb9cdd1c9d58dd1a5d9a5cdd60921b602082015290565b816004036110c757505060408051808201909152600d81526c4f63687265205072696d61727960981b602082015290565b816005036110f957505060408051808201909152600e81526d5761726d2047656f6d657472696360901b602082015290565b8160060361112a57505060408051808201909152600d81526c4e69676874204261756861757360981b602082015290565b505060408051808201909152600b81526a446573736175204772617960a81b602082015290565b60608160000361118757505060408051808201909152601081526f436972636c6520446f6d696e616e636560801b602082015290565b816001036111b857505060408051808201909152600d81526c11194814dd1a5a9b0811dc9a59609a1b602082015290565b816002036111f957505060408051808201909152601781527f436f6e737472756374697669737420446961676f6e616c000000000000000000602082015290565b505060408051808201909152600c81526b4e657374656420466f726d7360a01b602082015290565b606061122b6114a5565b83611235846112a8565b61123d6114ca565b6112456114ed565b61124d6114fe565b611255611a8f565b60405160200161126b979695949392919061293b565b604051602081830303815290604052905092915050565b606061042f8260405180606001604052806040815260200161367a604091396001611b2a565b606060006112b583611caa565b600101905060008167ffffffffffffffff8111156112d5576112d5612349565b6040519080825280601f01601f1916602001820160405280156112ff576020820181803683370190505b5090508181016020015b600019016f181899199a1a9b1b9c1cb0b131b232b360811b600a86061a8153600a850494508461130957509392505050565b808061134f57506001600160a01b03821615155b1561141157600061135f84610a90565b90506001600160a01b0383161580159061138b5750826001600160a01b0316816001600160a01b031614155b801561139e575061139c8184610a27565b155b156113c75760405163a9fbf51f60e01b81526001600160a01b03841660048201526024016106aa565b811561140f5783856001600160a01b0316826001600160a01b03167f8c5be1e5ebec7d5bd14f71427d1e84f3dd0314c0f7b2291e5b200ac8c7c3b92560405160405180910390a45b505b5050600090815260046020526040902080546001600160a01b0319166001600160a01b0392909216919091179055565b61144c838383611d82565b6106b5576001600160a01b03831661147a57604051637e27328960e01b8152600481018290526024016106aa565b60405163177e802f60e01b81526001600160a01b0383166004820152602481018290526044016106aa565b60606040516020016114b690612b32565b604051602081830303815290604052905090565b60606114d4611de8565b6114dc612033565b6040516020016114b69291906130ae565b60606040516020016114b6906130dd565b60606040516020016114b6907466756e6374696f6e2064726177436f6e737428297b60581b81526a62672870616c5b305d293b60a81b601582018190527f636f6e737420616e673d5b50492f362c50492f342c50492f335d5b666c6f6f726020830152672856312a33295d3b60c01b60408301527f5f63782e7361766528293b5f63782e7472616e736c617465283430302c3430306048830181905271293b5f63782e726f7461746528616e67293b60701b60688401527f5f63782e66696c6c5374796c653d70616c5b315d3b5f63782e66696c6c526563607a8401527474282d35352c2d3730302c3131302c31343030293b60581b609a8401526d5f63782e726573746f726528293b60901b60af84015260bd8301527f293b5f63782e726f7461746528616e672b50492f32293b00000000000000000060dd8301527f5f63782e66696c6c5374796c653d70616c5b325d3b5f63782e676c6f62616c4160f48301527f6c7068613d302e35353b5f63782e66696c6c52656374282d32382c2d3730302c6101148301526835362c31343030293b60b81b6101348301527f5f63782e676c6f62616c416c7068613d313b5f63782e726573746f726528293b61013d8301527f636f6e737420523d666c6f6f72283132302b56322a3930293b0000000000000061015d8301527f636f6e7374206378323d666c6f6f72283136302b56332a313230292c6379323d61017683015271666c6f6f72283536302b56342a313030293b60701b6101968301527f63697263286378322c6379322c522c70616c5b335d293b0000000000000000006101a88301527f6369726328666c6f6f72283632302b56342a3830292c666c6f6f72283136302b6101bf8301527f56312a3830292c666c6f6f7228522f504849292c70616c5b315d293b000000006101df8301527f636f6e73742074783d666c6f6f72283632302b56332a3630292c74793d666c6f6101fb8301527f6f722838302b56322a3630292c74733d666c6f6f722836302b56312a3530293b61021b8301527f7472692874782c74792c74782b74732c74792b666c6f6f722874732a5048492961023b8301527f2c74782d74732c74792b666c6f6f722874732a504849292c70616c5b325d293b61025b8301527f6c6e28302c666c6f6f72283830302f504849292c3830302c666c6f6f7228383061027b83015270302f504849292c70616c5b345d2c33293b60781b61029b830152607d60f81b6102ac83018190527566756e6374696f6e20647261774e657374656428297b60501b6102ad8401526102c38301919091527f636f6e737420757365436972636c653d56313e302e353b0000000000000000006102ce830152706c657420737a3d3732302c6369323d303b60781b6102e58301526c7768696c6528737a3e3234297b60981b6102f68301527f636f6e737420633d70616c5b312b28636932252870616c2e6c656e6774682d316103038301526329295d3b60e01b6103238301527f636f6e737420783d283830302d737a292f322c793d283830302d737a292f323b6103278301527f636f6e737420794f66663d757365436972636c653f303a666c6f6f72286369326103478301526b2a28382b56322a313229293b60a01b6103678301527f696628757365436972636c65297b63697263283430302c3430302c737a2f322c6103738301526363293b7d60e01b6103938301527f656c73657b72637428782c792b794f66662c737a2c737a2d794f66662a322c6361039783015262293b7d60e81b6103b78301527f737a3d666c6f6f7228737a2f504849293b6369322b2b3b7d00000000000000006103ba8301527f63697263283430302c3430302c666c6f6f722831322b56332a3136292c70616c6103d2830152645b345d293b60d81b6103f28301526a7068694c696e657328293b60a81b6103f78301526104028201526104030190565b6040517f696628434f4d503d3d3d302964726177436972636c6528293b0000000000000060208201527f656c736520696628434f4d503d3d3d3129647261774772696428293b0000000060398201527f656c736520696628434f4d503d3d3d322964726177436f6e737428293b000000605582015271656c736520647261774e657374656428293b60701b60728201526060906084016114b6565b60608351600003611b4a5750604080516020810190915260008152610c2f565b600082611b7b57600385516004611b619190612911565b611b6c906002612928565b611b769190613665565b611ba0565b600385516002611b8b9190612928565b611b959190613665565b611ba0906004612911565b905060008167ffffffffffffffff811115611bbd57611bbd612349565b6040519080825280601f01601f191660200182016040528015611be7576020820181803683370190505b50905060018501602082018788518901602081018051600082525b82841015611c5d576003840193508351603f8160121c168701518653600186019550603f81600c1c168701518653600186019550603f8160061c168701518653600186019550603f8116870151865350600185019450611c02565b905250508515611c9e57600388510660018114611c815760028114611c9457611c9c565b603d6001830353603d6002830353611c9c565b603d60018303535b505b50909695505050505050565b60008072184f03e93ff9f4daa797ed6e38ed64bf6a1f0160401b8310611ce95772184f03e93ff9f4daa797ed6e38ed64bf6a1f0160401b830492506040015b6d04ee2d6d415b85acef81000000008310611d15576d04ee2d6d415b85acef8100000000830492506020015b662386f26fc100008310611d3357662386f26fc10000830492506010015b6305f5e1008310611d4b576305f5e100830492506008015b6127108310611d5f57612710830492506004015b60648310611d71576064830492506002015b600a831061042f5760010192915050565b60006001600160a01b03831615801590611de05750826001600160a01b0316846001600160a01b03161480611dbc5750611dbc8484610a27565b80611de057506000828152600460205260409020546001600160a01b038481169116145b949350505050565b60606040516020016114b6906b636f6e73742050414c533d5b60a01b81527f5b2223463846374630222c2223443632383238222c2223314234463732222c22600c8201527308d18cce50cc4c888b0888cc504c504c5048974b60621b602c8201527f5b2223304430443044222c2223453633393436222c2223463444333545222c2260408201527308cc504e4ccd91888b0888d18d518d518d48974b60621b60608201527f5b2223463546304538222c2223324534303537222c2223433834423331222c2260748201527308cc0d0e104e0c488b0888cc4c4c4c4c4c48974b60621b60948201527f5b2223463546354635222c2223423830303030222c2223313131313131222c2260a88201527308ce4e4e4e4e4e488b0888d14c114c114c08974b60621b60c88201527f5b2223464646384531222c2223314131413141222c2223433632383238222c2260dc8201527308cc4d4d8d50cc088b0888ce514d908c1048974b60621b60fc8201527f5b2223463746374637222c2223464636423335222c2223303034453938222c226101108201527008d15151488b0888cc4c4c4c4c4c48974b607a1b6101308201527f5b2223313431343134222c2223464642373033222c2223464238353030222c226101418201527308cc0c8ccc0d0dc88b0888ce1150d0514d88974b60621b6101618201527f5b2223453845384538222c2223323132353239222c2223433033393242222c226101758201527223323437314133222c2223364337353744225d60681b610195820152615d3b60f01b6101a88201526101aa0190565b6040517f636f6e7374205048493d312e3631383033333938383734393839353b0000000060208201527f6c65742072733d426967496e7428223078222b53454544293b00000000000000603c8201527f636f6e737420726e643d28293d3e7b72733d2872732a3633363431333632323360558201527f3834363739333030356e2b313434323639353034303838383936333430376e2960758201527f2631383434363734343037333730393535313631356e3b00000000000000000060958201527f72657475726e204e756d62657228727326343239343936373239356e292f343260ac8201526a39343936373239353b7d3b60a81b60cc8201527f636f6e73742070616c3d50414c535b666c6f6f7228726e6428292a38295d3b0060d78201527f636f6e737420434f4d503d666c6f6f7228726e6428292a34293b00000000000060f68201527f636f6e73742056313d726e6428292c56323d726e6428292c56333d726e642829610110820152692c56343d726e6428293b60b01b61013082015260609061013a016114b6565b6001600160e01b0319811681146107ed57600080fd5b6000602082840312156121e957600080fd5b8135610c2f816121c1565b60005b8381101561220f5781810151838201526020016121f7565b50506000910152565b600081518084526122308160208601602086016121f4565b601f01601f19169290920160200192915050565b602081526000610c2f6020830184612218565b60006020828403121561226957600080fd5b5035919050565b80356001600160a01b038116811461228757600080fd5b919050565b6000806040838503121561229f57600080fd5b6122a883612270565b946020939093013593505050565b6000806000606084860312156122cb57600080fd5b6122d484612270565b92506122e260208501612270565b9150604084013590509250925092565b60006020828403121561230457600080fd5b610c2f82612270565b6000806040838503121561232057600080fd5b61232983612270565b91506020830135801515811461233e57600080fd5b809150509250929050565b634e487b7160e01b600052604160045260246000fd5b6000806000806080858703121561237557600080fd5b61237e85612270565b935061238c60208601612270565b925060408501359150606085013567ffffffffffffffff808211156123b057600080fd5b818701915087601f8301126123c457600080fd5b8135818111156123d6576123d6612349565b604051601f8201601f19908116603f011681019083821181831017156123fe576123fe612349565b816040528281528a602084870101111561241757600080fd5b82602086016020830137600060208483010152809550505050505092959194509250565b6000806040838503121561244e57600080fd5b61245783612270565b915061246560208401612270565b90509250929050565b600181811c9082168061248257607f821691505b6020821081036124a257634e487b7160e01b600052602260045260246000fd5b50919050565b634e487b7160e01b600052601160045260246000fd5b6000600182016124d0576124d06124a8565b5060010190565b8181038181111561042f5761042f6124a8565b634e487b7160e01b600052601260045260246000fd5b60008261250f5761250f6124ea565b500690565b600081516125268185602086016121f4565b9290920192915050565b605b60f81b81527f7b2274726169745f74797065223a22436f6d706f736974696f6e222c2276616c6001820152643ab2911d1160d91b602182015283516000906125818160268501602089016121f4565b62089f4b60ea1b6026918401918201527f7b2274726169745f74797065223a2250616c65747465222c2276616c7565223a6029820152601160f91b604982015284516125d481604a8401602089016121f4565b016125e7604a820162089f4b60ea1b9052565b7f7b2274726169745f74797065223a2245646974696f6e222c2276616c7565223a604d820152601160f91b606d820152612625606e82015b85612514565b642f3631227d60d81b8152605d60f81b60058201526006019695505050505050565b7f7b226e616d65223a22476f6c64656e20526174696f202300000000000000000081526000855161267f816017850160208a016121f4565b61088b60f21b6017918401918201527f226465736372697074696f6e223a2246756c6c79206f6e636861696e2042617560198201527403430bab99033b2b732b930ba34bb329030b93a171605d1b60398201527f47656f6d657472696320636f6d706f736974696f6e732064726976656e206279604e8201526d010383434901e9018971b189c17160951b606e82015261279b61275e607c83017f3420636f6d706f736974696f6e2074797065732c20382070616c65747465732c8152720101b18903ab734b8bab2903834b2b1b2b9971606d1b602082015260330190565b7f52656e646572656420656e746972656c79206f6e636861696e2066726f6d206d81526a1a5b9d081cd959590b888b60aa1b6020820152602b0190565b7f22696d616765223a22646174613a746578742f68746d6c3b6261736536342c00815290506127cd601f820187612514565b61088b60f21b815290507f22616e696d6174696f6e5f75726c223a22646174613a746578742f68746d6c3b60028201526618985cd94d8d0b60ca1b602282015261281a6029820186612514565b61088b60f21b815290506c1130ba3a3934b13aba32b9911d60991b6002820152612847600f820185612514565b607d60f81b8152600101979650505050505050565b7f646174613a6170706c69636174696f6e2f6a736f6e3b6261736536342c00000081526000825161289481601d8501602087016121f4565b91909101601d0192915050565b6001600160a01b03858116825284166020820152604081018390526080606082018190526000906128d490830184612218565b9695505050505050565b6000602082840312156128f057600080fd5b8151610c2f816121c1565b634e487b7160e01b600052603260045260246000fd5b808202811582820484141761042f5761042f6124a8565b8082018082111561042f5761042f6124a8565b7f3c21444f43545950452068746d6c3e3c68746d6c3e3c686561643e3c6d6574618152701031b430b939b2ba1e913aba33169c111f60791b60208201527f3c7374796c653e2a7b6d617267696e3a303b70616464696e673a307d626f647960318201527f7b6261636b67726f756e643a233030303b646973706c61793a666c65783b000060518201527f616c69676e2d6974656d733a63656e7465723b6a7573746966792d636f6e7465606f8201527f6e743a63656e7465723b6d696e2d6865696768743a31303076683b6f76657266608f8201526a6c6f773a68696464656e7d60a81b60af8201527f63616e7661737b6d61782d77696474683a313030766d696e3b6d61782d68656960ba8201527333b43a1d1898183b36b4b73e9e17b9ba3cb6329f60611b60da820152600060ee8201741e17b432b0b21f1e3137b23c9f1e39b1b934b83a1f60591b8152612a95601582018b612514565b6b31b7b739ba1029a2a2a21e9160a11b81529050612ab6600c82018a612514565b67222c544f4b454e3d60c01b81529050612ad36008820189612514565b603b60f81b81529050612afe61261f612af8612af2600185018b612514565b89612514565b87612514565b7f3c2f7363726970743e3c2f626f64793e3c2f68746d6c3e00000000000000000081526017019a9950505050505050505050565b7f636f6e7374205f63763d646f63756d656e742e637265617465456c656d656e7481526a0a0898d85b9d985cc88a4b60aa1b60208201527f5f63783d5f63762e676574436f6e746578742822326422293b00000000000000602b8201527f5f63762e77696474683d5f63762e6865696768743d3830303b0000000000000060448201527f646f63756d656e742e626f64792e617070656e644368696c64285f6376293b00605d8201527f636f6e737420636f733d4d6174682e636f732c73696e3d4d6174682e73696e2c607c8201527f737172743d4d6174682e737172742c6162733d4d6174682e6162732c00000000609c8201527f50493d4d6174682e50492c54574f5f50493d50492a322c666c6f6f723d4d617460b88201527f682e666c6f6f722c726f756e643d4d6174682e726f756e643b0000000000000060d88201527f66756e6374696f6e2062672863297b5f63782e66696c6c5374796c653d633b5f60f18201527f63782e66696c6c5265637428302c302c3830302c383030293b7d000000000000610111820152600061012b82017f66756e6374696f6e2066632863297b5f63782e66696c6c5374796c653d633b7d81527f66756e6374696f6e20736328632c77297b5f63782e7374726f6b655374796c6560208201527f3d633b5f63782e6c696e6557696474683d777c7c323b7d00000000000000000060408201527f66756e6374696f6e206369726328782c792c722c66696c6c2c7363322c7377296057820152607b60f81b6077820152612f1a612eb8612e73612e3f612df0612db6607887017f5f63782e626567696e5061746828293b5f63782e61726328782c792c722c302c81526754574f5f5049293b60c01b602082015260280190565b7f69662866696c6c297b5f63782e66696c6c5374796c653d66696c6c3b5f63782e81526766696c6c28293b7d60c01b602082015260280190565b7f696628736332297b5f63782e7374726f6b655374796c653d7363323b5f63782e81527f6c696e6557696474683d73777c7c323b5f63782e7374726f6b6528293b7d7d006020820152603f0190565b7f66756e6374696f6e2072637428782c792c772c682c66696c6c2c7363322c7377815261297b60f01b602082015260220190565b7f69662866696c6c297b5f63782e66696c6c5374796c653d66696c6c3b5f63782e81527266696c6c5265637428782c792c772c68293b7d60681b602082015260330190565b7f696628736332297b5f63782e7374726f6b655374796c653d7363323b5f63782e81527f6c696e6557696474683d73777c7c323b5f63782e7374726f6b655265637428786020820152692c792c772c68293b7d7d60b01b6040820152604a0190565b7f66756e6374696f6e206c6e2878312c79312c78322c79322c632c77297b00000081527f5f63782e626567696e5061746828293b5f63782e6d6f7665546f2878312c7931601d82015273293b5f63782e6c696e65546f2878322c7932293b60601b603d8201527f5f63782e7374726f6b655374796c653d633b5f63782e6c696e6557696474683d605182015272777c7c323b5f63782e7374726f6b6528293b7d60681b60718201527f66756e6374696f6e207472692861782c61792c62782c62792c6378322c6379326084820152662c66696c6c297b60c81b60a48201527f5f63782e626567696e5061746828293b5f63782e6d6f7665546f2861782c617960ab8201527f293b5f63782e6c696e65546f2862782c6279293b5f63782e6c696e65546f286360cb8201526778322c637932293b60c01b60eb8201527f5f63782e636c6f73655061746828293b69662866696c6c297b5f63782e66696c60f38201527f6c5374796c653d66696c6c3b5f63782e66696c6c28293b7d7d00000000000000610113820152905061012c8101610c2f565b600083516130c08184602088016121f4565b8351908301906130d48183602088016121f4565b01949350505050565b7366756e6374696f6e207068694c696e657328297b60601b81527f636f6e73742067313d666c6f6f72283830302f504849292c67323d666c6f6f7260148201527f283830302d3830302f504849292c6c633d70616c5b345d3b000000000000000060348201526000604c8201746c6e28302c67322c3830302c67322c6c632c31293b60581b8152756c6e2867312c302c67312c3830302c6c632c31293b7d60501b60158201527566756e6374696f6e2064726177436972636c6528297b60501b602b8201526a62672870616c5b305d293b60a81b60418201527f636f6e737420523d666c6f6f72283235302b56312a3530293b00000000000000604c8201527f636f6e73742052323d666c6f6f7228522f504849292c52333d666c6f6f7228526065820152692f5048492f504849293b60b01b6085820152613260608f82017f636f6e7374206f783d666c6f6f72282856322d2e35292a313430292c6f793d668152716c6f6f72282856332d2e35292a313030293b60701b602082015260320190565b7f63697263283430302b6f782c3430302b6f792c522c70616c5b315d293b00000081527f63697263283430302b6f782b666c6f6f7228522a2e3535292c3430302b6f792d601d8201527f666c6f6f722852322a2e3335292c52322c70616c5b325d293b00000000000000603d8201527f63697263283430302b6f782d666c6f6f722852332a2e39292c3430302b6f792b60568201527f666c6f6f722852322a2e38292c52332c70616c5b335d293b000000000000000060768201527f63697263283430302c3430302c666c6f6f7228522a5048492a2e3438292c6e75608e8201526c6c6c2c70616c5b345d2c32293b60981b60ae8201526a7068694c696e657328293b60a81b60bb8201527f6c6e28302c3430302c3830302c3430302c70616c5b345d2c31293b000000000060c6820152607d60f81b60e182018190527366756e6374696f6e20647261774772696428297b60601b60e28301526a62672870616c5b305d293b60a81b60f68301527f636f6e73742047313d666c6f6f72283830302f504849293b00000000000000006101018301526f636f6e73742047323d3830302d47313b60801b6101198301527f636f6e73742047333d666c6f6f722847322f504849293b0000000000000000006101298301526e636f6e73742047343d47322d47333b60881b6101408301527f636f6e73742047353d666c6f6f722847332f504849293b00000000000000000061014f8301527572637428302c302c47332c47332c70616c5b315d293b60501b6101668301527f7263742847312c302c47322c47312c70616c5b325d293b00000000000000000061017c8301527f72637428302c47312c47332c47322c70616c5b335d293b0000000000000000006101938301527f7263742847332c47312d47342c47312d47332c47342c70616c5b325d293b00006101aa8301527f7263742847312b47352c47312b47352c47342d47352c47342d47352c70616c5b6101c883015263335d293b60e01b6101e883015274636f6e737420676c3d70616c5b345d2c67773d353b60581b6101ec830152756c6e2847332c302c47332c3830302c676c2c6777293b60501b610201830152756c6e2847312c302c47312c3830302c676c2c6777293b60501b610217830152756c6e28302c47332c3830302c47332c676c2c6777293b60501b61022d830152756c6e28302c47312c3830302c47312c676c2c6777293b60501b6102438301527f6c6e2847332c47312d47342c47312c47312d47342c676c2c6777293b000000006102598301527f5f63782e7374726f6b655374796c653d676c3b5f63782e6c696e6557696474686102758301527f3d67773b5f63782e7374726f6b655265637428302c302c3830302c383030293b6102958301526102b58201526102b6019392505050565b600082613674576136746124ea565b50049056fe4142434445464748494a4b4c4d4e4f505152535455565758595a6162636465666768696a6b6c6d6e6f707172737475767778797a303132333435363738392b2fa2646970667358221220c46a80afdb44ea5d4b05d7e8c96895661abf1572fce6ae7edef9dc9ca9a86e2d64736f6c63430008180033",
  "linkReferences": {},
  "deployedLinkReferences": {}
}