{
  "_format": "hh-sol-artifact-1",
  "contractName": "GoldenRatio",
  "sourceName": "contracts/GoldenRatio.sol",
  "abi": [
    {
      "inputs": [],
      "stateMutability": "nonpayable",
      "type": "constructor"
    },
    {
      "inputs": [
        {
          "internalType": "uint256",
          "name": "numerator",
          "type": "uint256"
        },
        {
          "internalType": "uint256",
          "name": "denominator",
          "type": "uint256"
        }
      ],
      "name": "ERC2981InvalidDefaultRoyalty",
      "type": "error"
    },
    {
      "inputs": [
        {
          "internalType": "address",
          "name": "receiver",
          "type": "address"
        }
      ],
      "name": "ERC2981InvalidDefaultRoyaltyReceiver",
      "type": "error"
    },
    {
      "inputs": [
        {
          "internalType": "uint256",
          "name": "tokenId",
          "type": "uint256"
        },
        {
          "internalType": "uint256",
          "name": "numerator",
          "type": "uint256"
        },
        {
          "internalType": "uint256",
          "name": "denominator",
          "type": "uint256"
        }
      ],
      "name": "ERC2981InvalidTokenRoyalty",
      "type": "error"
    },
    {
      "inputs": [
        {
          "internalType": "uint256",
          "name": "tokenId",
          "type": "uint256"
        },
        {
          "internalType": "address",
          "name": "receiver",
          "type": "address"
        }
      ],
      "name": "ERC2981InvalidTokenRoyaltyReceiver",
      "type": "error"
    },
    {
      "inputs": [
        {
          "internalType": "address",
          "name": "sender",
          "type": "address"
        },
        {
          "internalType": "uint256",
          "name": "tokenId",
          "type": "uint256"
        },
        {
          "internalType": "address",
          "name": "owner",
          "type": "address"
        }
      ],
      "name": "ERC721IncorrectOwner",
      "type": "error"
    },
    {
      "inputs": [
        {
          "internalType": "address",
          "name": "operator",
          "type": "address"
        },
        {
          "internalType": "uint256",
          "name": "tokenId",
          "type": "uint256"
        }
      ],
      "name": "ERC721InsufficientApproval",
      "type": "error"
    },
    {
      "inputs": [
        {
          "internalType": "address",
          "name": "approver",
          "type": "address"
        }
      ],
      "name": "ERC721InvalidApprover",
      "type": "error"
    },
    {
      "inputs": [
        {
          "internalType": "address",
          "name": "operator",
          "type": "address"
        }
      ],
      "name": "ERC721InvalidOperator",
      "type": "error"
    },
    {
      "inputs": [
        {
          "internalType": "address",
          "name": "owner",
          "type": "address"
        }
      ],
      "name": "ERC721InvalidOwner",
      "type": "error"
    },
    {
      "inputs": [
        {
          "internalType": "address",
          "name": "receiver",
          "type": "address"
        }
      ],
      "name": "ERC721InvalidReceiver",
      "type": "error"
    },
    {
      "inputs": [
        {
          "internalType": "address",
          "name": "sender",
          "type": "address"
        }
      ],
      "name": "ERC721InvalidSender",
      "type": "error"
    },
    {
      "inputs": [
        {
          "internalType": "uint256",
          "name": "tokenId",
          "type": "uint256"
        }
      ],
      "name": "ERC721NonexistentToken",
      "type": "error"
    },
    {
      "inputs": [],
      "name": "InsufficientPayment",
      "type": "error"
    },
    {
      "inputs": [],
      "name": "Nonexistent",
      "type": "error"
    },
    {
      "inputs": [
        {
          "internalType": "address",
          "name": "owner",
          "type": "address"
        }
      ],
      "name": "OwnableInvalidOwner",
      "type": "error"
    },
    {
      "inputs": [
        {
          "internalType": "address",
          "name": "account",
          "type": "address"
        }
      ],
      "name": "OwnableUnauthorizedAccount",
      "type": "error"
    },
    {
      "inputs": [],
      "name": "ReentrancyGuardReentrantCall",
      "type": "error"
    },
    {
      "inputs": [],
      "name": "SoldOut",
      "type": "error"
    },
    {
      "inputs": [
        {
          "internalType": "uint256",
          "name": "value",
          "type": "uint256"
        },
        {
          "internalType": "uint256",
          "name": "length",
          "type": "uint256"
        }
      ],
      "name": "StringsInsufficientHexLength",
      "type": "error"
    },
    {
      "anonymous": false,
      "inputs": [
        {
          "indexed": true,
          "internalType": "address",
          "name": "owner",
          "type": "address"
        },
        {
          "indexed": true,
          "internalType": "address",
          "name": "approved",
          "type": "address"
        },
        {
          "indexed": true,
          "internalType": "uint256",
          "name": "tokenId",
          "type": "uint256"
        }
      ],
      "name": "Approval",
      "type": "event"
    },
    {
      "anonymous": false,
      "inputs": [
        {
          "indexed": true,
          "internalType": "address",
          "name": "owner",
          "type": "address"
        },
        {
          "indexed": true,
          "internalType": "address",
          "name": "operator",
          "type": "address"
        },
        {
          "indexed": false,
          "internalType": "bool",
          "name": "approved",
          "type": "bool"
        }
      ],
      "name": "ApprovalForAll",
      "type": "event"
    },
    {
      "anonymous": false,
      "inputs": [
        {
          "indexed": true,
          "internalType": "address",
          "name": "to",
          "type": "address"
        },
        {
          "indexed": true,
          "internalType": "uint256",
          "name": "tokenId",
          "type": "uint256"
        },
        {
          "indexed": false,
          "internalType": "bytes32",
          "name": "seed",
          "type": "bytes32"
        }
      ],
      "name": "Minted",
      "type": "event"
    },
    {
      "anonymous": false,
      "inputs": [
        {
          "indexed": true,
          "internalType": "address",
          "name": "previousOwner",
          "type": "address"
        },
        {
          "indexed": true,
          "internalType": "address",
          "name": "newOwner",
          "type": "address"
        }
      ],
      "name": "OwnershipTransferred",
      "type": "event"
    },
    {
      "anonymous": false,
      "inputs": [
        {
          "indexed": true,
          "internalType": "address",
          "name": "from",
          "type": "address"
        },
        {
          "indexed": true,
          "internalType": "address",
          "name": "to",
          "type": "address"
        },
        {
          "indexed": true,
          "internalType": "uint256",
          "name": "tokenId",
          "type": "uint256"
        }
      ],
      "name": "Transfer",
      "type": "event"
    },
    {
      "inputs": [],
      "name": "MAX_SUPPLY",
      "outputs": [
        {
          "internalType": "uint256",
          "name": "",
          "type": "uint256"
        }
      ],
      "stateMutability": "view",
      "type": "function"
    },
    {
      "inputs": [],
      "name": "MINT_PRICE",
      "outputs": [
        {
          "internalType": "uint256",
          "name": "",
          "type": "uint256"
        }
      ],
      "stateMutability": "view",
      "type": "function"
    },
    {
      "inputs": [
        {
          "internalType": "address",
          "name": "to",
          "type": "address"
        },
        {
          "internalType": "uint256",
          "name": "tokenId",
          "type": "uint256"
        }
      ],
      "name": "approve",
      "outputs": [],
      "stateMutability": "nonpayable",
      "type": "function"
    },
    {
      "inputs": [
        {
          "internalType": "address",
          "name": "owner",
          "type": "address"
        }
      ],
      "name": "balanceOf",
      "outputs": [
        {
          "internalType": "uint256",
          "name": "",
          "type": "uint256"
        }
      ],
      "stateMutability": "view",
      "type": "function"
    },
    {
      "inputs": [],
      "name": "contractURI",
      "outputs": [
        {
          "internalType": "string",
          "name": "",
          "type": "string"
        }
      ],
      "stateMutability": "view",
      "type": "function"
    },
    {
      "inputs": [
        {
          "internalType": "uint256",
          "name": "tokenId",
          "type": "uint256"
        }
      ],
      "name": "getApproved",
      "outputs": [
        {
          "internalType": "address",
          "name": "",
          "type": "address"
        }
      ],
      "stateMutability": "view",
      "type": "function"
    },
    {
      "inputs": [
        {
          "internalType": "address",
          "name": "owner",
          "type": "address"
        },
        {
          "internalType": "address",
          "name": "operator",
          "type": "address"
        }
      ],
      "name": "isApprovedForAll",
      "outputs": [
        {
          "internalType": "bool",
          "name": "",
          "type": "bool"
        }
      ],
      "stateMutability": "view",
      "type": "function"
    },
    {
      "inputs": [],
      "name": "mint",
      "outputs": [],
      "stateMutability": "payable",
      "type": "function"
    },
    {
      "inputs": [
        {
          "internalType": "address",
          "name": "to",
          "type": "address"
        }
      ],
      "name": "mintTo",
      "outputs": [],
      "stateMutability": "nonpayable",
      "type": "function"
    },
    {
      "inputs": [],
      "name": "name",
      "outputs": [
        {
          "internalType": "string",
          "name": "",
          "type": "string"
        }
      ],
      "stateMutability": "view",
      "type": "function"
    },
    {
      "inputs": [],
      "name": "owner",
      "outputs": [
        {
          "internalType": "address",
          "name": "",
          "type": "address"
        }
      ],
      "stateMutability": "view",
      "type": "function"
    },
    {
      "inputs": [
        {
          "internalType": "uint256",
          "name": "tokenId",
          "type": "uint256"
        }
      ],
      "name": "ownerOf",
      "outputs": [
        {
          "internalType": "address",
          "name": "",
          "type": "address"
        }
      ],
      "stateMutability": "view",
      "type": "function"
    },
    {
      "inputs": [],
      "name": "renounceOwnership",
      "outputs": [],
      "stateMutability": "nonpayable",
      "type": "function"
    },
    {
      "inputs": [
        {
          "internalType": "uint256",
          "name": "tokenId",
          "type": "uint256"
        },
        {
          "internalType": "uint256",
          "name": "salePrice",
          "type": "uint256"
        }
      ],
      "name": "royaltyInfo",
      "outputs": [
        {
          "internalType": "address",
          "name": "receiver",
          "type": "address"
        },
        {
          "internalType": "uint256",
          "name": "amount",
          "type": "uint256"
        }
      ],
      "stateMutability": "view",
      "type": "function"
    },
    {
      "inputs": [
        {
          "internalType": "address",
          "name": "from",
          "type": "address"
        },
        {
          "internalType": "address",
          "name": "to",
          "type": "address"
        },
        {
          "internalType": "uint256",
          "name": "tokenId",
          "type": "uint256"
        }
      ],
      "name": "safeTransferFrom",
      "outputs": [],
      "stateMutability": "nonpayable",
      "type": "function"
    },
    {
      "inputs": [
        {
          "internalType": "address",
          "name": "from",
          "type": "address"
        },
        {
          "internalType": "address",
          "name": "to",
          "type": "address"
        },
        {
          "internalType": "uint256",
          "name": "tokenId",
          "type": "uint256"
        },
        {
          "internalType": "bytes",
          "name": "data",
          "type": "bytes"
        }
      ],
      "name": "safeTransferFrom",
      "outputs": [],
      "stateMutability": "nonpayable",
      "type": "function"
    },
    {
      "inputs": [
        {
          "internalType": "uint256",
          "name": "tokenId",
          "type": "uint256"
        }
      ],
      "name": "seedOf",
      "outputs": [
        {
          "internalType": "bytes32",
          "name": "",
          "type": "bytes32"
        }
      ],
      "stateMutability": "view",
      "type": "function"
    },
    {
      "inputs": [
        {
          "internalType": "address",
          "name": "operator",
          "type": "address"
        },
        {
          "internalType": "bool",
          "name": "approved",
          "type": "bool"
        }
      ],
      "name": "setApprovalForAll",
      "outputs": [],
      "stateMutability": "nonpayable",
      "type": "function"
    },
    {
      "inputs": [
        {
          "internalType": "address",
          "name": "receiver",
          "type": "address"
        },
        {
          "internalType": "uint96",
          "name": "feeNumerator",
          "type": "uint96"
        }
      ],
      "name": "setRoyalty",
      "outputs": [],
      "stateMutability": "nonpayable",
      "type": "function"
    },
    {
      "inputs": [
        {
          "internalType": "bytes4",
          "name": "interfaceId",
          "type": "bytes4"
        }
      ],
      "name": "supportsInterface",
      "outputs": [
        {
          "internalType": "bool",
          "name": "",
          "type": "bool"
        }
      ],
      "stateMutability": "view",
      "type": "function"
    },
    {
      "inputs": [],
      "name": "symbol",
      "outputs": [
        {
          "internalType": "string",
          "name": "",
          "type": "string"
        }
      ],
      "stateMutability": "view",
      "type": "function"
    },
    {
      "inputs": [
        {
          "internalType": "uint256",
          "name": "tokenId",
          "type": "uint256"
        }
      ],
      "name": "tokenURI",
      "outputs": [
        {
          "internalType": "string",
          "name": "",
          "type": "string"
        }
      ],
      "stateMutability": "view",
      "type": "function"
    },
    {
      "inputs": [],
      "name": "totalMinted",
      "outputs": [
        {
          "internalType": "uint256",
          "name": "",
          "type": "uint256"
        }
      ],
      "stateMutability": "view",
      "type": "function"
    },
    {
      "inputs": [],
      "name": "totalSupply",
      "outputs": [
        {
          "internalType": "uint256",
          "name": "",
          "type": "uint256"
        }
      ],
      "stateMutability": "view",
      "type": "function"
    },
    {
      "inputs": [
        {
          "internalType": "address",
          "name": "from",
          "type": "address"
        },
        {
          "internalType": "address",
          "name": "to",
          "type": "address"
        },
        {
          "internalType": "uint256",
          "name": "tokenId",
          "type": "uint256"
        }
      ],
      "name": "transferFrom",
      "outputs": [],
      "stateMutability": "nonpayable",
      "type": "function"
    },
    {
      "inputs": [
        {
          "internalType": "address",
          "name": "newOwner",
          "type": "address"
        }
      ],
      "name": "transferOwnership",
      "outputs": [],
      "stateMutability": "nonpayable",
      "type": "function"
    },
    {
      "inputs": [],
      "name": "withdraw",
      "outputs": [],
      "stateMutability": "nonpayable",
      "type": "function"
    }
  ],
  "bytecode": "0x60806040523480156200001157600080fd5b50336040518060400160405280600c81526020016b476f6c64656e20526174696f60a01b8152506040518060400160405280600381526020016250484960e81b81525081600090816200006591906200026c565b5060016200007482826200026c565b5050506001600160a01b038116620000a757604051631e4fbdf760e01b8152600060048201526024015b60405180910390fd5b620000b281620000cc565b506001600955620000c6336101f46200011e565b62000338565b600880546001600160a01b038381166001600160a01b0319831681179093556040519116919082907f8be0079c531659141344cd1fd0a4f28419497f9722a3daafe3b4186f6b6457e090600090a35050565b6127106001600160601b0382168110156200015f57604051636f483d0960e01b81526001600160601b0383166004820152602481018290526044016200009e565b6001600160a01b0383166200018b57604051635b6cc80560e11b8152600060048201526024016200009e565b50604080518082019091526001600160a01b039092168083526001600160601b039091166020909201829052600160a01b90910217600655565b634e487b7160e01b600052604160045260246000fd5b600181811c90821680620001f057607f821691505b6020821081036200021157634e487b7160e01b600052602260045260246000fd5b50919050565b601f82111562000267576000816000526020600020601f850160051c81016020861015620002425750805b601f850160051c820191505b8181101562000263578281556001016200024e565b5050505b505050565b81516001600160401b03811115620002885762000288620001c5565b620002a081620002998454620001db565b8462000217565b602080601f831160018114620002d85760008415620002bf5750858301515b600019600386901b1c1916600185901b17855562000263565b600085815260208120601f198616915b828110156200030957888601518255948401946001909101908401620002e8565b5085821015620003285787850151600019600388901b60f8161c191681555b5050505050600190811b01905550565b6145ed80620003486000396000f3fe60806040526004361061019c5760003560e01c8063715018a6116100ec578063a2309ff81161008a578063c87b56dd11610064578063c87b56dd14610465578063e8a3d48514610485578063e985e9c51461049a578063f2fde38b146104ba57600080fd5b8063a2309ff81461025a578063b88d4fde1461042a578063c002d23d1461044a57600080fd5b80638da5cb5b116100c65780638da5cb5b146103b75780638f2fc60b146103d557806395d89b41146103f5578063a22cb4651461040a57600080fd5b8063715018a614610362578063755edd171461037757806382829f741461039757600080fd5b806323b872dd116101595780633ccfd60b116101335780633ccfd60b146102ed57806342842e0e146103025780636352211e1461032257806370a082311461034257600080fd5b806323b872dd146102795780632a55205a1461029957806332cb6b0c146102d857600080fd5b806301ffc9a7146101a157806306fdde03146101d6578063081812fc146101f8578063095ea7b3146102305780631249c58b1461025257806318160ddd1461025a575b600080fd5b3480156101ad57600080fd5b506101c16101bc366004612d09565b6104da565b60405190151581526020015b60405180910390f35b3480156101e257600080fd5b506101eb6104eb565b6040516101cd9190612d76565b34801561020457600080fd5b50610218610213366004612d89565b61057d565b6040516001600160a01b0390911681526020016101cd565b34801561023c57600080fd5b5061025061024b366004612dbe565b6105a6565b005b6102506105b5565b34801561026657600080fd5b50600a545b6040519081526020016101cd565b34801561028557600080fd5b50610250610294366004612de8565b6105d2565b3480156102a557600080fd5b506102b96102b4366004612e24565b610662565b604080516001600160a01b0390931683526020830191909152016101cd565b3480156102e457600080fd5b5061026b603d81565b3480156102f957600080fd5b506102506106e7565b34801561030e57600080fd5b5061025061031d366004612de8565b610798565b34801561032e57600080fd5b5061021861033d366004612d89565b6107b8565b34801561034e57600080fd5b5061026b61035d366004612e46565b6107c3565b34801561036e57600080fd5b5061025061080b565b34801561038357600080fd5b50610250610392366004612e46565b61081d565b3480156103a357600080fd5b5061026b6103b2366004612d89565b61082e565b3480156103c357600080fd5b506008546001600160a01b0316610218565b3480156103e157600080fd5b506102506103f0366004612e61565b610876565b34801561040157600080fd5b506101eb6108cd565b34801561041657600080fd5b50610250610425366004612ea4565b6108dc565b34801561043657600080fd5b50610250610445366004612eeb565b6108e7565b34801561045657600080fd5b5061026b66db8ec5c71e800081565b34801561047157600080fd5b506101eb610480366004612d89565b6108ff565b34801561049157600080fd5b506101eb610aa9565b3480156104a657600080fd5b506101c16104b5366004612fc7565b610b21565b3480156104c657600080fd5b506102506104d5366004612e46565b610b4f565b60006104e582610b8a565b92915050565b6060600080546104fa90612ffa565b80601f016020809104026020016040519081016040528092919081815260200182805461052690612ffa565b80156105735780601f1061054857610100808354040283529160200191610573565b820191906000526020600020905b81548152906001019060200180831161055657829003601f168201915b5050505050905090565b600061058882610baf565b506000828152600460205260409020546001600160a01b03166104e5565b6105b1828233610be8565b5050565b6105bd610bf5565b6105c633610c1f565b6105d06001600955565b565b6001600160a01b03821661060157604051633250574960e11b8152600060048201526024015b60405180910390fd5b600061060e838333610dcf565b9050836001600160a01b0316816001600160a01b03161461065c576040516364283d7b60e01b81526001600160a01b03808616600483015260248201849052821660448201526064016105f8565b50505050565b600082815260076020526040812080548291906001600160a01b03811690600160a01b90046001600160601b0316816106b65750506006546001600160a01b03811690600160a01b90046001600160601b03165b60006127106106ce6001600160601b0384168961304a565b6106d89190613061565b92989297509195505050505050565b6106ef610eca565b60006107036008546001600160a01b031690565b6001600160a01b03164760405160006040518083038185875af1925050503d806000811461074d576040519150601f19603f3d011682016040523d82523d6000602084013e610752565b606091505b50509050806107955760405162461bcd60e51b815260206004820152600f60248201526e15da5d1a191c985dc819985a5b1959608a1b60448201526064016105f8565b50565b6107b3838383604051806020016040528060008152506108e7565b505050565b60006104e582610baf565b60006001600160a01b0382166107ef576040516322718ad960e21b8152600060048201526024016105f8565b506001600160a01b031660009081526003602052604090205490565b610813610eca565b6105d06000610ef7565b610825610eca565b61079581610c1f565b6000818152600260205260408120546001600160a01b03166108635760405163367f2f2f60e11b815260040160405180910390fd5b506000908152600b602052604090205490565b61087e610eca565b6103e8816001600160601b031611156108c35760405162461bcd60e51b81526020600482015260076024820152664d61782031302560c81b60448201526064016105f8565b6105b18282610f49565b6060600180546104fa90612ffa565b6105b1338383610fec565b6108f28484846105d2565b61065c338585858561108b565b6000818152600260205260409020546060906001600160a01b03166109375760405163367f2f2f60e11b815260040160405180910390fd5b6000828152600b60205260408120549067ffffffffffffffff6714057b7ef767814f675851f42d4c957f2d80850282018381169491850290920190921691906401000000009061098e9063ffffffff16600861304a565b6109989190613061565b905060006401000000006109b363ffffffff8516600461304a565b6109bd9190613061565b905060006109cb88846111b6565b905060006109d882611216565b905060006109ee6109e88961123c565b8b61138c565b905060006109fb82611216565b90506000610a08866113ed565b610a11886114bd565b610a1a8e61163f565b604051602001610a2c9392919061309f565b60405160208183030381529060405290506000610a488d61163f565b858484604051602001610a5e94939291906131fd565b6040516020818303038152906040529050610a7881611216565b604051602001610a88919061339f565b6040516020818303038152906040529b505050505050505050505050919050565b60606000610ad2610ac26008546001600160a01b031690565b6001600160a01b031660146116d2565b604051602001610ae291906133e4565b6040516020818303038152906040529050610afc81611216565b604051602001610b0c919061339f565b60405160208183030381529060405291505090565b6001600160a01b03918216600090815260056020908152604080832093909416825291909152205460ff1690565b610b57610eca565b6001600160a01b038116610b8157604051631e4fbdf760e01b8152600060048201526024016105f8565b61079581610ef7565b60006001600160e01b0319821663152a902d60e11b14806104e557506104e582611852565b6000818152600260205260408120546001600160a01b0316806104e557604051637e27328960e01b8152600481018490526024016105f8565b6107b383838360016118a2565b600260095403610c1857604051633ee5aeb560e01b815260040160405180910390fd5b6002600955565b603d600a5410610c42576040516352df9fe560e01b815260040160405180910390fd5b6008546001600160a01b03163314801590610c63575066db8ec5c71e800034105b15610c815760405163cd1c886760e01b815260040160405180910390fd5b6000600a60008154610c9290613539565b918290555090506000610ca6600143613552565b60408051914060208301528101839052606084811b6bffffffffffffffffffffffff19169082015242607482015260940160408051601f1981840301815291815281516020928301206000858152600b90935291208190559050610d0a83836119a8565b81836001600160a01b03167fc263b302aec62d29105026245f19e16f8e0137066ccd4a8bd941f716bd4096bb83604051610d4691815260200190565b60405180910390a3600066db8ec5c71e80003411610d65576000610d76565b610d7666db8ec5c71e800034613552565b9050801561065c57604051600090339083908381818185875af1925050503d8060008114610dc0576040519150601f19603f3d011682016040523d82523d6000602084013e610dc5565b606091505b5050505050505050565b6000828152600260205260408120546001600160a01b0390811690831615610dfc57610dfc818486611a0d565b6001600160a01b03811615610e3a57610e196000856000806118a2565b6001600160a01b038116600090815260036020526040902080546000190190555b6001600160a01b03851615610e69576001600160a01b0385166000908152600360205260409020805460010190555b60008481526002602052604080822080546001600160a01b0319166001600160a01b0389811691821790925591518793918516917fddf252ad1be2c89b69c2b068fc378daa952ba7f163c4a11628f55a4df523b3ef91a490505b9392505050565b6008546001600160a01b031633146105d05760405163118cdaa760e01b81523360048201526024016105f8565b600880546001600160a01b038381166001600160a01b0319831681179093556040519116919082907f8be0079c531659141344cd1fd0a4f28419497f9722a3daafe3b4186f6b6457e090600090a35050565b6127106001600160601b038216811015610f8857604051636f483d0960e01b81526001600160601b0383166004820152602481018290526044016105f8565b6001600160a01b038316610fb257604051635b6cc80560e11b8152600060048201526024016105f8565b50604080518082019091526001600160a01b039092168083526001600160601b039091166020909201829052600160a01b90910217600655565b6001600160a01b03821661101e57604051630b61174360e31b81526001600160a01b03831660048201526024016105f8565b6001600160a01b03838116600081815260056020908152604080832094871680845294825291829020805460ff191686151590811790915591519182527f17307eab39ab6107e8899845ad3d59bd9653f200f220920489ca2b5937696c31910160405180910390a3505050565b6001600160a01b0383163b156111af57604051630a85bd0160e11b81526001600160a01b0384169063150b7a02906110cd908890889087908790600401613565565b6020604051808303816000875af1925050508015611108575060408051601f3d908101601f19168201909252611105918101906135a2565b60015b611171573d808015611136576040519150601f19603f3d011682016040523d82523d6000602084013e61113b565b606091505b50805160000361116957604051633250574960e11b81526001600160a01b03851660048201526024016105f8565b805160208201fd5b6001600160e01b03198116630a85bd0160e11b146111ad57604051633250574960e11b81526001600160a01b03851660048201526024016105f8565b505b5050505050565b606060008060008060006111c987611a71565b94509450945094509450848484848485866111e38f61163f565b6040516020016111fa9897969594939291906135bf565b6040516020818303038152906040529550505050505092915050565b60606104e58260405180606001604052806040815260200161457860409139600161202e565b604080518082018252601081526f181899199a1a9b1b9c1cb0b131b232b360811b6020820152815182815260608181018452926000919060208201818036833701905050905060005b6020811015611384578260048683602081106112a3576112a361390e565b835191901a90911c60ff169081106112bd576112bd61390e565b01602001516001600160f81b031916826112d883600261304a565b815181106112e8576112e861390e565b60200101906001600160f81b031916908160001a905350828582602081106113125761131261390e565b1a60f81b60f81c600f1660ff168151811061132f5761132f61390e565b01602001516001600160f81b0319168261134a83600261304a565b611355906001613924565b815181106113655761136561390e565b60200101906001600160f81b031916908160001a905350600101611285565b509392505050565b60606113966121ae565b836113a08461163f565b6113a86121d3565b6113b06121f6565b6113b8612207565b6113c061273e565b6040516020016113d69796959493929190613937565b604051602081830303815290604052905092915050565b60608160000361142357505060408051808201909152601081526f436972636c6520446f6d696e616e636560801b602082015290565b8160010361145457505060408051808201909152600d81526c11194814dd1a5a9b0811dc9a59609a1b602082015290565b8160020361149557505060408051808201909152601781527f436f6e737472756374697669737420446961676f6e616c000000000000000000602082015290565b505060408051808201909152600c81526b4e657374656420466f726d7360a01b602082015290565b6060816000036114f257505060408051808201909152600f81526e436c6173736963204261756861757360881b602082015290565b8160010361152257505060408051808201909152600c81526b4461726b205072696d61727960a01b602082015290565b8160020361155257505060408051808201909152600c81526b0aecad2dac2e4408ac2e4e8d60a31b602082015290565b8160030361158457505060408051808201909152600e81526d10dbdb9cdd1c9d58dd1a5d9a5cdd60921b602082015290565b816004036115b557505060408051808201909152600d81526c4f63687265205072696d61727960981b602082015290565b816005036115e757505060408051808201909152600e81526d5761726d2047656f6d657472696360901b602082015290565b8160060361161857505060408051808201909152600d81526c4e69676874204261756861757360981b602082015290565b505060408051808201909152600b81526a446573736175204772617960a81b602082015290565b6060600061164c836127d9565b600101905060008167ffffffffffffffff81111561166c5761166c612ed5565b6040519080825280601f01601f191660200182016040528015611696576020820181803683370190505b5090508181016020015b600019016f181899199a1a9b1b9c1cb0b131b232b360811b600a86061a8153600a85049450846116a057509392505050565b60608260006116e284600261304a565b6116ed906002613924565b67ffffffffffffffff81111561170557611705612ed5565b6040519080825280601f01601f19166020018201604052801561172f576020820181803683370190505b509050600360fc1b8160008151811061174a5761174a61390e565b60200101906001600160f81b031916908160001a905350600f60fb1b816001815181106117795761177961390e565b60200101906001600160f81b031916908160001a905350600061179d85600261304a565b6117a8906001613924565b90505b6001811115611820576f181899199a1a9b1b9c1cb0b131b232b360811b83600f16601081106117dc576117dc61390e565b1a60f81b8282815181106117f2576117f261390e565b60200101906001600160f81b031916908160001a90535060049290921c9161181981613b22565b90506117ab565b50811561184a5760405163e22e27eb60e01b815260048101869052602481018590526044016105f8565b949350505050565b60006001600160e01b031982166380ac58cd60e01b148061188357506001600160e01b03198216635b5e139f60e01b145b806104e557506301ffc9a760e01b6001600160e01b03198316146104e5565b80806118b657506001600160a01b03821615155b156119785760006118c684610baf565b90506001600160a01b038316158015906118f25750826001600160a01b0316816001600160a01b031614155b801561190557506119038184610b21565b155b1561192e5760405163a9fbf51f60e01b81526001600160a01b03841660048201526024016105f8565b81156119765783856001600160a01b0316826001600160a01b03167f8c5be1e5ebec7d5bd14f71427d1e84f3dd0314c0f7b2291e5b200ac8c7c3b92560405160405180910390a45b505b5050600090815260046020526040902080546001600160a01b0319166001600160a01b0392909216919091179055565b6001600160a01b0382166119d257604051633250574960e11b8152600060048201526024016105f8565b60006119e083836000610dcf565b90506001600160a01b038116156107b3576040516339e3563760e11b8152600060048201526024016105f8565b611a188383836128b1565b6107b3576001600160a01b038316611a4657604051637e27328960e01b8152600481018290526024016105f8565b60405163177e802f60e01b81526001600160a01b0383166004820152602481018290526044016105f8565b606080606080606085600003611b3057604051806040016040528060078152602001660234638463746360cc1b81525060405180604001604052806007815260200166046886c647064760cb1b815250604051806040016040528060078152602001661198a11a231b9960c91b8152506040518060400160405280600781526020016611a3199ca1989960c91b815250604051806040016040528060078152602001662331413141314160c81b81525094509450945094509450612025565b85600103611be7576040518060400160405280600781526020016608cc110c110c1160ca1b8152506040518060400160405280600781526020016611a29b199c9a1b60c91b815250604051806040016040528060078152602001662346344433354560c81b815250604051806040016040528060078152602001661198a09c999b2360c91b815250604051806040016040528060078152602001662346354635463560c81b81525094509450945094509450612025565b85600203611c9e57604051806040016040528060078152602001660468c6a8c608a760cb1b815250604051806040016040528060078152602001662332453430353760c81b815250604051806040016040528060078152602001662343383442333160c81b815250604051806040016040528060078152602001662330343841383160c81b815250604051806040016040528060078152602001662331313131313160c81b81525094509450945094509450612025565b85600303611d5557604051806040016040528060078152602001662346354635463560c81b815250604051806040016040528060078152602001660234238303030360cc1b815250604051806040016040528060078152602001662331313131313160c81b815250604051806040016040528060078152602001662339393939393960c81b815250604051806040016040528060078152602001660234530453045360cc1b81525094509450945094509450612025565b85600403611e0c57604051806040016040528060078152602001662346464638453160c81b815250604051806040016040528060078152602001662331413141314160c81b81525060405180604001604052806007815260200166046866c647064760cb1b815250604051806040016040528060078152602001660233135363543360cc1b815250604051806040016040528060078152602001662339453642304160c81b81525094509450945094509450612025565b85600503611ec357604051806040016040528060078152602001662346374637463760c81b815250604051806040016040528060078152602001662346463642333560c81b815250604051806040016040528060078152602001660466060688a72760cb1b815250604051806040016040528060078152602001662345454545454560c81b815250604051806040016040528060078152602001662331313131313160c81b81525094509450945094509450612025565b85600603611f7a576040518060400160405280600781526020016608cc4d0c4d0c4d60ca1b815250604051806040016040528060078152602001662346464237303360c81b815250604051806040016040528060078152602001660234642383530360cc1b815250604051806040016040528060078152602001662330323330343760c81b81525060405180604001604052806007815260200166119c22a1a0a29b60c91b81525094509450945094509450612025565b604051806040016040528060078152602001660468a708a708a760cb1b815250604051806040016040528060078152602001662332313235323960c81b8152506040518060400160405280600781526020016611a198199c992160c91b815250604051806040016040528060078152602001662332343731413360c81b8152506040518060400160405280600781526020016608cd90cdcd4dd160ca1b815250945094509450945094505b91939590929450565b6060835160000361204e5750604080516020810190915260008152610ec3565b60008261207f57600385516004612065919061304a565b612070906002613924565b61207a9190613061565b6120a4565b60038551600261208f9190613924565b6120999190613061565b6120a490600461304a565b905060008167ffffffffffffffff8111156120c1576120c1612ed5565b6040519080825280601f01601f1916602001820160405280156120eb576020820181803683370190505b50905060018501602082018788518901602081018051600082525b82841015612161576003840193508351603f8160121c168701518653600186019550603f81600c1c168701518653600186019550603f8160061c168701518653600186019550603f8116870151865350600185019450612106565b9052505085156121a2576003885106600181146121855760028114612198576121a0565b603d6001830353603d60028303536121a0565b603d60018303535b505b50909695505050505050565b60606040516020016121bf90613b39565b604051602081830303815290604052905090565b60606121dd612914565b6121e5612b62565b6040516020016121bf92919061402e565b60606040516020016121bf9061405d565b60606040516020016121bf907466756e6374696f6e2064726177436f6e737428297b60581b81526a62672870616c5b305d293b60a81b601582018190527f636f6e737420616e673d5b50492f362c50492f342c50492f335d5b666c6f6f726020830152672856312a33295d3b60c01b60408301527f5f63782e7361766528293b5f63782e7472616e736c617465283430302c3430306048830181905271293b5f63782e726f7461746528616e67293b60701b60688401527f5f63782e66696c6c5374796c653d70616c5b315d3b5f63782e66696c6c526563607a8401527474282d35352c2d3730302c3131302c31343030293b60581b609a8401526d5f63782e726573746f726528293b60901b60af84015260bd8301527f293b5f63782e726f7461746528616e672b50492f32293b00000000000000000060dd8301527f5f63782e66696c6c5374796c653d70616c5b325d3b5f63782e676c6f62616c4160f4830152696c7068613d302e35353b60b01b6101148301527f5f63782e66696c6c52656374282d32382c2d3730302c35362c31343030293b0061011e8301527f5f63782e676c6f62616c416c7068613d313b5f63782e726573746f726528293b61013d8301527f636f6e737420523d666c6f6f72283132302b56322a3930293b0000000000000061015d8301527f6369726328666c6f6f72283136302b56332a313230292c666c6f6f7228353630610176830152722b56342a313030292c522c70616c5b335d293b60681b6101968301527f6369726328666c6f6f72283632302b56342a3830292c666c6f6f72283136302b6101a98301527f56312a3830292c666c6f6f7228522f504849292c70616c5b315d293b000000006101c98301527f636f6e73742074783d666c6f6f72283632302b56332a3630292c74793d666c6f6101e58301527f6f722838302b56322a3630292c74733d666c6f6f722836302b56312a3530293b6102058301527f7472692874782c74792c74782b74732c74792b666c6f6f722874732a504849296102258301527f2c74782d74732c74792b666c6f6f722874732a504849292c70616c5b325d293b6102458301527f6c6e28302c666c6f6f72283830302f504849292c3830302c666c6f6f7228383061026583015271302f504849292c70616c5b345d2c33293b7d60701b6102858301527566756e6374696f6e20647261774e657374656428297b60501b6102978301526102ad8201527f636f6e737420757365436972636c653d56313e302e353b0000000000000000006102b88201526f6c657420737a3d3732302c63693d303b60801b6102cf8201526c7768696c6528737a3e3234297b60981b6102df8201527f636f6e737420633d70616c5b312b286369252870616c2e6c656e6774682d31296102ec8201527f295d2c783d283830302d737a292f322c793d283830302d737a292f323b00000061030c8201527f636f6e737420796f3d757365436972636c653f303a666c6f6f722863692a2838610329820152682b56322a313229293b60b81b6103498201527f696628757365436972636c652963697263283430302c3430302c737a2f322c6361035282015261293b60f01b6103728201527f656c73652072637428782c792b796f2c737a2c737a2d796f2a322c63293b00006103748201527f737a3d666c6f6f7228737a2f504849293b63692b2b3b7d0000000000000000006103928201527f63697263283430302c3430302c666c6f6f722831322b56332a3136292c70616c6103a9820152645b345d293b60d81b6103c98201526b7068694c696e657328293b7d60a01b6103ce8201526103da0190565b6040517f696628434f4d503d3d3d302964726177436972636c6528293b0000000000000060208201527f656c736520696628434f4d503d3d3d3129647261774772696428293b0000000060398201527f656c736520696628434f4d503d3d3d322964726177436f6e737428293b000000605582015271656c736520647261774e657374656428293b60701b60728201526060906084016121bf565b60008072184f03e93ff9f4daa797ed6e38ed64bf6a1f0160401b83106128185772184f03e93ff9f4daa797ed6e38ed64bf6a1f0160401b830492506040015b6d04ee2d6d415b85acef81000000008310612844576d04ee2d6d415b85acef8100000000830492506020015b662386f26fc10000831061286257662386f26fc10000830492506010015b6305f5e100831061287a576305f5e100830492506008015b612710831061288e57612710830492506004015b606483106128a0576064830492506002015b600a83106104e55760010192915050565b60006001600160a01b0383161580159061184a5750826001600160a01b0316846001600160a01b031614806128eb57506128eb8484610b21565b8061184a5750506000908152600460205260409020546001600160a01b03908116911614919050565b60606040516020016121bf906b636f6e73742050414c533d5b60a01b81527f5b2223463846374630222c2223443632383238222c2223314234463732222c22600c8201527308d18cce50cc4c888b0888cc504c504c5048974b60621b602c8201527f5b2223304430443044222c2223453633393436222c2223463444333545222c2260408201527308cc504e4ccd91888b0888d18d518d518d48974b60621b60608201527f5b2223463546304538222c2223324534303537222c2223433834423331222c2260748201527308cc0d0e104e0c488b0888cc4c4c4c4c4c48974b60621b60948201527f5b2223463546354635222c2223423830303030222c2223313131313131222c2260a88201527308ce4e4e4e4e4e488b0888d14c114c114c08974b60621b60c88201527f5b2223464646384531222c2223314131413141222c2223433632383238222c2260dc8201527308cc4d4d8d50cc088b0888ce514d908c1048974b60621b60fc8201527f5b2223463746374637222c2223464636423335222c2223303034453938222c226101108201527308d15151515151488b0888cc4c4c4c4c4c48974b60621b6101308201527f5b2223313431343134222c2223464642373033222c2223464238353030222c226101448201527308cc0c8ccc0d0dc88b0888ce1150d0514d88974b60621b6101648201527f5b2223453845384538222c2223323132353239222c2223433033393242222c226101788201527223323437314133222c2223364337353744225d60681b610198820152615d3b60f01b6101ab8201526101ad0190565b6040517f636f6e7374205048493d312e3631383033333938383734393839353b0000000060208201527f6c65742072733d426967496e7428223078222b53454544293b00000000000000603c8201526e636f6e737420726e643d28293d3e7b60881b60558201527f72733d2872732a363336343133363232333834363739333030356e2b3134343260648201527f3639353034303838383936333430376e292631383434363734343037333730396084820152673535313631356e3b60c01b60a48201527f72657475726e204e756d62657228727326343239343936373239356e292f343260ac8201526a39343936373239353b7d3b60a81b60cc8201527f636f6e73742070616c3d50414c535b666c6f6f7228726e6428292a38295d3b0060d78201527f636f6e737420434f4d503d666c6f6f7228726e6428292a34293b00000000000060f68201527f636f6e73742056313d726e6428292c56323d726e6428292c56333d726e642829610110820152692c56343d726e6428293b60b01b61013082015260609061013a016121bf565b6001600160e01b03198116811461079557600080fd5b600060208284031215612d1b57600080fd5b8135610ec381612cf3565b60005b83811015612d41578181015183820152602001612d29565b50506000910152565b60008151808452612d62816020860160208601612d26565b601f01601f19169290920160200192915050565b602081526000610ec36020830184612d4a565b600060208284031215612d9b57600080fd5b5035919050565b80356001600160a01b0381168114612db957600080fd5b919050565b60008060408385031215612dd157600080fd5b612dda83612da2565b946020939093013593505050565b600080600060608486031215612dfd57600080fd5b612e0684612da2565b9250612e1460208501612da2565b9150604084013590509250925092565b60008060408385031215612e3757600080fd5b50508035926020909101359150565b600060208284031215612e5857600080fd5b610ec382612da2565b60008060408385031215612e7457600080fd5b612e7d83612da2565b915060208301356001600160601b0381168114612e9957600080fd5b809150509250929050565b60008060408385031215612eb757600080fd5b612ec083612da2565b915060208301358015158114612e9957600080fd5b634e487b7160e01b600052604160045260246000fd5b60008060008060808587031215612f0157600080fd5b612f0a85612da2565b9350612f1860208601612da2565b925060408501359150606085013567ffffffffffffffff80821115612f3c57600080fd5b818701915087601f830112612f5057600080fd5b813581811115612f6257612f62612ed5565b604051601f8201601f19908116603f01168101908382118183101715612f8a57612f8a612ed5565b816040528281528a6020848701011115612fa357600080fd5b82602086016020830137600060208483010152809550505050505092959194509250565b60008060408385031215612fda57600080fd5b612fe383612da2565b9150612ff160208401612da2565b90509250929050565b600181811c9082168061300e57607f821691505b60208210810361302e57634e487b7160e01b600052602260045260246000fd5b50919050565b634e487b7160e01b600052601160045260246000fd5b80820281158282048414176104e5576104e5613034565b60008261307e57634e487b7160e01b600052601260045260246000fd5b500490565b60008151613095818560208601612d26565b9290920192915050565b605b60f81b81527f7b2274726169745f74797065223a22436f6d706f736974696f6e222c2276616c6001820152643ab2911d1160d91b602182015283516000906130f0816026850160208901612d26565b62089f4b60ea1b6026918401918201527f7b2274726169745f74797065223a2250616c65747465222c2276616c7565223a6029820152601160f91b6049820152845161314381604a840160208901612d26565b01613156604a820162089f4b60ea1b9052565b7f7b2274726169745f74797065223a2245646974696f6e222c2276616c7565223a604d820152601160f91b606d820152613194606e82015b85613083565b642f3631227d60d81b8152605d60f81b60058201526006019695505050505050565b7f226465736372697074696f6e223a2246756c6c79206f6e636861696e2042617581527403430bab99033b2b732b930ba34bb329030b93a171605d1b602082015260350190565b7f7b226e616d65223a22476f6c64656e20526174696f2023000000000000000000815260008551613235816017850160208a01612d26565b61088b60f21b601791840191820152613250601982016131b6565b7f47656f6d657472696320636f6d706f736974696f6e732064726976656e20627981526d010383434901e9018971b189c17160951b60208201527f3420636f6d706f736974696f6e2074797065732c20382070616c65747465732c602e82015273080d8c481d5b9a5c5d59481c1a5958d95ccb888b60621b604e8201527f22696d616765223a22646174613a696d6167652f7376672b786d6c3b626173656062820152620d8d0b60ea1b6082820152905061330f608582015b87613083565b61088b60f21b815290507f22616e696d6174696f6e5f75726c223a22646174613a746578742f68746d6c3b60028201526618985cd94d8d0b60ca1b602282015261335d602982015b86613083565b61088b60f21b815290506c1130ba3a3934b13aba32b9911d60991b600282015261338a600f820185613083565b607d60f81b8152600101979650505050505050565b7f646174613a6170706c69636174696f6e2f6a736f6e3b6261736536342c0000008152600082516133d781601d850160208701612d26565b91909101601d0192915050565b7f7b226e616d65223a22476f6c64656e20526174696f222c00000000000000000081526000613415601783016131b6565b7f5068692d70726f706f7274696f6e65642067656f6d657472696320636f6d706f81527f736974696f6e733a20436972636c6520446f6d696e616e63652c204465205374602082015269034b5361023b934b216160b51b60408201527f436f6e737472756374697669737420446961676f6e616c2c204e657374656420604a8201527f466f726d732e20363120756e69717565207069656365732e20302e3036313820606a820152651155120b888b60d21b608a8201527f2273656c6c65725f6665655f62617369735f706f696e7473223a3530302c0000609082015270113332b2afb932b1b4b834b2b73a111d1160791b60ae820152835161351f8160bf840160208801612d26565b61227d60f01b60bf929091019182015260c1019392505050565b60006001820161354b5761354b613034565b5060010190565b818103818111156104e5576104e5613034565b6001600160a01b038581168252841660208201526040810183905260806060820181905260009061359890830184612d4a565b9695505050505050565b6000602082840312156135b457600080fd5b8151610ec381612cf3565b7f3c73766720786d6c6e733d22687474703a2f2f7777772e77332e6f72672f323081527f30302f737667222076696577426f783d223020302038303020383030223e000060208201527f3c726563742077696474683d2238303022206865696768743d22383030222066603e8201526434b6361e9160d91b605e820152600061364b606383018b613083565b6211179f60e91b81527f3c7265637420783d223130302220793d22313030222077696474683d2234393460038201527411103432b4b3b43a1e9119981b11103334b6361e9160591b60238201526136a6603882015b8b613083565b6211179f60e91b815290507f3c636972636c652063783d22363230222063793d223538302220723d2231373060038201526711103334b6361e9160c11b60238201526136f5602b82018a613083565b6211179f60e91b815290507f3c7265637420783d223130302220793d22343530222077696474683d2231383960038201527411103432b4b3b43a1e91191a9811103334b6361e9160591b6023820152613752603882015b89613083565b6211179f60e91b815290507f3c6c696e652078313d2230222079313d22343935222078323d2238303022207960038201526f191e911a1c9a911039ba3937b5b29e9160811b60238201526138ae61335761386f6138326137bc6136a06137f082603389018f613083565b7f22207374726f6b652d77696474683d223122206f7061636974793d22302e3322815261179f60f11b602082015260220190565b7f3c6c696e652078313d22343934222079313d2230222078323d2234393422207981526f191e911c1818111039ba3937b5b29e9160811b602082015260300190565b7f3c7465787420783d223430302220793d223737352220746578742d616e63686f81526a0391e9136b4b232363291160ad1b6020820152602b0190565b7f666f6e742d66616d696c793d226d6f6e6f73706163652220666f6e742d73697a81526c329e91191a11103334b6361e9160991b6020820152602d0190565b7f22206f7061636974793d22302e36223e474f4c44454e20524154494f20230000815290506138e0601e820185613083565b661e17ba32bc3a1f60c91b8152651e17b9bb339f60d11b6007820152600d019b9a5050505050505050505050565b634e487b7160e01b600052603260045260246000fd5b808201808211156104e5576104e5613034565b7f3c21444f43545950452068746d6c3e3c68746d6c3e3c686561643e3c6d6574618152701031b430b939b2ba1e913aba33169c111f60791b60208201527f3c7374796c653e2a7b6d617267696e3a303b70616464696e673a307d626f647960318201527f7b6261636b67726f756e643a233030303b646973706c61793a666c65783b000060518201527f616c69676e2d6974656d733a63656e7465723b6a7573746966792d636f6e7465606f8201527f6e743a63656e7465723b6d696e2d6865696768743a31303076683b6f76657266608f8201526a6c6f773a68696464656e7d60a81b60af8201527f63616e7661737b6d61782d77696474683a313030766d696e3b6d61782d68656960ba8201527333b43a1d1898183b36b4b73e9e17b9ba3cb6329f60611b60da820152600060ee8201741e17b432b0b21f1e3137b23c9f1e39b1b934b83a1f60591b8152613a91601582018b613083565b6b31b7b739ba1029a2a2a21e9160a11b81529050613ab2600c82018a613083565b67222c544f4b454e3d60c01b81529050613acf6008820189613083565b603b60f81b81529050613aee61318e61330961374c600185018b613083565b7f3c2f7363726970743e3c2f626f64793e3c2f68746d6c3e00000000000000000081526017019a9950505050505050505050565b600081613b3157613b31613034565b506000190190565b7f636f6e7374205f63763d646f63756d656e742e637265617465456c656d656e7481526a0a0898d85b9d985cc88a4b60aa1b60208201527f5f63783d5f63762e676574436f6e746578742822326422293b00000000000000602b8201527f5f63762e77696474683d5f63762e6865696768743d3830303b0000000000000060448201527f646f63756d656e742e626f64792e617070656e644368696c64285f6376293b00605d8201527f636f6e737420636f733d4d6174682e636f732c73696e3d4d6174682e73696e2c607c8201527f737172743d4d6174682e737172742c6162733d4d6174682e6162732c00000000609c8201527f50493d4d6174682e50492c54574f5f50493d50492a322c666c6f6f723d4d617460b88201527f682e666c6f6f722c726f756e643d4d6174682e726f756e643b0000000000000060d88201527f66756e6374696f6e2062672863297b5f63782e66696c6c5374796c653d633b5f60f18201527f63782e66696c6c5265637428302c302c3830302c383030293b7d0000000000006101118201527f66756e6374696f6e206369726328782c792c722c66696c6c2c7363322c73772961012b820152607b60f81b61014b8201527f5f63782e626567696e5061746828293b5f63782e61726328782c792c722c302c61014c8201526754574f5f5049293b60c01b61016c8201527f69662866696c6c297b5f63782e66696c6c5374796c653d66696c6c3b5f63782e6101748201526766696c6c28293b7d60c01b6101948201527f696628736332297b5f63782e7374726f6b655374796c653d7363323b5f63782e61019c8201527f6c696e6557696474683d73777c7c323b5f63782e7374726f6b6528293b7d7d006101bc8201527f66756e6374696f6e2072637428782c792c772c682c66696c6c2c7363322c73776101db82015261297b60f01b6101fb8201526000613ea0613e3e6101fd84017f69662866696c6c297b5f63782e66696c6c5374796c653d66696c6c3b5f63782e81527266696c6c5265637428782c792c772c68293b7d60681b602082015260330190565b7f696628736332297b5f63782e7374726f6b655374796c653d7363323b5f63782e81527f6c696e6557696474683d73777c7c323b5f63782e7374726f6b655265637428786020820152692c792c772c68293b7d7d60b01b6040820152604a0190565b7f66756e6374696f6e206c6e2878312c79312c78322c79322c632c77297b00000081527f5f63782e626567696e5061746828293b5f63782e6d6f7665546f2878312c7931601d82015273293b5f63782e6c696e65546f2878322c7932293b60601b603d8201527f5f63782e7374726f6b655374796c653d633b5f63782e6c696e6557696474683d605182015272777c7c323b5f63782e7374726f6b6528293b7d60681b60718201527f66756e6374696f6e207472692861782c61792c62782c62792c65782c65792c66608482015264696c6c297b60d81b60a48201527f5f63782e626567696e5061746828293b5f63782e6d6f7665546f2861782c617960a98201527f293b5f63782e6c696e65546f2862782c6279293b5f63782e6c696e65546f286560c982015265782c6579293b60d01b60e98201527f5f63782e636c6f73655061746828293b69662866696c6c297b5f63782e66696c60ef8201527f6c5374796c653d66696c6c3b5f63782e66696c6c28293b7d7d0000000000000061010f8201526101288101610ec3565b60008351614040818460208801612d26565b835190830190614054818360208801612d26565b01949350505050565b7366756e6374696f6e207068694c696e657328297b60601b81527f636f6e73742067313d666c6f6f72283830302f504849292c67323d666c6f6f7260148201527f283830302d3830302f504849292c6c633d70616c5b345d3b000000000000000060348201527f6c6e28302c67322c3830302c67322c6c632c31293b6c6e2867312c302c67312c604c8201526a3830302c6c632c31293b7d60a81b606c8201527566756e6374696f6e2064726177436972636c6528297b60501b60778201526a62672870616c5b305d293b60a81b608d82018190527f636f6e737420523d666c6f6f72283235302b56312a3530292c52323d666c6f6f60988301527f7228522f504849292c52333d666c6f6f7228522f5048492f504849293b00000060b88301527f636f6e7374206f783d666c6f6f72282856322d2e35292a313430292c6f793d6660d5830152716c6f6f72282856332d2e35292a313030293b60701b60f58301527f63697263283430302b6f782c3430302b6f792c522c70616c5b315d293b0000006101078301527f63697263283430302b6f782b666c6f6f7228522a2e3535292c3430302b6f792d6101248301527f666c6f6f722852322a2e3335292c52322c70616c5b325d293b000000000000006101448301527f63697263283430302b6f782d666c6f6f722852332a2e39292c3430302b6f792b61015d8301527f666c6f6f722852322a2e38292c52332c70616c5b335d293b000000000000000061017d8301527f63697263283430302c3430302c666c6f6f7228522a5048492a2e3438292c6e756101958301526c6c6c2c70616c5b345d2c32293b60981b6101b58301526a7068694c696e657328293b60a81b6101c28301527f6c6e28302c3430302c3830302c3430302c70616c5b345d2c31293b7d000000006101cd8301527366756e6374696f6e20647261774772696428297b60601b6101e98301526101fd8201527f636f6e73742047313d666c6f6f72283830302f504849292c47323d3830302d476102088201527f312c47333d666c6f6f722847322f504849292c47343d47322d47332c47353d666102288201526c6c6f6f722847332f504849293b60981b6102488201527572637428302c302c47332c47332c70616c5b315d293b60501b6102558201527f7263742847312c302c47322c47312c70616c5b325d293b00000000000000000061026b8201527f72637428302c47312c47332c47322c70616c5b335d293b0000000000000000006102828201527f7263742847332c47312d47342c47312d47332c47342c70616c5b325d293b00006102998201527f7263742847312b47352c47312b47352c47342d47352c47342d47352c70616c5b6102b782015263335d293b60e01b6102d782015274636f6e737420676c3d70616c5b345d2c67773d353b60581b6102db8201527f6c6e2847332c302c47332c3830302c676c2c6777293b6c6e2847312c302c47316102f08201526b2c3830302c676c2c6777293b60a01b6103108201527f6c6e28302c47332c3830302c47332c676c2c6777293b6c6e28302c47312c383061031c8201526b302c47312c676c2c6777293b60a01b61033c8201527f6c6e2847332c47312d47342c47312c47312d47342c676c2c6777293b0000000061034882019081527f5f63782e7374726f6b655374796c653d676c3b5f63782e6c696e6557696474686103648301527f3d67773b5f63782e7374726f6b655265637428302c302c3830302c383030293b610384830152607d60f81b6103a48301526000906103a58301610ec356fe4142434445464748494a4b4c4d4e4f505152535455565758595a6162636465666768696a6b6c6d6e6f707172737475767778797a303132333435363738392b2fa2646970667358221220cbfda6aa835378afadff834e43b745daca17044aaee91d2d5645c2599a8f383864736f6c63430008180033",
  "linkReferences": {},
  "deployedLinkReferences": {}
}