{
  "_format": "hh-sol-artifact-1",
  "contractName": "GoldenRatio",
  "sourceName": "contracts/GoldenRatio.sol",
  "abi": [
    {
      "inputs": [],
      "stateMutability": "nonpayable",
      "type": "constructor"
    },
    {
      "inputs": [
        {
          "internalType": "address",
          "name": "sender",
          "type": "address"
        },
        {
          "internalType": "uint256",
          "name": "tokenId",
          "type": "uint256"
        },
        {
          "internalType": "address",
          "name": "owner",
          "type": "address"
        }
      ],
      "name": "ERC721IncorrectOwner",
      "type": "error"
    },
    {
      "inputs": [
        {
          "internalType": "address",
          "name": "operator",
          "type": "address"
        },
        {
          "internalType": "uint256",
          "name": "tokenId",
          "type": "uint256"
        }
      ],
      "name": "ERC721InsufficientApproval",
      "type": "error"
    },
    {
      "inputs": [
        {
          "internalType": "address",
          "name": "approver",
          "type": "address"
        }
      ],
      "name": "ERC721InvalidApprover",
      "type": "error"
    },
    {
      "inputs": [
        {
          "internalType": "address",
          "name": "operator",
          "type": "address"
        }
      ],
      "name": "ERC721InvalidOperator",
      "type": "error"
    },
    {
      "inputs": [
        {
          "internalType": "address",
          "name": "owner",
          "type": "address"
        }
      ],
      "name": "ERC721InvalidOwner",
      "type": "error"
    },
    {
      "inputs": [
        {
          "internalType": "address",
          "name": "receiver",
          "type": "address"
        }
      ],
      "name": "ERC721InvalidReceiver",
      "type": "error"
    },
    {
      "inputs": [
        {
          "internalType": "address",
          "name": "sender",
          "type": "address"
        }
      ],
      "name": "ERC721InvalidSender",
      "type": "error"
    },
    {
      "inputs": [
        {
          "internalType": "uint256",
          "name": "tokenId",
          "type": "uint256"
        }
      ],
      "name": "ERC721NonexistentToken",
      "type": "error"
    },
    {
      "inputs": [],
      "name": "InsufficientPayment",
      "type": "error"
    },
    {
      "inputs": [],
      "name": "Nonexistent",
      "type": "error"
    },
    {
      "inputs": [
        {
          "internalType": "address",
          "name": "owner",
          "type": "address"
        }
      ],
      "name": "OwnableInvalidOwner",
      "type": "error"
    },
    {
      "inputs": [
        {
          "internalType": "address",
          "name": "account",
          "type": "address"
        }
      ],
      "name": "OwnableUnauthorizedAccount",
      "type": "error"
    },
    {
      "inputs": [],
      "name": "SoldOut",
      "type": "error"
    },
    {
      "anonymous": false,
      "inputs": [
        {
          "indexed": true,
          "internalType": "address",
          "name": "owner",
          "type": "address"
        },
        {
          "indexed": true,
          "internalType": "address",
          "name": "approved",
          "type": "address"
        },
        {
          "indexed": true,
          "internalType": "uint256",
          "name": "tokenId",
          "type": "uint256"
        }
      ],
      "name": "Approval",
      "type": "event"
    },
    {
      "anonymous": false,
      "inputs": [
        {
          "indexed": true,
          "internalType": "address",
          "name": "owner",
          "type": "address"
        },
        {
          "indexed": true,
          "internalType": "address",
          "name": "operator",
          "type": "address"
        },
        {
          "indexed": false,
          "internalType": "bool",
          "name": "approved",
          "type": "bool"
        }
      ],
      "name": "ApprovalForAll",
      "type": "event"
    },
    {
      "anonymous": false,
      "inputs": [
        {
          "indexed": true,
          "internalType": "address",
          "name": "to",
          "type": "address"
        },
        {
          "indexed": true,
          "internalType": "uint256",
          "name": "tokenId",
          "type": "uint256"
        },
        {
          "indexed": false,
          "internalType": "bytes32",
          "name": "seed",
          "type": "bytes32"
        }
      ],
      "name": "Minted",
      "type": "event"
    },
    {
      "anonymous": false,
      "inputs": [
        {
          "indexed": true,
          "internalType": "address",
          "name": "previousOwner",
          "type": "address"
        },
        {
          "indexed": true,
          "internalType": "address",
          "name": "newOwner",
          "type": "address"
        }
      ],
      "name": "OwnershipTransferred",
      "type": "event"
    },
    {
      "anonymous": false,
      "inputs": [
        {
          "indexed": true,
          "internalType": "address",
          "name": "from",
          "type": "address"
        },
        {
          "indexed": true,
          "internalType": "address",
          "name": "to",
          "type": "address"
        },
        {
          "indexed": true,
          "internalType": "uint256",
          "name": "tokenId",
          "type": "uint256"
        }
      ],
      "name": "Transfer",
      "type": "event"
    },
    {
      "inputs": [],
      "name": "MAX_SUPPLY",
      "outputs": [
        {
          "internalType": "uint256",
          "name": "",
          "type": "uint256"
        }
      ],
      "stateMutability": "view",
      "type": "function"
    },
    {
      "inputs": [],
      "name": "MINT_PRICE",
      "outputs": [
        {
          "internalType": "uint256",
          "name": "",
          "type": "uint256"
        }
      ],
      "stateMutability": "view",
      "type": "function"
    },
    {
      "inputs": [
        {
          "internalType": "address",
          "name": "to",
          "type": "address"
        },
        {
          "internalType": "uint256",
          "name": "tokenId",
          "type": "uint256"
        }
      ],
      "name": "approve",
      "outputs": [],
      "stateMutability": "nonpayable",
      "type": "function"
    },
    {
      "inputs": [
        {
          "internalType": "address",
          "name": "owner",
          "type": "address"
        }
      ],
      "name": "balanceOf",
      "outputs": [
        {
          "internalType": "uint256",
          "name": "",
          "type": "uint256"
        }
      ],
      "stateMutability": "view",
      "type": "function"
    },
    {
      "inputs": [
        {
          "internalType": "uint256",
          "name": "tokenId",
          "type": "uint256"
        }
      ],
      "name": "getApproved",
      "outputs": [
        {
          "internalType": "address",
          "name": "",
          "type": "address"
        }
      ],
      "stateMutability": "view",
      "type": "function"
    },
    {
      "inputs": [
        {
          "internalType": "address",
          "name": "owner",
          "type": "address"
        },
        {
          "internalType": "address",
          "name": "operator",
          "type": "address"
        }
      ],
      "name": "isApprovedForAll",
      "outputs": [
        {
          "internalType": "bool",
          "name": "",
          "type": "bool"
        }
      ],
      "stateMutability": "view",
      "type": "function"
    },
    {
      "inputs": [],
      "name": "mint",
      "outputs": [],
      "stateMutability": "payable",
      "type": "function"
    },
    {
      "inputs": [],
      "name": "name",
      "outputs": [
        {
          "internalType": "string",
          "name": "",
          "type": "string"
        }
      ],
      "stateMutability": "view",
      "type": "function"
    },
    {
      "inputs": [],
      "name": "owner",
      "outputs": [
        {
          "internalType": "address",
          "name": "",
          "type": "address"
        }
      ],
      "stateMutability": "view",
      "type": "function"
    },
    {
      "inputs": [
        {
          "internalType": "uint256",
          "name": "tokenId",
          "type": "uint256"
        }
      ],
      "name": "ownerOf",
      "outputs": [
        {
          "internalType": "address",
          "name": "",
          "type": "address"
        }
      ],
      "stateMutability": "view",
      "type": "function"
    },
    {
      "inputs": [],
      "name": "renounceOwnership",
      "outputs": [],
      "stateMutability": "nonpayable",
      "type": "function"
    },
    {
      "inputs": [
        {
          "internalType": "address",
          "name": "from",
          "type": "address"
        },
        {
          "internalType": "address",
          "name": "to",
          "type": "address"
        },
        {
          "internalType": "uint256",
          "name": "tokenId",
          "type": "uint256"
        }
      ],
      "name": "safeTransferFrom",
      "outputs": [],
      "stateMutability": "nonpayable",
      "type": "function"
    },
    {
      "inputs": [
        {
          "internalType": "address",
          "name": "from",
          "type": "address"
        },
        {
          "internalType": "address",
          "name": "to",
          "type": "address"
        },
        {
          "internalType": "uint256",
          "name": "tokenId",
          "type": "uint256"
        },
        {
          "internalType": "bytes",
          "name": "data",
          "type": "bytes"
        }
      ],
      "name": "safeTransferFrom",
      "outputs": [],
      "stateMutability": "nonpayable",
      "type": "function"
    },
    {
      "inputs": [
        {
          "internalType": "uint256",
          "name": "tokenId",
          "type": "uint256"
        }
      ],
      "name": "seedOf",
      "outputs": [
        {
          "internalType": "bytes32",
          "name": "",
          "type": "bytes32"
        }
      ],
      "stateMutability": "view",
      "type": "function"
    },
    {
      "inputs": [
        {
          "internalType": "address",
          "name": "operator",
          "type": "address"
        },
        {
          "internalType": "bool",
          "name": "approved",
          "type": "bool"
        }
      ],
      "name": "setApprovalForAll",
      "outputs": [],
      "stateMutability": "nonpayable",
      "type": "function"
    },
    {
      "inputs": [
        {
          "internalType": "bytes4",
          "name": "interfaceId",
          "type": "bytes4"
        }
      ],
      "name": "supportsInterface",
      "outputs": [
        {
          "internalType": "bool",
          "name": "",
          "type": "bool"
        }
      ],
      "stateMutability": "view",
      "type": "function"
    },
    {
      "inputs": [],
      "name": "symbol",
      "outputs": [
        {
          "internalType": "string",
          "name": "",
          "type": "string"
        }
      ],
      "stateMutability": "view",
      "type": "function"
    },
    {
      "inputs": [
        {
          "internalType": "uint256",
          "name": "tokenId",
          "type": "uint256"
        }
      ],
      "name": "tokenURI",
      "outputs": [
        {
          "internalType": "string",
          "name": "",
          "type": "string"
        }
      ],
      "stateMutability": "view",
      "type": "function"
    },
    {
      "inputs": [],
      "name": "totalMinted",
      "outputs": [
        {
          "internalType": "uint256",
          "name": "",
          "type": "uint256"
        }
      ],
      "stateMutability": "view",
      "type": "function"
    },
    {
      "inputs": [
        {
          "internalType": "address",
          "name": "from",
          "type": "address"
        },
        {
          "internalType": "address",
          "name": "to",
          "type": "address"
        },
        {
          "internalType": "uint256",
          "name": "tokenId",
          "type": "uint256"
        }
      ],
      "name": "transferFrom",
      "outputs": [],
      "stateMutability": "nonpayable",
      "type": "function"
    },
    {
      "inputs": [
        {
          "internalType": "address",
          "name": "newOwner",
          "type": "address"
        }
      ],
      "name": "transferOwnership",
      "outputs": [],
      "stateMutability": "nonpayable",
      "type": "function"
    },
    {
      "inputs": [],
      "name": "withdraw",
      "outputs": [],
      "stateMutability": "nonpayable",
      "type": "function"
    }
  ],
  "bytecode": "0x60806040523480156200001157600080fd5b50336040518060400160405280600c81526020016b476f6c64656e20526174696f60a01b8152506040518060400160405280600381526020016250484960e81b8152508160009081620000659190620001b1565b506001620000748282620001b1565b5050506001600160a01b038116620000a657604051631e4fbdf760e01b81526000600482015260240160405180910390fd5b620000b181620000b8565b506200027d565b600680546001600160a01b038381166001600160a01b0319831681179093556040519116919082907f8be0079c531659141344cd1fd0a4f28419497f9722a3daafe3b4186f6b6457e090600090a35050565b634e487b7160e01b600052604160045260246000fd5b600181811c908216806200013557607f821691505b6020821081036200015657634e487b7160e01b600052602260045260246000fd5b50919050565b601f821115620001ac576000816000526020600020601f850160051c81016020861015620001875750805b601f850160051c820191505b81811015620001a85782815560010162000193565b5050505b505050565b81516001600160401b03811115620001cd57620001cd6200010a565b620001e581620001de845462000120565b846200015c565b602080601f8311600181146200021d5760008415620002045750858301515b600019600386901b1c1916600185901b178555620001a8565b600085815260208120601f198616915b828110156200024e578886015182559484019460019091019084016200022d565b50858210156200026d5787850151600019600388901b60f8161c191681555b5050505050600190811b01905550565b612c3c806200028d6000396000f3fe6080604052600436106101355760003560e01c8063715018a6116100ab578063a2309ff81161006f578063a2309ff814610333578063b88d4fde14610348578063c002d23d14610368578063c87b56dd14610383578063e985e9c5146103a3578063f2fde38b146103c357600080fd5b8063715018a6146102ab57806382829f74146102c05780638da5cb5b146102e057806395d89b41146102fe578063a22cb4651461031357600080fd5b806323b872dd116100fd57806323b872dd146101f357806332cb6b0c146102135780633ccfd60b1461023657806342842e0e1461024b5780636352211e1461026b57806370a082311461028b57600080fd5b806301ffc9a71461013a57806306fdde031461016f578063081812fc14610191578063095ea7b3146101c95780631249c58b146101eb575b600080fd5b34801561014657600080fd5b5061015a610155366004611993565b6103e3565b60405190151581526020015b60405180910390f35b34801561017b57600080fd5b50610184610435565b6040516101669190611a00565b34801561019d57600080fd5b506101b16101ac366004611a13565b6104c7565b6040516001600160a01b039091168152602001610166565b3480156101d557600080fd5b506101e96101e4366004611a48565b6104f0565b005b6101e96104ff565b3480156101ff57600080fd5b506101e961020e366004611a72565b6106ba565b34801561021f57600080fd5b50610228603d81565b604051908152602001610166565b34801561024257600080fd5b506101e961073f565b34801561025757600080fd5b506101e9610266366004611a72565b6107f0565b34801561027757600080fd5b506101b1610286366004611a13565b61080b565b34801561029757600080fd5b506102286102a6366004611aae565b610816565b3480156102b757600080fd5b506101e961085e565b3480156102cc57600080fd5b506102286102db366004611a13565b610872565b3480156102ec57600080fd5b506006546001600160a01b03166101b1565b34801561030a57600080fd5b506101846108ba565b34801561031f57600080fd5b506101e961032e366004611ac9565b6108c9565b34801561033f57600080fd5b50600754610228565b34801561035457600080fd5b506101e9610363366004611b1b565b6108d4565b34801561037457600080fd5b5061022866db8ec5c71e800081565b34801561038f57600080fd5b5061018461039e366004611a13565b6108ec565b3480156103af57600080fd5b5061015a6103be366004611bf7565b610a57565b3480156103cf57600080fd5b506101e96103de366004611aae565b610a85565b60006001600160e01b031982166380ac58cd60e01b148061041457506001600160e01b03198216635b5e139f60e01b145b8061042f57506301ffc9a760e01b6001600160e01b03198316145b92915050565b60606000805461044490611c2a565b80601f016020809104026020016040519081016040528092919081815260200182805461047090611c2a565b80156104bd5780601f10610492576101008083540402835291602001916104bd565b820191906000526020600020905b8154815290600101906020018083116104a057829003601f168201915b5050505050905090565b60006104d282610ac0565b506000828152600460205260409020546001600160a01b031661042f565b6104fb828233610af9565b5050565b603d60075410610522576040516352df9fe560e01b815260040160405180910390fd5b66db8ec5c71e800034101561054a5760405163cd1c886760e01b815260040160405180910390fd5b600060076000815461055b90611c7a565b91829055509050600061056f600143611c93565b6040805191406020830152810183905233606090811b6bffffffffffffffffffffffff19169082015242607482015260940160408051601f19818403018152918152815160209283012060008581526008909352912081905590506105d43383610b06565b604051818152829033907fc263b302aec62d29105026245f19e16f8e0137066ccd4a8bd941f716bd4096bb9060200160405180910390a3600061061e66db8ec5c71e800034611c93565b905080156106b557604051600090339083908381818185875af1925050503d8060008114610668576040519150601f19603f3d011682016040523d82523d6000602084013e61066d565b606091505b50509050806106b35760405162461bcd60e51b815260206004820152600d60248201526c1499599d5b990819985a5b1959609a1b60448201526064015b60405180910390fd5b505b505050565b6001600160a01b0382166106e457604051633250574960e11b8152600060048201526024016106aa565b60006106f1838333610b6b565b9050836001600160a01b0316816001600160a01b0316146106b3576040516364283d7b60e01b81526001600160a01b03808616600483015260248201849052821660448201526064016106aa565b610747610c66565b600061075b6006546001600160a01b031690565b6001600160a01b03164760405160006040518083038185875af1925050503d80600081146107a5576040519150601f19603f3d011682016040523d82523d6000602084013e6107aa565b606091505b50509050806107ed5760405162461bcd60e51b815260206004820152600f60248201526e15da5d1a191c985dc819985a5b1959608a1b60448201526064016106aa565b50565b6106b5838383604051806020016040528060008152506108d4565b600061042f82610ac0565b60006001600160a01b038216610842576040516322718ad960e21b8152600060048201526024016106aa565b506001600160a01b031660009081526003602052604090205490565b610866610c66565b6108706000610c93565b565b6000818152600260205260408120546001600160a01b03166108a75760405163367f2f2f60e11b815260040160405180910390fd5b5060009081526008602052604090205490565b60606001805461044490611c2a565b6104fb338383610ce5565b6108df8484846106ba565b6106b33385858585610d84565b6000818152600260205260409020546060906001600160a01b03166109245760405163367f2f2f60e11b815260040160405180910390fd5b6000828152600860205260408120549061093d82610eaf565b9050816000610955610950600884611cbc565b610fff565b9050600061097c61096c610190602086901c611cbc565b6109779060c8611cd0565b61114c565b9050600061099d6109926003604087901c611cbc565b610977906001611cd0565b905060006109ab868a6111df565b905060006109b88261122e565b905060008585856109c88e61114c565b6040516020016109db9493929190611cff565b604051602081830303815290604052905060006109f78c61114c565b838484604051602001610a0d9493929190611e47565b6040516020818303038152906040529050610a278161122e565b604051602001610a379190612091565b6040516020818303038152906040529a5050505050505050505050919050565b6001600160a01b03918216600090815260056020908152604080832093909416825291909152205460ff1690565b610a8d610c66565b6001600160a01b038116610ab757604051631e4fbdf760e01b8152600060048201526024016106aa565b6107ed81610c93565b6000818152600260205260408120546001600160a01b03168061042f57604051637e27328960e01b8152600481018490526024016106aa565b6106b58383836001611254565b6001600160a01b038216610b3057604051633250574960e11b8152600060048201526024016106aa565b6000610b3e83836000610b6b565b90506001600160a01b038116156106b5576040516339e3563760e11b8152600060048201526024016106aa565b6000828152600260205260408120546001600160a01b0390811690831615610b9857610b9881848661135a565b6001600160a01b03811615610bd657610bb5600085600080611254565b6001600160a01b038116600090815260036020526040902080546000190190555b6001600160a01b03851615610c05576001600160a01b0385166000908152600360205260409020805460010190555b60008481526002602052604080822080546001600160a01b0319166001600160a01b0389811691821790925591518793918516917fddf252ad1be2c89b69c2b068fc378daa952ba7f163c4a11628f55a4df523b3ef91a490505b9392505050565b6006546001600160a01b031633146108705760405163118cdaa760e01b81523360048201526024016106aa565b600680546001600160a01b038381166001600160a01b0319831681179093556040519116919082907f8be0079c531659141344cd1fd0a4f28419497f9722a3daafe3b4186f6b6457e090600090a35050565b6001600160a01b038216610d1757604051630b61174360e31b81526001600160a01b03831660048201526024016106aa565b6001600160a01b03838116600081815260056020908152604080832094871680845294825291829020805460ff191686151590811790915591519182527f17307eab39ab6107e8899845ad3d59bd9653f200f220920489ca2b5937696c31910160405180910390a3505050565b6001600160a01b0383163b15610ea857604051630a85bd0160e11b81526001600160a01b0384169063150b7a0290610dc69088908890879087906004016120d6565b6020604051808303816000875af1925050508015610e01575060408051601f3d908101601f19168201909252610dfe91810190612113565b60015b610e6a573d808015610e2f576040519150601f19603f3d011682016040523d82523d6000602084013e610e34565b606091505b508051600003610e6257604051633250574960e11b81526001600160a01b03851660048201526024016106aa565b805160208201fd5b6001600160e01b03198116630a85bd0160e11b14610ea657604051633250574960e11b81526001600160a01b03851660048201526024016106aa565b505b5050505050565b604080518082018252601081526f181899199a1a9b1b9c1cb0b131b232b360811b6020820152815182815260608181018452926000919060208201818036833701905050905060005b6020811015610ff757826004868360208110610f1657610f16612130565b835191901a90911c60ff16908110610f3057610f30612130565b01602001516001600160f81b03191682610f4b836002612146565b81518110610f5b57610f5b612130565b60200101906001600160f81b031916908160001a90535082858260208110610f8557610f85612130565b1a60f81b60f81c600f1660ff1681518110610fa257610fa2612130565b01602001516001600160f81b03191682610fbd836002612146565b610fc8906001611cd0565b81518110610fd857610fd8612130565b60200101906001600160f81b031916908160001a905350600101610ef8565b509392505050565b60608160000361102a57505060408051808201909152600581526429b7b630b960d91b602082015290565b81600103611054575050604080518082019091526006815265436f736d696360d01b602082015290565b8160020361107f57505060408051808201909152600781526621b934b6b9b7b760c91b602082015290565b816003036110a957505060408051808201909152600681526511195cd95c9d60d21b602082015290565b816004036110d3575050604080518082019091526006815265119bdc995cdd60d21b602082015290565b816005036110fb5750506040805180820190915260048152632732b7b760e11b602082015290565b8160060361112957505060408051808201909152600a8152694d6f6e6f6368726f6d6560b01b602082015290565b5050604080518082019091526007815266115b595c985b1960ca1b602082015290565b60606000611159836113be565b600101905060008167ffffffffffffffff81111561117957611179611b05565b6040519080825280601f01601f1916602001820160405280156111a3576020820181803683370190505b5090508181016020015b600019016f181899199a1a9b1b9c1cb0b131b232b360811b600a86061a8153600a85049450846111ad57509392505050565b60606111e9611496565b836111f38461114c565b6111fb6114bb565b6112036114cc565b60405160200161121795949392919061215d565b604051602081830303815290604052905092915050565b606061042f82604051806060016040528060408152602001612bc7604091396001611797565b808061126857506001600160a01b03821615155b1561132a57600061127884610ac0565b90506001600160a01b038316158015906112a45750826001600160a01b0316816001600160a01b031614155b80156112b757506112b58184610a57565b155b156112e05760405163a9fbf51f60e01b81526001600160a01b03841660048201526024016106aa565b81156113285783856001600160a01b0316826001600160a01b03167f8c5be1e5ebec7d5bd14f71427d1e84f3dd0314c0f7b2291e5b200ac8c7c3b92560405160405180910390a45b505b5050600090815260046020526040902080546001600160a01b0319166001600160a01b0392909216919091179055565b611365838383611917565b6106b5576001600160a01b03831661139357604051637e27328960e01b8152600481018290526024016106aa565b60405163177e802f60e01b81526001600160a01b0383166004820152602481018290526044016106aa565b60008072184f03e93ff9f4daa797ed6e38ed64bf6a1f0160401b83106113fd5772184f03e93ff9f4daa797ed6e38ed64bf6a1f0160401b830492506040015b6d04ee2d6d415b85acef81000000008310611429576d04ee2d6d415b85acef8100000000830492506020015b662386f26fc10000831061144757662386f26fc10000830492506010015b6305f5e100831061145f576305f5e100830492506008015b612710831061147357612710830492506004015b60648310611485576064830492506002015b600a831061042f5760010192915050565b60606040516020016114a79061234a565b604051602081830303815290604052905090565b60606040516020016114a790612783565b6040517f6261636b67726f756e642870616c5b305d293b6e6f5374726f6b6528293b0000602082015275666f72286c6574206c3d303b6c3c4c593b6c2b2b297b60501b603e8201527f636f6e7374206c723d726f2b6c2a285048492d31292a54574f5f50493b00000060548201527f636f6e7374206d723d3335302a28312d6c2a302e32293b000000000000000000607182015274636f6e7374206e703d666c6f6f72284e2f4c59293b60581b60888201527f666f72286c657420693d313b693c3d6e703b692b2b297b000000000000000000609d8201527f636f6e737420743d692f6e702c723d737172742874292a6d722c74683d692a4760b482015264412b6c723b60d81b60d48201527f66696c6c2870616c5b312b666c6f6f7228742a2870616c2e6c656e6774682d3160d98201526429295d293b60d81b60f98201527f5f63782e676c6f62616c416c7068613d302e342b742a302e363b00000000000060fe8201527f636972636c65283430302b722a636f73287468292c3430302b722a73696e28746101188201527f68292c64732a28312e322b742a332e35292a28312d6c2a302e313829293b0000610138820152617d7d60f01b6101568201527f5f63782e676c6f62616c416c7068613d302e30373b6e6f46696c6c28293b00006101588201527f5f63782e7374726f6b655374796c653d70616c5b345d3b5f63782e6c696e655761017682015268696474683d302e373b60b81b6101968201526a6c65742072773d3732303b60a81b61019f82015274666f72286c657420693d303b693c363b692b2b297b60581b6101aa8201526f636f6e73742072683d72772f5048493b60801b6101bf8201527f5f63782e7374726f6b655265637428283830302d7277292f322c283830302d726101cf8201526b68292f322c72772c7268293b60a01b6101ef8201526872772f3d5048493b7d60b81b6101fb820152606090610204016114a7565b606083516000036117b75750604080516020810190915260008152610c5f565b6000826117e8576003855160046117ce9190612146565b6117d9906002611cd0565b6117e39190612bb2565b61180d565b6003855160026117f89190611cd0565b6118029190612bb2565b61180d906004612146565b905060008167ffffffffffffffff81111561182a5761182a611b05565b6040519080825280601f01601f191660200182016040528015611854576020820181803683370190505b50905060018501602082018788518901602081018051600082525b828410156118ca576003840193508351603f8160121c168701518653600186019550603f81600c1c168701518653600186019550603f8160061c168701518653600186019550603f811687015186535060018501945061186f565b90525050851561190b576003885106600181146118ee576002811461190157611909565b603d6001830353603d6002830353611909565b603d60018303535b505b50909695505050505050565b60006001600160a01b038316158015906119755750826001600160a01b0316846001600160a01b0316148061195157506119518484610a57565b8061197557506000828152600460205260409020546001600160a01b038481169116145b949350505050565b6001600160e01b0319811681146107ed57600080fd5b6000602082840312156119a557600080fd5b8135610c5f8161197d565b60005b838110156119cb5781810151838201526020016119b3565b50506000910152565b600081518084526119ec8160208601602086016119b0565b601f01601f19169290920160200192915050565b602081526000610c5f60208301846119d4565b600060208284031215611a2557600080fd5b5035919050565b80356001600160a01b0381168114611a4357600080fd5b919050565b60008060408385031215611a5b57600080fd5b611a6483611a2c565b946020939093013593505050565b600080600060608486031215611a8757600080fd5b611a9084611a2c565b9250611a9e60208501611a2c565b9150604084013590509250925092565b600060208284031215611ac057600080fd5b610c5f82611a2c565b60008060408385031215611adc57600080fd5b611ae583611a2c565b915060208301358015158114611afa57600080fd5b809150509250929050565b634e487b7160e01b600052604160045260246000fd5b60008060008060808587031215611b3157600080fd5b611b3a85611a2c565b9350611b4860208601611a2c565b925060408501359150606085013567ffffffffffffffff80821115611b6c57600080fd5b818701915087601f830112611b8057600080fd5b813581811115611b9257611b92611b05565b604051601f8201601f19908116603f01168101908382118183101715611bba57611bba611b05565b816040528281528a6020848701011115611bd357600080fd5b82602086016020830137600060208483010152809550505050505092959194509250565b60008060408385031215611c0a57600080fd5b611c1383611a2c565b9150611c2160208401611a2c565b90509250929050565b600181811c90821680611c3e57607f821691505b602082108103611c5e57634e487b7160e01b600052602260045260246000fd5b50919050565b634e487b7160e01b600052601160045260246000fd5b600060018201611c8c57611c8c611c64565b5060010190565b8181038181111561042f5761042f611c64565b634e487b7160e01b600052601260045260246000fd5b600082611ccb57611ccb611ca6565b500690565b8082018082111561042f5761042f611c64565b60008151611cf58185602086016119b0565b9290920192915050565b605b60f81b81527f7b2274726169745f74797065223a2250616c65747465222c2276616c7565223a6001820152601160f91b60218201528451600090611d4c816022850160208a016119b0565b62089f4b60ea1b6022918401918201527f7b2274726169745f74797065223a22506f696e7473222c2276616c7565223a2260258201528551611d95816045840160208a016119b0565b01604501611da88162089f4b60ea1b9052565b7f7b2274726169745f74797065223a224c6179657273222c2276616c7565223a226003820152611ddb6023820186611ce3565b62089f4b60ea1b815290507f7b2274726169745f74797065223a2245646974696f6e222c2276616c7565223a6003820152601160f91b6023820152611e24602482015b85611ce3565b642f3631227d60d81b8152605d60f81b6005820152600601979650505050505050565b7f7b226e616d65223a22476f6c64656e20526174696f2023000000000000000000815260008551611e7f816017850160208a016119b0565b61088b60f21b6017918401918201527f226465736372697074696f6e223a2246756c6c79206f6e636861696e2067656e60198201527f65726174697665206172742064726976656e20627920706869203d20312e363160398201526201c17160ed1b6059820152611fd0611f81611f32605c84017f5068796c6c6f74617869732073706972616c732c20676f6c64656e20616e676c81526c0329018999b971a903232b3971609d1b6020820152602d0190565b7f45616368206f66203631207069656365732072656e646572656420656e74697281527f656c792066726f6d20697473206d696e7420736565642e200000000000000000602082015260380190565b7f50726963653a20302e3036313820455448203d20312f706869202f2031302e2081527f537570706c793a203631203d203130302f70686920726f756e6465642e222c006020820152603f0190565b7f22696d616765223a22646174613a746578742f68746d6c3b6261736536342c0081529050612002601f820187611ce3565b61088b60f21b815290507f22616e696d6174696f6e5f75726c223a22646174613a746578742f68746d6c3b60028201526618985cd94d8d0b60ca1b602282015261204f6029820186611ce3565b61088b60f21b815290506c1130ba3a3934b13aba32b9911d60991b600282015261207c600f820185611ce3565b607d60f81b8152600101979650505050505050565b7f646174613a6170706c69636174696f6e2f6a736f6e3b6261736536342c0000008152600082516120c981601d8501602087016119b0565b91909101601d0192915050565b6001600160a01b0385811682528416602082015260408101839052608060608201819052600090612109908301846119d4565b9695505050505050565b60006020828403121561212557600080fd5b8151610c5f8161197d565b634e487b7160e01b600052603260045260246000fd5b808202811582820484141761042f5761042f611c64565b7f3c21444f43545950452068746d6c3e3c68746d6c3e3c686561643e3c6d6574618152701031b430b939b2ba1e913aba33169c111f60791b60208201527f3c7374796c653e2a7b6d617267696e3a303b70616464696e673a307d0000000060318201527f626f64797b6261636b67726f756e643a233030303b646973706c61793a666c65604d82015274783b616c69676e2d6974656d733a63656e7465723b60581b606d8201527f6a7573746966792d636f6e74656e743a63656e7465723b6d696e2d686569676860828201527f743a31303076683b6f766572666c6f773a68696464656e7d000000000000000060a28201527f63616e7661737b6d61782d77696474683a313030766d696e3b6d61782d68656960ba8201527333b43a1d1898183b36b4b73e9e17b9ba3cb6329f60611b60da820152600060ee8201741e17b432b0b21f1e3137b23c9f1e39b1b934b83a1f60591b81526122c16015820189611ce3565b6b31b7b739ba1029a2a2a21e9160a11b815290506122e2600c820188611ce3565b67222c544f4b454e3d60c01b815290506122ff6008820187611ce3565b603b60f81b81529050612318611e1e6001830187611ce3565b7f3c2f7363726970743e3c2f626f64793e3c2f68746d6c3e000000000000000000815260170198975050505050505050565b7f636f6e7374205f63763d646f63756d656e742e637265617465456c656d656e7481526a0a0898d85b9d985cc88a4b60aa1b60208201527f5f63783d5f63762e676574436f6e746578742822326422293b00000000000000602b8201527f5f63762e77696474683d5f63762e6865696768743d3830303b0000000000000060448201527f646f63756d656e742e626f64792e617070656e644368696c64285f6376293b00605d8201527f636f6e737420636f733d4d6174682e636f732c73696e3d4d6174682e73696e2c607c8201526e1cdc5c9d0f53585d1a0b9cdc5c9d0b608a1b609c8201527f50493d4d6174682e50492c54574f5f50493d50492a322c666c6f6f723d4d617460ab82015267682e666c6f6f723b60c01b60cb8201527f66756e6374696f6e206261636b67726f756e642863297b5f63782e66696c6c5360d38201527f74796c653d633b5f63782e66696c6c5265637428302c302c3830302c3830302960f3820152613b7d60f01b610113820152600061042f61273d6127096126cb61267c6126176125db6125a361255c6125196101158c017f66756e6374696f6e2066696c6c2863297b5f63782e66696c6c5374796c653d638152613b7d60f01b602082015260220190565b7f66756e6374696f6e206e6f46696c6c28297b5f63782e66696c6c5374796c653d815270227267626128302c302c302c3029223b7d60781b602082015260310190565b7f66756e6374696f6e206e6f5374726f6b6528297b5f63782e7374726f6b655374815274796c653d227267626128302c302c302c3029223b7d60581b602082015260350190565b7f66756e6374696f6e207374726f6b652863297b5f63782e7374726f6b655374798152656c653d633b7d60d01b602082015260260190565b7f66756e6374696f6e207374726f6b655765696768742877297b5f63782e6c696e8152696557696474683d773b7d60b01b6020820152602a0190565b7f66756e6374696f6e20636972636c6528782c792c64297b5f63782e626567696e81527f5061746828293b5f63782e61726328782c792c642f322c302c54574f5f50492960208201526c3b5f63782e66696c6c28293b7d60981b6040820152604d0190565b7f66756e6374696f6e207075736828297b5f63782e7361766528293b7d66756e6381527f74696f6e20706f7028297b5f63782e726573746f726528293b7d0000000000006020820152603a0190565b7f66756e6374696f6e207472616e736c61746528782c79297b5f63782e7472616e81526b736c61746528782c79293b7d60a01b6020820152602c0190565b7f66756e6374696f6e20726f746174652861297b5f63782e726f746174652861298152613b7d60f01b602082015260220190565b7f66756e6374696f6e206d617028762c612c622c632c64297b72657475726e20638152732b28642d63292a28762d61292f28622d61293b7d60601b602082015260340190565b7f636f6e7374205048493d312e3631383033333938383734393839352c47413d54815270574f5f50492d54574f5f50492f5048493b60781b60208201527f6c65742072733d426967496e7428223078222b53454544293b0000000000000060318201526e636f6e737420726e643d28293d3e7b60881b604a8201527f72733d2872732a363336343133363232333834363739333030356e2b3134343260598201527f3639353034303838383936333430376e292631383434363734343037333730396079820152673535313631356e3b60c01b60998201527f72657475726e204e756d62657228727326343239343936373239356e292f343260a18201526a39343936373239353b7d3b60a81b60c1820152600060cc820168636f6e737420503d5b60b81b81527f5b2223303830383038222c2223464644373030222c2223464641353030222c2260098201527308d1918d908ccd488b0888d18dd0cd4e5188974b60621b60298201527f5b2223306330613165222c2223433737444646222c2223394235444535222c22603d8201527308d94c18585999888b0888d14e50cd0d9048974b60621b605d820152612ae9612aa4612a5e612a186129d261298c607187017f5b2223306430643064222c2223653934353630222c2223306633343630222c2281527308cc4d8c8c4cd9488b0888d98d594d194d08974b60621b602082015260340190565b7f5b2223313230613035222c2223384234353133222c2223443236393145222c2281527308d18d104d0d8c088b0888d1919111505108974b60621b602082015260340190565b7f5b2223304431313137222c2223313631623232222c2223333041313445222c2281527308ccd1908e4d4c088b0888cd4e190d8e1908974b60621b602082015260340190565b7f5b2223306430353232222c2223313139393865222c2223333865663764222c2281527308d190cd50cdd1088b0888cd904ccc0e4cc8974b60621b602082015260340190565b7f5b2223303530353035222c2223316331633163222c2223653065306530222c2281527308d98d598d598d488b0888d9999999999988974b60621b602082015260340190565b7f5b2223303731613130222c2223314234333332222c2223343039313643222c2281527223373443363944222c2223443846334443225d60681b602082015260330190565b615d3b60f01b81527f636f6e73742070616c3d505b666c6f6f7228726e6428292a38295d3b0000000060028201527f636f6e7374204e3d3235302b666c6f6f7228726e6428292a333530293b000000601e8201527f636f6e73742064733d302e342b726e6428292a312e363b000000000000000000603b8201527f636f6e7374204c593d312b666c6f6f7228726e6428292a33293b000000000000605282015275636f6e737420726f3d726e6428292a54574f5f50493b60501b606c8201526082019392505050565b600082612bc157612bc1611ca6565b50049056fe4142434445464748494a4b4c4d4e4f505152535455565758595a6162636465666768696a6b6c6d6e6f707172737475767778797a303132333435363738392b2fa2646970667358221220bc4de0d4699a35717f72ff1f4139b11bf2ed0babb575e057caeb3f8a270d480564736f6c63430008180033",
  "linkReferences": {},
  "deployedLinkReferences": {}
}