{"abi":[{"type":"constructor","inputs":[{"name":"_eas","type":"address","internalType":"contract IEAS"},{"name":"_usdc","type":"address","internalType":"contract IERC20"},{"name":"_treasury","type":"address","internalType":"address"},{"name":"_owner","type":"address","internalType":"address"},{"name":"_registries","type":"address[]","internalType":"address[]"}],"stateMutability":"nonpayable"},{"type":"receive","stateMutability":"payable"},{"type":"function","name":"EAS_CONTRACT","inputs":[],"outputs":[{"name":"","type":"address","internalType":"contract IEAS"}],"stateMutability":"view"},{"type":"function","name":"MAX_FEE","inputs":[],"outputs":[{"name":"","type":"uint256","internalType":"uint256"}],"stateMutability":"view"},{"type":"function","name":"MAX_REGISTRIES","inputs":[],"outputs":[{"name":"","type":"uint256","internalType":"uint256"}],"stateMutability":"view"},{"type":"function","name":"USDC","inputs":[],"outputs":[{"name":"","type":"address","internalType":"contract IERC20"}],"stateMutability":"view"},{"type":"function","name":"acceptOwnership","inputs":[],"outputs":[],"stateMutability":"nonpayable"},{"type":"function","name":"addRegistry","inputs":[{"name":"registry","type":"address","internalType":"address"}],"outputs":[],"stateMutability":"nonpayable"},{"type":"function","name":"attest","inputs":[{"name":"attestation","type":"tuple","internalType":"struct Attestation","components":[{"name":"uid","type":"bytes32","internalType":"bytes32"},{"name":"schema","type":"bytes32","internalType":"bytes32"},{"name":"time","type":"uint64","internalType":"uint64"},{"name":"expirationTime","type":"uint64","internalType":"uint64"},{"name":"revocationTime","type":"uint64","internalType":"uint64"},{"name":"refUID","type":"bytes32","internalType":"bytes32"},{"name":"recipient","type":"address","internalType":"address"},{"name":"attester","type":"address","internalType":"address"},{"name":"revocable","type":"bool","internalType":"bool"},{"name":"data","type":"bytes","internalType":"bytes"}]}],"outputs":[{"name":"","type":"bool","internalType":"bool"}],"stateMutability":"payable"},{"type":"function","name":"getTrustedRegistries","inputs":[],"outputs":[{"name":"","type":"address[]","internalType":"address[]"}],"stateMutability":"view"},{"type":"function","name":"hasSigned","inputs":[{"name":"","type":"address","internalType":"address"}],"outputs":[{"name":"","type":"bool","internalType":"bool"}],"stateMutability":"view"},{"type":"function","name":"isPayable","inputs":[],"outputs":[{"name":"","type":"bool","internalType":"bool"}],"stateMutability":"pure"},{"type":"function","name":"isRegisteredAgent","inputs":[{"name":"account","type":"address","internalType":"address"}],"outputs":[{"name":"","type":"bool","internalType":"bool"}],"stateMutability":"view"},{"type":"function","name":"isRegistryTrusted","inputs":[{"name":"","type":"address","internalType":"address"}],"outputs":[{"name":"","type":"bool","internalType":"bool"}],"stateMutability":"view"},{"type":"function","name":"multiAttest","inputs":[{"name":"attestations","type":"tuple[]","internalType":"struct Attestation[]","components":[{"name":"uid","type":"bytes32","internalType":"bytes32"},{"name":"schema","type":"bytes32","internalType":"bytes32"},{"name":"time","type":"uint64","internalType":"uint64"},{"name":"expirationTime","type":"uint64","internalType":"uint64"},{"name":"revocationTime","type":"uint64","internalType":"uint64"},{"name":"refUID","type":"bytes32","internalType":"bytes32"},{"name":"recipient","type":"address","internalType":"address"},{"name":"attester","type":"address","internalType":"address"},{"name":"revocable","type":"bool","internalType":"bool"},{"name":"data","type":"bytes","internalType":"bytes"}]},{"name":"values","type":"uint256[]","internalType":"uint256[]"}],"outputs":[{"name":"","type":"bool","internalType":"bool"}],"stateMutability":"payable"},{"type":"function","name":"multiRevoke","inputs":[{"name":"attestations","type":"tuple[]","internalType":"struct Attestation[]","components":[{"name":"uid","type":"bytes32","internalType":"bytes32"},{"name":"schema","type":"bytes32","internalType":"bytes32"},{"name":"time","type":"uint64","internalType":"uint64"},{"name":"expirationTime","type":"uint64","internalType":"uint64"},{"name":"revocationTime","type":"uint64","internalType":"uint64"},{"name":"refUID","type":"bytes32","internalType":"bytes32"},{"name":"recipient","type":"address","internalType":"address"},{"name":"attester","type":"address","internalType":"address"},{"name":"revocable","type":"bool","internalType":"bool"},{"name":"data","type":"bytes","internalType":"bytes"}]},{"name":"values","type":"uint256[]","internalType":"uint256[]"}],"outputs":[{"name":"","type":"bool","internalType":"bool"}],"stateMutability":"payable"},{"type":"function","name":"owner","inputs":[],"outputs":[{"name":"","type":"address","internalType":"address"}],"stateMutability":"view"},{"type":"function","name":"pause","inputs":[],"outputs":[],"stateMutability":"nonpayable"},{"type":"function","name":"paused","inputs":[],"outputs":[{"name":"","type":"bool","internalType":"bool"}],"stateMutability":"view"},{"type":"function","name":"pendingOwner","inputs":[],"outputs":[{"name":"","type":"address","internalType":"address"}],"stateMutability":"view"},{"type":"function","name":"registryCount","inputs":[],"outputs":[{"name":"","type":"uint256","internalType":"uint256"}],"stateMutability":"view"},{"type":"function","name":"removeRegistry","inputs":[{"name":"registry","type":"address","internalType":"address"}],"outputs":[],"stateMutability":"nonpayable"},{"type":"function","name":"renounceOwnership","inputs":[],"outputs":[],"stateMutability":"nonpayable"},{"type":"function","name":"revoke","inputs":[{"name":"attestation","type":"tuple","internalType":"struct Attestation","components":[{"name":"uid","type":"bytes32","internalType":"bytes32"},{"name":"schema","type":"bytes32","internalType":"bytes32"},{"name":"time","type":"uint64","internalType":"uint64"},{"name":"expirationTime","type":"uint64","internalType":"uint64"},{"name":"revocationTime","type":"uint64","internalType":"uint64"},{"name":"refUID","type":"bytes32","internalType":"bytes32"},{"name":"recipient","type":"address","internalType":"address"},{"name":"attester","type":"address","internalType":"address"},{"name":"revocable","type":"bool","internalType":"bool"},{"name":"data","type":"bytes","internalType":"bytes"}]}],"outputs":[{"name":"","type":"bool","internalType":"bool"}],"stateMutability":"payable"},{"type":"function","name":"setSigningFee","inputs":[{"name":"_fee","type":"uint256","internalType":"uint256"}],"outputs":[],"stateMutability":"nonpayable"},{"type":"function","name":"setTreasury","inputs":[{"name":"_treasury","type":"address","internalType":"address"}],"outputs":[],"stateMutability":"nonpayable"},{"type":"function","name":"signingFee","inputs":[],"outputs":[{"name":"","type":"uint256","internalType":"uint256"}],"stateMutability":"view"},{"type":"function","name":"transferOwnership","inputs":[{"name":"newOwner","type":"address","internalType":"address"}],"outputs":[],"stateMutability":"nonpayable"},{"type":"function","name":"treasury","inputs":[],"outputs":[{"name":"","type":"address","internalType":"address"}],"stateMutability":"view"},{"type":"function","name":"trustedRegistries","inputs":[{"name":"","type":"uint256","internalType":"uint256"}],"outputs":[{"name":"","type":"address","internalType":"address"}],"stateMutability":"view"},{"type":"function","name":"unpause","inputs":[],"outputs":[],"stateMutability":"nonpayable"},{"type":"function","name":"version","inputs":[],"outputs":[{"name":"","type":"string","internalType":"string"}],"stateMutability":"view"},{"type":"event","name":"FeeUpdated","inputs":[{"name":"oldFee","type":"uint256","indexed":false,"internalType":"uint256"},{"name":"newFee","type":"uint256","indexed":false,"internalType":"uint256"}],"anonymous":false},{"type":"event","name":"ManifestoSigned","inputs":[{"name":"signer","type":"address","indexed":true,"internalType":"address"},{"name":"verified","type":"bool","indexed":false,"internalType":"bool"},{"name":"feePaid","type":"uint256","indexed":false,"internalType":"uint256"}],"anonymous":false},{"type":"event","name":"OwnershipTransferStarted","inputs":[{"name":"previousOwner","type":"address","indexed":true,"internalType":"address"},{"name":"newOwner","type":"address","indexed":true,"internalType":"address"}],"anonymous":false},{"type":"event","name":"OwnershipTransferred","inputs":[{"name":"previousOwner","type":"address","indexed":true,"internalType":"address"},{"name":"newOwner","type":"address","indexed":true,"internalType":"address"}],"anonymous":false},{"type":"event","name":"Paused","inputs":[{"name":"account","type":"address","indexed":false,"internalType":"address"}],"anonymous":false},{"type":"event","name":"RegistryAdded","inputs":[{"name":"registry","type":"address","indexed":true,"internalType":"address"}],"anonymous":false},{"type":"event","name":"RegistryRemoved","inputs":[{"name":"registry","type":"address","indexed":true,"internalType":"address"}],"anonymous":false},{"type":"event","name":"TreasuryUpdated","inputs":[{"name":"oldTreasury","type":"address","indexed":true,"internalType":"address"},{"name":"newTreasury","type":"address","indexed":true,"internalType":"address"}],"anonymous":false},{"type":"event","name":"Unpaused","inputs":[{"name":"account","type":"address","indexed":false,"internalType":"address"}],"anonymous":false},{"type":"error","name":"AccessDenied","inputs":[]},{"type":"error","name":"CryptoClarityResolver__AlreadySigned","inputs":[]},{"type":"error","name":"CryptoClarityResolver__ContractPaused","inputs":[]},{"type":"error","name":"CryptoClarityResolver__FeeTooHigh","inputs":[]},{"type":"error","name":"CryptoClarityResolver__InvalidAttestation","inputs":[]},{"type":"error","name":"CryptoClarityResolver__PaymentFailed","inputs":[]},{"type":"error","name":"CryptoClarityResolver__RegistryAlreadyTrusted","inputs":[]},{"type":"error","name":"CryptoClarityResolver__RegistryNotTrusted","inputs":[]},{"type":"error","name":"CryptoClarityResolver__TooManyRegistries","inputs":[]},{"type":"error","name":"CryptoClarityResolver__ZeroAddress","inputs":[]},{"type":"error","name":"EnforcedPause","inputs":[]},{"type":"error","name":"ExpectedPause","inputs":[]},{"type":"error","name":"InsufficientValue","inputs":[]},{"type":"error","name":"InvalidEAS","inputs":[]},{"type":"error","name":"InvalidLength","inputs":[]},{"type":"error","name":"NotPayable","inputs":[]},{"type":"error","name":"OwnableInvalidOwner","inputs":[{"name":"owner","type":"address","internalType":"address"}]},{"type":"error","name":"OwnableUnauthorizedAccount","inputs":[{"name":"account","type":"address","internalType":"address"}]},{"type":"error","name":"ReentrancyGuardReentrantCall","inputs":[]}],"bytecode":{"object":"0x610140604052348015610010575f80fd5b50604051611af6380380611af683398101604081905261002f9161031f565b6001608052600460a0525f60c05281856001600160a01b038116610066576040516341bc07ff60e11b815260040160405180910390fd5b6001600160a01b0390811660e052811661009957604051631e4fbdf760e01b81525f600482015260240160405180910390fd5b6100a28161018e565b506001600160a01b0383166100ca5760405163019270f160e61b815260040160405180910390fd5b6001600160a01b0384166100f15760405163019270f160e61b815260040160405180910390fd5b6014815111156101145760405163a452b9ef60e01b815260040160405180910390fd5b6001600160a01b038581166101205284811661010052600380546001600160a01b031916918516919091179055620f42406002555f5b81518110156101835761017b82828151811061016857610168610438565b60200260200101516101aa60201b60201c565b60010161014a565b50505050505061044c565b600180546001600160a01b03191690556101a781610298565b50565b6001600160a01b0381166101d15760405163019270f160e61b815260040160405180910390fd5b6001600160a01b0381165f9081526005602052604090205460ff161561020a57604051637316b74b60e11b815260040160405180910390fd5b6004805460018082019092557f8a35acfbc15ff81a39ae7d344fd709f28e8600b4aa8c65c6b64bfe7fe36bd19b0180546001600160a01b0319166001600160a01b0384169081179091555f81815260056020526040808220805460ff1916909417909355915190917feda4c15c5cc913823568e8e0cef4ef767ecfef8862e09d8461ccd18c641e310491a250565b5f80546001600160a01b038381166001600160a01b0319831681178455604051919092169283917f8be0079c531659141344cd1fd0a4f28419497f9722a3daafe3b4186f6b6457e09190a35050565b6001600160a01b03811681146101a7575f80fd5b8051610306816102e7565b919050565b634e487b7160e01b5f52604160045260245ffd5b5f805f805f60a08688031215610333575f80fd5b855161033e816102e7565b602087015190955061034f816102e7565b6040870151909450610360816102e7565b6060870151909350610371816102e7565b60808701519092506001600160401b0381111561038c575f80fd5b8601601f8101881361039c575f80fd5b80516001600160401b038111156103b5576103b561030b565b604051600582901b90603f8201601f191681016001600160401b03811182821017156103e3576103e361030b565b60405291825260208184018101929081018b841115610400575f80fd5b6020850194505b8385101561042657610418856102fb565b815260209485019401610407565b50809450505050509295509295909350565b634e487b7160e01b5f52603260045260245ffd5b60805160a05160c05160e051610100516101205161165c61049a5f395f6103fb01525f81816103290152610ea101525f610d7301525f61065901525f61063001525f610607015261165c5ff3fe6080604052600436106101c8575f3560e01c8063ace58178116100f2578063ce46e04611610092578063e60c350511610062578063e60c35051461050c578063f0f442601461051f578063f2fde38b1461053e578063f6b11a231461055d575f80fd5b8063ce46e046146104ab578063e21b38d2146104bd578063e30c3978146104dc578063e49617e1146104f9575f80fd5b8063b9bce6c9116100cd578063b9bce6c91461043e578063bc063e1a14610452578063bf6a141314610469578063cbb8343414610497575f80fd5b8063ace58178146103c7578063ae0c4b1e146103ea578063af5b79db1461041d575f80fd5b806379ba5097116101685780638da5cb5b116101385780638da5cb5b1461034b57806391db0b7e14610367578063a338d3921461037a578063a83480f414610399575f80fd5b806379ba5097146102dd5780638456cb59146102f157806388e5b2d91461030557806389a3027114610318575f80fd5b80635c975abb116101a35780635c975abb1461024957806361d027b314610273578063715018a6146102aa57806374a0aff6146102be575f80fd5b80630152e06e146101ec5780633f4ba83a1461020b57806354fd4d501461021f575f80fd5b366101e857604051631574f9f360e01b815260040160405180910390fd5b005b5f80fd5b3480156101f7575f80fd5b506101e6610206366004611370565b61057c565b348015610216575f80fd5b506101e66105ee565b34801561022a575f80fd5b50610233610600565b6040516102409190611387565b60405180910390f35b348015610254575f80fd5b50600154600160a01b900460ff165b6040519015158152602001610240565b34801561027e575f80fd5b50600354610292906001600160a01b031681565b6040516001600160a01b039091168152602001610240565b3480156102b5575f80fd5b506101e66106a3565b3480156102c9575f80fd5b506101e66102d83660046113bc565b6106b4565b3480156102e8575f80fd5b506101e661083f565b3480156102fc575f80fd5b506101e6610888565b610263610313366004611431565b610898565b348015610323575f80fd5b506102927f000000000000000000000000000000000000000000000000000000000000000081565b348015610356575f80fd5b505f546001600160a01b0316610292565b610263610375366004611431565b610962565b348015610385575f80fd5b50610292610394366004611370565b610a1d565b3480156103a4575f80fd5b506102636103b33660046113bc565b60056020525f908152604090205460ff1681565b3480156103d2575f80fd5b506103dc60025481565b604051908152602001610240565b3480156103f5575f80fd5b506102927f000000000000000000000000000000000000000000000000000000000000000081565b348015610428575f80fd5b50610431610a45565b604051610240919061149d565b348015610449575f80fd5b506103dc601481565b34801561045d575f80fd5b506103dc6305f5e10081565b348015610474575f80fd5b506102636104833660046113bc565b60066020525f908152604090205460ff1681565b3480156104a2575f80fd5b506004546103dc565b3480156104b6575f80fd5b505f610263565b3480156104c8575f80fd5b506102636104d73660046113bc565b610aa5565b3480156104e7575f80fd5b506001546001600160a01b0316610292565b6102636105073660046114e8565b610ab5565b61026361051a3660046114e8565b610ac4565b34801561052a575f80fd5b506101e66105393660046113bc565b610ad7565b348015610549575f80fd5b506101e66105583660046113bc565b610b57565b348015610568575f80fd5b506101e66105773660046113bc565b610bc7565b610584610bfb565b6305f5e1008111156105a95760405163483038f360e01b815260040160405180910390fd5b600280549082905560408051828152602081018490527f528d9479e9f9889a87a3c30c7f7ba537e5e59c4c85a37733b16e57c62df61302910160405180910390a15050565b6105f6610bfb565b6105fe610c27565b565b606061062b7f0000000000000000000000000000000000000000000000000000000000000000610c7c565b6106547f0000000000000000000000000000000000000000000000000000000000000000610c7c565b61067d7f0000000000000000000000000000000000000000000000000000000000000000610c7c565b60405160200161068f93929190611537565b604051602081830303815290604052905090565b6106ab610bfb565b6105fe5f610d0c565b6106bc610bfb565b6001600160a01b0381165f9081526005602052604090205460ff166106f457604051630d69e8bf60e01b815260040160405180910390fd5b6001600160a01b0381165f908152600560205260408120805460ff19169055600454905b8181101561080757826001600160a01b03166004828154811061073d5761073d611576565b5f918252602090912001546001600160a01b0316036107ff57600461076360018461158a565b8154811061077357610773611576565b5f91825260209091200154600480546001600160a01b03909216918390811061079e5761079e611576565b905f5260205f20015f6101000a8154816001600160a01b0302191690836001600160a01b0316021790555060048054806107da576107da6115a9565b5f8281526020902081015f1990810180546001600160a01b0319169055019055610807565b600101610718565b506040516001600160a01b038316907f844af01853851820d454320c246b668885e30f2019e409ba72f7c04078b146b1905f90a25050565b60015433906001600160a01b0316811461087c5760405163118cdaa760e01b81526001600160a01b03821660048201526024015b60405180910390fd5b61088581610d0c565b50565b610890610bfb565b6105fe610d25565b5f6108a1610d68565b838281146108c25760405163251f56a160e21b815260040160405180910390fd5b345f5b82811015610952575f8686838181106108e0576108e0611576565b9050602002013590508281111561090a5760405163044044a560e21b815260040160405180910390fd5b61093689898481811061091f5761091f611576565b905060200281019061093191906115bd565b505f90565b610946575f94505050505061095a565b909103906001016108c5565b506001925050505b949350505050565b5f61096b610d68565b8382811461098c5760405163251f56a160e21b815260040160405180910390fd5b345f5b82811015610952575f8686838181106109aa576109aa611576565b905060200201359050828111156109d45760405163044044a560e21b815260040160405180910390fd5b610a018989848181106109e9576109e9611576565b90506020028101906109fb91906115bd565b82610db1565b610a11575f94505050505061095a565b9091039060010161098f565b60048181548110610a2c575f80fd5b5f918252602090912001546001600160a01b0316905081565b60606004805480602002602001604051908101604052809291908181526020018280548015610a9b57602002820191905f5260205f20905b81546001600160a01b03168152600190910190602001808311610a7d575b5050505050905090565b5f610aaf82610fa8565b92915050565b5f610abe610d68565b5f610aaf565b5f610acd610d68565b610aaf8234610db1565b610adf610bfb565b6001600160a01b038116610b065760405163019270f160e61b815260040160405180910390fd5b600380546001600160a01b038381166001600160a01b0319831681179093556040519116919082907f4ab5be82436d353e61ca18726e984e561f5c1cc7c6d38b29d2553c790434705a905f90a35050565b610b5f610bfb565b600180546001600160a01b0383166001600160a01b03199091168117909155610b8f5f546001600160a01b031690565b6001600160a01b03167f38d16b8cac22d99fc7c124b9cd0de2d3fa1faef420bfe791d8c362d765e2270060405160405180910390a350565b610bcf610bfb565b600454601411610bf25760405163a452b9ef60e01b815260040160405180910390fd5b61088581611061565b5f546001600160a01b031633146105fe5760405163118cdaa760e01b8152336004820152602401610873565b610c2f61114f565b6001805460ff60a01b191690557f5db9ee0a495bf2e6ff9c91a7834c1ba4fdd244a5e8aa4e537bd38aeae4b073aa335b6040516001600160a01b03909116815260200160405180910390a1565b60605f610c8883611179565b60010190505f8167ffffffffffffffff811115610ca757610ca76115dc565b6040519080825280601f01601f191660200182016040528015610cd1576020820181803683370190505b5090508181016020015b5f19016f181899199a1a9b1b9c1cb0b131b232b360811b600a86061a8153600a8504945084610cdb57509392505050565b600180546001600160a01b031916905561088581611250565b610d2d61129f565b6001805460ff60a01b1916600160a01b1790557f62e78cea01bee320cd4e420270b5ea74000d11b0c9f74754ebdbfc544b05a258610c5f3390565b336001600160a01b037f000000000000000000000000000000000000000000000000000000000000000016146105fe57604051634ca8886760e01b815260040160405180910390fd5b5f610dba6112ca565b600154600160a01b900460ff1615610de5576040516316d7868760e31b815260040160405180910390fd5b5f610df7610100850160e086016113bc565b90506001600160a01b038116610e2057604051633886fea560e11b815260040160405180910390fd5b6001600160a01b0381165f9081526006602052604090205460ff1615610e5957604051630196e6d960e21b815260040160405180910390fd5b5f610e6382610fa8565b905080610f2d576003546002546040516323b872dd60e01b81526001600160a01b038581166004830152928316602482015260448101919091525f917f000000000000000000000000000000000000000000000000000000000000000016906323b872dd906064016020604051808303815f875af1158015610ee7573d5f803e3d5ffd5b505050506040513d601f19601f82011682018060405250810190610f0b91906115f0565b905080610f2b57604051637ce02ea360e11b815260040160405180910390fd5b505b6001600160a01b0382165f818152600660205260409020805460ff191660011790557fbb105afb1446eab6f11c200a82bde77f3ae8417c78219d383b8ef4c90fbdda418280610f7e57600254610f80565b5f5b60408051921515835260208301919091520160405180910390a2600192505050610aaf6112ff565b6004545f90815b818110156110585760048181548110610fca57610fca611576565b5f918252602090912001546040516370a0823160e01b81526001600160a01b038681166004830152909116906370a0823190602401602060405180830381865afa925050508015611038575060408051601f3d908101601f191682019092526110359181019061160f565b60015b1561105057801561104e57506001949350505050565b505b600101610faf565b505f9392505050565b6001600160a01b0381166110885760405163019270f160e61b815260040160405180910390fd5b6001600160a01b0381165f9081526005602052604090205460ff16156110c157604051637316b74b60e11b815260040160405180910390fd5b6004805460018082019092557f8a35acfbc15ff81a39ae7d344fd709f28e8600b4aa8c65c6b64bfe7fe36bd19b0180546001600160a01b0319166001600160a01b0384169081179091555f81815260056020526040808220805460ff1916909417909355915190917feda4c15c5cc913823568e8e0cef4ef767ecfef8862e09d8461ccd18c641e310491a250565b600154600160a01b900460ff166105fe57604051638dfc202b60e01b815260040160405180910390fd5b5f8072184f03e93ff9f4daa797ed6e38ed64bf6a1f0160401b83106111b75772184f03e93ff9f4daa797ed6e38ed64bf6a1f0160401b830492506040015b6d04ee2d6d415b85acef810000000083106111e3576d04ee2d6d415b85acef8100000000830492506020015b662386f26fc10000831061120157662386f26fc10000830492506010015b6305f5e1008310611219576305f5e100830492506008015b612710831061122d57612710830492506004015b6064831061123f576064830492506002015b600a8310610aaf5760010192915050565b5f80546001600160a01b038381166001600160a01b0319831681178455604051919092169283917f8be0079c531659141344cd1fd0a4f28419497f9722a3daafe3b4186f6b6457e09190a35050565b600154600160a01b900460ff16156105fe5760405163d93c066560e01b815260040160405180910390fd5b6112d2611329565b6105fe60017f9b779b17422d0df92223018b32b4d1fa46e071723d6817e2486d003becc55f005b90611369565b6105fe5f7f9b779b17422d0df92223018b32b4d1fa46e071723d6817e2486d003becc55f006112f9565b7f9b779b17422d0df92223018b32b4d1fa46e071723d6817e2486d003becc55f005c156105fe57604051633ee5aeb560e01b815260040160405180910390fd5b80825d5050565b5f60208284031215611380575f80fd5b5035919050565b602081525f82518060208401528060208501604085015e5f604082850101526040601f19601f83011684010191505092915050565b5f602082840312156113cc575f80fd5b81356001600160a01b03811681146113e2575f80fd5b9392505050565b5f8083601f8401126113f9575f80fd5b50813567ffffffffffffffff811115611410575f80fd5b6020830191508360208260051b850101111561142a575f80fd5b9250929050565b5f805f8060408587031215611444575f80fd5b843567ffffffffffffffff81111561145a575f80fd5b611466878288016113e9565b909550935050602085013567ffffffffffffffff811115611485575f80fd5b611491878288016113e9565b95989497509550505050565b602080825282518282018190525f918401906040840190835b818110156114dd5783516001600160a01b03168352602093840193909201916001016114b6565b509095945050505050565b5f602082840312156114f8575f80fd5b813567ffffffffffffffff81111561150e575f80fd5b820161014081850312156113e2575f80fd5b5f81518060208401855e5f93019283525090919050565b5f6115428286611520565b601760f91b81526115566001820186611520565b9050601760f91b815261156c6001820185611520565b9695505050505050565b634e487b7160e01b5f52603260045260245ffd5b81810381811115610aaf57634e487b7160e01b5f52601160045260245ffd5b634e487b7160e01b5f52603160045260245ffd5b5f823561013e198336030181126115d2575f80fd5b9190910192915050565b634e487b7160e01b5f52604160045260245ffd5b5f60208284031215611600575f80fd5b815180151581146113e2575f80fd5b5f6020828403121561161f575f80fd5b505191905056fea26469706673582212202f6644a3883259c4e58af27a8998d8a2dd5654d393ae0cb2beb74ce0a4b4284264736f6c634300081a0033","linkReferences":{}},"methodIdentifiers":{"EAS_CONTRACT()":"ae0c4b1e","MAX_FEE()":"bc063e1a","MAX_REGISTRIES()":"b9bce6c9","USDC()":"89a30271","acceptOwnership()":"79ba5097","addRegistry(address)":"f6b11a23","attest((bytes32,bytes32,uint64,uint64,uint64,bytes32,address,address,bool,bytes))":"e60c3505","getTrustedRegistries()":"af5b79db","hasSigned(address)":"bf6a1413","isPayable()":"ce46e046","isRegisteredAgent(address)":"e21b38d2","isRegistryTrusted(address)":"a83480f4","multiAttest((bytes32,bytes32,uint64,uint64,uint64,bytes32,address,address,bool,bytes)[],uint256[])":"91db0b7e","multiRevoke((bytes32,bytes32,uint64,uint64,uint64,bytes32,address,address,bool,bytes)[],uint256[])":"88e5b2d9","owner()":"8da5cb5b","pause()":"8456cb59","paused()":"5c975abb","pendingOwner()":"e30c3978","registryCount()":"cbb83434","removeRegistry(address)":"74a0aff6","renounceOwnership()":"715018a6","revoke((bytes32,bytes32,uint64,uint64,uint64,bytes32,address,address,bool,bytes))":"e49617e1","setSigningFee(uint256)":"0152e06e","setTreasury(address)":"f0f44260","signingFee()":"ace58178","transferOwnership(address)":"f2fde38b","treasury()":"61d027b3","trustedRegistries(uint256)":"a338d392","unpause()":"3f4ba83a","version()":"54fd4d50"},"id":45}