{"contracts/GoldenRatio.sol":{"GoldenRatio":{"abi":[{"inputs":[],"stateMutability":"nonpayable","type":"constructor"},{"inputs":[{"internalType":"address","name":"sender","type":"address"},{"internalType":"uint256","name":"tokenId","type":"uint256"},{"internalType":"address","name":"owner","type":"address"}],"name":"ERC721IncorrectOwner","type":"error"},{"inputs":[{"internalType":"address","name":"operator","type":"address"},{"internalType":"uint256","name":"tokenId","type":"uint256"}],"name":"ERC721InsufficientApproval","type":"error"},{"inputs":[{"internalType":"address","name":"approver","type":"address"}],"name":"ERC721InvalidApprover","type":"error"},{"inputs":[{"internalType":"address","name":"operator","type":"address"}],"name":"ERC721InvalidOperator","type":"error"},{"inputs":[{"internalType":"address","name":"owner","type":"address"}],"name":"ERC721InvalidOwner","type":"error"},{"inputs":[{"internalType":"address","name":"receiver","type":"address"}],"name":"ERC721InvalidReceiver","type":"error"},{"inputs":[{"internalType":"address","name":"sender","type":"address"}],"name":"ERC721InvalidSender","type":"error"},{"inputs":[{"internalType":"uint256","name":"tokenId","type":"uint256"}],"name":"ERC721NonexistentToken","type":"error"},{"inputs":[],"name":"InsufficientPayment","type":"error"},{"inputs":[],"name":"Nonexistent","type":"error"},{"inputs":[{"internalType":"address","name":"owner","type":"address"}],"name":"OwnableInvalidOwner","type":"error"},{"inputs":[{"internalType":"address","name":"account","type":"address"}],"name":"OwnableUnauthorizedAccount","type":"error"},{"inputs":[],"name":"SoldOut","type":"error"},{"anonymous":false,"inputs":[{"indexed":true,"internalType":"address","name":"owner","type":"address"},{"indexed":true,"internalType":"address","name":"approved","type":"address"},{"indexed":true,"internalType":"uint256","name":"tokenId","type":"uint256"}],"name":"Approval","type":"event"},{"anonymous":false,"inputs":[{"indexed":true,"internalType":"address","name":"owner","type":"address"},{"indexed":true,"internalType":"address","name":"operator","type":"address"},{"indexed":false,"internalType":"bool","name":"approved","type":"bool"}],"name":"ApprovalForAll","type":"event"},{"anonymous":false,"inputs":[{"indexed":true,"internalType":"address","name":"to","type":"address"},{"indexed":true,"internalType":"uint256","name":"tokenId","type":"uint256"},{"indexed":false,"internalType":"bytes32","name":"seed","type":"bytes32"}],"name":"Minted","type":"event"},{"anonymous":false,"inputs":[{"indexed":true,"internalType":"address","name":"previousOwner","type":"address"},{"indexed":true,"internalType":"address","name":"newOwner","type":"address"}],"name":"OwnershipTransferred","type":"event"},{"anonymous":false,"inputs":[{"indexed":true,"internalType":"address","name":"from","type":"address"},{"indexed":true,"internalType":"address","name":"to","type":"address"},{"indexed":true,"internalType":"uint256","name":"tokenId","type":"uint256"}],"name":"Transfer","type":"event"},{"inputs":[],"name":"MAX_SUPPLY","outputs":[{"internalType":"uint256","name":"","type":"uint256"}],"stateMutability":"view","type":"function"},{"inputs":[],"name":"MINT_PRICE","outputs":[{"internalType":"uint256","name":"","type":"uint256"}],"stateMutability":"view","type":"function"},{"inputs":[{"internalType":"address","name":"to","type":"address"},{"internalType":"uint256","name":"tokenId","type":"uint256"}],"name":"approve","outputs":[],"stateMutability":"nonpayable","type":"function"},{"inputs":[{"internalType":"address","name":"owner","type":"address"}],"name":"balanceOf","outputs":[{"internalType":"uint256","name":"","type":"uint256"}],"stateMutability":"view","type":"function"},{"inputs":[{"internalType":"uint256","name":"tokenId","type":"uint256"}],"name":"getApproved","outputs":[{"internalType":"address","name":"","type":"address"}],"stateMutability":"view","type":"function"},{"inputs":[{"internalType":"address","name":"owner","type":"address"},{"internalType":"address","name":"operator","type":"address"}],"name":"isApprovedForAll","outputs":[{"internalType":"bool","name":"","type":"bool"}],"stateMutability":"view","type":"function"},{"inputs":[],"name":"mint","outputs":[],"stateMutability":"payable","type":"function"},{"inputs":[],"name":"name","outputs":[{"internalType":"string","name":"","type":"string"}],"stateMutability":"view","type":"function"},{"inputs":[],"name":"owner","outputs":[{"internalType":"address","name":"","type":"address"}],"stateMutability":"view","type":"function"},{"inputs":[{"internalType":"uint256","name":"tokenId","type":"uint256"}],"name":"ownerOf","outputs":[{"internalType":"address","name":"","type":"address"}],"stateMutability":"view","type":"function"},{"inputs":[],"name":"renounceOwnership","outputs":[],"stateMutability":"nonpayable","type":"function"},{"inputs":[{"internalType":"address","name":"from","type":"address"},{"internalType":"address","name":"to","type":"address"},{"internalType":"uint256","name":"tokenId","type":"uint256"}],"name":"safeTransferFrom","outputs":[],"stateMutability":"nonpayable","type":"function"},{"inputs":[{"internalType":"address","name":"from","type":"address"},{"internalType":"address","name":"to","type":"address"},{"internalType":"uint256","name":"tokenId","type":"uint256"},{"internalType":"bytes","name":"data","type":"bytes"}],"name":"safeTransferFrom","outputs":[],"stateMutability":"nonpayable","type":"function"},{"inputs":[{"internalType":"uint256","name":"tokenId","type":"uint256"}],"name":"seedOf","outputs":[{"internalType":"bytes32","name":"","type":"bytes32"}],"stateMutability":"view","type":"function"},{"inputs":[{"internalType":"address","name":"operator","type":"address"},{"internalType":"bool","name":"approved","type":"bool"}],"name":"setApprovalForAll","outputs":[],"stateMutability":"nonpayable","type":"function"},{"inputs":[{"internalType":"bytes4","name":"interfaceId","type":"bytes4"}],"name":"supportsInterface","outputs":[{"internalType":"bool","name":"","type":"bool"}],"stateMutability":"view","type":"function"},{"inputs":[],"name":"symbol","outputs":[{"internalType":"string","name":"","type":"string"}],"stateMutability":"view","type":"function"},{"inputs":[{"internalType":"uint256","name":"tokenId","type":"uint256"}],"name":"tokenURI","outputs":[{"internalType":"string","name":"","type":"string"}],"stateMutability":"view","type":"function"},{"inputs":[],"name":"totalMinted","outputs":[{"internalType":"uint256","name":"","type":"uint256"}],"stateMutability":"view","type":"function"},{"inputs":[{"internalType":"address","name":"from","type":"address"},{"internalType":"address","name":"to","type":"address"},{"internalType":"uint256","name":"tokenId","type":"uint256"}],"name":"transferFrom","outputs":[],"stateMutability":"nonpayable","type":"function"},{"inputs":[{"internalType":"address","name":"newOwner","type":"address"}],"name":"transferOwnership","outputs":[],"stateMutability":"nonpayable","type":"function"},{"inputs":[],"name":"withdraw","outputs":[],"stateMutability":"nonpayable","type":"function"}],"evm":{"bytecode":{"linkReferences":{},"object":"60806040523480156200001157600080fd5b50336040518060400160405280600c81526020016b476f6c64656e20526174696f60a01b8152506040518060400160405280600381526020016250484960e81b8152508160009081620000659190620001b1565b506001620000748282620001b1565b5050506001600160a01b038116620000a657604051631e4fbdf760e01b81526000600482015260240160405180910390fd5b620000b181620000b8565b506200027d565b600680546001600160a01b038381166001600160a01b0319831681179093556040519116919082907f8be0079c531659141344cd1fd0a4f28419497f9722a3daafe3b4186f6b6457e090600090a35050565b634e487b7160e01b600052604160045260246000fd5b600181811c908216806200013557607f821691505b6020821081036200015657634e487b7160e01b600052602260045260246000fd5b50919050565b601f821115620001ac576000816000526020600020601f850160051c81016020861015620001875750805b601f850160051c820191505b81811015620001a85782815560010162000193565b5050505b505050565b81516001600160401b03811115620001cd57620001cd6200010a565b620001e581620001de845462000120565b846200015c565b602080601f8311600181146200021d5760008415620002045750858301515b600019600386901b1c1916600185901b178555620001a8565b600085815260208120601f198616915b828110156200024e578886015182559484019460019091019084016200022d565b50858210156200026d5787850151600019600388901b60f8161c191681555b5050505050600190811b01905550565b6136ef806200028d6000396000f3fe6080604052600436106101355760003560e01c8063715018a6116100ab578063a2309ff81161006f578063a2309ff814610333578063b88d4fde14610348578063c002d23d14610368578063c87b56dd14610383578063e985e9c5146103a3578063f2fde38b146103c357600080fd5b8063715018a6146102ab57806382829f74146102c05780638da5cb5b146102e057806395d89b41146102fe578063a22cb4651461031357600080fd5b806323b872dd116100fd57806323b872dd146101f357806332cb6b0c146102135780633ccfd60b1461023657806342842e0e1461024b5780636352211e1461026b57806370a082311461028b57600080fd5b806301ffc9a71461013a57806306fdde031461016f578063081812fc14610191578063095ea7b3146101c95780631249c58b146101eb575b600080fd5b34801561014657600080fd5b5061015a6101553660046121d7565b6103e3565b60405190151581526020015b60405180910390f35b34801561017b57600080fd5b50610184610435565b6040516101669190612244565b34801561019d57600080fd5b506101b16101ac366004612257565b6104c7565b6040516001600160a01b039091168152602001610166565b3480156101d557600080fd5b506101e96101e436600461228c565b6104f0565b005b6101e96104ff565b3480156101ff57600080fd5b506101e961020e3660046122b6565b6106ba565b34801561021f57600080fd5b50610228603d81565b604051908152602001610166565b34801561024257600080fd5b506101e961073f565b34801561025757600080fd5b506101e96102663660046122b6565b6107f0565b34801561027757600080fd5b506101b1610286366004612257565b61080b565b34801561029757600080fd5b506102286102a63660046122f2565b610816565b3480156102b757600080fd5b506101e961085e565b3480156102cc57600080fd5b506102286102db366004612257565b610872565b3480156102ec57600080fd5b506006546001600160a01b03166101b1565b34801561030a57600080fd5b506101846108ba565b34801561031f57600080fd5b506101e961032e36600461230d565b6108c9565b34801561033f57600080fd5b50600754610228565b34801561035457600080fd5b506101e961036336600461235f565b6108d4565b34801561037457600080fd5b5061022866db8ec5c71e800081565b34801561038f57600080fd5b5061018461039e366004612257565b6108ec565b3480156103af57600080fd5b5061015a6103be36600461243b565b610a27565b3480156103cf57600080fd5b506101e96103de3660046122f2565b610a55565b60006001600160e01b031982166380ac58cd60e01b148061041457506001600160e01b03198216635b5e139f60e01b145b8061042f57506301ffc9a760e01b6001600160e01b03198316145b92915050565b6060600080546104449061246e565b80601f01602080910402602001604051908101604052809291908181526020018280546104709061246e565b80156104bd5780601f10610492576101008083540402835291602001916104bd565b820191906000526020600020905b8154815290600101906020018083116104a057829003601f168201915b5050505050905090565b60006104d282610a90565b506000828152600460205260409020546001600160a01b031661042f565b6104fb828233610ac9565b5050565b603d60075410610522576040516352df9fe560e01b815260040160405180910390fd5b66db8ec5c71e800034101561054a5760405163cd1c886760e01b815260040160405180910390fd5b600060076000815461055b906124be565b91829055509050600061056f6001436124d7565b6040805191406020830152810183905233606090811b6bffffffffffffffffffffffff19169082015242607482015260940160408051601f19818403018152918152815160209283012060008581526008909352912081905590506105d43383610ad6565b604051818152829033907fc263b302aec62d29105026245f19e16f8e0137066ccd4a8bd941f716bd4096bb9060200160405180910390a3600061061e66db8ec5c71e8000346124d7565b905080156106b557604051600090339083908381818185875af1925050503d8060008114610668576040519150601f19603f3d011682016040523d82523d6000602084013e61066d565b606091505b50509050806106b35760405162461bcd60e51b815260206004820152600d60248201526c1499599d5b990819985a5b1959609a1b60448201526064015b60405180910390fd5b505b505050565b6001600160a01b0382166106e457604051633250574960e11b8152600060048201526024016106aa565b60006106f1838333610b3b565b9050836001600160a01b0316816001600160a01b0316146106b3576040516364283d7b60e01b81526001600160a01b03808616600483015260248201849052821660448201526064016106aa565b610747610c36565b600061075b6006546001600160a01b031690565b6001600160a01b03164760405160006040518083038185875af1925050503d80600081146107a5576040519150601f19603f3d011682016040523d82523d6000602084013e6107aa565b606091505b50509050806107ed5760405162461bcd60e51b815260206004820152600f60248201526e15da5d1a191c985dc819985a5b1959608a1b60448201526064016106aa565b50565b6106b5838383604051806020016040528060008152506108d4565b600061042f82610a90565b60006001600160a01b038216610842576040516322718ad960e21b8152600060048201526024016106aa565b506001600160a01b031660009081526003602052604090205490565b610866610c36565b6108706000610c63565b565b6000818152600260205260408120546001600160a01b03166108a75760405163367f2f2f60e11b815260040160405180910390fd5b5060009081526008602052604090205490565b6060600180546104449061246e565b6104fb338383610cb5565b6108df8484846106ba565b6106b33385858585610d54565b6000818152600260205260409020546060906001600160a01b03166109245760405163367f2f2f60e11b815260040160405180910390fd5b6000828152600860205260408120549061093d82610e7f565b9050816000610955610950600884612500565b610fcf565b9050600061097061096b6004602086901c612500565b611151565b9050600061097e8589611221565b9050600061098b82611282565b90506000838561099a8c6112a8565b6040516020016109ac93929190612530565b604051602081830303815290604052905060006109c88b6112a8565b8384846040516020016109de9493929190612647565b60405160208183030381529060405290506109f881611282565b604051602001610a08919061285c565b6040516020818303038152906040529950505050505050505050919050565b6001600160a01b03918216600090815260056020908152604080832093909416825291909152205460ff1690565b610a5d610c36565b6001600160a01b038116610a8757604051631e4fbdf760e01b8152600060048201526024016106aa565b6107ed81610c63565b6000818152600260205260408120546001600160a01b03168061042f57604051637e27328960e01b8152600481018490526024016106aa565b6106b5838383600161133b565b6001600160a01b038216610b0057604051633250574960e11b8152600060048201526024016106aa565b6000610b0e83836000610b3b565b90506001600160a01b038116156106b5576040516339e3563760e11b8152600060048201526024016106aa565b6000828152600260205260408120546001600160a01b0390811690831615610b6857610b68818486611441565b6001600160a01b03811615610ba657610b8560008560008061133b565b6001600160a01b038116600090815260036020526040902080546000190190555b6001600160a01b03851615610bd5576001600160a01b0385166000908152600360205260409020805460010190555b60008481526002602052604080822080546001600160a01b0319166001600160a01b0389811691821790925591518793918516917fddf252ad1be2c89b69c2b068fc378daa952ba7f163c4a11628f55a4df523b3ef91a490505b9392505050565b6006546001600160a01b031633146108705760405163118cdaa760e01b81523360048201526024016106aa565b600680546001600160a01b038381166001600160a01b0319831681179093556040519116919082907f8be0079c531659141344cd1fd0a4f28419497f9722a3daafe3b4186f6b6457e090600090a35050565b6001600160a01b038216610ce757604051630b61174360e31b81526001600160a01b03831660048201526024016106aa565b6001600160a01b03838116600081815260056020908152604080832094871680845294825291829020805460ff191686151590811790915591519182527f17307eab39ab6107e8899845ad3d59bd9653f200f220920489ca2b5937696c31910160405180910390a3505050565b6001600160a01b0383163b15610e7857604051630a85bd0160e11b81526001600160a01b0384169063150b7a0290610d969088908890879087906004016128a1565b6020604051808303816000875af1925050508015610dd1575060408051601f3d908101601f19168201909252610dce918101906128de565b60015b610e3a573d808015610dff576040519150601f19603f3d011682016040523d82523d6000602084013e610e04565b606091505b508051600003610e3257604051633250574960e11b81526001600160a01b03851660048201526024016106aa565b805160208201fd5b6001600160e01b03198116630a85bd0160e11b14610e7657604051633250574960e11b81526001600160a01b03851660048201526024016106aa565b505b5050505050565b604080518082018252601081526f181899199a1a9b1b9c1cb0b131b232b360811b6020820152815182815260608181018452926000919060208201818036833701905050905060005b6020811015610fc757826004868360208110610ee657610ee66128fb565b835191901a90911c60ff16908110610f0057610f006128fb565b01602001516001600160f81b03191682610f1b836002612911565b81518110610f2b57610f2b6128fb565b60200101906001600160f81b031916908160001a90535082858260208110610f5557610f556128fb565b1a60f81b60f81c600f1660ff1681518110610f7257610f726128fb565b01602001516001600160f81b03191682610f8d836002612911565b610f98906001612928565b81518110610fa857610fa86128fb565b60200101906001600160f81b031916908160001a905350600101610ec8565b509392505050565b60608160000361100457505060408051808201909152600f81526e436c6173736963204261756861757360881b602082015290565b8160010361103457505060408051808201909152600c81526b4461726b205072696d61727960a01b602082015290565b8160020361106457505060408051808201909152600c81526b0aecad2dac2e4408ac2e4e8d60a31b602082015290565b8160030361109657505060408051808201909152600e81526d10dbdb9cdd1c9d58dd1a5d9a5cdd60921b602082015290565b816004036110c757505060408051808201909152600d81526c4f63687265205072696d61727960981b602082015290565b816005036110f957505060408051808201909152600e81526d5761726d2047656f6d657472696360901b602082015290565b8160060361112a57505060408051808201909152600d81526c4e69676874204261756861757360981b602082015290565b505060408051808201909152600b81526a446573736175204772617960a81b602082015290565b60608160000361118757505060408051808201909152601081526f436972636c6520446f6d696e616e636560801b602082015290565b816001036111b857505060408051808201909152600d81526c11194814dd1a5a9b0811dc9a59609a1b602082015290565b816002036111f957505060408051808201909152601781527f436f6e737472756374697669737420446961676f6e616c000000000000000000602082015290565b505060408051808201909152600c81526b4e657374656420466f726d7360a01b602082015290565b606061122b6114a5565b83611235846112a8565b61123d6114ca565b6112456114ed565b61124d6114fe565b611255611a8f565b60405160200161126b979695949392919061293b565b604051602081830303815290604052905092915050565b606061042f8260405180606001604052806040815260200161367a604091396001611b2a565b606060006112b583611caa565b600101905060008167ffffffffffffffff8111156112d5576112d5612349565b6040519080825280601f01601f1916602001820160405280156112ff576020820181803683370190505b5090508181016020015b600019016f181899199a1a9b1b9c1cb0b131b232b360811b600a86061a8153600a850494508461130957509392505050565b808061134f57506001600160a01b03821615155b1561141157600061135f84610a90565b90506001600160a01b0383161580159061138b5750826001600160a01b0316816001600160a01b031614155b801561139e575061139c8184610a27565b155b156113c75760405163a9fbf51f60e01b81526001600160a01b03841660048201526024016106aa565b811561140f5783856001600160a01b0316826001600160a01b03167f8c5be1e5ebec7d5bd14f71427d1e84f3dd0314c0f7b2291e5b200ac8c7c3b92560405160405180910390a45b505b5050600090815260046020526040902080546001600160a01b0319166001600160a01b0392909216919091179055565b61144c838383611d82565b6106b5576001600160a01b03831661147a57604051637e27328960e01b8152600481018290526024016106aa565b60405163177e802f60e01b81526001600160a01b0383166004820152602481018290526044016106aa565b60606040516020016114b690612b32565b604051602081830303815290604052905090565b60606114d4611de8565b6114dc612033565b6040516020016114b69291906130ae565b60606040516020016114b6906130dd565b60606040516020016114b6907466756e6374696f6e2064726177436f6e737428297b60581b81526a62672870616c5b305d293b60a81b601582018190527f636f6e737420616e673d5b50492f362c50492f342c50492f335d5b666c6f6f726020830152672856312a33295d3b60c01b60408301527f5f63782e7361766528293b5f63782e7472616e736c617465283430302c3430306048830181905271293b5f63782e726f7461746528616e67293b60701b60688401527f5f63782e66696c6c5374796c653d70616c5b315d3b5f63782e66696c6c526563607a8401527474282d35352c2d3730302c3131302c31343030293b60581b609a8401526d5f63782e726573746f726528293b60901b60af84015260bd8301527f293b5f63782e726f7461746528616e672b50492f32293b00000000000000000060dd8301527f5f63782e66696c6c5374796c653d70616c5b325d3b5f63782e676c6f62616c4160f48301527f6c7068613d302e35353b5f63782e66696c6c52656374282d32382c2d3730302c6101148301526835362c31343030293b60b81b6101348301527f5f63782e676c6f62616c416c7068613d313b5f63782e726573746f726528293b61013d8301527f636f6e737420523d666c6f6f72283132302b56322a3930293b0000000000000061015d8301527f636f6e7374206378323d666c6f6f72283136302b56332a313230292c6379323d61017683015271666c6f6f72283536302b56342a313030293b60701b6101968301527f63697263286378322c6379322c522c70616c5b335d293b0000000000000000006101a88301527f6369726328666c6f6f72283632302b56342a3830292c666c6f6f72283136302b6101bf8301527f56312a3830292c666c6f6f7228522f504849292c70616c5b315d293b000000006101df8301527f636f6e73742074783d666c6f6f72283632302b56332a3630292c74793d666c6f6101fb8301527f6f722838302b56322a3630292c74733d666c6f6f722836302b56312a3530293b61021b8301527f7472692874782c74792c74782b74732c74792b666c6f6f722874732a5048492961023b8301527f2c74782d74732c74792b666c6f6f722874732a504849292c70616c5b325d293b61025b8301527f6c6e28302c666c6f6f72283830302f504849292c3830302c666c6f6f7228383061027b83015270302f504849292c70616c5b345d2c33293b60781b61029b830152607d60f81b6102ac83018190527566756e6374696f6e20647261774e657374656428297b60501b6102ad8401526102c38301919091527f636f6e737420757365436972636c653d56313e302e353b0000000000000000006102ce830152706c657420737a3d3732302c6369323d303b60781b6102e58301526c7768696c6528737a3e3234297b60981b6102f68301527f636f6e737420633d70616c5b312b28636932252870616c2e6c656e6774682d316103038301526329295d3b60e01b6103238301527f636f6e737420783d283830302d737a292f322c793d283830302d737a292f323b6103278301527f636f6e737420794f66663d757365436972636c653f303a666c6f6f72286369326103478301526b2a28382b56322a313229293b60a01b6103678301527f696628757365436972636c65297b63697263283430302c3430302c737a2f322c6103738301526363293b7d60e01b6103938301527f656c73657b72637428782c792b794f66662c737a2c737a2d794f66662a322c6361039783015262293b7d60e81b6103b78301527f737a3d666c6f6f7228737a2f504849293b6369322b2b3b7d00000000000000006103ba8301527f63697263283430302c3430302c666c6f6f722831322b56332a3136292c70616c6103d2830152645b345d293b60d81b6103f28301526a7068694c696e657328293b60a81b6103f78301526104028201526104030190565b6040517f696628434f4d503d3d3d302964726177436972636c6528293b0000000000000060208201527f656c736520696628434f4d503d3d3d3129647261774772696428293b0000000060398201527f656c736520696628434f4d503d3d3d322964726177436f6e737428293b000000605582015271656c736520647261774e657374656428293b60701b60728201526060906084016114b6565b60608351600003611b4a5750604080516020810190915260008152610c2f565b600082611b7b57600385516004611b619190612911565b611b6c906002612928565b611b769190613665565b611ba0565b600385516002611b8b9190612928565b611b959190613665565b611ba0906004612911565b905060008167ffffffffffffffff811115611bbd57611bbd612349565b6040519080825280601f01601f191660200182016040528015611be7576020820181803683370190505b50905060018501602082018788518901602081018051600082525b82841015611c5d576003840193508351603f8160121c168701518653600186019550603f81600c1c168701518653600186019550603f8160061c168701518653600186019550603f8116870151865350600185019450611c02565b905250508515611c9e57600388510660018114611c815760028114611c9457611c9c565b603d6001830353603d6002830353611c9c565b603d60018303535b505b50909695505050505050565b60008072184f03e93ff9f4daa797ed6e38ed64bf6a1f0160401b8310611ce95772184f03e93ff9f4daa797ed6e38ed64bf6a1f0160401b830492506040015b6d04ee2d6d415b85acef81000000008310611d15576d04ee2d6d415b85acef8100000000830492506020015b662386f26fc100008310611d3357662386f26fc10000830492506010015b6305f5e1008310611d4b576305f5e100830492506008015b6127108310611d5f57612710830492506004015b60648310611d71576064830492506002015b600a831061042f5760010192915050565b60006001600160a01b03831615801590611de05750826001600160a01b0316846001600160a01b03161480611dbc5750611dbc8484610a27565b80611de057506000828152600460205260409020546001600160a01b038481169116145b949350505050565b60606040516020016114b6906b636f6e73742050414c533d5b60a01b81527f5b2223463846374630222c2223443632383238222c2223314234463732222c22600c8201527308d18cce50cc4c888b0888cc504c504c5048974b60621b602c8201527f5b2223304430443044222c2223453633393436222c2223463444333545222c2260408201527308cc504e4ccd91888b0888d18d518d518d48974b60621b60608201527f5b2223463546304538222c2223324534303537222c2223433834423331222c2260748201527308cc0d0e104e0c488b0888cc4c4c4c4c4c48974b60621b60948201527f5b2223463546354635222c2223423830303030222c2223313131313131222c2260a88201527308ce4e4e4e4e4e488b0888d14c114c114c08974b60621b60c88201527f5b2223464646384531222c2223314131413141222c2223433632383238222c2260dc8201527308cc4d4d8d50cc088b0888ce514d908c1048974b60621b60fc8201527f5b2223463746374637222c2223464636423335222c2223303034453938222c226101108201527008d15151488b0888cc4c4c4c4c4c48974b607a1b6101308201527f5b2223313431343134222c2223464642373033222c2223464238353030222c226101418201527308cc0c8ccc0d0dc88b0888ce1150d0514d88974b60621b6101618201527f5b2223453845384538222c2223323132353239222c2223433033393242222c226101758201527223323437314133222c2223364337353744225d60681b610195820152615d3b60f01b6101a88201526101aa0190565b6040517f636f6e7374205048493d312e3631383033333938383734393839353b0000000060208201527f6c65742072733d426967496e7428223078222b53454544293b00000000000000603c8201527f636f6e737420726e643d28293d3e7b72733d2872732a3633363431333632323360558201527f3834363739333030356e2b313434323639353034303838383936333430376e2960758201527f2631383434363734343037333730393535313631356e3b00000000000000000060958201527f72657475726e204e756d62657228727326343239343936373239356e292f343260ac8201526a39343936373239353b7d3b60a81b60cc8201527f636f6e73742070616c3d50414c535b666c6f6f7228726e6428292a38295d3b0060d78201527f636f6e737420434f4d503d666c6f6f7228726e6428292a34293b00000000000060f68201527f636f6e73742056313d726e6428292c56323d726e6428292c56333d726e642829610110820152692c56343d726e6428293b60b01b61013082015260609061013a016114b6565b6001600160e01b0319811681146107ed57600080fd5b6000602082840312156121e957600080fd5b8135610c2f816121c1565b60005b8381101561220f5781810151838201526020016121f7565b50506000910152565b600081518084526122308160208601602086016121f4565b601f01601f19169290920160200192915050565b602081526000610c2f6020830184612218565b60006020828403121561226957600080fd5b5035919050565b80356001600160a01b038116811461228757600080fd5b919050565b6000806040838503121561229f57600080fd5b6122a883612270565b946020939093013593505050565b6000806000606084860312156122cb57600080fd5b6122d484612270565b92506122e260208501612270565b9150604084013590509250925092565b60006020828403121561230457600080fd5b610c2f82612270565b6000806040838503121561232057600080fd5b61232983612270565b91506020830135801515811461233e57600080fd5b809150509250929050565b634e487b7160e01b600052604160045260246000fd5b6000806000806080858703121561237557600080fd5b61237e85612270565b935061238c60208601612270565b925060408501359150606085013567ffffffffffffffff808211156123b057600080fd5b818701915087601f8301126123c457600080fd5b8135818111156123d6576123d6612349565b604051601f8201601f19908116603f011681019083821181831017156123fe576123fe612349565b816040528281528a602084870101111561241757600080fd5b82602086016020830137600060208483010152809550505050505092959194509250565b6000806040838503121561244e57600080fd5b61245783612270565b915061246560208401612270565b90509250929050565b600181811c9082168061248257607f821691505b6020821081036124a257634e487b7160e01b600052602260045260246000fd5b50919050565b634e487b7160e01b600052601160045260246000fd5b6000600182016124d0576124d06124a8565b5060010190565b8181038181111561042f5761042f6124a8565b634e487b7160e01b600052601260045260246000fd5b60008261250f5761250f6124ea565b500690565b600081516125268185602086016121f4565b9290920192915050565b605b60f81b81527f7b2274726169745f74797065223a22436f6d706f736974696f6e222c2276616c6001820152643ab2911d1160d91b602182015283516000906125818160268501602089016121f4565b62089f4b60ea1b6026918401918201527f7b2274726169745f74797065223a2250616c65747465222c2276616c7565223a6029820152601160f91b604982015284516125d481604a8401602089016121f4565b016125e7604a820162089f4b60ea1b9052565b7f7b2274726169745f74797065223a2245646974696f6e222c2276616c7565223a604d820152601160f91b606d820152612625606e82015b85612514565b642f3631227d60d81b8152605d60f81b60058201526006019695505050505050565b7f7b226e616d65223a22476f6c64656e20526174696f202300000000000000000081526000855161267f816017850160208a016121f4565b61088b60f21b6017918401918201527f226465736372697074696f6e223a2246756c6c79206f6e636861696e2042617560198201527403430bab99033b2b732b930ba34bb329030b93a171605d1b60398201527f47656f6d657472696320636f6d706f736974696f6e732064726976656e206279604e8201526d010383434901e9018971b189c17160951b606e82015261279b61275e607c83017f3420636f6d706f736974696f6e2074797065732c20382070616c65747465732c8152720101b18903ab734b8bab2903834b2b1b2b9971606d1b602082015260330190565b7f52656e646572656420656e746972656c79206f6e636861696e2066726f6d206d81526a1a5b9d081cd959590b888b60aa1b6020820152602b0190565b7f22696d616765223a22646174613a746578742f68746d6c3b6261736536342c00815290506127cd601f820187612514565b61088b60f21b815290507f22616e696d6174696f6e5f75726c223a22646174613a746578742f68746d6c3b60028201526618985cd94d8d0b60ca1b602282015261281a6029820186612514565b61088b60f21b815290506c1130ba3a3934b13aba32b9911d60991b6002820152612847600f820185612514565b607d60f81b8152600101979650505050505050565b7f646174613a6170706c69636174696f6e2f6a736f6e3b6261736536342c00000081526000825161289481601d8501602087016121f4565b91909101601d0192915050565b6001600160a01b03858116825284166020820152604081018390526080606082018190526000906128d490830184612218565b9695505050505050565b6000602082840312156128f057600080fd5b8151610c2f816121c1565b634e487b7160e01b600052603260045260246000fd5b808202811582820484141761042f5761042f6124a8565b8082018082111561042f5761042f6124a8565b7f3c21444f43545950452068746d6c3e3c68746d6c3e3c686561643e3c6d6574618152701031b430b939b2ba1e913aba33169c111f60791b60208201527f3c7374796c653e2a7b6d617267696e3a303b70616464696e673a307d626f647960318201527f7b6261636b67726f756e643a233030303b646973706c61793a666c65783b000060518201527f616c69676e2d6974656d733a63656e7465723b6a7573746966792d636f6e7465606f8201527f6e743a63656e7465723b6d696e2d6865696768743a31303076683b6f76657266608f8201526a6c6f773a68696464656e7d60a81b60af8201527f63616e7661737b6d61782d77696474683a313030766d696e3b6d61782d68656960ba8201527333b43a1d1898183b36b4b73e9e17b9ba3cb6329f60611b60da820152600060ee8201741e17b432b0b21f1e3137b23c9f1e39b1b934b83a1f60591b8152612a95601582018b612514565b6b31b7b739ba1029a2a2a21e9160a11b81529050612ab6600c82018a612514565b67222c544f4b454e3d60c01b81529050612ad36008820189612514565b603b60f81b81529050612afe61261f612af8612af2600185018b612514565b89612514565b87612514565b7f3c2f7363726970743e3c2f626f64793e3c2f68746d6c3e00000000000000000081526017019a9950505050505050505050565b7f636f6e7374205f63763d646f63756d656e742e637265617465456c656d656e7481526a0a0898d85b9d985cc88a4b60aa1b60208201527f5f63783d5f63762e676574436f6e746578742822326422293b00000000000000602b8201527f5f63762e77696474683d5f63762e6865696768743d3830303b0000000000000060448201527f646f63756d656e742e626f64792e617070656e644368696c64285f6376293b00605d8201527f636f6e737420636f733d4d6174682e636f732c73696e3d4d6174682e73696e2c607c8201527f737172743d4d6174682e737172742c6162733d4d6174682e6162732c00000000609c8201527f50493d4d6174682e50492c54574f5f50493d50492a322c666c6f6f723d4d617460b88201527f682e666c6f6f722c726f756e643d4d6174682e726f756e643b0000000000000060d88201527f66756e6374696f6e2062672863297b5f63782e66696c6c5374796c653d633b5f60f18201527f63782e66696c6c5265637428302c302c3830302c383030293b7d000000000000610111820152600061012b82017f66756e6374696f6e2066632863297b5f63782e66696c6c5374796c653d633b7d81527f66756e6374696f6e20736328632c77297b5f63782e7374726f6b655374796c6560208201527f3d633b5f63782e6c696e6557696474683d777c7c323b7d00000000000000000060408201527f66756e6374696f6e206369726328782c792c722c66696c6c2c7363322c7377296057820152607b60f81b6077820152612f1a612eb8612e73612e3f612df0612db6607887017f5f63782e626567696e5061746828293b5f63782e61726328782c792c722c302c81526754574f5f5049293b60c01b602082015260280190565b7f69662866696c6c297b5f63782e66696c6c5374796c653d66696c6c3b5f63782e81526766696c6c28293b7d60c01b602082015260280190565b7f696628736332297b5f63782e7374726f6b655374796c653d7363323b5f63782e81527f6c696e6557696474683d73777c7c323b5f63782e7374726f6b6528293b7d7d006020820152603f0190565b7f66756e6374696f6e2072637428782c792c772c682c66696c6c2c7363322c7377815261297b60f01b602082015260220190565b7f69662866696c6c297b5f63782e66696c6c5374796c653d66696c6c3b5f63782e81527266696c6c5265637428782c792c772c68293b7d60681b602082015260330190565b7f696628736332297b5f63782e7374726f6b655374796c653d7363323b5f63782e81527f6c696e6557696474683d73777c7c323b5f63782e7374726f6b655265637428786020820152692c792c772c68293b7d7d60b01b6040820152604a0190565b7f66756e6374696f6e206c6e2878312c79312c78322c79322c632c77297b00000081527f5f63782e626567696e5061746828293b5f63782e6d6f7665546f2878312c7931601d82015273293b5f63782e6c696e65546f2878322c7932293b60601b603d8201527f5f63782e7374726f6b655374796c653d633b5f63782e6c696e6557696474683d605182015272777c7c323b5f63782e7374726f6b6528293b7d60681b60718201527f66756e6374696f6e207472692861782c61792c62782c62792c6378322c6379326084820152662c66696c6c297b60c81b60a48201527f5f63782e626567696e5061746828293b5f63782e6d6f7665546f2861782c617960ab8201527f293b5f63782e6c696e65546f2862782c6279293b5f63782e6c696e65546f286360cb8201526778322c637932293b60c01b60eb8201527f5f63782e636c6f73655061746828293b69662866696c6c297b5f63782e66696c60f38201527f6c5374796c653d66696c6c3b5f63782e66696c6c28293b7d7d00000000000000610113820152905061012c8101610c2f565b600083516130c08184602088016121f4565b8351908301906130d48183602088016121f4565b01949350505050565b7366756e6374696f6e207068694c696e657328297b60601b81527f636f6e73742067313d666c6f6f72283830302f504849292c67323d666c6f6f7260148201527f283830302d3830302f504849292c6c633d70616c5b345d3b000000000000000060348201526000604c8201746c6e28302c67322c3830302c67322c6c632c31293b60581b8152756c6e2867312c302c67312c3830302c6c632c31293b7d60501b60158201527566756e6374696f6e2064726177436972636c6528297b60501b602b8201526a62672870616c5b305d293b60a81b60418201527f636f6e737420523d666c6f6f72283235302b56312a3530293b00000000000000604c8201527f636f6e73742052323d666c6f6f7228522f504849292c52333d666c6f6f7228526065820152692f5048492f504849293b60b01b6085820152613260608f82017f636f6e7374206f783d666c6f6f72282856322d2e35292a313430292c6f793d668152716c6f6f72282856332d2e35292a313030293b60701b602082015260320190565b7f63697263283430302b6f782c3430302b6f792c522c70616c5b315d293b00000081527f63697263283430302b6f782b666c6f6f7228522a2e3535292c3430302b6f792d601d8201527f666c6f6f722852322a2e3335292c52322c70616c5b325d293b00000000000000603d8201527f63697263283430302b6f782d666c6f6f722852332a2e39292c3430302b6f792b60568201527f666c6f6f722852322a2e38292c52332c70616c5b335d293b000000000000000060768201527f63697263283430302c3430302c666c6f6f7228522a5048492a2e3438292c6e75608e8201526c6c6c2c70616c5b345d2c32293b60981b60ae8201526a7068694c696e657328293b60a81b60bb8201527f6c6e28302c3430302c3830302c3430302c70616c5b345d2c31293b000000000060c6820152607d60f81b60e182018190527366756e6374696f6e20647261774772696428297b60601b60e28301526a62672870616c5b305d293b60a81b60f68301527f636f6e73742047313d666c6f6f72283830302f504849293b00000000000000006101018301526f636f6e73742047323d3830302d47313b60801b6101198301527f636f6e73742047333d666c6f6f722847322f504849293b0000000000000000006101298301526e636f6e73742047343d47322d47333b60881b6101408301527f636f6e73742047353d666c6f6f722847332f504849293b00000000000000000061014f8301527572637428302c302c47332c47332c70616c5b315d293b60501b6101668301527f7263742847312c302c47322c47312c70616c5b325d293b00000000000000000061017c8301527f72637428302c47312c47332c47322c70616c5b335d293b0000000000000000006101938301527f7263742847332c47312d47342c47312d47332c47342c70616c5b325d293b00006101aa8301527f7263742847312b47352c47312b47352c47342d47352c47342d47352c70616c5b6101c883015263335d293b60e01b6101e883015274636f6e737420676c3d70616c5b345d2c67773d353b60581b6101ec830152756c6e2847332c302c47332c3830302c676c2c6777293b60501b610201830152756c6e2847312c302c47312c3830302c676c2c6777293b60501b610217830152756c6e28302c47332c3830302c47332c676c2c6777293b60501b61022d830152756c6e28302c47312c3830302c47312c676c2c6777293b60501b6102438301527f6c6e2847332c47312d47342c47312c47312d47342c676c2c6777293b000000006102598301527f5f63782e7374726f6b655374796c653d676c3b5f63782e6c696e6557696474686102758301527f3d67773b5f63782e7374726f6b655265637428302c302c3830302c383030293b6102958301526102b58201526102b6019392505050565b600082613674576136746124ea565b50049056fe4142434445464748494a4b4c4d4e4f505152535455565758595a6162636465666768696a6b6c6d6e6f707172737475767778797a303132333435363738392b2fa2646970667358221220c46a80afdb44ea5d4b05d7e8c96895661abf1572fce6ae7edef9dc9ca9a86e2d64736f6c63430008180033","opcodes":"PUSH1 0x80 PUSH1 0x40 MSTORE CALLVALUE DUP1 ISZERO PUSH3 0x11 JUMPI PUSH1 0x0 DUP1 REVERT JUMPDEST POP CALLER PUSH1 0x40 MLOAD DUP1 PUSH1 0x40 ADD PUSH1 0x40 MSTORE DUP1 PUSH1 0xC DUP2 MSTORE PUSH1 0x20 ADD PUSH12 0x476F6C64656E20526174696F PUSH1 0xA0 SHL DUP2 MSTORE POP PUSH1 0x40 MLOAD DUP1 PUSH1 0x40 ADD PUSH1 0x40 MSTORE DUP1 PUSH1 0x3 DUP2 MSTORE PUSH1 0x20 ADD PUSH3 0x504849 PUSH1 0xE8 SHL DUP2 MSTORE POP DUP2 PUSH1 0x0 SWAP1 DUP2 PUSH3 0x65 SWAP2 SWAP1 PUSH3 0x1B1 JUMP JUMPDEST POP PUSH1 0x1 PUSH3 0x74 DUP3 DUP3 PUSH3 0x1B1 JUMP JUMPDEST POP POP POP PUSH1 0x1 PUSH1 0x1 PUSH1 0xA0 SHL SUB DUP2 AND PUSH3 0xA6 JUMPI PUSH1 0x40 MLOAD PUSH4 0x1E4FBDF7 PUSH1 0xE0 SHL DUP2 MSTORE PUSH1 0x0 PUSH1 0x4 DUP3 ADD MSTORE PUSH1 0x24 ADD PUSH1 0x40 MLOAD DUP1 SWAP2 SUB SWAP1 REVERT JUMPDEST PUSH3 0xB1 DUP2 PUSH3 0xB8 JUMP JUMPDEST POP PUSH3 0x27D JUMP JUMPDEST PUSH1 0x6 DUP1 SLOAD PUSH1 0x1 PUSH1 0x1 PUSH1 0xA0 SHL SUB DUP4 DUP2 AND PUSH1 0x1 PUSH1 0x1 PUSH1 0xA0 SHL SUB NOT DUP4 AND DUP2 OR SWAP1 SWAP4 SSTORE PUSH1 0x40 MLOAD SWAP2 AND SWAP2 SWAP1 DUP3 SWAP1 PUSH32 0x8BE0079C531659141344CD1FD0A4F28419497F9722A3DAAFE3B4186F6B6457E0 SWAP1 PUSH1 0x0 SWAP1 LOG3 POP POP JUMP JUMPDEST PUSH4 0x4E487B71 PUSH1 0xE0 SHL PUSH1 0x0 MSTORE PUSH1 0x41 PUSH1 0x4 MSTORE PUSH1 0x24 PUSH1 0x0 REVERT JUMPDEST PUSH1 0x1 DUP2 DUP2 SHR SWAP1 DUP3 AND DUP1 PUSH3 0x135 JUMPI PUSH1 0x7F DUP3 AND SWAP2 POP JUMPDEST PUSH1 0x20 DUP3 LT DUP2 SUB PUSH3 0x156 JUMPI PUSH4 0x4E487B71 PUSH1 0xE0 SHL PUSH1 0x0 MSTORE PUSH1 0x22 PUSH1 0x4 MSTORE PUSH1 0x24 PUSH1 0x0 REVERT JUMPDEST POP SWAP2 SWAP1 POP JUMP JUMPDEST PUSH1 0x1F DUP3 GT ISZERO PUSH3 0x1AC JUMPI PUSH1 0x0 DUP2 PUSH1 0x0 MSTORE PUSH1 0x20 PUSH1 0x0 KECCAK256 PUSH1 0x1F DUP6 ADD PUSH1 0x5 SHR DUP2 ADD PUSH1 0x20 DUP7 LT ISZERO PUSH3 0x187 JUMPI POP DUP1 JUMPDEST PUSH1 0x1F DUP6 ADD PUSH1 0x5 SHR DUP3 ADD SWAP2 POP JUMPDEST DUP2 DUP2 LT ISZERO PUSH3 0x1A8 JUMPI DUP3 DUP2 SSTORE PUSH1 0x1 ADD PUSH3 0x193 JUMP JUMPDEST POP POP POP JUMPDEST POP POP POP JUMP JUMPDEST DUP2 MLOAD PUSH1 0x1 PUSH1 0x1 PUSH1 0x40 SHL SUB DUP2 GT ISZERO PUSH3 0x1CD JUMPI PUSH3 0x1CD PUSH3 0x10A JUMP JUMPDEST PUSH3 0x1E5 DUP2 PUSH3 0x1DE DUP5 SLOAD PUSH3 0x120 JUMP JUMPDEST DUP5 PUSH3 0x15C JUMP JUMPDEST PUSH1 0x20 DUP1 PUSH1 0x1F DUP4 GT PUSH1 0x1 DUP2 EQ PUSH3 0x21D JUMPI PUSH1 0x0 DUP5 ISZERO PUSH3 0x204 JUMPI POP DUP6 DUP4 ADD MLOAD JUMPDEST PUSH1 0x0 NOT PUSH1 0x3 DUP7 SWAP1 SHL SHR NOT AND PUSH1 0x1 DUP6 SWAP1 SHL OR DUP6 SSTORE PUSH3 0x1A8 JUMP JUMPDEST PUSH1 0x0 DUP6 DUP2 MSTORE PUSH1 0x20 DUP2 KECCAK256 PUSH1 0x1F NOT DUP7 AND SWAP2 JUMPDEST DUP3 DUP2 LT ISZERO PUSH3 0x24E JUMPI DUP9 DUP7 ADD MLOAD DUP3 SSTORE SWAP5 DUP5 ADD SWAP5 PUSH1 0x1 SWAP1 SWAP2 ADD SWAP1 DUP5 ADD PUSH3 0x22D JUMP JUMPDEST POP DUP6 DUP3 LT ISZERO PUSH3 0x26D JUMPI DUP8 DUP6 ADD MLOAD PUSH1 0x0 NOT PUSH1 0x3 DUP9 SWAP1 SHL PUSH1 0xF8 AND SHR NOT AND DUP2 SSTORE JUMPDEST POP POP POP POP POP PUSH1 0x1 SWAP1 DUP2 SHL ADD SWAP1 SSTORE POP JUMP JUMPDEST PUSH2 0x36EF DUP1 PUSH3 0x28D PUSH1 0x0 CODECOPY PUSH1 0x0 RETURN INVALID PUSH1 0x80 PUSH1 0x40 MSTORE PUSH1 0x4 CALLDATASIZE LT PUSH2 0x135 JUMPI PUSH1 0x0 CALLDATALOAD PUSH1 0xE0 SHR DUP1 PUSH4 0x715018A6 GT PUSH2 0xAB JUMPI DUP1 PUSH4 0xA2309FF8 GT PUSH2 0x6F JUMPI DUP1 PUSH4 0xA2309FF8 EQ PUSH2 0x333 JUMPI DUP1 PUSH4 0xB88D4FDE EQ PUSH2 0x348 JUMPI DUP1 PUSH4 0xC002D23D EQ PUSH2 0x368 JUMPI DUP1 PUSH4 0xC87B56DD EQ PUSH2 0x383 JUMPI DUP1 PUSH4 0xE985E9C5 EQ PUSH2 0x3A3 JUMPI DUP1 PUSH4 0xF2FDE38B EQ PUSH2 0x3C3 JUMPI PUSH1 0x0 DUP1 REVERT JUMPDEST DUP1 PUSH4 0x715018A6 EQ PUSH2 0x2AB JUMPI DUP1 PUSH4 0x82829F74 EQ PUSH2 0x2C0 JUMPI DUP1 PUSH4 0x8DA5CB5B EQ PUSH2 0x2E0 JUMPI DUP1 PUSH4 0x95D89B41 EQ PUSH2 0x2FE JUMPI DUP1 PUSH4 0xA22CB465 EQ PUSH2 0x313 JUMPI PUSH1 0x0 DUP1 REVERT JUMPDEST DUP1 PUSH4 0x23B872DD GT PUSH2 0xFD JUMPI DUP1 PUSH4 0x23B872DD EQ PUSH2 0x1F3 JUMPI DUP1 PUSH4 0x32CB6B0C EQ PUSH2 0x213 JUMPI DUP1 PUSH4 0x3CCFD60B EQ PUSH2 0x236 JUMPI DUP1 PUSH4 0x42842E0E EQ PUSH2 0x24B JUMPI DUP1 PUSH4 0x6352211E EQ PUSH2 0x26B JUMPI DUP1 PUSH4 0x70A08231 EQ PUSH2 0x28B JUMPI PUSH1 0x0 DUP1 REVERT JUMPDEST DUP1 PUSH4 0x1FFC9A7 EQ PUSH2 0x13A JUMPI DUP1 PUSH4 0x6FDDE03 EQ PUSH2 0x16F JUMPI DUP1 PUSH4 0x81812FC EQ PUSH2 0x191 JUMPI DUP1 PUSH4 0x95EA7B3 EQ PUSH2 0x1C9 JUMPI DUP1 PUSH4 0x1249C58B EQ PUSH2 0x1EB JUMPI JUMPDEST PUSH1 0x0 DUP1 REVERT JUMPDEST CALLVALUE DUP1 ISZERO PUSH2 0x146 JUMPI PUSH1 0x0 DUP1 REVERT JUMPDEST POP PUSH2 0x15A PUSH2 0x155 CALLDATASIZE PUSH1 0x4 PUSH2 0x21D7 JUMP JUMPDEST PUSH2 0x3E3 JUMP JUMPDEST PUSH1 0x40 MLOAD SWAP1 ISZERO ISZERO DUP2 MSTORE PUSH1 0x20 ADD JUMPDEST PUSH1 0x40 MLOAD DUP1 SWAP2 SUB SWAP1 RETURN JUMPDEST CALLVALUE DUP1 ISZERO PUSH2 0x17B JUMPI PUSH1 0x0 DUP1 REVERT JUMPDEST POP PUSH2 0x184 PUSH2 0x435 JUMP JUMPDEST PUSH1 0x40 MLOAD PUSH2 0x166 SWAP2 SWAP1 PUSH2 0x2244 JUMP JUMPDEST CALLVALUE DUP1 ISZERO PUSH2 0x19D JUMPI PUSH1 0x0 DUP1 REVERT JUMPDEST POP PUSH2 0x1B1 PUSH2 0x1AC CALLDATASIZE PUSH1 0x4 PUSH2 0x2257 JUMP JUMPDEST PUSH2 0x4C7 JUMP JUMPDEST PUSH1 0x40 MLOAD PUSH1 0x1 PUSH1 0x1 PUSH1 0xA0 SHL SUB SWAP1 SWAP2 AND DUP2 MSTORE PUSH1 0x20 ADD PUSH2 0x166 JUMP JUMPDEST CALLVALUE DUP1 ISZERO PUSH2 0x1D5 JUMPI PUSH1 0x0 DUP1 REVERT JUMPDEST POP PUSH2 0x1E9 PUSH2 0x1E4 CALLDATASIZE PUSH1 0x4 PUSH2 0x228C JUMP JUMPDEST PUSH2 0x4F0 JUMP JUMPDEST STOP JUMPDEST PUSH2 0x1E9 PUSH2 0x4FF JUMP JUMPDEST CALLVALUE DUP1 ISZERO PUSH2 0x1FF JUMPI PUSH1 0x0 DUP1 REVERT JUMPDEST POP PUSH2 0x1E9 PUSH2 0x20E CALLDATASIZE PUSH1 0x4 PUSH2 0x22B6 JUMP JUMPDEST PUSH2 0x6BA JUMP JUMPDEST CALLVALUE DUP1 ISZERO PUSH2 0x21F JUMPI PUSH1 0x0 DUP1 REVERT JUMPDEST POP PUSH2 0x228 PUSH1 0x3D DUP2 JUMP JUMPDEST PUSH1 0x40 MLOAD SWAP1 DUP2 MSTORE PUSH1 0x20 ADD PUSH2 0x166 JUMP JUMPDEST CALLVALUE DUP1 ISZERO PUSH2 0x242 JUMPI PUSH1 0x0 DUP1 REVERT JUMPDEST POP PUSH2 0x1E9 PUSH2 0x73F JUMP JUMPDEST CALLVALUE DUP1 ISZERO PUSH2 0x257 JUMPI PUSH1 0x0 DUP1 REVERT JUMPDEST POP PUSH2 0x1E9 PUSH2 0x266 CALLDATASIZE PUSH1 0x4 PUSH2 0x22B6 JUMP JUMPDEST PUSH2 0x7F0 JUMP JUMPDEST CALLVALUE DUP1 ISZERO PUSH2 0x277 JUMPI PUSH1 0x0 DUP1 REVERT JUMPDEST POP PUSH2 0x1B1 PUSH2 0x286 CALLDATASIZE PUSH1 0x4 PUSH2 0x2257 JUMP JUMPDEST PUSH2 0x80B JUMP JUMPDEST CALLVALUE DUP1 ISZERO PUSH2 0x297 JUMPI PUSH1 0x0 DUP1 REVERT JUMPDEST POP PUSH2 0x228 PUSH2 0x2A6 CALLDATASIZE PUSH1 0x4 PUSH2 0x22F2 JUMP JUMPDEST PUSH2 0x816 JUMP JUMPDEST CALLVALUE DUP1 ISZERO PUSH2 0x2B7 JUMPI PUSH1 0x0 DUP1 REVERT JUMPDEST POP PUSH2 0x1E9 PUSH2 0x85E JUMP JUMPDEST CALLVALUE DUP1 ISZERO PUSH2 0x2CC JUMPI PUSH1 0x0 DUP1 REVERT JUMPDEST POP PUSH2 0x228 PUSH2 0x2DB CALLDATASIZE PUSH1 0x4 PUSH2 0x2257 JUMP JUMPDEST PUSH2 0x872 JUMP JUMPDEST CALLVALUE DUP1 ISZERO PUSH2 0x2EC JUMPI PUSH1 0x0 DUP1 REVERT JUMPDEST POP PUSH1 0x6 SLOAD PUSH1 0x1 PUSH1 0x1 PUSH1 0xA0 SHL SUB AND PUSH2 0x1B1 JUMP JUMPDEST CALLVALUE DUP1 ISZERO PUSH2 0x30A JUMPI PUSH1 0x0 DUP1 REVERT JUMPDEST POP PUSH2 0x184 PUSH2 0x8BA JUMP JUMPDEST CALLVALUE DUP1 ISZERO PUSH2 0x31F JUMPI PUSH1 0x0 DUP1 REVERT JUMPDEST POP PUSH2 0x1E9 PUSH2 0x32E CALLDATASIZE PUSH1 0x4 PUSH2 0x230D JUMP JUMPDEST PUSH2 0x8C9 JUMP JUMPDEST CALLVALUE DUP1 ISZERO PUSH2 0x33F JUMPI PUSH1 0x0 DUP1 REVERT JUMPDEST POP PUSH1 0x7 SLOAD PUSH2 0x228 JUMP JUMPDEST CALLVALUE DUP1 ISZERO PUSH2 0x354 JUMPI PUSH1 0x0 DUP1 REVERT JUMPDEST POP PUSH2 0x1E9 PUSH2 0x363 CALLDATASIZE PUSH1 0x4 PUSH2 0x235F JUMP JUMPDEST PUSH2 0x8D4 JUMP JUMPDEST CALLVALUE DUP1 ISZERO PUSH2 0x374 JUMPI PUSH1 0x0 DUP1 REVERT JUMPDEST POP PUSH2 0x228 PUSH7 0xDB8EC5C71E8000 DUP2 JUMP JUMPDEST CALLVALUE DUP1 ISZERO PUSH2 0x38F JUMPI PUSH1 0x0 DUP1 REVERT JUMPDEST POP PUSH2 0x184 PUSH2 0x39E CALLDATASIZE PUSH1 0x4 PUSH2 0x2257 JUMP JUMPDEST PUSH2 0x8EC JUMP JUMPDEST CALLVALUE DUP1 ISZERO PUSH2 0x3AF JUMPI PUSH1 0x0 DUP1 REVERT JUMPDEST POP PUSH2 0x15A PUSH2 0x3BE CALLDATASIZE PUSH1 0x4 PUSH2 0x243B JUMP JUMPDEST PUSH2 0xA27 JUMP JUMPDEST CALLVALUE DUP1 ISZERO PUSH2 0x3CF JUMPI PUSH1 0x0 DUP1 REVERT JUMPDEST POP PUSH2 0x1E9 PUSH2 0x3DE CALLDATASIZE PUSH1 0x4 PUSH2 0x22F2 JUMP JUMPDEST PUSH2 0xA55 JUMP JUMPDEST PUSH1 0x0 PUSH1 0x1 PUSH1 0x1 PUSH1 0xE0 SHL SUB NOT DUP3 AND PUSH4 0x80AC58CD PUSH1 0xE0 SHL EQ DUP1 PUSH2 0x414 JUMPI POP PUSH1 0x1 PUSH1 0x1 PUSH1 0xE0 SHL SUB NOT DUP3 AND PUSH4 0x5B5E139F PUSH1 0xE0 SHL EQ JUMPDEST DUP1 PUSH2 0x42F JUMPI POP PUSH4 0x1FFC9A7 PUSH1 0xE0 SHL PUSH1 0x1 PUSH1 0x1 PUSH1 0xE0 SHL SUB NOT DUP4 AND EQ JUMPDEST SWAP3 SWAP2 POP POP JUMP JUMPDEST PUSH1 0x60 PUSH1 0x0 DUP1 SLOAD PUSH2 0x444 SWAP1 PUSH2 0x246E JUMP JUMPDEST DUP1 PUSH1 0x1F ADD PUSH1 0x20 DUP1 SWAP2 DIV MUL PUSH1 0x20 ADD PUSH1 0x40 MLOAD SWAP1 DUP2 ADD PUSH1 0x40 MSTORE DUP1 SWAP3 SWAP2 SWAP1 DUP2 DUP2 MSTORE PUSH1 0x20 ADD DUP3 DUP1 SLOAD PUSH2 0x470 SWAP1 PUSH2 0x246E JUMP JUMPDEST DUP1 ISZERO PUSH2 0x4BD JUMPI DUP1 PUSH1 0x1F LT PUSH2 0x492 JUMPI PUSH2 0x100 DUP1 DUP4 SLOAD DIV MUL DUP4 MSTORE SWAP2 PUSH1 0x20 ADD SWAP2 PUSH2 0x4BD JUMP JUMPDEST DUP3 ADD SWAP2 SWAP1 PUSH1 0x0 MSTORE PUSH1 0x20 PUSH1 0x0 KECCAK256 SWAP1 JUMPDEST DUP2 SLOAD DUP2 MSTORE SWAP1 PUSH1 0x1 ADD SWAP1 PUSH1 0x20 ADD DUP1 DUP4 GT PUSH2 0x4A0 JUMPI DUP3 SWAP1 SUB PUSH1 0x1F AND DUP3 ADD SWAP2 JUMPDEST POP POP POP POP POP SWAP1 POP SWAP1 JUMP JUMPDEST PUSH1 0x0 PUSH2 0x4D2 DUP3 PUSH2 0xA90 JUMP JUMPDEST POP PUSH1 0x0 DUP3 DUP2 MSTORE PUSH1 0x4 PUSH1 0x20 MSTORE PUSH1 0x40 SWAP1 KECCAK256 SLOAD PUSH1 0x1 PUSH1 0x1 PUSH1 0xA0 SHL SUB AND PUSH2 0x42F JUMP JUMPDEST PUSH2 0x4FB DUP3 DUP3 CALLER PUSH2 0xAC9 JUMP JUMPDEST POP POP JUMP JUMPDEST PUSH1 0x3D PUSH1 0x7 SLOAD LT PUSH2 0x522 JUMPI PUSH1 0x40 MLOAD PUSH4 0x52DF9FE5 PUSH1 0xE0 SHL DUP2 MSTORE PUSH1 0x4 ADD PUSH1 0x40 MLOAD DUP1 SWAP2 SUB SWAP1 REVERT JUMPDEST PUSH7 0xDB8EC5C71E8000 CALLVALUE LT ISZERO PUSH2 0x54A JUMPI PUSH1 0x40 MLOAD PUSH4 0xCD1C8867 PUSH1 0xE0 SHL DUP2 MSTORE PUSH1 0x4 ADD PUSH1 0x40 MLOAD DUP1 SWAP2 SUB SWAP1 REVERT JUMPDEST PUSH1 0x0 PUSH1 0x7 PUSH1 0x0 DUP2 SLOAD PUSH2 0x55B SWAP1 PUSH2 0x24BE JUMP JUMPDEST SWAP2 DUP3 SWAP1 SSTORE POP SWAP1 POP PUSH1 0x0 PUSH2 0x56F PUSH1 0x1 NUMBER PUSH2 0x24D7 JUMP JUMPDEST PUSH1 0x40 DUP1 MLOAD SWAP2 BLOCKHASH PUSH1 0x20 DUP4 ADD MSTORE DUP2 ADD DUP4 SWAP1 MSTORE CALLER PUSH1 0x60 SWAP1 DUP2 SHL PUSH12 0xFFFFFFFFFFFFFFFFFFFFFFFF NOT AND SWAP1 DUP3 ADD MSTORE TIMESTAMP PUSH1 0x74 DUP3 ADD MSTORE PUSH1 0x94 ADD PUSH1 0x40 DUP1 MLOAD PUSH1 0x1F NOT DUP2 DUP5 SUB ADD DUP2 MSTORE SWAP2 DUP2 MSTORE DUP2 MLOAD PUSH1 0x20 SWAP3 DUP4 ADD KECCAK256 PUSH1 0x0 DUP6 DUP2 MSTORE PUSH1 0x8 SWAP1 SWAP4 MSTORE SWAP2 KECCAK256 DUP2 SWAP1 SSTORE SWAP1 POP PUSH2 0x5D4 CALLER DUP4 PUSH2 0xAD6 JUMP JUMPDEST PUSH1 0x40 MLOAD DUP2 DUP2 MSTORE DUP3 SWAP1 CALLER SWAP1 PUSH32 0xC263B302AEC62D29105026245F19E16F8E0137066CCD4A8BD941F716BD4096BB SWAP1 PUSH1 0x20 ADD PUSH1 0x40 MLOAD DUP1 SWAP2 SUB SWAP1 LOG3 PUSH1 0x0 PUSH2 0x61E PUSH7 0xDB8EC5C71E8000 CALLVALUE PUSH2 0x24D7 JUMP JUMPDEST SWAP1 POP DUP1 ISZERO PUSH2 0x6B5 JUMPI PUSH1 0x40 MLOAD PUSH1 0x0 SWAP1 CALLER SWAP1 DUP4 SWAP1 DUP4 DUP2 DUP2 DUP2 DUP6 DUP8 GAS CALL SWAP3 POP POP POP RETURNDATASIZE DUP1 PUSH1 0x0 DUP2 EQ PUSH2 0x668 JUMPI PUSH1 0x40 MLOAD SWAP2 POP PUSH1 0x1F NOT PUSH1 0x3F RETURNDATASIZE ADD AND DUP3 ADD PUSH1 0x40 MSTORE RETURNDATASIZE DUP3 MSTORE RETURNDATASIZE PUSH1 0x0 PUSH1 0x20 DUP5 ADD RETURNDATACOPY PUSH2 0x66D JUMP JUMPDEST PUSH1 0x60 SWAP2 POP JUMPDEST POP POP SWAP1 POP DUP1 PUSH2 0x6B3 JUMPI PUSH1 0x40 MLOAD PUSH3 0x461BCD PUSH1 0xE5 SHL DUP2 MSTORE PUSH1 0x20 PUSH1 0x4 DUP3 ADD MSTORE PUSH1 0xD PUSH1 0x24 DUP3 ADD MSTORE PUSH13 0x1499599D5B990819985A5B1959 PUSH1 0x9A SHL PUSH1 0x44 DUP3 ADD MSTORE PUSH1 0x64 ADD JUMPDEST PUSH1 0x40 MLOAD DUP1 SWAP2 SUB SWAP1 REVERT JUMPDEST POP JUMPDEST POP POP POP JUMP JUMPDEST PUSH1 0x1 PUSH1 0x1 PUSH1 0xA0 SHL SUB DUP3 AND PUSH2 0x6E4 JUMPI PUSH1 0x40 MLOAD PUSH4 0x32505749 PUSH1 0xE1 SHL DUP2 MSTORE PUSH1 0x0 PUSH1 0x4 DUP3 ADD MSTORE PUSH1 0x24 ADD PUSH2 0x6AA JUMP JUMPDEST PUSH1 0x0 PUSH2 0x6F1 DUP4 DUP4 CALLER PUSH2 0xB3B JUMP JUMPDEST SWAP1 POP DUP4 PUSH1 0x1 PUSH1 0x1 PUSH1 0xA0 SHL SUB AND DUP2 PUSH1 0x1 PUSH1 0x1 PUSH1 0xA0 SHL SUB AND EQ PUSH2 0x6B3 JUMPI PUSH1 0x40 MLOAD PUSH4 0x64283D7B PUSH1 0xE0 SHL DUP2 MSTORE PUSH1 0x1 PUSH1 0x1 PUSH1 0xA0 SHL SUB DUP1 DUP7 AND PUSH1 0x4 DUP4 ADD MSTORE PUSH1 0x24 DUP3 ADD DUP5 SWAP1 MSTORE DUP3 AND PUSH1 0x44 DUP3 ADD MSTORE PUSH1 0x64 ADD PUSH2 0x6AA JUMP JUMPDEST PUSH2 0x747 PUSH2 0xC36 JUMP JUMPDEST PUSH1 0x0 PUSH2 0x75B PUSH1 0x6 SLOAD PUSH1 0x1 PUSH1 0x1 PUSH1 0xA0 SHL SUB AND SWAP1 JUMP JUMPDEST PUSH1 0x1 PUSH1 0x1 PUSH1 0xA0 SHL SUB AND SELFBALANCE PUSH1 0x40 MLOAD PUSH1 0x0 PUSH1 0x40 MLOAD DUP1 DUP4 SUB DUP2 DUP6 DUP8 GAS CALL SWAP3 POP POP POP RETURNDATASIZE DUP1 PUSH1 0x0 DUP2 EQ PUSH2 0x7A5 JUMPI PUSH1 0x40 MLOAD SWAP2 POP PUSH1 0x1F NOT PUSH1 0x3F RETURNDATASIZE ADD AND DUP3 ADD PUSH1 0x40 MSTORE RETURNDATASIZE DUP3 MSTORE RETURNDATASIZE PUSH1 0x0 PUSH1 0x20 DUP5 ADD RETURNDATACOPY PUSH2 0x7AA JUMP JUMPDEST PUSH1 0x60 SWAP2 POP JUMPDEST POP POP SWAP1 POP DUP1 PUSH2 0x7ED JUMPI PUSH1 0x40 MLOAD PUSH3 0x461BCD PUSH1 0xE5 SHL DUP2 MSTORE PUSH1 0x20 PUSH1 0x4 DUP3 ADD MSTORE PUSH1 0xF PUSH1 0x24 DUP3 ADD MSTORE PUSH15 0x15DA5D1A191C985DC819985A5B1959 PUSH1 0x8A SHL PUSH1 0x44 DUP3 ADD MSTORE PUSH1 0x64 ADD PUSH2 0x6AA JUMP JUMPDEST POP JUMP JUMPDEST PUSH2 0x6B5 DUP4 DUP4 DUP4 PUSH1 0x40 MLOAD DUP1 PUSH1 0x20 ADD PUSH1 0x40 MSTORE DUP1 PUSH1 0x0 DUP2 MSTORE POP PUSH2 0x8D4 JUMP JUMPDEST PUSH1 0x0 PUSH2 0x42F DUP3 PUSH2 0xA90 JUMP JUMPDEST PUSH1 0x0 PUSH1 0x1 PUSH1 0x1 PUSH1 0xA0 SHL SUB DUP3 AND PUSH2 0x842 JUMPI PUSH1 0x40 MLOAD PUSH4 0x22718AD9 PUSH1 0xE2 SHL DUP2 MSTORE PUSH1 0x0 PUSH1 0x4 DUP3 ADD MSTORE PUSH1 0x24 ADD PUSH2 0x6AA JUMP JUMPDEST POP PUSH1 0x1 PUSH1 0x1 PUSH1 0xA0 SHL SUB AND PUSH1 0x0 SWAP1 DUP2 MSTORE PUSH1 0x3 PUSH1 0x20 MSTORE PUSH1 0x40 SWAP1 KECCAK256 SLOAD SWAP1 JUMP JUMPDEST PUSH2 0x866 PUSH2 0xC36 JUMP JUMPDEST PUSH2 0x870 PUSH1 0x0 PUSH2 0xC63 JUMP JUMPDEST JUMP JUMPDEST PUSH1 0x0 DUP2 DUP2 MSTORE PUSH1 0x2 PUSH1 0x20 MSTORE PUSH1 0x40 DUP2 KECCAK256 SLOAD PUSH1 0x1 PUSH1 0x1 PUSH1 0xA0 SHL SUB AND PUSH2 0x8A7 JUMPI PUSH1 0x40 MLOAD PUSH4 0x367F2F2F PUSH1 0xE1 SHL DUP2 MSTORE PUSH1 0x4 ADD PUSH1 0x40 MLOAD DUP1 SWAP2 SUB SWAP1 REVERT JUMPDEST POP PUSH1 0x0 SWAP1 DUP2 MSTORE PUSH1 0x8 PUSH1 0x20 MSTORE PUSH1 0x40 SWAP1 KECCAK256 SLOAD SWAP1 JUMP JUMPDEST PUSH1 0x60 PUSH1 0x1 DUP1 SLOAD PUSH2 0x444 SWAP1 PUSH2 0x246E JUMP JUMPDEST PUSH2 0x4FB CALLER DUP4 DUP4 PUSH2 0xCB5 JUMP JUMPDEST PUSH2 0x8DF DUP5 DUP5 DUP5 PUSH2 0x6BA JUMP JUMPDEST PUSH2 0x6B3 CALLER DUP6 DUP6 DUP6 DUP6 PUSH2 0xD54 JUMP JUMPDEST PUSH1 0x0 DUP2 DUP2 MSTORE PUSH1 0x2 PUSH1 0x20 MSTORE PUSH1 0x40 SWAP1 KECCAK256 SLOAD PUSH1 0x60 SWAP1 PUSH1 0x1 PUSH1 0x1 PUSH1 0xA0 SHL SUB AND PUSH2 0x924 JUMPI PUSH1 0x40 MLOAD PUSH4 0x367F2F2F PUSH1 0xE1 SHL DUP2 MSTORE PUSH1 0x4 ADD PUSH1 0x40 MLOAD DUP1 SWAP2 SUB SWAP1 REVERT JUMPDEST PUSH1 0x0 DUP3 DUP2 MSTORE PUSH1 0x8 PUSH1 0x20 MSTORE PUSH1 0x40 DUP2 KECCAK256 SLOAD SWAP1 PUSH2 0x93D DUP3 PUSH2 0xE7F JUMP JUMPDEST SWAP1 POP DUP2 PUSH1 0x0 PUSH2 0x955 PUSH2 0x950 PUSH1 0x8 DUP5 PUSH2 0x2500 JUMP JUMPDEST PUSH2 0xFCF JUMP JUMPDEST SWAP1 POP PUSH1 0x0 PUSH2 0x970 PUSH2 0x96B PUSH1 0x4 PUSH1 0x20 DUP7 SWAP1 SHR PUSH2 0x2500 JUMP JUMPDEST PUSH2 0x1151 JUMP JUMPDEST SWAP1 POP PUSH1 0x0 PUSH2 0x97E DUP6 DUP10 PUSH2 0x1221 JUMP JUMPDEST SWAP1 POP PUSH1 0x0 PUSH2 0x98B DUP3 PUSH2 0x1282 JUMP JUMPDEST SWAP1 POP PUSH1 0x0 DUP4 DUP6 PUSH2 0x99A DUP13 PUSH2 0x12A8 JUMP JUMPDEST PUSH1 0x40 MLOAD PUSH1 0x20 ADD PUSH2 0x9AC SWAP4 SWAP3 SWAP2 SWAP1 PUSH2 0x2530 JUMP JUMPDEST PUSH1 0x40 MLOAD PUSH1 0x20 DUP2 DUP4 SUB SUB DUP2 MSTORE SWAP1 PUSH1 0x40 MSTORE SWAP1 POP PUSH1 0x0 PUSH2 0x9C8 DUP12 PUSH2 0x12A8 JUMP JUMPDEST DUP4 DUP5 DUP5 PUSH1 0x40 MLOAD PUSH1 0x20 ADD PUSH2 0x9DE SWAP5 SWAP4 SWAP3 SWAP2 SWAP1 PUSH2 0x2647 JUMP JUMPDEST PUSH1 0x40 MLOAD PUSH1 0x20 DUP2 DUP4 SUB SUB DUP2 MSTORE SWAP1 PUSH1 0x40 MSTORE SWAP1 POP PUSH2 0x9F8 DUP2 PUSH2 0x1282 JUMP JUMPDEST PUSH1 0x40 MLOAD PUSH1 0x20 ADD PUSH2 0xA08 SWAP2 SWAP1 PUSH2 0x285C JUMP JUMPDEST PUSH1 0x40 MLOAD PUSH1 0x20 DUP2 DUP4 SUB SUB DUP2 MSTORE SWAP1 PUSH1 0x40 MSTORE SWAP10 POP POP POP POP POP POP POP POP POP POP SWAP2 SWAP1 POP JUMP JUMPDEST PUSH1 0x1 PUSH1 0x1 PUSH1 0xA0 SHL SUB SWAP2 DUP3 AND PUSH1 0x0 SWAP1 DUP2 MSTORE PUSH1 0x5 PUSH1 0x20 SWAP1 DUP2 MSTORE PUSH1 0x40 DUP1 DUP4 KECCAK256 SWAP4 SWAP1 SWAP5 AND DUP3 MSTORE SWAP2 SWAP1 SWAP2 MSTORE KECCAK256 SLOAD PUSH1 0xFF AND SWAP1 JUMP JUMPDEST PUSH2 0xA5D PUSH2 0xC36 JUMP JUMPDEST PUSH1 0x1 PUSH1 0x1 PUSH1 0xA0 SHL SUB DUP2 AND PUSH2 0xA87 JUMPI PUSH1 0x40 MLOAD PUSH4 0x1E4FBDF7 PUSH1 0xE0 SHL DUP2 MSTORE PUSH1 0x0 PUSH1 0x4 DUP3 ADD MSTORE PUSH1 0x24 ADD PUSH2 0x6AA JUMP JUMPDEST PUSH2 0x7ED DUP2 PUSH2 0xC63 JUMP JUMPDEST PUSH1 0x0 DUP2 DUP2 MSTORE PUSH1 0x2 PUSH1 0x20 MSTORE PUSH1 0x40 DUP2 KECCAK256 SLOAD PUSH1 0x1 PUSH1 0x1 PUSH1 0xA0 SHL SUB AND DUP1 PUSH2 0x42F JUMPI PUSH1 0x40 MLOAD PUSH4 0x7E273289 PUSH1 0xE0 SHL DUP2 MSTORE PUSH1 0x4 DUP2 ADD DUP5 SWAP1 MSTORE PUSH1 0x24 ADD PUSH2 0x6AA JUMP JUMPDEST PUSH2 0x6B5 DUP4 DUP4 DUP4 PUSH1 0x1 PUSH2 0x133B JUMP JUMPDEST PUSH1 0x1 PUSH1 0x1 PUSH1 0xA0 SHL SUB DUP3 AND PUSH2 0xB00 JUMPI PUSH1 0x40 MLOAD PUSH4 0x32505749 PUSH1 0xE1 SHL DUP2 MSTORE PUSH1 0x0 PUSH1 0x4 DUP3 ADD MSTORE PUSH1 0x24 ADD PUSH2 0x6AA JUMP JUMPDEST PUSH1 0x0 PUSH2 0xB0E DUP4 DUP4 PUSH1 0x0 PUSH2 0xB3B JUMP JUMPDEST SWAP1 POP PUSH1 0x1 PUSH1 0x1 PUSH1 0xA0 SHL SUB DUP2 AND ISZERO PUSH2 0x6B5 JUMPI PUSH1 0x40 MLOAD PUSH4 0x39E35637 PUSH1 0xE1 SHL DUP2 MSTORE PUSH1 0x0 PUSH1 0x4 DUP3 ADD MSTORE PUSH1 0x24 ADD PUSH2 0x6AA JUMP JUMPDEST PUSH1 0x0 DUP3 DUP2 MSTORE PUSH1 0x2 PUSH1 0x20 MSTORE PUSH1 0x40 DUP2 KECCAK256 SLOAD PUSH1 0x1 PUSH1 0x1 PUSH1 0xA0 SHL SUB SWAP1 DUP2 AND SWAP1 DUP4 AND ISZERO PUSH2 0xB68 JUMPI PUSH2 0xB68 DUP2 DUP5 DUP7 PUSH2 0x1441 JUMP JUMPDEST PUSH1 0x1 PUSH1 0x1 PUSH1 0xA0 SHL SUB DUP2 AND ISZERO PUSH2 0xBA6 JUMPI PUSH2 0xB85 PUSH1 0x0 DUP6 PUSH1 0x0 DUP1 PUSH2 0x133B JUMP JUMPDEST PUSH1 0x1 PUSH1 0x1 PUSH1 0xA0 SHL SUB DUP2 AND PUSH1 0x0 SWAP1 DUP2 MSTORE PUSH1 0x3 PUSH1 0x20 MSTORE PUSH1 0x40 SWAP1 KECCAK256 DUP1 SLOAD PUSH1 0x0 NOT ADD SWAP1 SSTORE JUMPDEST PUSH1 0x1 PUSH1 0x1 PUSH1 0xA0 SHL SUB DUP6 AND ISZERO PUSH2 0xBD5 JUMPI PUSH1 0x1 PUSH1 0x1 PUSH1 0xA0 SHL SUB DUP6 AND PUSH1 0x0 SWAP1 DUP2 MSTORE PUSH1 0x3 PUSH1 0x20 MSTORE PUSH1 0x40 SWAP1 KECCAK256 DUP1 SLOAD PUSH1 0x1 ADD SWAP1 SSTORE JUMPDEST PUSH1 0x0 DUP5 DUP2 MSTORE PUSH1 0x2 PUSH1 0x20 MSTORE PUSH1 0x40 DUP1 DUP3 KECCAK256 DUP1 SLOAD PUSH1 0x1 PUSH1 0x1 PUSH1 0xA0 SHL SUB NOT AND PUSH1 0x1 PUSH1 0x1 PUSH1 0xA0 SHL SUB DUP10 DUP2 AND SWAP2 DUP3 OR SWAP1 SWAP3 SSTORE SWAP2 MLOAD DUP8 SWAP4 SWAP2 DUP6 AND SWAP2 PUSH32 0xDDF252AD1BE2C89B69C2B068FC378DAA952BA7F163C4A11628F55A4DF523B3EF SWAP2 LOG4 SWAP1 POP JUMPDEST SWAP4 SWAP3 POP POP POP JUMP JUMPDEST PUSH1 0x6 SLOAD PUSH1 0x1 PUSH1 0x1 PUSH1 0xA0 SHL SUB AND CALLER EQ PUSH2 0x870 JUMPI PUSH1 0x40 MLOAD PUSH4 0x118CDAA7 PUSH1 0xE0 SHL DUP2 MSTORE CALLER PUSH1 0x4 DUP3 ADD MSTORE PUSH1 0x24 ADD PUSH2 0x6AA JUMP JUMPDEST PUSH1 0x6 DUP1 SLOAD PUSH1 0x1 PUSH1 0x1 PUSH1 0xA0 SHL SUB DUP4 DUP2 AND PUSH1 0x1 PUSH1 0x1 PUSH1 0xA0 SHL SUB NOT DUP4 AND DUP2 OR SWAP1 SWAP4 SSTORE PUSH1 0x40 MLOAD SWAP2 AND SWAP2 SWAP1 DUP3 SWAP1 PUSH32 0x8BE0079C531659141344CD1FD0A4F28419497F9722A3DAAFE3B4186F6B6457E0 SWAP1 PUSH1 0x0 SWAP1 LOG3 POP POP JUMP JUMPDEST PUSH1 0x1 PUSH1 0x1 PUSH1 0xA0 SHL SUB DUP3 AND PUSH2 0xCE7 JUMPI PUSH1 0x40 MLOAD PUSH4 0xB611743 PUSH1 0xE3 SHL DUP2 MSTORE PUSH1 0x1 PUSH1 0x1 PUSH1 0xA0 SHL SUB DUP4 AND PUSH1 0x4 DUP3 ADD MSTORE PUSH1 0x24 ADD PUSH2 0x6AA JUMP JUMPDEST PUSH1 0x1 PUSH1 0x1 PUSH1 0xA0 SHL SUB DUP4 DUP2 AND PUSH1 0x0 DUP2 DUP2 MSTORE PUSH1 0x5 PUSH1 0x20 SWAP1 DUP2 MSTORE PUSH1 0x40 DUP1 DUP4 KECCAK256 SWAP5 DUP8 AND DUP1 DUP5 MSTORE SWAP5 DUP3 MSTORE SWAP2 DUP3 SWAP1 KECCAK256 DUP1 SLOAD PUSH1 0xFF NOT AND DUP7 ISZERO ISZERO SWAP1 DUP2 OR SWAP1 SWAP2 SSTORE SWAP2 MLOAD SWAP2 DUP3 MSTORE PUSH32 0x17307EAB39AB6107E8899845AD3D59BD9653F200F220920489CA2B5937696C31 SWAP2 ADD PUSH1 0x40 MLOAD DUP1 SWAP2 SUB SWAP1 LOG3 POP POP POP JUMP JUMPDEST PUSH1 0x1 PUSH1 0x1 PUSH1 0xA0 SHL SUB DUP4 AND EXTCODESIZE ISZERO PUSH2 0xE78 JUMPI PUSH1 0x40 MLOAD PUSH4 0xA85BD01 PUSH1 0xE1 SHL DUP2 MSTORE PUSH1 0x1 PUSH1 0x1 PUSH1 0xA0 SHL SUB DUP5 AND SWAP1 PUSH4 0x150B7A02 SWAP1 PUSH2 0xD96 SWAP1 DUP9 SWAP1 DUP9 SWAP1 DUP8 SWAP1 DUP8 SWAP1 PUSH1 0x4 ADD PUSH2 0x28A1 JUMP JUMPDEST PUSH1 0x20 PUSH1 0x40 MLOAD DUP1 DUP4 SUB DUP2 PUSH1 0x0 DUP8 GAS CALL SWAP3 POP POP POP DUP1 ISZERO PUSH2 0xDD1 JUMPI POP PUSH1 0x40 DUP1 MLOAD PUSH1 0x1F RETURNDATASIZE SWAP1 DUP2 ADD PUSH1 0x1F NOT AND DUP3 ADD SWAP1 SWAP3 MSTORE PUSH2 0xDCE SWAP2 DUP2 ADD SWAP1 PUSH2 0x28DE JUMP JUMPDEST PUSH1 0x1 JUMPDEST PUSH2 0xE3A JUMPI RETURNDATASIZE DUP1 DUP1 ISZERO PUSH2 0xDFF JUMPI PUSH1 0x40 MLOAD SWAP2 POP PUSH1 0x1F NOT PUSH1 0x3F RETURNDATASIZE ADD AND DUP3 ADD PUSH1 0x40 MSTORE RETURNDATASIZE DUP3 MSTORE RETURNDATASIZE PUSH1 0x0 PUSH1 0x20 DUP5 ADD RETURNDATACOPY PUSH2 0xE04 JUMP JUMPDEST PUSH1 0x60 SWAP2 POP JUMPDEST POP DUP1 MLOAD PUSH1 0x0 SUB PUSH2 0xE32 JUMPI PUSH1 0x40 MLOAD PUSH4 0x32505749 PUSH1 0xE1 SHL DUP2 MSTORE PUSH1 0x1 PUSH1 0x1 PUSH1 0xA0 SHL SUB DUP6 AND PUSH1 0x4 DUP3 ADD MSTORE PUSH1 0x24 ADD PUSH2 0x6AA JUMP JUMPDEST DUP1 MLOAD PUSH1 0x20 DUP3 ADD REVERT JUMPDEST PUSH1 0x1 PUSH1 0x1 PUSH1 0xE0 SHL SUB NOT DUP2 AND PUSH4 0xA85BD01 PUSH1 0xE1 SHL EQ PUSH2 0xE76 JUMPI PUSH1 0x40 MLOAD PUSH4 0x32505749 PUSH1 0xE1 SHL DUP2 MSTORE PUSH1 0x1 PUSH1 0x1 PUSH1 0xA0 SHL SUB DUP6 AND PUSH1 0x4 DUP3 ADD MSTORE PUSH1 0x24 ADD PUSH2 0x6AA JUMP JUMPDEST POP JUMPDEST POP POP POP POP POP JUMP JUMPDEST PUSH1 0x40 DUP1 MLOAD DUP1 DUP3 ADD DUP3 MSTORE PUSH1 0x10 DUP2 MSTORE PUSH16 0x181899199A1A9B1B9C1CB0B131B232B3 PUSH1 0x81 SHL PUSH1 0x20 DUP3 ADD MSTORE DUP2 MLOAD DUP3 DUP2 MSTORE PUSH1 0x60 DUP2 DUP2 ADD DUP5 MSTORE SWAP3 PUSH1 0x0 SWAP2 SWAP1 PUSH1 0x20 DUP3 ADD DUP2 DUP1 CALLDATASIZE DUP4 CALLDATACOPY ADD SWAP1 POP POP SWAP1 POP PUSH1 0x0 JUMPDEST PUSH1 0x20 DUP2 LT ISZERO PUSH2 0xFC7 JUMPI DUP3 PUSH1 0x4 DUP7 DUP4 PUSH1 0x20 DUP2 LT PUSH2 0xEE6 JUMPI PUSH2 0xEE6 PUSH2 0x28FB JUMP JUMPDEST DUP4 MLOAD SWAP2 SWAP1 BYTE SWAP1 SWAP2 SHR PUSH1 0xFF AND SWAP1 DUP2 LT PUSH2 0xF00 JUMPI PUSH2 0xF00 PUSH2 0x28FB JUMP JUMPDEST ADD PUSH1 0x20 ADD MLOAD PUSH1 0x1 PUSH1 0x1 PUSH1 0xF8 SHL SUB NOT AND DUP3 PUSH2 0xF1B DUP4 PUSH1 0x2 PUSH2 0x2911 JUMP JUMPDEST DUP2 MLOAD DUP2 LT PUSH2 0xF2B JUMPI PUSH2 0xF2B PUSH2 0x28FB JUMP JUMPDEST PUSH1 0x20 ADD ADD SWAP1 PUSH1 0x1 PUSH1 0x1 PUSH1 0xF8 SHL SUB NOT AND SWAP1 DUP2 PUSH1 0x0 BYTE SWAP1 MSTORE8 POP DUP3 DUP6 DUP3 PUSH1 0x20 DUP2 LT PUSH2 0xF55 JUMPI PUSH2 0xF55 PUSH2 0x28FB JUMP JUMPDEST BYTE PUSH1 0xF8 SHL PUSH1 0xF8 SHR PUSH1 0xF AND PUSH1 0xFF AND DUP2 MLOAD DUP2 LT PUSH2 0xF72 JUMPI PUSH2 0xF72 PUSH2 0x28FB JUMP JUMPDEST ADD PUSH1 0x20 ADD MLOAD PUSH1 0x1 PUSH1 0x1 PUSH1 0xF8 SHL SUB NOT AND DUP3 PUSH2 0xF8D DUP4 PUSH1 0x2 PUSH2 0x2911 JUMP JUMPDEST PUSH2 0xF98 SWAP1 PUSH1 0x1 PUSH2 0x2928 JUMP JUMPDEST DUP2 MLOAD DUP2 LT PUSH2 0xFA8 JUMPI PUSH2 0xFA8 PUSH2 0x28FB JUMP JUMPDEST PUSH1 0x20 ADD ADD SWAP1 PUSH1 0x1 PUSH1 0x1 PUSH1 0xF8 SHL SUB NOT AND SWAP1 DUP2 PUSH1 0x0 BYTE SWAP1 MSTORE8 POP PUSH1 0x1 ADD PUSH2 0xEC8 JUMP JUMPDEST POP SWAP4 SWAP3 POP POP POP JUMP JUMPDEST PUSH1 0x60 DUP2 PUSH1 0x0 SUB PUSH2 0x1004 JUMPI POP POP PUSH1 0x40 DUP1 MLOAD DUP1 DUP3 ADD SWAP1 SWAP2 MSTORE PUSH1 0xF DUP2 MSTORE PUSH15 0x436C61737369632042617568617573 PUSH1 0x88 SHL PUSH1 0x20 DUP3 ADD MSTORE SWAP1 JUMP JUMPDEST DUP2 PUSH1 0x1 SUB PUSH2 0x1034 JUMPI POP POP PUSH1 0x40 DUP1 MLOAD DUP1 DUP3 ADD SWAP1 SWAP2 MSTORE PUSH1 0xC DUP2 MSTORE PUSH12 0x4461726B205072696D617279 PUSH1 0xA0 SHL PUSH1 0x20 DUP3 ADD MSTORE SWAP1 JUMP JUMPDEST DUP2 PUSH1 0x2 SUB PUSH2 0x1064 JUMPI POP POP PUSH1 0x40 DUP1 MLOAD DUP1 DUP3 ADD SWAP1 SWAP2 MSTORE PUSH1 0xC DUP2 MSTORE PUSH12 0xAECAD2DAC2E4408AC2E4E8D PUSH1 0xA3 SHL PUSH1 0x20 DUP3 ADD MSTORE SWAP1 JUMP JUMPDEST DUP2 PUSH1 0x3 SUB PUSH2 0x1096 JUMPI POP POP PUSH1 0x40 DUP1 MLOAD DUP1 DUP3 ADD SWAP1 SWAP2 MSTORE PUSH1 0xE DUP2 MSTORE PUSH14 0x10DBDB9CDD1C9D58DD1A5D9A5CDD PUSH1 0x92 SHL PUSH1 0x20 DUP3 ADD MSTORE SWAP1 JUMP JUMPDEST DUP2 PUSH1 0x4 SUB PUSH2 0x10C7 JUMPI POP POP PUSH1 0x40 DUP1 MLOAD DUP1 DUP3 ADD SWAP1 SWAP2 MSTORE PUSH1 0xD DUP2 MSTORE PUSH13 0x4F63687265205072696D617279 PUSH1 0x98 SHL PUSH1 0x20 DUP3 ADD MSTORE SWAP1 JUMP JUMPDEST DUP2 PUSH1 0x5 SUB PUSH2 0x10F9 JUMPI POP POP PUSH1 0x40 DUP1 MLOAD DUP1 DUP3 ADD SWAP1 SWAP2 MSTORE PUSH1 0xE DUP2 MSTORE PUSH14 0x5761726D2047656F6D6574726963 PUSH1 0x90 SHL PUSH1 0x20 DUP3 ADD MSTORE SWAP1 JUMP JUMPDEST DUP2 PUSH1 0x6 SUB PUSH2 0x112A JUMPI POP POP PUSH1 0x40 DUP1 MLOAD DUP1 DUP3 ADD SWAP1 SWAP2 MSTORE PUSH1 0xD DUP2 MSTORE PUSH13 0x4E696768742042617568617573 PUSH1 0x98 SHL PUSH1 0x20 DUP3 ADD MSTORE SWAP1 JUMP JUMPDEST POP POP PUSH1 0x40 DUP1 MLOAD DUP1 DUP3 ADD SWAP1 SWAP2 MSTORE PUSH1 0xB DUP2 MSTORE PUSH11 0x4465737361752047726179 PUSH1 0xA8 SHL PUSH1 0x20 DUP3 ADD MSTORE SWAP1 JUMP JUMPDEST PUSH1 0x60 DUP2 PUSH1 0x0 SUB PUSH2 0x1187 JUMPI POP POP PUSH1 0x40 DUP1 MLOAD DUP1 DUP3 ADD SWAP1 SWAP2 MSTORE PUSH1 0x10 DUP2 MSTORE PUSH16 0x436972636C6520446F6D696E616E6365 PUSH1 0x80 SHL PUSH1 0x20 DUP3 ADD MSTORE SWAP1 JUMP JUMPDEST DUP2 PUSH1 0x1 SUB PUSH2 0x11B8 JUMPI POP POP PUSH1 0x40 DUP1 MLOAD DUP1 DUP3 ADD SWAP1 SWAP2 MSTORE PUSH1 0xD DUP2 MSTORE PUSH13 0x11194814DD1A5A9B0811DC9A59 PUSH1 0x9A SHL PUSH1 0x20 DUP3 ADD MSTORE SWAP1 JUMP JUMPDEST DUP2 PUSH1 0x2 SUB PUSH2 0x11F9 JUMPI POP POP PUSH1 0x40 DUP1 MLOAD DUP1 DUP3 ADD SWAP1 SWAP2 MSTORE PUSH1 0x17 DUP2 MSTORE PUSH32 0x436F6E737472756374697669737420446961676F6E616C000000000000000000 PUSH1 0x20 DUP3 ADD MSTORE SWAP1 JUMP JUMPDEST POP POP PUSH1 0x40 DUP1 MLOAD DUP1 DUP3 ADD SWAP1 SWAP2 MSTORE PUSH1 0xC DUP2 MSTORE PUSH12 0x4E657374656420466F726D73 PUSH1 0xA0 SHL PUSH1 0x20 DUP3 ADD MSTORE SWAP1 JUMP JUMPDEST PUSH1 0x60 PUSH2 0x122B PUSH2 0x14A5 JUMP JUMPDEST DUP4 PUSH2 0x1235 DUP5 PUSH2 0x12A8 JUMP JUMPDEST PUSH2 0x123D PUSH2 0x14CA JUMP JUMPDEST PUSH2 0x1245 PUSH2 0x14ED JUMP JUMPDEST PUSH2 0x124D PUSH2 0x14FE JUMP JUMPDEST PUSH2 0x1255 PUSH2 0x1A8F JUMP JUMPDEST PUSH1 0x40 MLOAD PUSH1 0x20 ADD PUSH2 0x126B SWAP8 SWAP7 SWAP6 SWAP5 SWAP4 SWAP3 SWAP2 SWAP1 PUSH2 0x293B JUMP JUMPDEST PUSH1 0x40 MLOAD PUSH1 0x20 DUP2 DUP4 SUB SUB DUP2 MSTORE SWAP1 PUSH1 0x40 MSTORE SWAP1 POP SWAP3 SWAP2 POP POP JUMP JUMPDEST PUSH1 0x60 PUSH2 0x42F DUP3 PUSH1 0x40 MLOAD DUP1 PUSH1 0x60 ADD PUSH1 0x40 MSTORE DUP1 PUSH1 0x40 DUP2 MSTORE PUSH1 0x20 ADD PUSH2 0x367A PUSH1 0x40 SWAP2 CODECOPY PUSH1 0x1 PUSH2 0x1B2A JUMP JUMPDEST PUSH1 0x60 PUSH1 0x0 PUSH2 0x12B5 DUP4 PUSH2 0x1CAA JUMP JUMPDEST PUSH1 0x1 ADD SWAP1 POP PUSH1 0x0 DUP2 PUSH8 0xFFFFFFFFFFFFFFFF DUP2 GT ISZERO PUSH2 0x12D5 JUMPI PUSH2 0x12D5 PUSH2 0x2349 JUMP JUMPDEST PUSH1 0x40 MLOAD SWAP1 DUP1 DUP3 MSTORE DUP1 PUSH1 0x1F ADD PUSH1 0x1F NOT AND PUSH1 0x20 ADD DUP3 ADD PUSH1 0x40 MSTORE DUP1 ISZERO PUSH2 0x12FF JUMPI PUSH1 0x20 DUP3 ADD DUP2 DUP1 CALLDATASIZE DUP4 CALLDATACOPY ADD SWAP1 POP JUMPDEST POP SWAP1 POP DUP2 DUP2 ADD PUSH1 0x20 ADD JUMPDEST PUSH1 0x0 NOT ADD PUSH16 0x181899199A1A9B1B9C1CB0B131B232B3 PUSH1 0x81 SHL PUSH1 0xA DUP7 MOD BYTE DUP2 MSTORE8 PUSH1 0xA DUP6 DIV SWAP5 POP DUP5 PUSH2 0x1309 JUMPI POP SWAP4 SWAP3 POP POP POP JUMP JUMPDEST DUP1 DUP1 PUSH2 0x134F JUMPI POP PUSH1 0x1 PUSH1 0x1 PUSH1 0xA0 SHL SUB DUP3 AND ISZERO ISZERO JUMPDEST ISZERO PUSH2 0x1411 JUMPI PUSH1 0x0 PUSH2 0x135F DUP5 PUSH2 0xA90 JUMP JUMPDEST SWAP1 POP PUSH1 0x1 PUSH1 0x1 PUSH1 0xA0 SHL SUB DUP4 AND ISZERO DUP1 ISZERO SWAP1 PUSH2 0x138B JUMPI POP DUP3 PUSH1 0x1 PUSH1 0x1 PUSH1 0xA0 SHL SUB AND DUP2 PUSH1 0x1 PUSH1 0x1 PUSH1 0xA0 SHL SUB AND EQ ISZERO JUMPDEST DUP1 ISZERO PUSH2 0x139E JUMPI POP PUSH2 0x139C DUP2 DUP5 PUSH2 0xA27 JUMP JUMPDEST ISZERO JUMPDEST ISZERO PUSH2 0x13C7 JUMPI PUSH1 0x40 MLOAD PUSH4 0xA9FBF51F PUSH1 0xE0 SHL DUP2 MSTORE PUSH1 0x1 PUSH1 0x1 PUSH1 0xA0 SHL SUB DUP5 AND PUSH1 0x4 DUP3 ADD MSTORE PUSH1 0x24 ADD PUSH2 0x6AA JUMP JUMPDEST DUP2 ISZERO PUSH2 0x140F JUMPI DUP4 DUP6 PUSH1 0x1 PUSH1 0x1 PUSH1 0xA0 SHL SUB AND DUP3 PUSH1 0x1 PUSH1 0x1 PUSH1 0xA0 SHL SUB AND PUSH32 0x8C5BE1E5EBEC7D5BD14F71427D1E84F3DD0314C0F7B2291E5B200AC8C7C3B925 PUSH1 0x40 MLOAD PUSH1 0x40 MLOAD DUP1 SWAP2 SUB SWAP1 LOG4 JUMPDEST POP JUMPDEST POP POP PUSH1 0x0 SWAP1 DUP2 MSTORE PUSH1 0x4 PUSH1 0x20 MSTORE PUSH1 0x40 SWAP1 KECCAK256 DUP1 SLOAD PUSH1 0x1 PUSH1 0x1 PUSH1 0xA0 SHL SUB NOT AND PUSH1 0x1 PUSH1 0x1 PUSH1 0xA0 SHL SUB SWAP3 SWAP1 SWAP3 AND SWAP2 SWAP1 SWAP2 OR SWAP1 SSTORE JUMP JUMPDEST PUSH2 0x144C DUP4 DUP4 DUP4 PUSH2 0x1D82 JUMP JUMPDEST PUSH2 0x6B5 JUMPI PUSH1 0x1 PUSH1 0x1 PUSH1 0xA0 SHL SUB DUP4 AND PUSH2 0x147A JUMPI PUSH1 0x40 MLOAD PUSH4 0x7E273289 PUSH1 0xE0 SHL DUP2 MSTORE PUSH1 0x4 DUP2 ADD DUP3 SWAP1 MSTORE PUSH1 0x24 ADD PUSH2 0x6AA JUMP JUMPDEST PUSH1 0x40 MLOAD PUSH4 0x177E802F PUSH1 0xE0 SHL DUP2 MSTORE PUSH1 0x1 PUSH1 0x1 PUSH1 0xA0 SHL SUB DUP4 AND PUSH1 0x4 DUP3 ADD MSTORE PUSH1 0x24 DUP2 ADD DUP3 SWAP1 MSTORE PUSH1 0x44 ADD PUSH2 0x6AA JUMP JUMPDEST PUSH1 0x60 PUSH1 0x40 MLOAD PUSH1 0x20 ADD PUSH2 0x14B6 SWAP1 PUSH2 0x2B32 JUMP JUMPDEST PUSH1 0x40 MLOAD PUSH1 0x20 DUP2 DUP4 SUB SUB DUP2 MSTORE SWAP1 PUSH1 0x40 MSTORE SWAP1 POP SWAP1 JUMP JUMPDEST PUSH1 0x60 PUSH2 0x14D4 PUSH2 0x1DE8 JUMP JUMPDEST PUSH2 0x14DC PUSH2 0x2033 JUMP JUMPDEST PUSH1 0x40 MLOAD PUSH1 0x20 ADD PUSH2 0x14B6 SWAP3 SWAP2 SWAP1 PUSH2 0x30AE JUMP JUMPDEST PUSH1 0x60 PUSH1 0x40 MLOAD PUSH1 0x20 ADD PUSH2 0x14B6 SWAP1 PUSH2 0x30DD JUMP JUMPDEST PUSH1 0x60 PUSH1 0x40 MLOAD PUSH1 0x20 ADD PUSH2 0x14B6 SWAP1 PUSH21 0x66756E6374696F6E2064726177436F6E737428297B PUSH1 0x58 SHL DUP2 MSTORE PUSH11 0x62672870616C5B305D293B PUSH1 0xA8 SHL PUSH1 0x15 DUP3 ADD DUP2 SWAP1 MSTORE PUSH32 0x636F6E737420616E673D5B50492F362C50492F342C50492F335D5B666C6F6F72 PUSH1 0x20 DUP4 ADD MSTORE PUSH8 0x2856312A33295D3B PUSH1 0xC0 SHL PUSH1 0x40 DUP4 ADD MSTORE PUSH32 0x5F63782E7361766528293B5F63782E7472616E736C617465283430302C343030 PUSH1 0x48 DUP4 ADD DUP2 SWAP1 MSTORE PUSH18 0x293B5F63782E726F7461746528616E67293B PUSH1 0x70 SHL PUSH1 0x68 DUP5 ADD MSTORE PUSH32 0x5F63782E66696C6C5374796C653D70616C5B315D3B5F63782E66696C6C526563 PUSH1 0x7A DUP5 ADD MSTORE PUSH21 0x74282D35352C2D3730302C3131302C31343030293B PUSH1 0x58 SHL PUSH1 0x9A DUP5 ADD MSTORE PUSH14 0x5F63782E726573746F726528293B PUSH1 0x90 SHL PUSH1 0xAF DUP5 ADD MSTORE PUSH1 0xBD DUP4 ADD MSTORE PUSH32 0x293B5F63782E726F7461746528616E672B50492F32293B000000000000000000 PUSH1 0xDD DUP4 ADD MSTORE PUSH32 0x5F63782E66696C6C5374796C653D70616C5B325D3B5F63782E676C6F62616C41 PUSH1 0xF4 DUP4 ADD MSTORE PUSH32 0x6C7068613D302E35353B5F63782E66696C6C52656374282D32382C2D3730302C PUSH2 0x114 DUP4 ADD MSTORE PUSH9 0x35362C31343030293B PUSH1 0xB8 SHL PUSH2 0x134 DUP4 ADD MSTORE PUSH32 0x5F63782E676C6F62616C416C7068613D313B5F63782E726573746F726528293B PUSH2 0x13D DUP4 ADD MSTORE PUSH32 0x636F6E737420523D666C6F6F72283132302B56322A3930293B00000000000000 PUSH2 0x15D DUP4 ADD MSTORE PUSH32 0x636F6E7374206378323D666C6F6F72283136302B56332A313230292C6379323D PUSH2 0x176 DUP4 ADD MSTORE PUSH18 0x666C6F6F72283536302B56342A313030293B PUSH1 0x70 SHL PUSH2 0x196 DUP4 ADD MSTORE PUSH32 0x63697263286378322C6379322C522C70616C5B335D293B000000000000000000 PUSH2 0x1A8 DUP4 ADD MSTORE PUSH32 0x6369726328666C6F6F72283632302B56342A3830292C666C6F6F72283136302B PUSH2 0x1BF DUP4 ADD MSTORE PUSH32 0x56312A3830292C666C6F6F7228522F504849292C70616C5B315D293B00000000 PUSH2 0x1DF DUP4 ADD MSTORE PUSH32 0x636F6E73742074783D666C6F6F72283632302B56332A3630292C74793D666C6F PUSH2 0x1FB DUP4 ADD MSTORE PUSH32 0x6F722838302B56322A3630292C74733D666C6F6F722836302B56312A3530293B PUSH2 0x21B DUP4 ADD MSTORE PUSH32 0x7472692874782C74792C74782B74732C74792B666C6F6F722874732A50484929 PUSH2 0x23B DUP4 ADD MSTORE PUSH32 0x2C74782D74732C74792B666C6F6F722874732A504849292C70616C5B325D293B PUSH2 0x25B DUP4 ADD MSTORE PUSH32 0x6C6E28302C666C6F6F72283830302F504849292C3830302C666C6F6F72283830 PUSH2 0x27B DUP4 ADD MSTORE PUSH17 0x302F504849292C70616C5B345D2C33293B PUSH1 0x78 SHL PUSH2 0x29B DUP4 ADD MSTORE PUSH1 0x7D PUSH1 0xF8 SHL PUSH2 0x2AC DUP4 ADD DUP2 SWAP1 MSTORE PUSH22 0x66756E6374696F6E20647261774E657374656428297B PUSH1 0x50 SHL PUSH2 0x2AD DUP5 ADD MSTORE PUSH2 0x2C3 DUP4 ADD SWAP2 SWAP1 SWAP2 MSTORE PUSH32 0x636F6E737420757365436972636C653D56313E302E353B000000000000000000 PUSH2 0x2CE DUP4 ADD MSTORE PUSH17 0x6C657420737A3D3732302C6369323D303B PUSH1 0x78 SHL PUSH2 0x2E5 DUP4 ADD MSTORE PUSH13 0x7768696C6528737A3E3234297B PUSH1 0x98 SHL PUSH2 0x2F6 DUP4 ADD MSTORE PUSH32 0x636F6E737420633D70616C5B312B28636932252870616C2E6C656E6774682D31 PUSH2 0x303 DUP4 ADD MSTORE PUSH4 0x29295D3B PUSH1 0xE0 SHL PUSH2 0x323 DUP4 ADD MSTORE PUSH32 0x636F6E737420783D283830302D737A292F322C793D283830302D737A292F323B PUSH2 0x327 DUP4 ADD MSTORE PUSH32 0x636F6E737420794F66663D757365436972636C653F303A666C6F6F7228636932 PUSH2 0x347 DUP4 ADD MSTORE PUSH12 0x2A28382B56322A313229293B PUSH1 0xA0 SHL PUSH2 0x367 DUP4 ADD MSTORE PUSH32 0x696628757365436972636C65297B63697263283430302C3430302C737A2F322C PUSH2 0x373 DUP4 ADD MSTORE PUSH4 0x63293B7D PUSH1 0xE0 SHL PUSH2 0x393 DUP4 ADD MSTORE PUSH32 0x656C73657B72637428782C792B794F66662C737A2C737A2D794F66662A322C63 PUSH2 0x397 DUP4 ADD MSTORE PUSH3 0x293B7D PUSH1 0xE8 SHL PUSH2 0x3B7 DUP4 ADD MSTORE PUSH32 0x737A3D666C6F6F7228737A2F504849293B6369322B2B3B7D0000000000000000 PUSH2 0x3BA DUP4 ADD MSTORE PUSH32 0x63697263283430302C3430302C666C6F6F722831322B56332A3136292C70616C PUSH2 0x3D2 DUP4 ADD MSTORE PUSH5 0x5B345D293B PUSH1 0xD8 SHL PUSH2 0x3F2 DUP4 ADD MSTORE PUSH11 0x7068694C696E657328293B PUSH1 0xA8 SHL PUSH2 0x3F7 DUP4 ADD MSTORE PUSH2 0x402 DUP3 ADD MSTORE PUSH2 0x403 ADD SWAP1 JUMP JUMPDEST PUSH1 0x40 MLOAD PUSH32 0x696628434F4D503D3D3D302964726177436972636C6528293B00000000000000 PUSH1 0x20 DUP3 ADD MSTORE PUSH32 0x656C736520696628434F4D503D3D3D3129647261774772696428293B00000000 PUSH1 0x39 DUP3 ADD MSTORE PUSH32 0x656C736520696628434F4D503D3D3D322964726177436F6E737428293B000000 PUSH1 0x55 DUP3 ADD MSTORE PUSH18 0x656C736520647261774E657374656428293B PUSH1 0x70 SHL PUSH1 0x72 DUP3 ADD MSTORE PUSH1 0x60 SWAP1 PUSH1 0x84 ADD PUSH2 0x14B6 JUMP JUMPDEST PUSH1 0x60 DUP4 MLOAD PUSH1 0x0 SUB PUSH2 0x1B4A JUMPI POP PUSH1 0x40 DUP1 MLOAD PUSH1 0x20 DUP2 ADD SWAP1 SWAP2 MSTORE PUSH1 0x0 DUP2 MSTORE PUSH2 0xC2F JUMP JUMPDEST PUSH1 0x0 DUP3 PUSH2 0x1B7B JUMPI PUSH1 0x3 DUP6 MLOAD PUSH1 0x4 PUSH2 0x1B61 SWAP2 SWAP1 PUSH2 0x2911 JUMP JUMPDEST PUSH2 0x1B6C SWAP1 PUSH1 0x2 PUSH2 0x2928 JUMP JUMPDEST PUSH2 0x1B76 SWAP2 SWAP1 PUSH2 0x3665 JUMP JUMPDEST PUSH2 0x1BA0 JUMP JUMPDEST PUSH1 0x3 DUP6 MLOAD PUSH1 0x2 PUSH2 0x1B8B SWAP2 SWAP1 PUSH2 0x2928 JUMP JUMPDEST PUSH2 0x1B95 SWAP2 SWAP1 PUSH2 0x3665 JUMP JUMPDEST PUSH2 0x1BA0 SWAP1 PUSH1 0x4 PUSH2 0x2911 JUMP JUMPDEST SWAP1 POP PUSH1 0x0 DUP2 PUSH8 0xFFFFFFFFFFFFFFFF DUP2 GT ISZERO PUSH2 0x1BBD JUMPI PUSH2 0x1BBD PUSH2 0x2349 JUMP JUMPDEST PUSH1 0x40 MLOAD SWAP1 DUP1 DUP3 MSTORE DUP1 PUSH1 0x1F ADD PUSH1 0x1F NOT AND PUSH1 0x20 ADD DUP3 ADD PUSH1 0x40 MSTORE DUP1 ISZERO PUSH2 0x1BE7 JUMPI PUSH1 0x20 DUP3 ADD DUP2 DUP1 CALLDATASIZE DUP4 CALLDATACOPY ADD SWAP1 POP JUMPDEST POP SWAP1 POP PUSH1 0x1 DUP6 ADD PUSH1 0x20 DUP3 ADD DUP8 DUP9 MLOAD DUP10 ADD PUSH1 0x20 DUP2 ADD DUP1 MLOAD PUSH1 0x0 DUP3 MSTORE JUMPDEST DUP3 DUP5 LT ISZERO PUSH2 0x1C5D JUMPI PUSH1 0x3 DUP5 ADD SWAP4 POP DUP4 MLOAD PUSH1 0x3F DUP2 PUSH1 0x12 SHR AND DUP8 ADD MLOAD DUP7 MSTORE8 PUSH1 0x1 DUP7 ADD SWAP6 POP PUSH1 0x3F DUP2 PUSH1 0xC SHR AND DUP8 ADD MLOAD DUP7 MSTORE8 PUSH1 0x1 DUP7 ADD SWAP6 POP PUSH1 0x3F DUP2 PUSH1 0x6 SHR AND DUP8 ADD MLOAD DUP7 MSTORE8 PUSH1 0x1 DUP7 ADD SWAP6 POP PUSH1 0x3F DUP2 AND DUP8 ADD MLOAD DUP7 MSTORE8 POP PUSH1 0x1 DUP6 ADD SWAP5 POP PUSH2 0x1C02 JUMP JUMPDEST SWAP1 MSTORE POP POP DUP6 ISZERO PUSH2 0x1C9E JUMPI PUSH1 0x3 DUP9 MLOAD MOD PUSH1 0x1 DUP2 EQ PUSH2 0x1C81 JUMPI PUSH1 0x2 DUP2 EQ PUSH2 0x1C94 JUMPI PUSH2 0x1C9C JUMP JUMPDEST PUSH1 0x3D PUSH1 0x1 DUP4 SUB MSTORE8 PUSH1 0x3D PUSH1 0x2 DUP4 SUB MSTORE8 PUSH2 0x1C9C JUMP JUMPDEST PUSH1 0x3D PUSH1 0x1 DUP4 SUB MSTORE8 JUMPDEST POP JUMPDEST POP SWAP1 SWAP7 SWAP6 POP POP POP POP POP POP JUMP JUMPDEST PUSH1 0x0 DUP1 PUSH19 0x184F03E93FF9F4DAA797ED6E38ED64BF6A1F01 PUSH1 0x40 SHL DUP4 LT PUSH2 0x1CE9 JUMPI PUSH19 0x184F03E93FF9F4DAA797ED6E38ED64BF6A1F01 PUSH1 0x40 SHL DUP4 DIV SWAP3 POP PUSH1 0x40 ADD JUMPDEST PUSH14 0x4EE2D6D415B85ACEF8100000000 DUP4 LT PUSH2 0x1D15 JUMPI PUSH14 0x4EE2D6D415B85ACEF8100000000 DUP4 DIV SWAP3 POP PUSH1 0x20 ADD JUMPDEST PUSH7 0x2386F26FC10000 DUP4 LT PUSH2 0x1D33 JUMPI PUSH7 0x2386F26FC10000 DUP4 DIV SWAP3 POP PUSH1 0x10 ADD JUMPDEST PUSH4 0x5F5E100 DUP4 LT PUSH2 0x1D4B JUMPI PUSH4 0x5F5E100 DUP4 DIV SWAP3 POP PUSH1 0x8 ADD JUMPDEST PUSH2 0x2710 DUP4 LT PUSH2 0x1D5F JUMPI PUSH2 0x2710 DUP4 DIV SWAP3 POP PUSH1 0x4 ADD JUMPDEST PUSH1 0x64 DUP4 LT PUSH2 0x1D71 JUMPI PUSH1 0x64 DUP4 DIV SWAP3 POP PUSH1 0x2 ADD JUMPDEST PUSH1 0xA DUP4 LT PUSH2 0x42F JUMPI PUSH1 0x1 ADD SWAP3 SWAP2 POP POP JUMP JUMPDEST PUSH1 0x0 PUSH1 0x1 PUSH1 0x1 PUSH1 0xA0 SHL SUB DUP4 AND ISZERO DUP1 ISZERO SWAP1 PUSH2 0x1DE0 JUMPI POP DUP3 PUSH1 0x1 PUSH1 0x1 PUSH1 0xA0 SHL SUB AND DUP5 PUSH1 0x1 PUSH1 0x1 PUSH1 0xA0 SHL SUB AND EQ DUP1 PUSH2 0x1DBC JUMPI POP PUSH2 0x1DBC DUP5 DUP5 PUSH2 0xA27 JUMP JUMPDEST DUP1 PUSH2 0x1DE0 JUMPI POP PUSH1 0x0 DUP3 DUP2 MSTORE PUSH1 0x4 PUSH1 0x20 MSTORE PUSH1 0x40 SWAP1 KECCAK256 SLOAD PUSH1 0x1 PUSH1 0x1 PUSH1 0xA0 SHL SUB DUP5 DUP2 AND SWAP2 AND EQ JUMPDEST SWAP5 SWAP4 POP POP POP POP JUMP JUMPDEST PUSH1 0x60 PUSH1 0x40 MLOAD PUSH1 0x20 ADD PUSH2 0x14B6 SWAP1 PUSH12 0x636F6E73742050414C533D5B PUSH1 0xA0 SHL DUP2 MSTORE PUSH32 0x5B2223463846374630222C2223443632383238222C2223314234463732222C22 PUSH1 0xC DUP3 ADD MSTORE PUSH20 0x8D18CCE50CC4C888B0888CC504C504C5048974B PUSH1 0x62 SHL PUSH1 0x2C DUP3 ADD MSTORE PUSH32 0x5B2223304430443044222C2223453633393436222C2223463444333545222C22 PUSH1 0x40 DUP3 ADD MSTORE PUSH20 0x8CC504E4CCD91888B0888D18D518D518D48974B PUSH1 0x62 SHL PUSH1 0x60 DUP3 ADD MSTORE PUSH32 0x5B2223463546304538222C2223324534303537222C2223433834423331222C22 PUSH1 0x74 DUP3 ADD MSTORE PUSH20 0x8CC0D0E104E0C488B0888CC4C4C4C4C4C48974B PUSH1 0x62 SHL PUSH1 0x94 DUP3 ADD MSTORE PUSH32 0x5B2223463546354635222C2223423830303030222C2223313131313131222C22 PUSH1 0xA8 DUP3 ADD MSTORE PUSH20 0x8CE4E4E4E4E4E488B0888D14C114C114C08974B PUSH1 0x62 SHL PUSH1 0xC8 DUP3 ADD MSTORE PUSH32 0x5B2223464646384531222C2223314131413141222C2223433632383238222C22 PUSH1 0xDC DUP3 ADD MSTORE PUSH20 0x8CC4D4D8D50CC088B0888CE514D908C1048974B PUSH1 0x62 SHL PUSH1 0xFC DUP3 ADD MSTORE PUSH32 0x5B2223463746374637222C2223464636423335222C2223303034453938222C22 PUSH2 0x110 DUP3 ADD MSTORE PUSH17 0x8D15151488B0888CC4C4C4C4C4C48974B PUSH1 0x7A SHL PUSH2 0x130 DUP3 ADD MSTORE PUSH32 0x5B2223313431343134222C2223464642373033222C2223464238353030222C22 PUSH2 0x141 DUP3 ADD MSTORE PUSH20 0x8CC0C8CCC0D0DC88B0888CE1150D0514D88974B PUSH1 0x62 SHL PUSH2 0x161 DUP3 ADD MSTORE PUSH32 0x5B2223453845384538222C2223323132353239222C2223433033393242222C22 PUSH2 0x175 DUP3 ADD MSTORE PUSH19 0x23323437314133222C2223364337353744225D PUSH1 0x68 SHL PUSH2 0x195 DUP3 ADD MSTORE PUSH2 0x5D3B PUSH1 0xF0 SHL PUSH2 0x1A8 DUP3 ADD MSTORE PUSH2 0x1AA ADD SWAP1 JUMP JUMPDEST PUSH1 0x40 MLOAD PUSH32 0x636F6E7374205048493D312E3631383033333938383734393839353B00000000 PUSH1 0x20 DUP3 ADD MSTORE PUSH32 0x6C65742072733D426967496E7428223078222B53454544293B00000000000000 PUSH1 0x3C DUP3 ADD MSTORE PUSH32 0x636F6E737420726E643D28293D3E7B72733D2872732A36333634313336323233 PUSH1 0x55 DUP3 ADD MSTORE PUSH32 0x3834363739333030356E2B313434323639353034303838383936333430376E29 PUSH1 0x75 DUP3 ADD MSTORE PUSH32 0x2631383434363734343037333730393535313631356E3B000000000000000000 PUSH1 0x95 DUP3 ADD MSTORE PUSH32 0x72657475726E204E756D62657228727326343239343936373239356E292F3432 PUSH1 0xAC DUP3 ADD MSTORE PUSH11 0x39343936373239353B7D3B PUSH1 0xA8 SHL PUSH1 0xCC DUP3 ADD MSTORE PUSH32 0x636F6E73742070616C3D50414C535B666C6F6F7228726E6428292A38295D3B00 PUSH1 0xD7 DUP3 ADD MSTORE PUSH32 0x636F6E737420434F4D503D666C6F6F7228726E6428292A34293B000000000000 PUSH1 0xF6 DUP3 ADD MSTORE PUSH32 0x636F6E73742056313D726E6428292C56323D726E6428292C56333D726E642829 PUSH2 0x110 DUP3 ADD MSTORE PUSH10 0x2C56343D726E6428293B PUSH1 0xB0 SHL PUSH2 0x130 DUP3 ADD MSTORE PUSH1 0x60 SWAP1 PUSH2 0x13A ADD PUSH2 0x14B6 JUMP JUMPDEST PUSH1 0x1 PUSH1 0x1 PUSH1 0xE0 SHL SUB NOT DUP2 AND DUP2 EQ PUSH2 0x7ED JUMPI PUSH1 0x0 DUP1 REVERT JUMPDEST PUSH1 0x0 PUSH1 0x20 DUP3 DUP5 SUB SLT ISZERO PUSH2 0x21E9 JUMPI PUSH1 0x0 DUP1 REVERT JUMPDEST DUP2 CALLDATALOAD PUSH2 0xC2F DUP2 PUSH2 0x21C1 JUMP JUMPDEST PUSH1 0x0 JUMPDEST DUP4 DUP2 LT ISZERO PUSH2 0x220F JUMPI DUP2 DUP2 ADD MLOAD DUP4 DUP3 ADD MSTORE PUSH1 0x20 ADD PUSH2 0x21F7 JUMP JUMPDEST POP POP PUSH1 0x0 SWAP2 ADD MSTORE JUMP JUMPDEST PUSH1 0x0 DUP2 MLOAD DUP1 DUP5 MSTORE PUSH2 0x2230 DUP2 PUSH1 0x20 DUP7 ADD PUSH1 0x20 DUP7 ADD PUSH2 0x21F4 JUMP JUMPDEST PUSH1 0x1F ADD PUSH1 0x1F NOT AND SWAP3 SWAP1 SWAP3 ADD PUSH1 0x20 ADD SWAP3 SWAP2 POP POP JUMP JUMPDEST PUSH1 0x20 DUP2 MSTORE PUSH1 0x0 PUSH2 0xC2F PUSH1 0x20 DUP4 ADD DUP5 PUSH2 0x2218 JUMP JUMPDEST PUSH1 0x0 PUSH1 0x20 DUP3 DUP5 SUB SLT ISZERO PUSH2 0x2269 JUMPI PUSH1 0x0 DUP1 REVERT JUMPDEST POP CALLDATALOAD SWAP2 SWAP1 POP JUMP JUMPDEST DUP1 CALLDATALOAD PUSH1 0x1 PUSH1 0x1 PUSH1 0xA0 SHL SUB DUP2 AND DUP2 EQ PUSH2 0x2287 JUMPI PUSH1 0x0 DUP1 REVERT JUMPDEST SWAP2 SWAP1 POP JUMP JUMPDEST PUSH1 0x0 DUP1 PUSH1 0x40 DUP4 DUP6 SUB SLT ISZERO PUSH2 0x229F JUMPI PUSH1 0x0 DUP1 REVERT JUMPDEST PUSH2 0x22A8 DUP4 PUSH2 0x2270 JUMP JUMPDEST SWAP5 PUSH1 0x20 SWAP4 SWAP1 SWAP4 ADD CALLDATALOAD SWAP4 POP POP POP JUMP JUMPDEST PUSH1 0x0 DUP1 PUSH1 0x0 PUSH1 0x60 DUP5 DUP7 SUB SLT ISZERO PUSH2 0x22CB JUMPI PUSH1 0x0 DUP1 REVERT JUMPDEST PUSH2 0x22D4 DUP5 PUSH2 0x2270 JUMP JUMPDEST SWAP3 POP PUSH2 0x22E2 PUSH1 0x20 DUP6 ADD PUSH2 0x2270 JUMP JUMPDEST SWAP2 POP PUSH1 0x40 DUP5 ADD CALLDATALOAD SWAP1 POP SWAP3 POP SWAP3 POP SWAP3 JUMP JUMPDEST PUSH1 0x0 PUSH1 0x20 DUP3 DUP5 SUB SLT ISZERO PUSH2 0x2304 JUMPI PUSH1 0x0 DUP1 REVERT JUMPDEST PUSH2 0xC2F DUP3 PUSH2 0x2270 JUMP JUMPDEST PUSH1 0x0 DUP1 PUSH1 0x40 DUP4 DUP6 SUB SLT ISZERO PUSH2 0x2320 JUMPI PUSH1 0x0 DUP1 REVERT JUMPDEST PUSH2 0x2329 DUP4 PUSH2 0x2270 JUMP JUMPDEST SWAP2 POP PUSH1 0x20 DUP4 ADD CALLDATALOAD DUP1 ISZERO ISZERO DUP2 EQ PUSH2 0x233E JUMPI PUSH1 0x0 DUP1 REVERT JUMPDEST DUP1 SWAP2 POP POP SWAP3 POP SWAP3 SWAP1 POP JUMP JUMPDEST PUSH4 0x4E487B71 PUSH1 0xE0 SHL PUSH1 0x0 MSTORE PUSH1 0x41 PUSH1 0x4 MSTORE PUSH1 0x24 PUSH1 0x0 REVERT JUMPDEST PUSH1 0x0 DUP1 PUSH1 0x0 DUP1 PUSH1 0x80 DUP6 DUP8 SUB SLT ISZERO PUSH2 0x2375 JUMPI PUSH1 0x0 DUP1 REVERT JUMPDEST PUSH2 0x237E DUP6 PUSH2 0x2270 JUMP JUMPDEST SWAP4 POP PUSH2 0x238C PUSH1 0x20 DUP7 ADD PUSH2 0x2270 JUMP JUMPDEST SWAP3 POP PUSH1 0x40 DUP6 ADD CALLDATALOAD SWAP2 POP PUSH1 0x60 DUP6 ADD CALLDATALOAD PUSH8 0xFFFFFFFFFFFFFFFF DUP1 DUP3 GT ISZERO PUSH2 0x23B0 JUMPI PUSH1 0x0 DUP1 REVERT JUMPDEST DUP2 DUP8 ADD SWAP2 POP DUP8 PUSH1 0x1F DUP4 ADD SLT PUSH2 0x23C4 JUMPI PUSH1 0x0 DUP1 REVERT JUMPDEST DUP2 CALLDATALOAD DUP2 DUP2 GT ISZERO PUSH2 0x23D6 JUMPI PUSH2 0x23D6 PUSH2 0x2349 JUMP JUMPDEST PUSH1 0x40 MLOAD PUSH1 0x1F DUP3 ADD PUSH1 0x1F NOT SWAP1 DUP2 AND PUSH1 0x3F ADD AND DUP2 ADD SWAP1 DUP4 DUP3 GT DUP2 DUP4 LT OR ISZERO PUSH2 0x23FE JUMPI PUSH2 0x23FE PUSH2 0x2349 JUMP JUMPDEST DUP2 PUSH1 0x40 MSTORE DUP3 DUP2 MSTORE DUP11 PUSH1 0x20 DUP5 DUP8 ADD ADD GT ISZERO PUSH2 0x2417 JUMPI PUSH1 0x0 DUP1 REVERT JUMPDEST DUP3 PUSH1 0x20 DUP7 ADD PUSH1 0x20 DUP4 ADD CALLDATACOPY PUSH1 0x0 PUSH1 0x20 DUP5 DUP4 ADD ADD MSTORE DUP1 SWAP6 POP POP POP POP POP POP SWAP3 SWAP6 SWAP2 SWAP5 POP SWAP3 POP JUMP JUMPDEST PUSH1 0x0 DUP1 PUSH1 0x40 DUP4 DUP6 SUB SLT ISZERO PUSH2 0x244E JUMPI PUSH1 0x0 DUP1 REVERT JUMPDEST PUSH2 0x2457 DUP4 PUSH2 0x2270 JUMP JUMPDEST SWAP2 POP PUSH2 0x2465 PUSH1 0x20 DUP5 ADD PUSH2 0x2270 JUMP JUMPDEST SWAP1 POP SWAP3 POP SWAP3 SWAP1 POP JUMP JUMPDEST PUSH1 0x1 DUP2 DUP2 SHR SWAP1 DUP3 AND DUP1 PUSH2 0x2482 JUMPI PUSH1 0x7F DUP3 AND SWAP2 POP JUMPDEST PUSH1 0x20 DUP3 LT DUP2 SUB PUSH2 0x24A2 JUMPI PUSH4 0x4E487B71 PUSH1 0xE0 SHL PUSH1 0x0 MSTORE PUSH1 0x22 PUSH1 0x4 MSTORE PUSH1 0x24 PUSH1 0x0 REVERT JUMPDEST POP SWAP2 SWAP1 POP JUMP JUMPDEST PUSH4 0x4E487B71 PUSH1 0xE0 SHL PUSH1 0x0 MSTORE PUSH1 0x11 PUSH1 0x4 MSTORE PUSH1 0x24 PUSH1 0x0 REVERT JUMPDEST PUSH1 0x0 PUSH1 0x1 DUP3 ADD PUSH2 0x24D0 JUMPI PUSH2 0x24D0 PUSH2 0x24A8 JUMP JUMPDEST POP PUSH1 0x1 ADD SWAP1 JUMP JUMPDEST DUP2 DUP2 SUB DUP2 DUP2 GT ISZERO PUSH2 0x42F JUMPI PUSH2 0x42F PUSH2 0x24A8 JUMP JUMPDEST PUSH4 0x4E487B71 PUSH1 0xE0 SHL PUSH1 0x0 MSTORE PUSH1 0x12 PUSH1 0x4 MSTORE PUSH1 0x24 PUSH1 0x0 REVERT JUMPDEST PUSH1 0x0 DUP3 PUSH2 0x250F JUMPI PUSH2 0x250F PUSH2 0x24EA JUMP JUMPDEST POP MOD SWAP1 JUMP JUMPDEST PUSH1 0x0 DUP2 MLOAD PUSH2 0x2526 DUP2 DUP6 PUSH1 0x20 DUP7 ADD PUSH2 0x21F4 JUMP JUMPDEST SWAP3 SWAP1 SWAP3 ADD SWAP3 SWAP2 POP POP JUMP JUMPDEST PUSH1 0x5B PUSH1 0xF8 SHL DUP2 MSTORE PUSH32 0x7B2274726169745F74797065223A22436F6D706F736974696F6E222C2276616C PUSH1 0x1 DUP3 ADD MSTORE PUSH5 0x3AB2911D11 PUSH1 0xD9 SHL PUSH1 0x21 DUP3 ADD MSTORE DUP4 MLOAD PUSH1 0x0 SWAP1 PUSH2 0x2581 DUP2 PUSH1 0x26 DUP6 ADD PUSH1 0x20 DUP10 ADD PUSH2 0x21F4 JUMP JUMPDEST PUSH3 0x89F4B PUSH1 0xEA SHL PUSH1 0x26 SWAP2 DUP5 ADD SWAP2 DUP3 ADD MSTORE PUSH32 0x7B2274726169745F74797065223A2250616C65747465222C2276616C7565223A PUSH1 0x29 DUP3 ADD MSTORE PUSH1 0x11 PUSH1 0xF9 SHL PUSH1 0x49 DUP3 ADD MSTORE DUP5 MLOAD PUSH2 0x25D4 DUP2 PUSH1 0x4A DUP5 ADD PUSH1 0x20 DUP10 ADD PUSH2 0x21F4 JUMP JUMPDEST ADD PUSH2 0x25E7 PUSH1 0x4A DUP3 ADD PUSH3 0x89F4B PUSH1 0xEA SHL SWAP1 MSTORE JUMP JUMPDEST PUSH32 0x7B2274726169745F74797065223A2245646974696F6E222C2276616C7565223A PUSH1 0x4D DUP3 ADD MSTORE PUSH1 0x11 PUSH1 0xF9 SHL PUSH1 0x6D DUP3 ADD MSTORE PUSH2 0x2625 PUSH1 0x6E DUP3 ADD JUMPDEST DUP6 PUSH2 0x2514 JUMP JUMPDEST PUSH5 0x2F3631227D PUSH1 0xD8 SHL DUP2 MSTORE PUSH1 0x5D PUSH1 0xF8 SHL PUSH1 0x5 DUP3 ADD MSTORE PUSH1 0x6 ADD SWAP7 SWAP6 POP POP POP POP POP POP JUMP JUMPDEST PUSH32 0x7B226E616D65223A22476F6C64656E20526174696F2023000000000000000000 DUP2 MSTORE PUSH1 0x0 DUP6 MLOAD PUSH2 0x267F DUP2 PUSH1 0x17 DUP6 ADD PUSH1 0x20 DUP11 ADD PUSH2 0x21F4 JUMP JUMPDEST PUSH2 0x88B PUSH1 0xF2 SHL PUSH1 0x17 SWAP2 DUP5 ADD SWAP2 DUP3 ADD MSTORE PUSH32 0x226465736372697074696F6E223A2246756C6C79206F6E636861696E20426175 PUSH1 0x19 DUP3 ADD MSTORE PUSH21 0x3430BAB99033B2B732B930BA34BB329030B93A171 PUSH1 0x5D SHL PUSH1 0x39 DUP3 ADD MSTORE PUSH32 0x47656F6D657472696320636F6D706F736974696F6E732064726976656E206279 PUSH1 0x4E DUP3 ADD MSTORE PUSH14 0x10383434901E9018971B189C171 PUSH1 0x95 SHL PUSH1 0x6E DUP3 ADD MSTORE PUSH2 0x279B PUSH2 0x275E PUSH1 0x7C DUP4 ADD PUSH32 0x3420636F6D706F736974696F6E2074797065732C20382070616C65747465732C DUP2 MSTORE PUSH19 0x101B18903AB734B8BAB2903834B2B1B2B9971 PUSH1 0x6D SHL PUSH1 0x20 DUP3 ADD MSTORE PUSH1 0x33 ADD SWAP1 JUMP JUMPDEST PUSH32 0x52656E646572656420656E746972656C79206F6E636861696E2066726F6D206D DUP2 MSTORE PUSH11 0x1A5B9D081CD959590B888B PUSH1 0xAA SHL PUSH1 0x20 DUP3 ADD MSTORE PUSH1 0x2B ADD SWAP1 JUMP JUMPDEST PUSH32 0x22696D616765223A22646174613A746578742F68746D6C3B6261736536342C00 DUP2 MSTORE SWAP1 POP PUSH2 0x27CD PUSH1 0x1F DUP3 ADD DUP8 PUSH2 0x2514 JUMP JUMPDEST PUSH2 0x88B PUSH1 0xF2 SHL DUP2 MSTORE SWAP1 POP PUSH32 0x22616E696D6174696F6E5F75726C223A22646174613A746578742F68746D6C3B PUSH1 0x2 DUP3 ADD MSTORE PUSH7 0x18985CD94D8D0B PUSH1 0xCA SHL PUSH1 0x22 DUP3 ADD MSTORE PUSH2 0x281A PUSH1 0x29 DUP3 ADD DUP7 PUSH2 0x2514 JUMP JUMPDEST PUSH2 0x88B PUSH1 0xF2 SHL DUP2 MSTORE SWAP1 POP PUSH13 0x1130BA3A3934B13ABA32B9911D PUSH1 0x99 SHL PUSH1 0x2 DUP3 ADD MSTORE PUSH2 0x2847 PUSH1 0xF DUP3 ADD DUP6 PUSH2 0x2514 JUMP JUMPDEST PUSH1 0x7D PUSH1 0xF8 SHL DUP2 MSTORE PUSH1 0x1 ADD SWAP8 SWAP7 POP POP POP POP POP POP POP JUMP JUMPDEST PUSH32 0x646174613A6170706C69636174696F6E2F6A736F6E3B6261736536342C000000 DUP2 MSTORE PUSH1 0x0 DUP3 MLOAD PUSH2 0x2894 DUP2 PUSH1 0x1D DUP6 ADD PUSH1 0x20 DUP8 ADD PUSH2 0x21F4 JUMP JUMPDEST SWAP2 SWAP1 SWAP2 ADD PUSH1 0x1D ADD SWAP3 SWAP2 POP POP JUMP JUMPDEST PUSH1 0x1 PUSH1 0x1 PUSH1 0xA0 SHL SUB DUP6 DUP2 AND DUP3 MSTORE DUP5 AND PUSH1 0x20 DUP3 ADD MSTORE PUSH1 0x40 DUP2 ADD DUP4 SWAP1 MSTORE PUSH1 0x80 PUSH1 0x60 DUP3 ADD DUP2 SWAP1 MSTORE PUSH1 0x0 SWAP1 PUSH2 0x28D4 SWAP1 DUP4 ADD DUP5 PUSH2 0x2218 JUMP JUMPDEST SWAP7 SWAP6 POP POP POP POP POP POP JUMP JUMPDEST PUSH1 0x0 PUSH1 0x20 DUP3 DUP5 SUB SLT ISZERO PUSH2 0x28F0 JUMPI PUSH1 0x0 DUP1 REVERT JUMPDEST DUP2 MLOAD PUSH2 0xC2F DUP2 PUSH2 0x21C1 JUMP JUMPDEST PUSH4 0x4E487B71 PUSH1 0xE0 SHL PUSH1 0x0 MSTORE PUSH1 0x32 PUSH1 0x4 MSTORE PUSH1 0x24 PUSH1 0x0 REVERT JUMPDEST DUP1 DUP3 MUL DUP2 ISZERO DUP3 DUP3 DIV DUP5 EQ OR PUSH2 0x42F JUMPI PUSH2 0x42F PUSH2 0x24A8 JUMP JUMPDEST DUP1 DUP3 ADD DUP1 DUP3 GT ISZERO PUSH2 0x42F JUMPI PUSH2 0x42F PUSH2 0x24A8 JUMP JUMPDEST PUSH32 0x3C21444F43545950452068746D6C3E3C68746D6C3E3C686561643E3C6D657461 DUP2 MSTORE PUSH17 0x1031B430B939B2BA1E913ABA33169C111F PUSH1 0x79 SHL PUSH1 0x20 DUP3 ADD MSTORE PUSH32 0x3C7374796C653E2A7B6D617267696E3A303B70616464696E673A307D626F6479 PUSH1 0x31 DUP3 ADD MSTORE PUSH32 0x7B6261636B67726F756E643A233030303B646973706C61793A666C65783B0000 PUSH1 0x51 DUP3 ADD MSTORE PUSH32 0x616C69676E2D6974656D733A63656E7465723B6A7573746966792D636F6E7465 PUSH1 0x6F DUP3 ADD MSTORE PUSH32 0x6E743A63656E7465723B6D696E2D6865696768743A31303076683B6F76657266 PUSH1 0x8F DUP3 ADD MSTORE PUSH11 0x6C6F773A68696464656E7D PUSH1 0xA8 SHL PUSH1 0xAF DUP3 ADD MSTORE PUSH32 0x63616E7661737B6D61782D77696474683A313030766D696E3B6D61782D686569 PUSH1 0xBA DUP3 ADD MSTORE PUSH20 0x33B43A1D1898183B36B4B73E9E17B9BA3CB6329F PUSH1 0x61 SHL PUSH1 0xDA DUP3 ADD MSTORE PUSH1 0x0 PUSH1 0xEE DUP3 ADD PUSH21 0x1E17B432B0B21F1E3137B23C9F1E39B1B934B83A1F PUSH1 0x59 SHL DUP2 MSTORE PUSH2 0x2A95 PUSH1 0x15 DUP3 ADD DUP12 PUSH2 0x2514 JUMP JUMPDEST PUSH12 0x31B7B739BA1029A2A2A21E91 PUSH1 0xA1 SHL DUP2 MSTORE SWAP1 POP PUSH2 0x2AB6 PUSH1 0xC DUP3 ADD DUP11 PUSH2 0x2514 JUMP JUMPDEST PUSH8 0x222C544F4B454E3D PUSH1 0xC0 SHL DUP2 MSTORE SWAP1 POP PUSH2 0x2AD3 PUSH1 0x8 DUP3 ADD DUP10 PUSH2 0x2514 JUMP JUMPDEST PUSH1 0x3B PUSH1 0xF8 SHL DUP2 MSTORE SWAP1 POP PUSH2 0x2AFE PUSH2 0x261F PUSH2 0x2AF8 PUSH2 0x2AF2 PUSH1 0x1 DUP6 ADD DUP12 PUSH2 0x2514 JUMP JUMPDEST DUP10 PUSH2 0x2514 JUMP JUMPDEST DUP8 PUSH2 0x2514 JUMP JUMPDEST PUSH32 0x3C2F7363726970743E3C2F626F64793E3C2F68746D6C3E000000000000000000 DUP2 MSTORE PUSH1 0x17 ADD SWAP11 SWAP10 POP POP POP POP POP POP POP POP POP POP JUMP JUMPDEST PUSH32 0x636F6E7374205F63763D646F63756D656E742E637265617465456C656D656E74 DUP2 MSTORE PUSH11 0xA0898D85B9D985CC88A4B PUSH1 0xAA SHL PUSH1 0x20 DUP3 ADD MSTORE PUSH32 0x5F63783D5F63762E676574436F6E746578742822326422293B00000000000000 PUSH1 0x2B DUP3 ADD MSTORE PUSH32 0x5F63762E77696474683D5F63762E6865696768743D3830303B00000000000000 PUSH1 0x44 DUP3 ADD MSTORE PUSH32 0x646F63756D656E742E626F64792E617070656E644368696C64285F6376293B00 PUSH1 0x5D DUP3 ADD MSTORE PUSH32 0x636F6E737420636F733D4D6174682E636F732C73696E3D4D6174682E73696E2C PUSH1 0x7C DUP3 ADD MSTORE PUSH32 0x737172743D4D6174682E737172742C6162733D4D6174682E6162732C00000000 PUSH1 0x9C DUP3 ADD MSTORE PUSH32 0x50493D4D6174682E50492C54574F5F50493D50492A322C666C6F6F723D4D6174 PUSH1 0xB8 DUP3 ADD MSTORE PUSH32 0x682E666C6F6F722C726F756E643D4D6174682E726F756E643B00000000000000 PUSH1 0xD8 DUP3 ADD MSTORE PUSH32 0x66756E6374696F6E2062672863297B5F63782E66696C6C5374796C653D633B5F PUSH1 0xF1 DUP3 ADD MSTORE PUSH32 0x63782E66696C6C5265637428302C302C3830302C383030293B7D000000000000 PUSH2 0x111 DUP3 ADD MSTORE PUSH1 0x0 PUSH2 0x12B DUP3 ADD PUSH32 0x66756E6374696F6E2066632863297B5F63782E66696C6C5374796C653D633B7D DUP2 MSTORE PUSH32 0x66756E6374696F6E20736328632C77297B5F63782E7374726F6B655374796C65 PUSH1 0x20 DUP3 ADD MSTORE PUSH32 0x3D633B5F63782E6C696E6557696474683D777C7C323B7D000000000000000000 PUSH1 0x40 DUP3 ADD MSTORE PUSH32 0x66756E6374696F6E206369726328782C792C722C66696C6C2C7363322C737729 PUSH1 0x57 DUP3 ADD MSTORE PUSH1 0x7B PUSH1 0xF8 SHL PUSH1 0x77 DUP3 ADD MSTORE PUSH2 0x2F1A PUSH2 0x2EB8 PUSH2 0x2E73 PUSH2 0x2E3F PUSH2 0x2DF0 PUSH2 0x2DB6 PUSH1 0x78 DUP8 ADD PUSH32 0x5F63782E626567696E5061746828293B5F63782E61726328782C792C722C302C DUP2 MSTORE PUSH8 0x54574F5F5049293B PUSH1 0xC0 SHL PUSH1 0x20 DUP3 ADD MSTORE PUSH1 0x28 ADD SWAP1 JUMP JUMPDEST PUSH32 0x69662866696C6C297B5F63782E66696C6C5374796C653D66696C6C3B5F63782E DUP2 MSTORE PUSH8 0x66696C6C28293B7D PUSH1 0xC0 SHL PUSH1 0x20 DUP3 ADD MSTORE PUSH1 0x28 ADD SWAP1 JUMP JUMPDEST PUSH32 0x696628736332297B5F63782E7374726F6B655374796C653D7363323B5F63782E DUP2 MSTORE PUSH32 0x6C696E6557696474683D73777C7C323B5F63782E7374726F6B6528293B7D7D00 PUSH1 0x20 DUP3 ADD MSTORE PUSH1 0x3F ADD SWAP1 JUMP JUMPDEST PUSH32 0x66756E6374696F6E2072637428782C792C772C682C66696C6C2C7363322C7377 DUP2 MSTORE PUSH2 0x297B PUSH1 0xF0 SHL PUSH1 0x20 DUP3 ADD MSTORE PUSH1 0x22 ADD SWAP1 JUMP JUMPDEST PUSH32 0x69662866696C6C297B5F63782E66696C6C5374796C653D66696C6C3B5F63782E DUP2 MSTORE PUSH19 0x66696C6C5265637428782C792C772C68293B7D PUSH1 0x68 SHL PUSH1 0x20 DUP3 ADD MSTORE PUSH1 0x33 ADD SWAP1 JUMP JUMPDEST PUSH32 0x696628736332297B5F63782E7374726F6B655374796C653D7363323B5F63782E DUP2 MSTORE PUSH32 0x6C696E6557696474683D73777C7C323B5F63782E7374726F6B65526563742878 PUSH1 0x20 DUP3 ADD MSTORE PUSH10 0x2C792C772C68293B7D7D PUSH1 0xB0 SHL PUSH1 0x40 DUP3 ADD MSTORE PUSH1 0x4A ADD SWAP1 JUMP JUMPDEST PUSH32 0x66756E6374696F6E206C6E2878312C79312C78322C79322C632C77297B000000 DUP2 MSTORE PUSH32 0x5F63782E626567696E5061746828293B5F63782E6D6F7665546F2878312C7931 PUSH1 0x1D DUP3 ADD MSTORE PUSH20 0x293B5F63782E6C696E65546F2878322C7932293B PUSH1 0x60 SHL PUSH1 0x3D DUP3 ADD MSTORE PUSH32 0x5F63782E7374726F6B655374796C653D633B5F63782E6C696E6557696474683D PUSH1 0x51 DUP3 ADD MSTORE PUSH19 0x777C7C323B5F63782E7374726F6B6528293B7D PUSH1 0x68 SHL PUSH1 0x71 DUP3 ADD MSTORE PUSH32 0x66756E6374696F6E207472692861782C61792C62782C62792C6378322C637932 PUSH1 0x84 DUP3 ADD MSTORE PUSH7 0x2C66696C6C297B PUSH1 0xC8 SHL PUSH1 0xA4 DUP3 ADD MSTORE PUSH32 0x5F63782E626567696E5061746828293B5F63782E6D6F7665546F2861782C6179 PUSH1 0xAB DUP3 ADD MSTORE PUSH32 0x293B5F63782E6C696E65546F2862782C6279293B5F63782E6C696E65546F2863 PUSH1 0xCB DUP3 ADD MSTORE PUSH8 0x78322C637932293B PUSH1 0xC0 SHL PUSH1 0xEB DUP3 ADD MSTORE PUSH32 0x5F63782E636C6F73655061746828293B69662866696C6C297B5F63782E66696C PUSH1 0xF3 DUP3 ADD MSTORE PUSH32 0x6C5374796C653D66696C6C3B5F63782E66696C6C28293B7D7D00000000000000 PUSH2 0x113 DUP3 ADD MSTORE SWAP1 POP PUSH2 0x12C DUP2 ADD PUSH2 0xC2F JUMP JUMPDEST PUSH1 0x0 DUP4 MLOAD PUSH2 0x30C0 DUP2 DUP5 PUSH1 0x20 DUP9 ADD PUSH2 0x21F4 JUMP JUMPDEST DUP4 MLOAD SWAP1 DUP4 ADD SWAP1 PUSH2 0x30D4 DUP2 DUP4 PUSH1 0x20 DUP9 ADD PUSH2 0x21F4 JUMP JUMPDEST ADD SWAP5 SWAP4 POP POP POP POP JUMP JUMPDEST PUSH20 0x66756E6374696F6E207068694C696E657328297B PUSH1 0x60 SHL DUP2 MSTORE PUSH32 0x636F6E73742067313D666C6F6F72283830302F504849292C67323D666C6F6F72 PUSH1 0x14 DUP3 ADD MSTORE PUSH32 0x283830302D3830302F504849292C6C633D70616C5B345D3B0000000000000000 PUSH1 0x34 DUP3 ADD MSTORE PUSH1 0x0 PUSH1 0x4C DUP3 ADD PUSH21 0x6C6E28302C67322C3830302C67322C6C632C31293B PUSH1 0x58 SHL DUP2 MSTORE PUSH22 0x6C6E2867312C302C67312C3830302C6C632C31293B7D PUSH1 0x50 SHL PUSH1 0x15 DUP3 ADD MSTORE PUSH22 0x66756E6374696F6E2064726177436972636C6528297B PUSH1 0x50 SHL PUSH1 0x2B DUP3 ADD MSTORE PUSH11 0x62672870616C5B305D293B PUSH1 0xA8 SHL PUSH1 0x41 DUP3 ADD MSTORE PUSH32 0x636F6E737420523D666C6F6F72283235302B56312A3530293B00000000000000 PUSH1 0x4C DUP3 ADD MSTORE PUSH32 0x636F6E73742052323D666C6F6F7228522F504849292C52333D666C6F6F722852 PUSH1 0x65 DUP3 ADD MSTORE PUSH10 0x2F5048492F504849293B PUSH1 0xB0 SHL PUSH1 0x85 DUP3 ADD MSTORE PUSH2 0x3260 PUSH1 0x8F DUP3 ADD PUSH32 0x636F6E7374206F783D666C6F6F72282856322D2E35292A313430292C6F793D66 DUP2 MSTORE PUSH18 0x6C6F6F72282856332D2E35292A313030293B PUSH1 0x70 SHL PUSH1 0x20 DUP3 ADD MSTORE PUSH1 0x32 ADD SWAP1 JUMP JUMPDEST PUSH32 0x63697263283430302B6F782C3430302B6F792C522C70616C5B315D293B000000 DUP2 MSTORE PUSH32 0x63697263283430302B6F782B666C6F6F7228522A2E3535292C3430302B6F792D PUSH1 0x1D DUP3 ADD MSTORE PUSH32 0x666C6F6F722852322A2E3335292C52322C70616C5B325D293B00000000000000 PUSH1 0x3D DUP3 ADD MSTORE PUSH32 0x63697263283430302B6F782D666C6F6F722852332A2E39292C3430302B6F792B PUSH1 0x56 DUP3 ADD MSTORE PUSH32 0x666C6F6F722852322A2E38292C52332C70616C5B335D293B0000000000000000 PUSH1 0x76 DUP3 ADD MSTORE PUSH32 0x63697263283430302C3430302C666C6F6F7228522A5048492A2E3438292C6E75 PUSH1 0x8E DUP3 ADD MSTORE PUSH13 0x6C6C2C70616C5B345D2C32293B PUSH1 0x98 SHL PUSH1 0xAE DUP3 ADD MSTORE PUSH11 0x7068694C696E657328293B PUSH1 0xA8 SHL PUSH1 0xBB DUP3 ADD MSTORE PUSH32 0x6C6E28302C3430302C3830302C3430302C70616C5B345D2C31293B0000000000 PUSH1 0xC6 DUP3 ADD MSTORE PUSH1 0x7D PUSH1 0xF8 SHL PUSH1 0xE1 DUP3 ADD DUP2 SWAP1 MSTORE PUSH20 0x66756E6374696F6E20647261774772696428297B PUSH1 0x60 SHL PUSH1 0xE2 DUP4 ADD MSTORE PUSH11 0x62672870616C5B305D293B PUSH1 0xA8 SHL PUSH1 0xF6 DUP4 ADD MSTORE PUSH32 0x636F6E73742047313D666C6F6F72283830302F504849293B0000000000000000 PUSH2 0x101 DUP4 ADD MSTORE PUSH16 0x636F6E73742047323D3830302D47313B PUSH1 0x80 SHL PUSH2 0x119 DUP4 ADD MSTORE PUSH32 0x636F6E73742047333D666C6F6F722847322F504849293B000000000000000000 PUSH2 0x129 DUP4 ADD MSTORE PUSH15 0x636F6E73742047343D47322D47333B PUSH1 0x88 SHL PUSH2 0x140 DUP4 ADD MSTORE PUSH32 0x636F6E73742047353D666C6F6F722847332F504849293B000000000000000000 PUSH2 0x14F DUP4 ADD MSTORE PUSH22 0x72637428302C302C47332C47332C70616C5B315D293B PUSH1 0x50 SHL PUSH2 0x166 DUP4 ADD MSTORE PUSH32 0x7263742847312C302C47322C47312C70616C5B325D293B000000000000000000 PUSH2 0x17C DUP4 ADD MSTORE PUSH32 0x72637428302C47312C47332C47322C70616C5B335D293B000000000000000000 PUSH2 0x193 DUP4 ADD MSTORE PUSH32 0x7263742847332C47312D47342C47312D47332C47342C70616C5B325D293B0000 PUSH2 0x1AA DUP4 ADD MSTORE PUSH32 0x7263742847312B47352C47312B47352C47342D47352C47342D47352C70616C5B PUSH2 0x1C8 DUP4 ADD MSTORE PUSH4 0x335D293B PUSH1 0xE0 SHL PUSH2 0x1E8 DUP4 ADD MSTORE PUSH21 0x636F6E737420676C3D70616C5B345D2C67773D353B PUSH1 0x58 SHL PUSH2 0x1EC DUP4 ADD MSTORE PUSH22 0x6C6E2847332C302C47332C3830302C676C2C6777293B PUSH1 0x50 SHL PUSH2 0x201 DUP4 ADD MSTORE PUSH22 0x6C6E2847312C302C47312C3830302C676C2C6777293B PUSH1 0x50 SHL PUSH2 0x217 DUP4 ADD MSTORE PUSH22 0x6C6E28302C47332C3830302C47332C676C2C6777293B PUSH1 0x50 SHL PUSH2 0x22D DUP4 ADD MSTORE PUSH22 0x6C6E28302C47312C3830302C47312C676C2C6777293B PUSH1 0x50 SHL PUSH2 0x243 DUP4 ADD MSTORE PUSH32 0x6C6E2847332C47312D47342C47312C47312D47342C676C2C6777293B00000000 PUSH2 0x259 DUP4 ADD MSTORE PUSH32 0x5F63782E7374726F6B655374796C653D676C3B5F63782E6C696E655769647468 PUSH2 0x275 DUP4 ADD MSTORE PUSH32 0x3D67773B5F63782E7374726F6B655265637428302C302C3830302C383030293B PUSH2 0x295 DUP4 ADD MSTORE PUSH2 0x2B5 DUP3 ADD MSTORE PUSH2 0x2B6 ADD SWAP4 SWAP3 POP POP POP JUMP JUMPDEST PUSH1 0x0 DUP3 PUSH2 0x3674 JUMPI PUSH2 0x3674 PUSH2 0x24EA JUMP JUMPDEST POP DIV SWAP1 JUMP INVALID COINBASE TIMESTAMP NUMBER PREVRANDAO GASLIMIT CHAINID SELFBALANCE BASEFEE BLOBHASH BLOBBASEFEE 0x4B 0x4C 0x4D 0x4E 0x4F POP MLOAD MSTORE MSTORE8 SLOAD SSTORE JUMP JUMPI PC MSIZE GAS PUSH2 0x6263 PUSH5 0x6566676869 PUSH11 0x6B6C6D6E6F707172737475 PUSH23 0x7778797A303132333435363738392B2FA2646970667358 0x22 SLT KECCAK256 0xC4 PUSH11 0x80AFDB44EA5D4B05D7E8C9 PUSH9 0x95661ABF1572FCE6AE PUSH31 0xDEF9DC9CA9A86E2D64736F6C63430008180033000000000000000000000000 "},"methodIdentifiers":{"MAX_SUPPLY()":"32cb6b0c","MINT_PRICE()":"c002d23d","approve(address,uint256)":"095ea7b3","balanceOf(address)":"70a08231","getApproved(uint256)":"081812fc","isApprovedForAll(address,address)":"e985e9c5","mint()":"1249c58b","name()":"06fdde03","owner()":"8da5cb5b","ownerOf(uint256)":"6352211e","renounceOwnership()":"715018a6","safeTransferFrom(address,address,uint256)":"42842e0e","safeTransferFrom(address,address,uint256,bytes)":"b88d4fde","seedOf(uint256)":"82829f74","setApprovalForAll(address,bool)":"a22cb465","supportsInterface(bytes4)":"01ffc9a7","symbol()":"95d89b41","tokenURI(uint256)":"c87b56dd","totalMinted()":"a2309ff8","transferFrom(address,address,uint256)":"23b872dd","transferOwnership(address)":"f2fde38b","withdraw()":"3ccfd60b"}}}}}