{"contracts/GoldenRatio.sol":{"GoldenRatio":{"abi":[{"inputs":[],"stateMutability":"nonpayable","type":"constructor"},{"inputs":[{"internalType":"uint256","name":"numerator","type":"uint256"},{"internalType":"uint256","name":"denominator","type":"uint256"}],"name":"ERC2981InvalidDefaultRoyalty","type":"error"},{"inputs":[{"internalType":"address","name":"receiver","type":"address"}],"name":"ERC2981InvalidDefaultRoyaltyReceiver","type":"error"},{"inputs":[{"internalType":"uint256","name":"tokenId","type":"uint256"},{"internalType":"uint256","name":"numerator","type":"uint256"},{"internalType":"uint256","name":"denominator","type":"uint256"}],"name":"ERC2981InvalidTokenRoyalty","type":"error"},{"inputs":[{"internalType":"uint256","name":"tokenId","type":"uint256"},{"internalType":"address","name":"receiver","type":"address"}],"name":"ERC2981InvalidTokenRoyaltyReceiver","type":"error"},{"inputs":[{"internalType":"address","name":"sender","type":"address"},{"internalType":"uint256","name":"tokenId","type":"uint256"},{"internalType":"address","name":"owner","type":"address"}],"name":"ERC721IncorrectOwner","type":"error"},{"inputs":[{"internalType":"address","name":"operator","type":"address"},{"internalType":"uint256","name":"tokenId","type":"uint256"}],"name":"ERC721InsufficientApproval","type":"error"},{"inputs":[{"internalType":"address","name":"approver","type":"address"}],"name":"ERC721InvalidApprover","type":"error"},{"inputs":[{"internalType":"address","name":"operator","type":"address"}],"name":"ERC721InvalidOperator","type":"error"},{"inputs":[{"internalType":"address","name":"owner","type":"address"}],"name":"ERC721InvalidOwner","type":"error"},{"inputs":[{"internalType":"address","name":"receiver","type":"address"}],"name":"ERC721InvalidReceiver","type":"error"},{"inputs":[{"internalType":"address","name":"sender","type":"address"}],"name":"ERC721InvalidSender","type":"error"},{"inputs":[{"internalType":"uint256","name":"tokenId","type":"uint256"}],"name":"ERC721NonexistentToken","type":"error"},{"inputs":[],"name":"InsufficientPayment","type":"error"},{"inputs":[],"name":"Nonexistent","type":"error"},{"inputs":[{"internalType":"address","name":"owner","type":"address"}],"name":"OwnableInvalidOwner","type":"error"},{"inputs":[{"internalType":"address","name":"account","type":"address"}],"name":"OwnableUnauthorizedAccount","type":"error"},{"inputs":[],"name":"ReentrancyGuardReentrantCall","type":"error"},{"inputs":[],"name":"SoldOut","type":"error"},{"inputs":[{"internalType":"uint256","name":"value","type":"uint256"},{"internalType":"uint256","name":"length","type":"uint256"}],"name":"StringsInsufficientHexLength","type":"error"},{"anonymous":false,"inputs":[{"indexed":true,"internalType":"address","name":"owner","type":"address"},{"indexed":true,"internalType":"address","name":"approved","type":"address"},{"indexed":true,"internalType":"uint256","name":"tokenId","type":"uint256"}],"name":"Approval","type":"event"},{"anonymous":false,"inputs":[{"indexed":true,"internalType":"address","name":"owner","type":"address"},{"indexed":true,"internalType":"address","name":"operator","type":"address"},{"indexed":false,"internalType":"bool","name":"approved","type":"bool"}],"name":"ApprovalForAll","type":"event"},{"anonymous":false,"inputs":[{"indexed":true,"internalType":"address","name":"to","type":"address"},{"indexed":true,"internalType":"uint256","name":"tokenId","type":"uint256"},{"indexed":false,"internalType":"bytes32","name":"seed","type":"bytes32"}],"name":"Minted","type":"event"},{"anonymous":false,"inputs":[{"indexed":true,"internalType":"address","name":"previousOwner","type":"address"},{"indexed":true,"internalType":"address","name":"newOwner","type":"address"}],"name":"OwnershipTransferred","type":"event"},{"anonymous":false,"inputs":[{"indexed":true,"internalType":"address","name":"from","type":"address"},{"indexed":true,"internalType":"address","name":"to","type":"address"},{"indexed":true,"internalType":"uint256","name":"tokenId","type":"uint256"}],"name":"Transfer","type":"event"},{"inputs":[],"name":"MAX_SUPPLY","outputs":[{"internalType":"uint256","name":"","type":"uint256"}],"stateMutability":"view","type":"function"},{"inputs":[],"name":"MINT_PRICE","outputs":[{"internalType":"uint256","name":"","type":"uint256"}],"stateMutability":"view","type":"function"},{"inputs":[{"internalType":"address","name":"to","type":"address"},{"internalType":"uint256","name":"tokenId","type":"uint256"}],"name":"approve","outputs":[],"stateMutability":"nonpayable","type":"function"},{"inputs":[{"internalType":"address","name":"owner","type":"address"}],"name":"balanceOf","outputs":[{"internalType":"uint256","name":"","type":"uint256"}],"stateMutability":"view","type":"function"},{"inputs":[],"name":"contractURI","outputs":[{"internalType":"string","name":"","type":"string"}],"stateMutability":"view","type":"function"},{"inputs":[{"internalType":"uint256","name":"tokenId","type":"uint256"}],"name":"getApproved","outputs":[{"internalType":"address","name":"","type":"address"}],"stateMutability":"view","type":"function"},{"inputs":[{"internalType":"address","name":"owner","type":"address"},{"internalType":"address","name":"operator","type":"address"}],"name":"isApprovedForAll","outputs":[{"internalType":"bool","name":"","type":"bool"}],"stateMutability":"view","type":"function"},{"inputs":[],"name":"mint","outputs":[],"stateMutability":"payable","type":"function"},{"inputs":[{"internalType":"address","name":"to","type":"address"}],"name":"mintTo","outputs":[],"stateMutability":"nonpayable","type":"function"},{"inputs":[],"name":"name","outputs":[{"internalType":"string","name":"","type":"string"}],"stateMutability":"view","type":"function"},{"inputs":[],"name":"owner","outputs":[{"internalType":"address","name":"","type":"address"}],"stateMutability":"view","type":"function"},{"inputs":[{"internalType":"uint256","name":"tokenId","type":"uint256"}],"name":"ownerOf","outputs":[{"internalType":"address","name":"","type":"address"}],"stateMutability":"view","type":"function"},{"inputs":[],"name":"renounceOwnership","outputs":[],"stateMutability":"nonpayable","type":"function"},{"inputs":[{"internalType":"uint256","name":"tokenId","type":"uint256"},{"internalType":"uint256","name":"salePrice","type":"uint256"}],"name":"royaltyInfo","outputs":[{"internalType":"address","name":"receiver","type":"address"},{"internalType":"uint256","name":"amount","type":"uint256"}],"stateMutability":"view","type":"function"},{"inputs":[{"internalType":"address","name":"from","type":"address"},{"internalType":"address","name":"to","type":"address"},{"internalType":"uint256","name":"tokenId","type":"uint256"}],"name":"safeTransferFrom","outputs":[],"stateMutability":"nonpayable","type":"function"},{"inputs":[{"internalType":"address","name":"from","type":"address"},{"internalType":"address","name":"to","type":"address"},{"internalType":"uint256","name":"tokenId","type":"uint256"},{"internalType":"bytes","name":"data","type":"bytes"}],"name":"safeTransferFrom","outputs":[],"stateMutability":"nonpayable","type":"function"},{"inputs":[{"internalType":"uint256","name":"tokenId","type":"uint256"}],"name":"seedOf","outputs":[{"internalType":"bytes32","name":"","type":"bytes32"}],"stateMutability":"view","type":"function"},{"inputs":[{"internalType":"address","name":"operator","type":"address"},{"internalType":"bool","name":"approved","type":"bool"}],"name":"setApprovalForAll","outputs":[],"stateMutability":"nonpayable","type":"function"},{"inputs":[{"internalType":"address","name":"receiver","type":"address"},{"internalType":"uint96","name":"feeNumerator","type":"uint96"}],"name":"setRoyalty","outputs":[],"stateMutability":"nonpayable","type":"function"},{"inputs":[{"internalType":"bytes4","name":"interfaceId","type":"bytes4"}],"name":"supportsInterface","outputs":[{"internalType":"bool","name":"","type":"bool"}],"stateMutability":"view","type":"function"},{"inputs":[],"name":"symbol","outputs":[{"internalType":"string","name":"","type":"string"}],"stateMutability":"view","type":"function"},{"inputs":[{"internalType":"uint256","name":"tokenId","type":"uint256"}],"name":"tokenURI","outputs":[{"internalType":"string","name":"","type":"string"}],"stateMutability":"view","type":"function"},{"inputs":[],"name":"totalMinted","outputs":[{"internalType":"uint256","name":"","type":"uint256"}],"stateMutability":"view","type":"function"},{"inputs":[],"name":"totalSupply","outputs":[{"internalType":"uint256","name":"","type":"uint256"}],"stateMutability":"view","type":"function"},{"inputs":[{"internalType":"address","name":"from","type":"address"},{"internalType":"address","name":"to","type":"address"},{"internalType":"uint256","name":"tokenId","type":"uint256"}],"name":"transferFrom","outputs":[],"stateMutability":"nonpayable","type":"function"},{"inputs":[{"internalType":"address","name":"newOwner","type":"address"}],"name":"transferOwnership","outputs":[],"stateMutability":"nonpayable","type":"function"},{"inputs":[],"name":"withdraw","outputs":[],"stateMutability":"nonpayable","type":"function"}],"evm":{"bytecode":{"linkReferences":{},"object":"60806040523480156200001157600080fd5b50336040518060400160405280600c81526020016b476f6c64656e20526174696f60a01b8152506040518060400160405280600381526020016250484960e81b81525081600090816200006591906200026c565b5060016200007482826200026c565b5050506001600160a01b038116620000a757604051631e4fbdf760e01b8152600060048201526024015b60405180910390fd5b620000b281620000cc565b506001600955620000c6336101f46200011e565b62000338565b600880546001600160a01b038381166001600160a01b0319831681179093556040519116919082907f8be0079c531659141344cd1fd0a4f28419497f9722a3daafe3b4186f6b6457e090600090a35050565b6127106001600160601b0382168110156200015f57604051636f483d0960e01b81526001600160601b0383166004820152602481018290526044016200009e565b6001600160a01b0383166200018b57604051635b6cc80560e11b8152600060048201526024016200009e565b50604080518082019091526001600160a01b039092168083526001600160601b039091166020909201829052600160a01b90910217600655565b634e487b7160e01b600052604160045260246000fd5b600181811c90821680620001f057607f821691505b6020821081036200021157634e487b7160e01b600052602260045260246000fd5b50919050565b601f82111562000267576000816000526020600020601f850160051c81016020861015620002425750805b601f850160051c820191505b8181101562000263578281556001016200024e565b5050505b505050565b81516001600160401b03811115620002885762000288620001c5565b620002a081620002998454620001db565b8462000217565b602080601f831160018114620002d85760008415620002bf5750858301515b600019600386901b1c1916600185901b17855562000263565b600085815260208120601f198616915b828110156200030957888601518255948401946001909101908401620002e8565b5085821015620003285787850151600019600388901b60f8161c191681555b5050505050600190811b01905550565b6145ed80620003486000396000f3fe60806040526004361061019c5760003560e01c8063715018a6116100ec578063a2309ff81161008a578063c87b56dd11610064578063c87b56dd14610465578063e8a3d48514610485578063e985e9c51461049a578063f2fde38b146104ba57600080fd5b8063a2309ff81461025a578063b88d4fde1461042a578063c002d23d1461044a57600080fd5b80638da5cb5b116100c65780638da5cb5b146103b75780638f2fc60b146103d557806395d89b41146103f5578063a22cb4651461040a57600080fd5b8063715018a614610362578063755edd171461037757806382829f741461039757600080fd5b806323b872dd116101595780633ccfd60b116101335780633ccfd60b146102ed57806342842e0e146103025780636352211e1461032257806370a082311461034257600080fd5b806323b872dd146102795780632a55205a1461029957806332cb6b0c146102d857600080fd5b806301ffc9a7146101a157806306fdde03146101d6578063081812fc146101f8578063095ea7b3146102305780631249c58b1461025257806318160ddd1461025a575b600080fd5b3480156101ad57600080fd5b506101c16101bc366004612d09565b6104da565b60405190151581526020015b60405180910390f35b3480156101e257600080fd5b506101eb6104eb565b6040516101cd9190612d76565b34801561020457600080fd5b50610218610213366004612d89565b61057d565b6040516001600160a01b0390911681526020016101cd565b34801561023c57600080fd5b5061025061024b366004612dbe565b6105a6565b005b6102506105b5565b34801561026657600080fd5b50600a545b6040519081526020016101cd565b34801561028557600080fd5b50610250610294366004612de8565b6105d2565b3480156102a557600080fd5b506102b96102b4366004612e24565b610662565b604080516001600160a01b0390931683526020830191909152016101cd565b3480156102e457600080fd5b5061026b603d81565b3480156102f957600080fd5b506102506106e7565b34801561030e57600080fd5b5061025061031d366004612de8565b610798565b34801561032e57600080fd5b5061021861033d366004612d89565b6107b8565b34801561034e57600080fd5b5061026b61035d366004612e46565b6107c3565b34801561036e57600080fd5b5061025061080b565b34801561038357600080fd5b50610250610392366004612e46565b61081d565b3480156103a357600080fd5b5061026b6103b2366004612d89565b61082e565b3480156103c357600080fd5b506008546001600160a01b0316610218565b3480156103e157600080fd5b506102506103f0366004612e61565b610876565b34801561040157600080fd5b506101eb6108cd565b34801561041657600080fd5b50610250610425366004612ea4565b6108dc565b34801561043657600080fd5b50610250610445366004612eeb565b6108e7565b34801561045657600080fd5b5061026b66db8ec5c71e800081565b34801561047157600080fd5b506101eb610480366004612d89565b6108ff565b34801561049157600080fd5b506101eb610aa9565b3480156104a657600080fd5b506101c16104b5366004612fc7565b610b21565b3480156104c657600080fd5b506102506104d5366004612e46565b610b4f565b60006104e582610b8a565b92915050565b6060600080546104fa90612ffa565b80601f016020809104026020016040519081016040528092919081815260200182805461052690612ffa565b80156105735780601f1061054857610100808354040283529160200191610573565b820191906000526020600020905b81548152906001019060200180831161055657829003601f168201915b5050505050905090565b600061058882610baf565b506000828152600460205260409020546001600160a01b03166104e5565b6105b1828233610be8565b5050565b6105bd610bf5565b6105c633610c1f565b6105d06001600955565b565b6001600160a01b03821661060157604051633250574960e11b8152600060048201526024015b60405180910390fd5b600061060e838333610dcf565b9050836001600160a01b0316816001600160a01b03161461065c576040516364283d7b60e01b81526001600160a01b03808616600483015260248201849052821660448201526064016105f8565b50505050565b600082815260076020526040812080548291906001600160a01b03811690600160a01b90046001600160601b0316816106b65750506006546001600160a01b03811690600160a01b90046001600160601b03165b60006127106106ce6001600160601b0384168961304a565b6106d89190613061565b92989297509195505050505050565b6106ef610eca565b60006107036008546001600160a01b031690565b6001600160a01b03164760405160006040518083038185875af1925050503d806000811461074d576040519150601f19603f3d011682016040523d82523d6000602084013e610752565b606091505b50509050806107955760405162461bcd60e51b815260206004820152600f60248201526e15da5d1a191c985dc819985a5b1959608a1b60448201526064016105f8565b50565b6107b3838383604051806020016040528060008152506108e7565b505050565b60006104e582610baf565b60006001600160a01b0382166107ef576040516322718ad960e21b8152600060048201526024016105f8565b506001600160a01b031660009081526003602052604090205490565b610813610eca565b6105d06000610ef7565b610825610eca565b61079581610c1f565b6000818152600260205260408120546001600160a01b03166108635760405163367f2f2f60e11b815260040160405180910390fd5b506000908152600b602052604090205490565b61087e610eca565b6103e8816001600160601b031611156108c35760405162461bcd60e51b81526020600482015260076024820152664d61782031302560c81b60448201526064016105f8565b6105b18282610f49565b6060600180546104fa90612ffa565b6105b1338383610fec565b6108f28484846105d2565b61065c338585858561108b565b6000818152600260205260409020546060906001600160a01b03166109375760405163367f2f2f60e11b815260040160405180910390fd5b6000828152600b60205260408120549067ffffffffffffffff6714057b7ef767814f675851f42d4c957f2d80850282018381169491850290920190921691906401000000009061098e9063ffffffff16600861304a565b6109989190613061565b905060006401000000006109b363ffffffff8516600461304a565b6109bd9190613061565b905060006109cb88846111b6565b905060006109d882611216565b905060006109ee6109e88961123c565b8b61138c565b905060006109fb82611216565b90506000610a08866113ed565b610a11886114bd565b610a1a8e61163f565b604051602001610a2c9392919061309f565b60405160208183030381529060405290506000610a488d61163f565b858484604051602001610a5e94939291906131fd565b6040516020818303038152906040529050610a7881611216565b604051602001610a88919061339f565b6040516020818303038152906040529b505050505050505050505050919050565b60606000610ad2610ac26008546001600160a01b031690565b6001600160a01b031660146116d2565b604051602001610ae291906133e4565b6040516020818303038152906040529050610afc81611216565b604051602001610b0c919061339f565b60405160208183030381529060405291505090565b6001600160a01b03918216600090815260056020908152604080832093909416825291909152205460ff1690565b610b57610eca565b6001600160a01b038116610b8157604051631e4fbdf760e01b8152600060048201526024016105f8565b61079581610ef7565b60006001600160e01b0319821663152a902d60e11b14806104e557506104e582611852565b6000818152600260205260408120546001600160a01b0316806104e557604051637e27328960e01b8152600481018490526024016105f8565b6107b383838360016118a2565b600260095403610c1857604051633ee5aeb560e01b815260040160405180910390fd5b6002600955565b603d600a5410610c42576040516352df9fe560e01b815260040160405180910390fd5b6008546001600160a01b03163314801590610c63575066db8ec5c71e800034105b15610c815760405163cd1c886760e01b815260040160405180910390fd5b6000600a60008154610c9290613539565b918290555090506000610ca6600143613552565b60408051914060208301528101839052606084811b6bffffffffffffffffffffffff19169082015242607482015260940160408051601f1981840301815291815281516020928301206000858152600b90935291208190559050610d0a83836119a8565b81836001600160a01b03167fc263b302aec62d29105026245f19e16f8e0137066ccd4a8bd941f716bd4096bb83604051610d4691815260200190565b60405180910390a3600066db8ec5c71e80003411610d65576000610d76565b610d7666db8ec5c71e800034613552565b9050801561065c57604051600090339083908381818185875af1925050503d8060008114610dc0576040519150601f19603f3d011682016040523d82523d6000602084013e610dc5565b606091505b5050505050505050565b6000828152600260205260408120546001600160a01b0390811690831615610dfc57610dfc818486611a0d565b6001600160a01b03811615610e3a57610e196000856000806118a2565b6001600160a01b038116600090815260036020526040902080546000190190555b6001600160a01b03851615610e69576001600160a01b0385166000908152600360205260409020805460010190555b60008481526002602052604080822080546001600160a01b0319166001600160a01b0389811691821790925591518793918516917fddf252ad1be2c89b69c2b068fc378daa952ba7f163c4a11628f55a4df523b3ef91a490505b9392505050565b6008546001600160a01b031633146105d05760405163118cdaa760e01b81523360048201526024016105f8565b600880546001600160a01b038381166001600160a01b0319831681179093556040519116919082907f8be0079c531659141344cd1fd0a4f28419497f9722a3daafe3b4186f6b6457e090600090a35050565b6127106001600160601b038216811015610f8857604051636f483d0960e01b81526001600160601b0383166004820152602481018290526044016105f8565b6001600160a01b038316610fb257604051635b6cc80560e11b8152600060048201526024016105f8565b50604080518082019091526001600160a01b039092168083526001600160601b039091166020909201829052600160a01b90910217600655565b6001600160a01b03821661101e57604051630b61174360e31b81526001600160a01b03831660048201526024016105f8565b6001600160a01b03838116600081815260056020908152604080832094871680845294825291829020805460ff191686151590811790915591519182527f17307eab39ab6107e8899845ad3d59bd9653f200f220920489ca2b5937696c31910160405180910390a3505050565b6001600160a01b0383163b156111af57604051630a85bd0160e11b81526001600160a01b0384169063150b7a02906110cd908890889087908790600401613565565b6020604051808303816000875af1925050508015611108575060408051601f3d908101601f19168201909252611105918101906135a2565b60015b611171573d808015611136576040519150601f19603f3d011682016040523d82523d6000602084013e61113b565b606091505b50805160000361116957604051633250574960e11b81526001600160a01b03851660048201526024016105f8565b805160208201fd5b6001600160e01b03198116630a85bd0160e11b146111ad57604051633250574960e11b81526001600160a01b03851660048201526024016105f8565b505b5050505050565b606060008060008060006111c987611a71565b94509450945094509450848484848485866111e38f61163f565b6040516020016111fa9897969594939291906135bf565b6040516020818303038152906040529550505050505092915050565b60606104e58260405180606001604052806040815260200161457860409139600161202e565b604080518082018252601081526f181899199a1a9b1b9c1cb0b131b232b360811b6020820152815182815260608181018452926000919060208201818036833701905050905060005b6020811015611384578260048683602081106112a3576112a361390e565b835191901a90911c60ff169081106112bd576112bd61390e565b01602001516001600160f81b031916826112d883600261304a565b815181106112e8576112e861390e565b60200101906001600160f81b031916908160001a905350828582602081106113125761131261390e565b1a60f81b60f81c600f1660ff168151811061132f5761132f61390e565b01602001516001600160f81b0319168261134a83600261304a565b611355906001613924565b815181106113655761136561390e565b60200101906001600160f81b031916908160001a905350600101611285565b509392505050565b60606113966121ae565b836113a08461163f565b6113a86121d3565b6113b06121f6565b6113b8612207565b6113c061273e565b6040516020016113d69796959493929190613937565b604051602081830303815290604052905092915050565b60608160000361142357505060408051808201909152601081526f436972636c6520446f6d696e616e636560801b602082015290565b8160010361145457505060408051808201909152600d81526c11194814dd1a5a9b0811dc9a59609a1b602082015290565b8160020361149557505060408051808201909152601781527f436f6e737472756374697669737420446961676f6e616c000000000000000000602082015290565b505060408051808201909152600c81526b4e657374656420466f726d7360a01b602082015290565b6060816000036114f257505060408051808201909152600f81526e436c6173736963204261756861757360881b602082015290565b8160010361152257505060408051808201909152600c81526b4461726b205072696d61727960a01b602082015290565b8160020361155257505060408051808201909152600c81526b0aecad2dac2e4408ac2e4e8d60a31b602082015290565b8160030361158457505060408051808201909152600e81526d10dbdb9cdd1c9d58dd1a5d9a5cdd60921b602082015290565b816004036115b557505060408051808201909152600d81526c4f63687265205072696d61727960981b602082015290565b816005036115e757505060408051808201909152600e81526d5761726d2047656f6d657472696360901b602082015290565b8160060361161857505060408051808201909152600d81526c4e69676874204261756861757360981b602082015290565b505060408051808201909152600b81526a446573736175204772617960a81b602082015290565b6060600061164c836127d9565b600101905060008167ffffffffffffffff81111561166c5761166c612ed5565b6040519080825280601f01601f191660200182016040528015611696576020820181803683370190505b5090508181016020015b600019016f181899199a1a9b1b9c1cb0b131b232b360811b600a86061a8153600a85049450846116a057509392505050565b60608260006116e284600261304a565b6116ed906002613924565b67ffffffffffffffff81111561170557611705612ed5565b6040519080825280601f01601f19166020018201604052801561172f576020820181803683370190505b509050600360fc1b8160008151811061174a5761174a61390e565b60200101906001600160f81b031916908160001a905350600f60fb1b816001815181106117795761177961390e565b60200101906001600160f81b031916908160001a905350600061179d85600261304a565b6117a8906001613924565b90505b6001811115611820576f181899199a1a9b1b9c1cb0b131b232b360811b83600f16601081106117dc576117dc61390e565b1a60f81b8282815181106117f2576117f261390e565b60200101906001600160f81b031916908160001a90535060049290921c9161181981613b22565b90506117ab565b50811561184a5760405163e22e27eb60e01b815260048101869052602481018590526044016105f8565b949350505050565b60006001600160e01b031982166380ac58cd60e01b148061188357506001600160e01b03198216635b5e139f60e01b145b806104e557506301ffc9a760e01b6001600160e01b03198316146104e5565b80806118b657506001600160a01b03821615155b156119785760006118c684610baf565b90506001600160a01b038316158015906118f25750826001600160a01b0316816001600160a01b031614155b801561190557506119038184610b21565b155b1561192e5760405163a9fbf51f60e01b81526001600160a01b03841660048201526024016105f8565b81156119765783856001600160a01b0316826001600160a01b03167f8c5be1e5ebec7d5bd14f71427d1e84f3dd0314c0f7b2291e5b200ac8c7c3b92560405160405180910390a45b505b5050600090815260046020526040902080546001600160a01b0319166001600160a01b0392909216919091179055565b6001600160a01b0382166119d257604051633250574960e11b8152600060048201526024016105f8565b60006119e083836000610dcf565b90506001600160a01b038116156107b3576040516339e3563760e11b8152600060048201526024016105f8565b611a188383836128b1565b6107b3576001600160a01b038316611a4657604051637e27328960e01b8152600481018290526024016105f8565b60405163177e802f60e01b81526001600160a01b0383166004820152602481018290526044016105f8565b606080606080606085600003611b3057604051806040016040528060078152602001660234638463746360cc1b81525060405180604001604052806007815260200166046886c647064760cb1b815250604051806040016040528060078152602001661198a11a231b9960c91b8152506040518060400160405280600781526020016611a3199ca1989960c91b815250604051806040016040528060078152602001662331413141314160c81b81525094509450945094509450612025565b85600103611be7576040518060400160405280600781526020016608cc110c110c1160ca1b8152506040518060400160405280600781526020016611a29b199c9a1b60c91b815250604051806040016040528060078152602001662346344433354560c81b815250604051806040016040528060078152602001661198a09c999b2360c91b815250604051806040016040528060078152602001662346354635463560c81b81525094509450945094509450612025565b85600203611c9e57604051806040016040528060078152602001660468c6a8c608a760cb1b815250604051806040016040528060078152602001662332453430353760c81b815250604051806040016040528060078152602001662343383442333160c81b815250604051806040016040528060078152602001662330343841383160c81b815250604051806040016040528060078152602001662331313131313160c81b81525094509450945094509450612025565b85600303611d5557604051806040016040528060078152602001662346354635463560c81b815250604051806040016040528060078152602001660234238303030360cc1b815250604051806040016040528060078152602001662331313131313160c81b815250604051806040016040528060078152602001662339393939393960c81b815250604051806040016040528060078152602001660234530453045360cc1b81525094509450945094509450612025565b85600403611e0c57604051806040016040528060078152602001662346464638453160c81b815250604051806040016040528060078152602001662331413141314160c81b81525060405180604001604052806007815260200166046866c647064760cb1b815250604051806040016040528060078152602001660233135363543360cc1b815250604051806040016040528060078152602001662339453642304160c81b81525094509450945094509450612025565b85600503611ec357604051806040016040528060078152602001662346374637463760c81b815250604051806040016040528060078152602001662346463642333560c81b815250604051806040016040528060078152602001660466060688a72760cb1b815250604051806040016040528060078152602001662345454545454560c81b815250604051806040016040528060078152602001662331313131313160c81b81525094509450945094509450612025565b85600603611f7a576040518060400160405280600781526020016608cc4d0c4d0c4d60ca1b815250604051806040016040528060078152602001662346464237303360c81b815250604051806040016040528060078152602001660234642383530360cc1b815250604051806040016040528060078152602001662330323330343760c81b81525060405180604001604052806007815260200166119c22a1a0a29b60c91b81525094509450945094509450612025565b604051806040016040528060078152602001660468a708a708a760cb1b815250604051806040016040528060078152602001662332313235323960c81b8152506040518060400160405280600781526020016611a198199c992160c91b815250604051806040016040528060078152602001662332343731413360c81b8152506040518060400160405280600781526020016608cd90cdcd4dd160ca1b815250945094509450945094505b91939590929450565b6060835160000361204e5750604080516020810190915260008152610ec3565b60008261207f57600385516004612065919061304a565b612070906002613924565b61207a9190613061565b6120a4565b60038551600261208f9190613924565b6120999190613061565b6120a490600461304a565b905060008167ffffffffffffffff8111156120c1576120c1612ed5565b6040519080825280601f01601f1916602001820160405280156120eb576020820181803683370190505b50905060018501602082018788518901602081018051600082525b82841015612161576003840193508351603f8160121c168701518653600186019550603f81600c1c168701518653600186019550603f8160061c168701518653600186019550603f8116870151865350600185019450612106565b9052505085156121a2576003885106600181146121855760028114612198576121a0565b603d6001830353603d60028303536121a0565b603d60018303535b505b50909695505050505050565b60606040516020016121bf90613b39565b604051602081830303815290604052905090565b60606121dd612914565b6121e5612b62565b6040516020016121bf92919061402e565b60606040516020016121bf9061405d565b60606040516020016121bf907466756e6374696f6e2064726177436f6e737428297b60581b81526a62672870616c5b305d293b60a81b601582018190527f636f6e737420616e673d5b50492f362c50492f342c50492f335d5b666c6f6f726020830152672856312a33295d3b60c01b60408301527f5f63782e7361766528293b5f63782e7472616e736c617465283430302c3430306048830181905271293b5f63782e726f7461746528616e67293b60701b60688401527f5f63782e66696c6c5374796c653d70616c5b315d3b5f63782e66696c6c526563607a8401527474282d35352c2d3730302c3131302c31343030293b60581b609a8401526d5f63782e726573746f726528293b60901b60af84015260bd8301527f293b5f63782e726f7461746528616e672b50492f32293b00000000000000000060dd8301527f5f63782e66696c6c5374796c653d70616c5b325d3b5f63782e676c6f62616c4160f4830152696c7068613d302e35353b60b01b6101148301527f5f63782e66696c6c52656374282d32382c2d3730302c35362c31343030293b0061011e8301527f5f63782e676c6f62616c416c7068613d313b5f63782e726573746f726528293b61013d8301527f636f6e737420523d666c6f6f72283132302b56322a3930293b0000000000000061015d8301527f6369726328666c6f6f72283136302b56332a313230292c666c6f6f7228353630610176830152722b56342a313030292c522c70616c5b335d293b60681b6101968301527f6369726328666c6f6f72283632302b56342a3830292c666c6f6f72283136302b6101a98301527f56312a3830292c666c6f6f7228522f504849292c70616c5b315d293b000000006101c98301527f636f6e73742074783d666c6f6f72283632302b56332a3630292c74793d666c6f6101e58301527f6f722838302b56322a3630292c74733d666c6f6f722836302b56312a3530293b6102058301527f7472692874782c74792c74782b74732c74792b666c6f6f722874732a504849296102258301527f2c74782d74732c74792b666c6f6f722874732a504849292c70616c5b325d293b6102458301527f6c6e28302c666c6f6f72283830302f504849292c3830302c666c6f6f7228383061026583015271302f504849292c70616c5b345d2c33293b7d60701b6102858301527566756e6374696f6e20647261774e657374656428297b60501b6102978301526102ad8201527f636f6e737420757365436972636c653d56313e302e353b0000000000000000006102b88201526f6c657420737a3d3732302c63693d303b60801b6102cf8201526c7768696c6528737a3e3234297b60981b6102df8201527f636f6e737420633d70616c5b312b286369252870616c2e6c656e6774682d31296102ec8201527f295d2c783d283830302d737a292f322c793d283830302d737a292f323b00000061030c8201527f636f6e737420796f3d757365436972636c653f303a666c6f6f722863692a2838610329820152682b56322a313229293b60b81b6103498201527f696628757365436972636c652963697263283430302c3430302c737a2f322c6361035282015261293b60f01b6103728201527f656c73652072637428782c792b796f2c737a2c737a2d796f2a322c63293b00006103748201527f737a3d666c6f6f7228737a2f504849293b63692b2b3b7d0000000000000000006103928201527f63697263283430302c3430302c666c6f6f722831322b56332a3136292c70616c6103a9820152645b345d293b60d81b6103c98201526b7068694c696e657328293b7d60a01b6103ce8201526103da0190565b6040517f696628434f4d503d3d3d302964726177436972636c6528293b0000000000000060208201527f656c736520696628434f4d503d3d3d3129647261774772696428293b0000000060398201527f656c736520696628434f4d503d3d3d322964726177436f6e737428293b000000605582015271656c736520647261774e657374656428293b60701b60728201526060906084016121bf565b60008072184f03e93ff9f4daa797ed6e38ed64bf6a1f0160401b83106128185772184f03e93ff9f4daa797ed6e38ed64bf6a1f0160401b830492506040015b6d04ee2d6d415b85acef81000000008310612844576d04ee2d6d415b85acef8100000000830492506020015b662386f26fc10000831061286257662386f26fc10000830492506010015b6305f5e100831061287a576305f5e100830492506008015b612710831061288e57612710830492506004015b606483106128a0576064830492506002015b600a83106104e55760010192915050565b60006001600160a01b0383161580159061184a5750826001600160a01b0316846001600160a01b031614806128eb57506128eb8484610b21565b8061184a5750506000908152600460205260409020546001600160a01b03908116911614919050565b60606040516020016121bf906b636f6e73742050414c533d5b60a01b81527f5b2223463846374630222c2223443632383238222c2223314234463732222c22600c8201527308d18cce50cc4c888b0888cc504c504c5048974b60621b602c8201527f5b2223304430443044222c2223453633393436222c2223463444333545222c2260408201527308cc504e4ccd91888b0888d18d518d518d48974b60621b60608201527f5b2223463546304538222c2223324534303537222c2223433834423331222c2260748201527308cc0d0e104e0c488b0888cc4c4c4c4c4c48974b60621b60948201527f5b2223463546354635222c2223423830303030222c2223313131313131222c2260a88201527308ce4e4e4e4e4e488b0888d14c114c114c08974b60621b60c88201527f5b2223464646384531222c2223314131413141222c2223433632383238222c2260dc8201527308cc4d4d8d50cc088b0888ce514d908c1048974b60621b60fc8201527f5b2223463746374637222c2223464636423335222c2223303034453938222c226101108201527308d15151515151488b0888cc4c4c4c4c4c48974b60621b6101308201527f5b2223313431343134222c2223464642373033222c2223464238353030222c226101448201527308cc0c8ccc0d0dc88b0888ce1150d0514d88974b60621b6101648201527f5b2223453845384538222c2223323132353239222c2223433033393242222c226101788201527223323437314133222c2223364337353744225d60681b610198820152615d3b60f01b6101ab8201526101ad0190565b6040517f636f6e7374205048493d312e3631383033333938383734393839353b0000000060208201527f6c65742072733d426967496e7428223078222b53454544293b00000000000000603c8201526e636f6e737420726e643d28293d3e7b60881b60558201527f72733d2872732a363336343133363232333834363739333030356e2b3134343260648201527f3639353034303838383936333430376e292631383434363734343037333730396084820152673535313631356e3b60c01b60a48201527f72657475726e204e756d62657228727326343239343936373239356e292f343260ac8201526a39343936373239353b7d3b60a81b60cc8201527f636f6e73742070616c3d50414c535b666c6f6f7228726e6428292a38295d3b0060d78201527f636f6e737420434f4d503d666c6f6f7228726e6428292a34293b00000000000060f68201527f636f6e73742056313d726e6428292c56323d726e6428292c56333d726e642829610110820152692c56343d726e6428293b60b01b61013082015260609061013a016121bf565b6001600160e01b03198116811461079557600080fd5b600060208284031215612d1b57600080fd5b8135610ec381612cf3565b60005b83811015612d41578181015183820152602001612d29565b50506000910152565b60008151808452612d62816020860160208601612d26565b601f01601f19169290920160200192915050565b602081526000610ec36020830184612d4a565b600060208284031215612d9b57600080fd5b5035919050565b80356001600160a01b0381168114612db957600080fd5b919050565b60008060408385031215612dd157600080fd5b612dda83612da2565b946020939093013593505050565b600080600060608486031215612dfd57600080fd5b612e0684612da2565b9250612e1460208501612da2565b9150604084013590509250925092565b60008060408385031215612e3757600080fd5b50508035926020909101359150565b600060208284031215612e5857600080fd5b610ec382612da2565b60008060408385031215612e7457600080fd5b612e7d83612da2565b915060208301356001600160601b0381168114612e9957600080fd5b809150509250929050565b60008060408385031215612eb757600080fd5b612ec083612da2565b915060208301358015158114612e9957600080fd5b634e487b7160e01b600052604160045260246000fd5b60008060008060808587031215612f0157600080fd5b612f0a85612da2565b9350612f1860208601612da2565b925060408501359150606085013567ffffffffffffffff80821115612f3c57600080fd5b818701915087601f830112612f5057600080fd5b813581811115612f6257612f62612ed5565b604051601f8201601f19908116603f01168101908382118183101715612f8a57612f8a612ed5565b816040528281528a6020848701011115612fa357600080fd5b82602086016020830137600060208483010152809550505050505092959194509250565b60008060408385031215612fda57600080fd5b612fe383612da2565b9150612ff160208401612da2565b90509250929050565b600181811c9082168061300e57607f821691505b60208210810361302e57634e487b7160e01b600052602260045260246000fd5b50919050565b634e487b7160e01b600052601160045260246000fd5b80820281158282048414176104e5576104e5613034565b60008261307e57634e487b7160e01b600052601260045260246000fd5b500490565b60008151613095818560208601612d26565b9290920192915050565b605b60f81b81527f7b2274726169745f74797065223a22436f6d706f736974696f6e222c2276616c6001820152643ab2911d1160d91b602182015283516000906130f0816026850160208901612d26565b62089f4b60ea1b6026918401918201527f7b2274726169745f74797065223a2250616c65747465222c2276616c7565223a6029820152601160f91b6049820152845161314381604a840160208901612d26565b01613156604a820162089f4b60ea1b9052565b7f7b2274726169745f74797065223a2245646974696f6e222c2276616c7565223a604d820152601160f91b606d820152613194606e82015b85613083565b642f3631227d60d81b8152605d60f81b60058201526006019695505050505050565b7f226465736372697074696f6e223a2246756c6c79206f6e636861696e2042617581527403430bab99033b2b732b930ba34bb329030b93a171605d1b602082015260350190565b7f7b226e616d65223a22476f6c64656e20526174696f2023000000000000000000815260008551613235816017850160208a01612d26565b61088b60f21b601791840191820152613250601982016131b6565b7f47656f6d657472696320636f6d706f736974696f6e732064726976656e20627981526d010383434901e9018971b189c17160951b60208201527f3420636f6d706f736974696f6e2074797065732c20382070616c65747465732c602e82015273080d8c481d5b9a5c5d59481c1a5958d95ccb888b60621b604e8201527f22696d616765223a22646174613a696d6167652f7376672b786d6c3b626173656062820152620d8d0b60ea1b6082820152905061330f608582015b87613083565b61088b60f21b815290507f22616e696d6174696f6e5f75726c223a22646174613a746578742f68746d6c3b60028201526618985cd94d8d0b60ca1b602282015261335d602982015b86613083565b61088b60f21b815290506c1130ba3a3934b13aba32b9911d60991b600282015261338a600f820185613083565b607d60f81b8152600101979650505050505050565b7f646174613a6170706c69636174696f6e2f6a736f6e3b6261736536342c0000008152600082516133d781601d850160208701612d26565b91909101601d0192915050565b7f7b226e616d65223a22476f6c64656e20526174696f222c00000000000000000081526000613415601783016131b6565b7f5068692d70726f706f7274696f6e65642067656f6d657472696320636f6d706f81527f736974696f6e733a20436972636c6520446f6d696e616e63652c204465205374602082015269034b5361023b934b216160b51b60408201527f436f6e737472756374697669737420446961676f6e616c2c204e657374656420604a8201527f466f726d732e20363120756e69717565207069656365732e20302e3036313820606a820152651155120b888b60d21b608a8201527f2273656c6c65725f6665655f62617369735f706f696e7473223a3530302c0000609082015270113332b2afb932b1b4b834b2b73a111d1160791b60ae820152835161351f8160bf840160208801612d26565b61227d60f01b60bf929091019182015260c1019392505050565b60006001820161354b5761354b613034565b5060010190565b818103818111156104e5576104e5613034565b6001600160a01b038581168252841660208201526040810183905260806060820181905260009061359890830184612d4a565b9695505050505050565b6000602082840312156135b457600080fd5b8151610ec381612cf3565b7f3c73766720786d6c6e733d22687474703a2f2f7777772e77332e6f72672f323081527f30302f737667222076696577426f783d223020302038303020383030223e000060208201527f3c726563742077696474683d2238303022206865696768743d22383030222066603e8201526434b6361e9160d91b605e820152600061364b606383018b613083565b6211179f60e91b81527f3c7265637420783d223130302220793d22313030222077696474683d2234393460038201527411103432b4b3b43a1e9119981b11103334b6361e9160591b60238201526136a6603882015b8b613083565b6211179f60e91b815290507f3c636972636c652063783d22363230222063793d223538302220723d2231373060038201526711103334b6361e9160c11b60238201526136f5602b82018a613083565b6211179f60e91b815290507f3c7265637420783d223130302220793d22343530222077696474683d2231383960038201527411103432b4b3b43a1e91191a9811103334b6361e9160591b6023820152613752603882015b89613083565b6211179f60e91b815290507f3c6c696e652078313d2230222079313d22343935222078323d2238303022207960038201526f191e911a1c9a911039ba3937b5b29e9160811b60238201526138ae61335761386f6138326137bc6136a06137f082603389018f613083565b7f22207374726f6b652d77696474683d223122206f7061636974793d22302e3322815261179f60f11b602082015260220190565b7f3c6c696e652078313d22343934222079313d2230222078323d2234393422207981526f191e911c1818111039ba3937b5b29e9160811b602082015260300190565b7f3c7465787420783d223430302220793d223737352220746578742d616e63686f81526a0391e9136b4b232363291160ad1b6020820152602b0190565b7f666f6e742d66616d696c793d226d6f6e6f73706163652220666f6e742d73697a81526c329e91191a11103334b6361e9160991b6020820152602d0190565b7f22206f7061636974793d22302e36223e474f4c44454e20524154494f20230000815290506138e0601e820185613083565b661e17ba32bc3a1f60c91b8152651e17b9bb339f60d11b6007820152600d019b9a5050505050505050505050565b634e487b7160e01b600052603260045260246000fd5b808201808211156104e5576104e5613034565b7f3c21444f43545950452068746d6c3e3c68746d6c3e3c686561643e3c6d6574618152701031b430b939b2ba1e913aba33169c111f60791b60208201527f3c7374796c653e2a7b6d617267696e3a303b70616464696e673a307d626f647960318201527f7b6261636b67726f756e643a233030303b646973706c61793a666c65783b000060518201527f616c69676e2d6974656d733a63656e7465723b6a7573746966792d636f6e7465606f8201527f6e743a63656e7465723b6d696e2d6865696768743a31303076683b6f76657266608f8201526a6c6f773a68696464656e7d60a81b60af8201527f63616e7661737b6d61782d77696474683a313030766d696e3b6d61782d68656960ba8201527333b43a1d1898183b36b4b73e9e17b9ba3cb6329f60611b60da820152600060ee8201741e17b432b0b21f1e3137b23c9f1e39b1b934b83a1f60591b8152613a91601582018b613083565b6b31b7b739ba1029a2a2a21e9160a11b81529050613ab2600c82018a613083565b67222c544f4b454e3d60c01b81529050613acf6008820189613083565b603b60f81b81529050613aee61318e61330961374c600185018b613083565b7f3c2f7363726970743e3c2f626f64793e3c2f68746d6c3e00000000000000000081526017019a9950505050505050505050565b600081613b3157613b31613034565b506000190190565b7f636f6e7374205f63763d646f63756d656e742e637265617465456c656d656e7481526a0a0898d85b9d985cc88a4b60aa1b60208201527f5f63783d5f63762e676574436f6e746578742822326422293b00000000000000602b8201527f5f63762e77696474683d5f63762e6865696768743d3830303b0000000000000060448201527f646f63756d656e742e626f64792e617070656e644368696c64285f6376293b00605d8201527f636f6e737420636f733d4d6174682e636f732c73696e3d4d6174682e73696e2c607c8201527f737172743d4d6174682e737172742c6162733d4d6174682e6162732c00000000609c8201527f50493d4d6174682e50492c54574f5f50493d50492a322c666c6f6f723d4d617460b88201527f682e666c6f6f722c726f756e643d4d6174682e726f756e643b0000000000000060d88201527f66756e6374696f6e2062672863297b5f63782e66696c6c5374796c653d633b5f60f18201527f63782e66696c6c5265637428302c302c3830302c383030293b7d0000000000006101118201527f66756e6374696f6e206369726328782c792c722c66696c6c2c7363322c73772961012b820152607b60f81b61014b8201527f5f63782e626567696e5061746828293b5f63782e61726328782c792c722c302c61014c8201526754574f5f5049293b60c01b61016c8201527f69662866696c6c297b5f63782e66696c6c5374796c653d66696c6c3b5f63782e6101748201526766696c6c28293b7d60c01b6101948201527f696628736332297b5f63782e7374726f6b655374796c653d7363323b5f63782e61019c8201527f6c696e6557696474683d73777c7c323b5f63782e7374726f6b6528293b7d7d006101bc8201527f66756e6374696f6e2072637428782c792c772c682c66696c6c2c7363322c73776101db82015261297b60f01b6101fb8201526000613ea0613e3e6101fd84017f69662866696c6c297b5f63782e66696c6c5374796c653d66696c6c3b5f63782e81527266696c6c5265637428782c792c772c68293b7d60681b602082015260330190565b7f696628736332297b5f63782e7374726f6b655374796c653d7363323b5f63782e81527f6c696e6557696474683d73777c7c323b5f63782e7374726f6b655265637428786020820152692c792c772c68293b7d7d60b01b6040820152604a0190565b7f66756e6374696f6e206c6e2878312c79312c78322c79322c632c77297b00000081527f5f63782e626567696e5061746828293b5f63782e6d6f7665546f2878312c7931601d82015273293b5f63782e6c696e65546f2878322c7932293b60601b603d8201527f5f63782e7374726f6b655374796c653d633b5f63782e6c696e6557696474683d605182015272777c7c323b5f63782e7374726f6b6528293b7d60681b60718201527f66756e6374696f6e207472692861782c61792c62782c62792c65782c65792c66608482015264696c6c297b60d81b60a48201527f5f63782e626567696e5061746828293b5f63782e6d6f7665546f2861782c617960a98201527f293b5f63782e6c696e65546f2862782c6279293b5f63782e6c696e65546f286560c982015265782c6579293b60d01b60e98201527f5f63782e636c6f73655061746828293b69662866696c6c297b5f63782e66696c60ef8201527f6c5374796c653d66696c6c3b5f63782e66696c6c28293b7d7d0000000000000061010f8201526101288101610ec3565b60008351614040818460208801612d26565b835190830190614054818360208801612d26565b01949350505050565b7366756e6374696f6e207068694c696e657328297b60601b81527f636f6e73742067313d666c6f6f72283830302f504849292c67323d666c6f6f7260148201527f283830302d3830302f504849292c6c633d70616c5b345d3b000000000000000060348201527f6c6e28302c67322c3830302c67322c6c632c31293b6c6e2867312c302c67312c604c8201526a3830302c6c632c31293b7d60a81b606c8201527566756e6374696f6e2064726177436972636c6528297b60501b60778201526a62672870616c5b305d293b60a81b608d82018190527f636f6e737420523d666c6f6f72283235302b56312a3530292c52323d666c6f6f60988301527f7228522f504849292c52333d666c6f6f7228522f5048492f504849293b00000060b88301527f636f6e7374206f783d666c6f6f72282856322d2e35292a313430292c6f793d6660d5830152716c6f6f72282856332d2e35292a313030293b60701b60f58301527f63697263283430302b6f782c3430302b6f792c522c70616c5b315d293b0000006101078301527f63697263283430302b6f782b666c6f6f7228522a2e3535292c3430302b6f792d6101248301527f666c6f6f722852322a2e3335292c52322c70616c5b325d293b000000000000006101448301527f63697263283430302b6f782d666c6f6f722852332a2e39292c3430302b6f792b61015d8301527f666c6f6f722852322a2e38292c52332c70616c5b335d293b000000000000000061017d8301527f63697263283430302c3430302c666c6f6f7228522a5048492a2e3438292c6e756101958301526c6c6c2c70616c5b345d2c32293b60981b6101b58301526a7068694c696e657328293b60a81b6101c28301527f6c6e28302c3430302c3830302c3430302c70616c5b345d2c31293b7d000000006101cd8301527366756e6374696f6e20647261774772696428297b60601b6101e98301526101fd8201527f636f6e73742047313d666c6f6f72283830302f504849292c47323d3830302d476102088201527f312c47333d666c6f6f722847322f504849292c47343d47322d47332c47353d666102288201526c6c6f6f722847332f504849293b60981b6102488201527572637428302c302c47332c47332c70616c5b315d293b60501b6102558201527f7263742847312c302c47322c47312c70616c5b325d293b00000000000000000061026b8201527f72637428302c47312c47332c47322c70616c5b335d293b0000000000000000006102828201527f7263742847332c47312d47342c47312d47332c47342c70616c5b325d293b00006102998201527f7263742847312b47352c47312b47352c47342d47352c47342d47352c70616c5b6102b782015263335d293b60e01b6102d782015274636f6e737420676c3d70616c5b345d2c67773d353b60581b6102db8201527f6c6e2847332c302c47332c3830302c676c2c6777293b6c6e2847312c302c47316102f08201526b2c3830302c676c2c6777293b60a01b6103108201527f6c6e28302c47332c3830302c47332c676c2c6777293b6c6e28302c47312c383061031c8201526b302c47312c676c2c6777293b60a01b61033c8201527f6c6e2847332c47312d47342c47312c47312d47342c676c2c6777293b0000000061034882019081527f5f63782e7374726f6b655374796c653d676c3b5f63782e6c696e6557696474686103648301527f3d67773b5f63782e7374726f6b655265637428302c302c3830302c383030293b610384830152607d60f81b6103a48301526000906103a58301610ec356fe4142434445464748494a4b4c4d4e4f505152535455565758595a6162636465666768696a6b6c6d6e6f707172737475767778797a303132333435363738392b2fa2646970667358221220cbfda6aa835378afadff834e43b745daca17044aaee91d2d5645c2599a8f383864736f6c63430008180033","opcodes":"PUSH1 0x80 PUSH1 0x40 MSTORE CALLVALUE DUP1 ISZERO PUSH3 0x11 JUMPI PUSH1 0x0 DUP1 REVERT JUMPDEST POP CALLER PUSH1 0x40 MLOAD DUP1 PUSH1 0x40 ADD PUSH1 0x40 MSTORE DUP1 PUSH1 0xC DUP2 MSTORE PUSH1 0x20 ADD PUSH12 0x476F6C64656E20526174696F PUSH1 0xA0 SHL DUP2 MSTORE POP PUSH1 0x40 MLOAD DUP1 PUSH1 0x40 ADD PUSH1 0x40 MSTORE DUP1 PUSH1 0x3 DUP2 MSTORE PUSH1 0x20 ADD PUSH3 0x504849 PUSH1 0xE8 SHL DUP2 MSTORE POP DUP2 PUSH1 0x0 SWAP1 DUP2 PUSH3 0x65 SWAP2 SWAP1 PUSH3 0x26C JUMP JUMPDEST POP PUSH1 0x1 PUSH3 0x74 DUP3 DUP3 PUSH3 0x26C JUMP JUMPDEST POP POP POP PUSH1 0x1 PUSH1 0x1 PUSH1 0xA0 SHL SUB DUP2 AND PUSH3 0xA7 JUMPI PUSH1 0x40 MLOAD PUSH4 0x1E4FBDF7 PUSH1 0xE0 SHL DUP2 MSTORE PUSH1 0x0 PUSH1 0x4 DUP3 ADD MSTORE PUSH1 0x24 ADD JUMPDEST PUSH1 0x40 MLOAD DUP1 SWAP2 SUB SWAP1 REVERT JUMPDEST PUSH3 0xB2 DUP2 PUSH3 0xCC JUMP JUMPDEST POP PUSH1 0x1 PUSH1 0x9 SSTORE PUSH3 0xC6 CALLER PUSH2 0x1F4 PUSH3 0x11E JUMP JUMPDEST PUSH3 0x338 JUMP JUMPDEST PUSH1 0x8 DUP1 SLOAD PUSH1 0x1 PUSH1 0x1 PUSH1 0xA0 SHL SUB DUP4 DUP2 AND PUSH1 0x1 PUSH1 0x1 PUSH1 0xA0 SHL SUB NOT DUP4 AND DUP2 OR SWAP1 SWAP4 SSTORE PUSH1 0x40 MLOAD SWAP2 AND SWAP2 SWAP1 DUP3 SWAP1 PUSH32 0x8BE0079C531659141344CD1FD0A4F28419497F9722A3DAAFE3B4186F6B6457E0 SWAP1 PUSH1 0x0 SWAP1 LOG3 POP POP JUMP JUMPDEST PUSH2 0x2710 PUSH1 0x1 PUSH1 0x1 PUSH1 0x60 SHL SUB DUP3 AND DUP2 LT ISZERO PUSH3 0x15F JUMPI PUSH1 0x40 MLOAD PUSH4 0x6F483D09 PUSH1 0xE0 SHL DUP2 MSTORE PUSH1 0x1 PUSH1 0x1 PUSH1 0x60 SHL SUB DUP4 AND PUSH1 0x4 DUP3 ADD MSTORE PUSH1 0x24 DUP2 ADD DUP3 SWAP1 MSTORE PUSH1 0x44 ADD PUSH3 0x9E JUMP JUMPDEST PUSH1 0x1 PUSH1 0x1 PUSH1 0xA0 SHL SUB DUP4 AND PUSH3 0x18B JUMPI PUSH1 0x40 MLOAD PUSH4 0x5B6CC805 PUSH1 0xE1 SHL DUP2 MSTORE PUSH1 0x0 PUSH1 0x4 DUP3 ADD MSTORE PUSH1 0x24 ADD PUSH3 0x9E JUMP JUMPDEST POP PUSH1 0x40 DUP1 MLOAD DUP1 DUP3 ADD SWAP1 SWAP2 MSTORE PUSH1 0x1 PUSH1 0x1 PUSH1 0xA0 SHL SUB SWAP1 SWAP3 AND DUP1 DUP4 MSTORE PUSH1 0x1 PUSH1 0x1 PUSH1 0x60 SHL SUB SWAP1 SWAP2 AND PUSH1 0x20 SWAP1 SWAP3 ADD DUP3 SWAP1 MSTORE PUSH1 0x1 PUSH1 0xA0 SHL SWAP1 SWAP2 MUL OR PUSH1 0x6 SSTORE JUMP JUMPDEST PUSH4 0x4E487B71 PUSH1 0xE0 SHL PUSH1 0x0 MSTORE PUSH1 0x41 PUSH1 0x4 MSTORE PUSH1 0x24 PUSH1 0x0 REVERT JUMPDEST PUSH1 0x1 DUP2 DUP2 SHR SWAP1 DUP3 AND DUP1 PUSH3 0x1F0 JUMPI PUSH1 0x7F DUP3 AND SWAP2 POP JUMPDEST PUSH1 0x20 DUP3 LT DUP2 SUB PUSH3 0x211 JUMPI PUSH4 0x4E487B71 PUSH1 0xE0 SHL PUSH1 0x0 MSTORE PUSH1 0x22 PUSH1 0x4 MSTORE PUSH1 0x24 PUSH1 0x0 REVERT JUMPDEST POP SWAP2 SWAP1 POP JUMP JUMPDEST PUSH1 0x1F DUP3 GT ISZERO PUSH3 0x267 JUMPI PUSH1 0x0 DUP2 PUSH1 0x0 MSTORE PUSH1 0x20 PUSH1 0x0 KECCAK256 PUSH1 0x1F DUP6 ADD PUSH1 0x5 SHR DUP2 ADD PUSH1 0x20 DUP7 LT ISZERO PUSH3 0x242 JUMPI POP DUP1 JUMPDEST PUSH1 0x1F DUP6 ADD PUSH1 0x5 SHR DUP3 ADD SWAP2 POP JUMPDEST DUP2 DUP2 LT ISZERO PUSH3 0x263 JUMPI DUP3 DUP2 SSTORE PUSH1 0x1 ADD PUSH3 0x24E JUMP JUMPDEST POP POP POP JUMPDEST POP POP POP JUMP JUMPDEST DUP2 MLOAD PUSH1 0x1 PUSH1 0x1 PUSH1 0x40 SHL SUB DUP2 GT ISZERO PUSH3 0x288 JUMPI PUSH3 0x288 PUSH3 0x1C5 JUMP JUMPDEST PUSH3 0x2A0 DUP2 PUSH3 0x299 DUP5 SLOAD PUSH3 0x1DB JUMP JUMPDEST DUP5 PUSH3 0x217 JUMP JUMPDEST PUSH1 0x20 DUP1 PUSH1 0x1F DUP4 GT PUSH1 0x1 DUP2 EQ PUSH3 0x2D8 JUMPI PUSH1 0x0 DUP5 ISZERO PUSH3 0x2BF JUMPI POP DUP6 DUP4 ADD MLOAD JUMPDEST PUSH1 0x0 NOT PUSH1 0x3 DUP7 SWAP1 SHL SHR NOT AND PUSH1 0x1 DUP6 SWAP1 SHL OR DUP6 SSTORE PUSH3 0x263 JUMP JUMPDEST PUSH1 0x0 DUP6 DUP2 MSTORE PUSH1 0x20 DUP2 KECCAK256 PUSH1 0x1F NOT DUP7 AND SWAP2 JUMPDEST DUP3 DUP2 LT ISZERO PUSH3 0x309 JUMPI DUP9 DUP7 ADD MLOAD DUP3 SSTORE SWAP5 DUP5 ADD SWAP5 PUSH1 0x1 SWAP1 SWAP2 ADD SWAP1 DUP5 ADD PUSH3 0x2E8 JUMP JUMPDEST POP DUP6 DUP3 LT ISZERO PUSH3 0x328 JUMPI DUP8 DUP6 ADD MLOAD PUSH1 0x0 NOT PUSH1 0x3 DUP9 SWAP1 SHL PUSH1 0xF8 AND SHR NOT AND DUP2 SSTORE JUMPDEST POP POP POP POP POP PUSH1 0x1 SWAP1 DUP2 SHL ADD SWAP1 SSTORE POP JUMP JUMPDEST PUSH2 0x45ED DUP1 PUSH3 0x348 PUSH1 0x0 CODECOPY PUSH1 0x0 RETURN INVALID PUSH1 0x80 PUSH1 0x40 MSTORE PUSH1 0x4 CALLDATASIZE LT PUSH2 0x19C JUMPI PUSH1 0x0 CALLDATALOAD PUSH1 0xE0 SHR DUP1 PUSH4 0x715018A6 GT PUSH2 0xEC JUMPI DUP1 PUSH4 0xA2309FF8 GT PUSH2 0x8A JUMPI DUP1 PUSH4 0xC87B56DD GT PUSH2 0x64 JUMPI DUP1 PUSH4 0xC87B56DD EQ PUSH2 0x465 JUMPI DUP1 PUSH4 0xE8A3D485 EQ PUSH2 0x485 JUMPI DUP1 PUSH4 0xE985E9C5 EQ PUSH2 0x49A JUMPI DUP1 PUSH4 0xF2FDE38B EQ PUSH2 0x4BA JUMPI PUSH1 0x0 DUP1 REVERT JUMPDEST DUP1 PUSH4 0xA2309FF8 EQ PUSH2 0x25A JUMPI DUP1 PUSH4 0xB88D4FDE EQ PUSH2 0x42A JUMPI DUP1 PUSH4 0xC002D23D EQ PUSH2 0x44A JUMPI PUSH1 0x0 DUP1 REVERT JUMPDEST DUP1 PUSH4 0x8DA5CB5B GT PUSH2 0xC6 JUMPI DUP1 PUSH4 0x8DA5CB5B EQ PUSH2 0x3B7 JUMPI DUP1 PUSH4 0x8F2FC60B EQ PUSH2 0x3D5 JUMPI DUP1 PUSH4 0x95D89B41 EQ PUSH2 0x3F5 JUMPI DUP1 PUSH4 0xA22CB465 EQ PUSH2 0x40A JUMPI PUSH1 0x0 DUP1 REVERT JUMPDEST DUP1 PUSH4 0x715018A6 EQ PUSH2 0x362 JUMPI DUP1 PUSH4 0x755EDD17 EQ PUSH2 0x377 JUMPI DUP1 PUSH4 0x82829F74 EQ PUSH2 0x397 JUMPI PUSH1 0x0 DUP1 REVERT JUMPDEST DUP1 PUSH4 0x23B872DD GT PUSH2 0x159 JUMPI DUP1 PUSH4 0x3CCFD60B GT PUSH2 0x133 JUMPI DUP1 PUSH4 0x3CCFD60B EQ PUSH2 0x2ED JUMPI DUP1 PUSH4 0x42842E0E EQ PUSH2 0x302 JUMPI DUP1 PUSH4 0x6352211E EQ PUSH2 0x322 JUMPI DUP1 PUSH4 0x70A08231 EQ PUSH2 0x342 JUMPI PUSH1 0x0 DUP1 REVERT JUMPDEST DUP1 PUSH4 0x23B872DD EQ PUSH2 0x279 JUMPI DUP1 PUSH4 0x2A55205A EQ PUSH2 0x299 JUMPI DUP1 PUSH4 0x32CB6B0C EQ PUSH2 0x2D8 JUMPI PUSH1 0x0 DUP1 REVERT JUMPDEST DUP1 PUSH4 0x1FFC9A7 EQ PUSH2 0x1A1 JUMPI DUP1 PUSH4 0x6FDDE03 EQ PUSH2 0x1D6 JUMPI DUP1 PUSH4 0x81812FC EQ PUSH2 0x1F8 JUMPI DUP1 PUSH4 0x95EA7B3 EQ PUSH2 0x230 JUMPI DUP1 PUSH4 0x1249C58B EQ PUSH2 0x252 JUMPI DUP1 PUSH4 0x18160DDD EQ PUSH2 0x25A JUMPI JUMPDEST PUSH1 0x0 DUP1 REVERT JUMPDEST CALLVALUE DUP1 ISZERO PUSH2 0x1AD JUMPI PUSH1 0x0 DUP1 REVERT JUMPDEST POP PUSH2 0x1C1 PUSH2 0x1BC CALLDATASIZE PUSH1 0x4 PUSH2 0x2D09 JUMP JUMPDEST PUSH2 0x4DA JUMP JUMPDEST PUSH1 0x40 MLOAD SWAP1 ISZERO ISZERO DUP2 MSTORE PUSH1 0x20 ADD JUMPDEST PUSH1 0x40 MLOAD DUP1 SWAP2 SUB SWAP1 RETURN JUMPDEST CALLVALUE DUP1 ISZERO PUSH2 0x1E2 JUMPI PUSH1 0x0 DUP1 REVERT JUMPDEST POP PUSH2 0x1EB PUSH2 0x4EB JUMP JUMPDEST PUSH1 0x40 MLOAD PUSH2 0x1CD SWAP2 SWAP1 PUSH2 0x2D76 JUMP JUMPDEST CALLVALUE DUP1 ISZERO PUSH2 0x204 JUMPI PUSH1 0x0 DUP1 REVERT JUMPDEST POP PUSH2 0x218 PUSH2 0x213 CALLDATASIZE PUSH1 0x4 PUSH2 0x2D89 JUMP JUMPDEST PUSH2 0x57D JUMP JUMPDEST PUSH1 0x40 MLOAD PUSH1 0x1 PUSH1 0x1 PUSH1 0xA0 SHL SUB SWAP1 SWAP2 AND DUP2 MSTORE PUSH1 0x20 ADD PUSH2 0x1CD JUMP JUMPDEST CALLVALUE DUP1 ISZERO PUSH2 0x23C JUMPI PUSH1 0x0 DUP1 REVERT JUMPDEST POP PUSH2 0x250 PUSH2 0x24B CALLDATASIZE PUSH1 0x4 PUSH2 0x2DBE JUMP JUMPDEST PUSH2 0x5A6 JUMP JUMPDEST STOP JUMPDEST PUSH2 0x250 PUSH2 0x5B5 JUMP JUMPDEST CALLVALUE DUP1 ISZERO PUSH2 0x266 JUMPI PUSH1 0x0 DUP1 REVERT JUMPDEST POP PUSH1 0xA SLOAD JUMPDEST PUSH1 0x40 MLOAD SWAP1 DUP2 MSTORE PUSH1 0x20 ADD PUSH2 0x1CD JUMP JUMPDEST CALLVALUE DUP1 ISZERO PUSH2 0x285 JUMPI PUSH1 0x0 DUP1 REVERT JUMPDEST POP PUSH2 0x250 PUSH2 0x294 CALLDATASIZE PUSH1 0x4 PUSH2 0x2DE8 JUMP JUMPDEST PUSH2 0x5D2 JUMP JUMPDEST CALLVALUE DUP1 ISZERO PUSH2 0x2A5 JUMPI PUSH1 0x0 DUP1 REVERT JUMPDEST POP PUSH2 0x2B9 PUSH2 0x2B4 CALLDATASIZE PUSH1 0x4 PUSH2 0x2E24 JUMP JUMPDEST PUSH2 0x662 JUMP JUMPDEST PUSH1 0x40 DUP1 MLOAD PUSH1 0x1 PUSH1 0x1 PUSH1 0xA0 SHL SUB SWAP1 SWAP4 AND DUP4 MSTORE PUSH1 0x20 DUP4 ADD SWAP2 SWAP1 SWAP2 MSTORE ADD PUSH2 0x1CD JUMP JUMPDEST CALLVALUE DUP1 ISZERO PUSH2 0x2E4 JUMPI PUSH1 0x0 DUP1 REVERT JUMPDEST POP PUSH2 0x26B PUSH1 0x3D DUP2 JUMP JUMPDEST CALLVALUE DUP1 ISZERO PUSH2 0x2F9 JUMPI PUSH1 0x0 DUP1 REVERT JUMPDEST POP PUSH2 0x250 PUSH2 0x6E7 JUMP JUMPDEST CALLVALUE DUP1 ISZERO PUSH2 0x30E JUMPI PUSH1 0x0 DUP1 REVERT JUMPDEST POP PUSH2 0x250 PUSH2 0x31D CALLDATASIZE PUSH1 0x4 PUSH2 0x2DE8 JUMP JUMPDEST PUSH2 0x798 JUMP JUMPDEST CALLVALUE DUP1 ISZERO PUSH2 0x32E JUMPI PUSH1 0x0 DUP1 REVERT JUMPDEST POP PUSH2 0x218 PUSH2 0x33D CALLDATASIZE PUSH1 0x4 PUSH2 0x2D89 JUMP JUMPDEST PUSH2 0x7B8 JUMP JUMPDEST CALLVALUE DUP1 ISZERO PUSH2 0x34E JUMPI PUSH1 0x0 DUP1 REVERT JUMPDEST POP PUSH2 0x26B PUSH2 0x35D CALLDATASIZE PUSH1 0x4 PUSH2 0x2E46 JUMP JUMPDEST PUSH2 0x7C3 JUMP JUMPDEST CALLVALUE DUP1 ISZERO PUSH2 0x36E JUMPI PUSH1 0x0 DUP1 REVERT JUMPDEST POP PUSH2 0x250 PUSH2 0x80B JUMP JUMPDEST CALLVALUE DUP1 ISZERO PUSH2 0x383 JUMPI PUSH1 0x0 DUP1 REVERT JUMPDEST POP PUSH2 0x250 PUSH2 0x392 CALLDATASIZE PUSH1 0x4 PUSH2 0x2E46 JUMP JUMPDEST PUSH2 0x81D JUMP JUMPDEST CALLVALUE DUP1 ISZERO PUSH2 0x3A3 JUMPI PUSH1 0x0 DUP1 REVERT JUMPDEST POP PUSH2 0x26B PUSH2 0x3B2 CALLDATASIZE PUSH1 0x4 PUSH2 0x2D89 JUMP JUMPDEST PUSH2 0x82E JUMP JUMPDEST CALLVALUE DUP1 ISZERO PUSH2 0x3C3 JUMPI PUSH1 0x0 DUP1 REVERT JUMPDEST POP PUSH1 0x8 SLOAD PUSH1 0x1 PUSH1 0x1 PUSH1 0xA0 SHL SUB AND PUSH2 0x218 JUMP JUMPDEST CALLVALUE DUP1 ISZERO PUSH2 0x3E1 JUMPI PUSH1 0x0 DUP1 REVERT JUMPDEST POP PUSH2 0x250 PUSH2 0x3F0 CALLDATASIZE PUSH1 0x4 PUSH2 0x2E61 JUMP JUMPDEST PUSH2 0x876 JUMP JUMPDEST CALLVALUE DUP1 ISZERO PUSH2 0x401 JUMPI PUSH1 0x0 DUP1 REVERT JUMPDEST POP PUSH2 0x1EB PUSH2 0x8CD JUMP JUMPDEST CALLVALUE DUP1 ISZERO PUSH2 0x416 JUMPI PUSH1 0x0 DUP1 REVERT JUMPDEST POP PUSH2 0x250 PUSH2 0x425 CALLDATASIZE PUSH1 0x4 PUSH2 0x2EA4 JUMP JUMPDEST PUSH2 0x8DC JUMP JUMPDEST CALLVALUE DUP1 ISZERO PUSH2 0x436 JUMPI PUSH1 0x0 DUP1 REVERT JUMPDEST POP PUSH2 0x250 PUSH2 0x445 CALLDATASIZE PUSH1 0x4 PUSH2 0x2EEB JUMP JUMPDEST PUSH2 0x8E7 JUMP JUMPDEST CALLVALUE DUP1 ISZERO PUSH2 0x456 JUMPI PUSH1 0x0 DUP1 REVERT JUMPDEST POP PUSH2 0x26B PUSH7 0xDB8EC5C71E8000 DUP2 JUMP JUMPDEST CALLVALUE DUP1 ISZERO PUSH2 0x471 JUMPI PUSH1 0x0 DUP1 REVERT JUMPDEST POP PUSH2 0x1EB PUSH2 0x480 CALLDATASIZE PUSH1 0x4 PUSH2 0x2D89 JUMP JUMPDEST PUSH2 0x8FF JUMP JUMPDEST CALLVALUE DUP1 ISZERO PUSH2 0x491 JUMPI PUSH1 0x0 DUP1 REVERT JUMPDEST POP PUSH2 0x1EB PUSH2 0xAA9 JUMP JUMPDEST CALLVALUE DUP1 ISZERO PUSH2 0x4A6 JUMPI PUSH1 0x0 DUP1 REVERT JUMPDEST POP PUSH2 0x1C1 PUSH2 0x4B5 CALLDATASIZE PUSH1 0x4 PUSH2 0x2FC7 JUMP JUMPDEST PUSH2 0xB21 JUMP JUMPDEST CALLVALUE DUP1 ISZERO PUSH2 0x4C6 JUMPI PUSH1 0x0 DUP1 REVERT JUMPDEST POP PUSH2 0x250 PUSH2 0x4D5 CALLDATASIZE PUSH1 0x4 PUSH2 0x2E46 JUMP JUMPDEST PUSH2 0xB4F JUMP JUMPDEST PUSH1 0x0 PUSH2 0x4E5 DUP3 PUSH2 0xB8A JUMP JUMPDEST SWAP3 SWAP2 POP POP JUMP JUMPDEST PUSH1 0x60 PUSH1 0x0 DUP1 SLOAD PUSH2 0x4FA SWAP1 PUSH2 0x2FFA JUMP JUMPDEST DUP1 PUSH1 0x1F ADD PUSH1 0x20 DUP1 SWAP2 DIV MUL PUSH1 0x20 ADD PUSH1 0x40 MLOAD SWAP1 DUP2 ADD PUSH1 0x40 MSTORE DUP1 SWAP3 SWAP2 SWAP1 DUP2 DUP2 MSTORE PUSH1 0x20 ADD DUP3 DUP1 SLOAD PUSH2 0x526 SWAP1 PUSH2 0x2FFA JUMP JUMPDEST DUP1 ISZERO PUSH2 0x573 JUMPI DUP1 PUSH1 0x1F LT PUSH2 0x548 JUMPI PUSH2 0x100 DUP1 DUP4 SLOAD DIV MUL DUP4 MSTORE SWAP2 PUSH1 0x20 ADD SWAP2 PUSH2 0x573 JUMP JUMPDEST DUP3 ADD SWAP2 SWAP1 PUSH1 0x0 MSTORE PUSH1 0x20 PUSH1 0x0 KECCAK256 SWAP1 JUMPDEST DUP2 SLOAD DUP2 MSTORE SWAP1 PUSH1 0x1 ADD SWAP1 PUSH1 0x20 ADD DUP1 DUP4 GT PUSH2 0x556 JUMPI DUP3 SWAP1 SUB PUSH1 0x1F AND DUP3 ADD SWAP2 JUMPDEST POP POP POP POP POP SWAP1 POP SWAP1 JUMP JUMPDEST PUSH1 0x0 PUSH2 0x588 DUP3 PUSH2 0xBAF JUMP JUMPDEST POP PUSH1 0x0 DUP3 DUP2 MSTORE PUSH1 0x4 PUSH1 0x20 MSTORE PUSH1 0x40 SWAP1 KECCAK256 SLOAD PUSH1 0x1 PUSH1 0x1 PUSH1 0xA0 SHL SUB AND PUSH2 0x4E5 JUMP JUMPDEST PUSH2 0x5B1 DUP3 DUP3 CALLER PUSH2 0xBE8 JUMP JUMPDEST POP POP JUMP JUMPDEST PUSH2 0x5BD PUSH2 0xBF5 JUMP JUMPDEST PUSH2 0x5C6 CALLER PUSH2 0xC1F JUMP JUMPDEST PUSH2 0x5D0 PUSH1 0x1 PUSH1 0x9 SSTORE JUMP JUMPDEST JUMP JUMPDEST PUSH1 0x1 PUSH1 0x1 PUSH1 0xA0 SHL SUB DUP3 AND PUSH2 0x601 JUMPI PUSH1 0x40 MLOAD PUSH4 0x32505749 PUSH1 0xE1 SHL DUP2 MSTORE PUSH1 0x0 PUSH1 0x4 DUP3 ADD MSTORE PUSH1 0x24 ADD JUMPDEST PUSH1 0x40 MLOAD DUP1 SWAP2 SUB SWAP1 REVERT JUMPDEST PUSH1 0x0 PUSH2 0x60E DUP4 DUP4 CALLER PUSH2 0xDCF JUMP JUMPDEST SWAP1 POP DUP4 PUSH1 0x1 PUSH1 0x1 PUSH1 0xA0 SHL SUB AND DUP2 PUSH1 0x1 PUSH1 0x1 PUSH1 0xA0 SHL SUB AND EQ PUSH2 0x65C JUMPI PUSH1 0x40 MLOAD PUSH4 0x64283D7B PUSH1 0xE0 SHL DUP2 MSTORE PUSH1 0x1 PUSH1 0x1 PUSH1 0xA0 SHL SUB DUP1 DUP7 AND PUSH1 0x4 DUP4 ADD MSTORE PUSH1 0x24 DUP3 ADD DUP5 SWAP1 MSTORE DUP3 AND PUSH1 0x44 DUP3 ADD MSTORE PUSH1 0x64 ADD PUSH2 0x5F8 JUMP JUMPDEST POP POP POP POP JUMP JUMPDEST PUSH1 0x0 DUP3 DUP2 MSTORE PUSH1 0x7 PUSH1 0x20 MSTORE PUSH1 0x40 DUP2 KECCAK256 DUP1 SLOAD DUP3 SWAP2 SWAP1 PUSH1 0x1 PUSH1 0x1 PUSH1 0xA0 SHL SUB DUP2 AND SWAP1 PUSH1 0x1 PUSH1 0xA0 SHL SWAP1 DIV PUSH1 0x1 PUSH1 0x1 PUSH1 0x60 SHL SUB AND DUP2 PUSH2 0x6B6 JUMPI POP POP PUSH1 0x6 SLOAD PUSH1 0x1 PUSH1 0x1 PUSH1 0xA0 SHL SUB DUP2 AND SWAP1 PUSH1 0x1 PUSH1 0xA0 SHL SWAP1 DIV PUSH1 0x1 PUSH1 0x1 PUSH1 0x60 SHL SUB AND JUMPDEST PUSH1 0x0 PUSH2 0x2710 PUSH2 0x6CE PUSH1 0x1 PUSH1 0x1 PUSH1 0x60 SHL SUB DUP5 AND DUP10 PUSH2 0x304A JUMP JUMPDEST PUSH2 0x6D8 SWAP2 SWAP1 PUSH2 0x3061 JUMP JUMPDEST SWAP3 SWAP9 SWAP3 SWAP8 POP SWAP2 SWAP6 POP POP POP POP POP POP JUMP JUMPDEST PUSH2 0x6EF PUSH2 0xECA JUMP JUMPDEST PUSH1 0x0 PUSH2 0x703 PUSH1 0x8 SLOAD PUSH1 0x1 PUSH1 0x1 PUSH1 0xA0 SHL SUB AND SWAP1 JUMP JUMPDEST PUSH1 0x1 PUSH1 0x1 PUSH1 0xA0 SHL SUB AND SELFBALANCE PUSH1 0x40 MLOAD PUSH1 0x0 PUSH1 0x40 MLOAD DUP1 DUP4 SUB DUP2 DUP6 DUP8 GAS CALL SWAP3 POP POP POP RETURNDATASIZE DUP1 PUSH1 0x0 DUP2 EQ PUSH2 0x74D JUMPI PUSH1 0x40 MLOAD SWAP2 POP PUSH1 0x1F NOT PUSH1 0x3F RETURNDATASIZE ADD AND DUP3 ADD PUSH1 0x40 MSTORE RETURNDATASIZE DUP3 MSTORE RETURNDATASIZE PUSH1 0x0 PUSH1 0x20 DUP5 ADD RETURNDATACOPY PUSH2 0x752 JUMP JUMPDEST PUSH1 0x60 SWAP2 POP JUMPDEST POP POP SWAP1 POP DUP1 PUSH2 0x795 JUMPI PUSH1 0x40 MLOAD PUSH3 0x461BCD PUSH1 0xE5 SHL DUP2 MSTORE PUSH1 0x20 PUSH1 0x4 DUP3 ADD MSTORE PUSH1 0xF PUSH1 0x24 DUP3 ADD MSTORE PUSH15 0x15DA5D1A191C985DC819985A5B1959 PUSH1 0x8A SHL PUSH1 0x44 DUP3 ADD MSTORE PUSH1 0x64 ADD PUSH2 0x5F8 JUMP JUMPDEST POP JUMP JUMPDEST PUSH2 0x7B3 DUP4 DUP4 DUP4 PUSH1 0x40 MLOAD DUP1 PUSH1 0x20 ADD PUSH1 0x40 MSTORE DUP1 PUSH1 0x0 DUP2 MSTORE POP PUSH2 0x8E7 JUMP JUMPDEST POP POP POP JUMP JUMPDEST PUSH1 0x0 PUSH2 0x4E5 DUP3 PUSH2 0xBAF JUMP JUMPDEST PUSH1 0x0 PUSH1 0x1 PUSH1 0x1 PUSH1 0xA0 SHL SUB DUP3 AND PUSH2 0x7EF JUMPI PUSH1 0x40 MLOAD PUSH4 0x22718AD9 PUSH1 0xE2 SHL DUP2 MSTORE PUSH1 0x0 PUSH1 0x4 DUP3 ADD MSTORE PUSH1 0x24 ADD PUSH2 0x5F8 JUMP JUMPDEST POP PUSH1 0x1 PUSH1 0x1 PUSH1 0xA0 SHL SUB AND PUSH1 0x0 SWAP1 DUP2 MSTORE PUSH1 0x3 PUSH1 0x20 MSTORE PUSH1 0x40 SWAP1 KECCAK256 SLOAD SWAP1 JUMP JUMPDEST PUSH2 0x813 PUSH2 0xECA JUMP JUMPDEST PUSH2 0x5D0 PUSH1 0x0 PUSH2 0xEF7 JUMP JUMPDEST PUSH2 0x825 PUSH2 0xECA JUMP JUMPDEST PUSH2 0x795 DUP2 PUSH2 0xC1F JUMP JUMPDEST PUSH1 0x0 DUP2 DUP2 MSTORE PUSH1 0x2 PUSH1 0x20 MSTORE PUSH1 0x40 DUP2 KECCAK256 SLOAD PUSH1 0x1 PUSH1 0x1 PUSH1 0xA0 SHL SUB AND PUSH2 0x863 JUMPI PUSH1 0x40 MLOAD PUSH4 0x367F2F2F PUSH1 0xE1 SHL DUP2 MSTORE PUSH1 0x4 ADD PUSH1 0x40 MLOAD DUP1 SWAP2 SUB SWAP1 REVERT JUMPDEST POP PUSH1 0x0 SWAP1 DUP2 MSTORE PUSH1 0xB PUSH1 0x20 MSTORE PUSH1 0x40 SWAP1 KECCAK256 SLOAD SWAP1 JUMP JUMPDEST PUSH2 0x87E PUSH2 0xECA JUMP JUMPDEST PUSH2 0x3E8 DUP2 PUSH1 0x1 PUSH1 0x1 PUSH1 0x60 SHL SUB AND GT ISZERO PUSH2 0x8C3 JUMPI PUSH1 0x40 MLOAD PUSH3 0x461BCD PUSH1 0xE5 SHL DUP2 MSTORE PUSH1 0x20 PUSH1 0x4 DUP3 ADD MSTORE PUSH1 0x7 PUSH1 0x24 DUP3 ADD MSTORE PUSH7 0x4D617820313025 PUSH1 0xC8 SHL PUSH1 0x44 DUP3 ADD MSTORE PUSH1 0x64 ADD PUSH2 0x5F8 JUMP JUMPDEST PUSH2 0x5B1 DUP3 DUP3 PUSH2 0xF49 JUMP JUMPDEST PUSH1 0x60 PUSH1 0x1 DUP1 SLOAD PUSH2 0x4FA SWAP1 PUSH2 0x2FFA JUMP JUMPDEST PUSH2 0x5B1 CALLER DUP4 DUP4 PUSH2 0xFEC JUMP JUMPDEST PUSH2 0x8F2 DUP5 DUP5 DUP5 PUSH2 0x5D2 JUMP JUMPDEST PUSH2 0x65C CALLER DUP6 DUP6 DUP6 DUP6 PUSH2 0x108B JUMP JUMPDEST PUSH1 0x0 DUP2 DUP2 MSTORE PUSH1 0x2 PUSH1 0x20 MSTORE PUSH1 0x40 SWAP1 KECCAK256 SLOAD PUSH1 0x60 SWAP1 PUSH1 0x1 PUSH1 0x1 PUSH1 0xA0 SHL SUB AND PUSH2 0x937 JUMPI PUSH1 0x40 MLOAD PUSH4 0x367F2F2F PUSH1 0xE1 SHL DUP2 MSTORE PUSH1 0x4 ADD PUSH1 0x40 MLOAD DUP1 SWAP2 SUB SWAP1 REVERT JUMPDEST PUSH1 0x0 DUP3 DUP2 MSTORE PUSH1 0xB PUSH1 0x20 MSTORE PUSH1 0x40 DUP2 KECCAK256 SLOAD SWAP1 PUSH8 0xFFFFFFFFFFFFFFFF PUSH8 0x14057B7EF767814F PUSH8 0x5851F42D4C957F2D DUP1 DUP6 MUL DUP3 ADD DUP4 DUP2 AND SWAP5 SWAP2 DUP6 MUL SWAP1 SWAP3 ADD SWAP1 SWAP3 AND SWAP2 SWAP1 PUSH5 0x100000000 SWAP1 PUSH2 0x98E SWAP1 PUSH4 0xFFFFFFFF AND PUSH1 0x8 PUSH2 0x304A JUMP JUMPDEST PUSH2 0x998 SWAP2 SWAP1 PUSH2 0x3061 JUMP JUMPDEST SWAP1 POP PUSH1 0x0 PUSH5 0x100000000 PUSH2 0x9B3 PUSH4 0xFFFFFFFF DUP6 AND PUSH1 0x4 PUSH2 0x304A JUMP JUMPDEST PUSH2 0x9BD SWAP2 SWAP1 PUSH2 0x3061 JUMP JUMPDEST SWAP1 POP PUSH1 0x0 PUSH2 0x9CB DUP9 DUP5 PUSH2 0x11B6 JUMP JUMPDEST SWAP1 POP PUSH1 0x0 PUSH2 0x9D8 DUP3 PUSH2 0x1216 JUMP JUMPDEST SWAP1 POP PUSH1 0x0 PUSH2 0x9EE PUSH2 0x9E8 DUP10 PUSH2 0x123C JUMP JUMPDEST DUP12 PUSH2 0x138C JUMP JUMPDEST SWAP1 POP PUSH1 0x0 PUSH2 0x9FB DUP3 PUSH2 0x1216 JUMP JUMPDEST SWAP1 POP PUSH1 0x0 PUSH2 0xA08 DUP7 PUSH2 0x13ED JUMP JUMPDEST PUSH2 0xA11 DUP9 PUSH2 0x14BD JUMP JUMPDEST PUSH2 0xA1A DUP15 PUSH2 0x163F JUMP JUMPDEST PUSH1 0x40 MLOAD PUSH1 0x20 ADD PUSH2 0xA2C SWAP4 SWAP3 SWAP2 SWAP1 PUSH2 0x309F JUMP JUMPDEST PUSH1 0x40 MLOAD PUSH1 0x20 DUP2 DUP4 SUB SUB DUP2 MSTORE SWAP1 PUSH1 0x40 MSTORE SWAP1 POP PUSH1 0x0 PUSH2 0xA48 DUP14 PUSH2 0x163F JUMP JUMPDEST DUP6 DUP5 DUP5 PUSH1 0x40 MLOAD PUSH1 0x20 ADD PUSH2 0xA5E SWAP5 SWAP4 SWAP3 SWAP2 SWAP1 PUSH2 0x31FD JUMP JUMPDEST PUSH1 0x40 MLOAD PUSH1 0x20 DUP2 DUP4 SUB SUB DUP2 MSTORE SWAP1 PUSH1 0x40 MSTORE SWAP1 POP PUSH2 0xA78 DUP2 PUSH2 0x1216 JUMP JUMPDEST PUSH1 0x40 MLOAD PUSH1 0x20 ADD PUSH2 0xA88 SWAP2 SWAP1 PUSH2 0x339F JUMP JUMPDEST PUSH1 0x40 MLOAD PUSH1 0x20 DUP2 DUP4 SUB SUB DUP2 MSTORE SWAP1 PUSH1 0x40 MSTORE SWAP12 POP POP POP POP POP POP POP POP POP POP POP POP SWAP2 SWAP1 POP JUMP JUMPDEST PUSH1 0x60 PUSH1 0x0 PUSH2 0xAD2 PUSH2 0xAC2 PUSH1 0x8 SLOAD PUSH1 0x1 PUSH1 0x1 PUSH1 0xA0 SHL SUB AND SWAP1 JUMP JUMPDEST PUSH1 0x1 PUSH1 0x1 PUSH1 0xA0 SHL SUB AND PUSH1 0x14 PUSH2 0x16D2 JUMP JUMPDEST PUSH1 0x40 MLOAD PUSH1 0x20 ADD PUSH2 0xAE2 SWAP2 SWAP1 PUSH2 0x33E4 JUMP JUMPDEST PUSH1 0x40 MLOAD PUSH1 0x20 DUP2 DUP4 SUB SUB DUP2 MSTORE SWAP1 PUSH1 0x40 MSTORE SWAP1 POP PUSH2 0xAFC DUP2 PUSH2 0x1216 JUMP JUMPDEST PUSH1 0x40 MLOAD PUSH1 0x20 ADD PUSH2 0xB0C SWAP2 SWAP1 PUSH2 0x339F JUMP JUMPDEST PUSH1 0x40 MLOAD PUSH1 0x20 DUP2 DUP4 SUB SUB DUP2 MSTORE SWAP1 PUSH1 0x40 MSTORE SWAP2 POP POP SWAP1 JUMP JUMPDEST PUSH1 0x1 PUSH1 0x1 PUSH1 0xA0 SHL SUB SWAP2 DUP3 AND PUSH1 0x0 SWAP1 DUP2 MSTORE PUSH1 0x5 PUSH1 0x20 SWAP1 DUP2 MSTORE PUSH1 0x40 DUP1 DUP4 KECCAK256 SWAP4 SWAP1 SWAP5 AND DUP3 MSTORE SWAP2 SWAP1 SWAP2 MSTORE KECCAK256 SLOAD PUSH1 0xFF AND SWAP1 JUMP JUMPDEST PUSH2 0xB57 PUSH2 0xECA JUMP JUMPDEST PUSH1 0x1 PUSH1 0x1 PUSH1 0xA0 SHL SUB DUP2 AND PUSH2 0xB81 JUMPI PUSH1 0x40 MLOAD PUSH4 0x1E4FBDF7 PUSH1 0xE0 SHL DUP2 MSTORE PUSH1 0x0 PUSH1 0x4 DUP3 ADD MSTORE PUSH1 0x24 ADD PUSH2 0x5F8 JUMP JUMPDEST PUSH2 0x795 DUP2 PUSH2 0xEF7 JUMP JUMPDEST PUSH1 0x0 PUSH1 0x1 PUSH1 0x1 PUSH1 0xE0 SHL SUB NOT DUP3 AND PUSH4 0x152A902D PUSH1 0xE1 SHL EQ DUP1 PUSH2 0x4E5 JUMPI POP PUSH2 0x4E5 DUP3 PUSH2 0x1852 JUMP JUMPDEST PUSH1 0x0 DUP2 DUP2 MSTORE PUSH1 0x2 PUSH1 0x20 MSTORE PUSH1 0x40 DUP2 KECCAK256 SLOAD PUSH1 0x1 PUSH1 0x1 PUSH1 0xA0 SHL SUB AND DUP1 PUSH2 0x4E5 JUMPI PUSH1 0x40 MLOAD PUSH4 0x7E273289 PUSH1 0xE0 SHL DUP2 MSTORE PUSH1 0x4 DUP2 ADD DUP5 SWAP1 MSTORE PUSH1 0x24 ADD PUSH2 0x5F8 JUMP JUMPDEST PUSH2 0x7B3 DUP4 DUP4 DUP4 PUSH1 0x1 PUSH2 0x18A2 JUMP JUMPDEST PUSH1 0x2 PUSH1 0x9 SLOAD SUB PUSH2 0xC18 JUMPI PUSH1 0x40 MLOAD PUSH4 0x3EE5AEB5 PUSH1 0xE0 SHL DUP2 MSTORE PUSH1 0x4 ADD PUSH1 0x40 MLOAD DUP1 SWAP2 SUB SWAP1 REVERT JUMPDEST PUSH1 0x2 PUSH1 0x9 SSTORE JUMP JUMPDEST PUSH1 0x3D PUSH1 0xA SLOAD LT PUSH2 0xC42 JUMPI PUSH1 0x40 MLOAD PUSH4 0x52DF9FE5 PUSH1 0xE0 SHL DUP2 MSTORE PUSH1 0x4 ADD PUSH1 0x40 MLOAD DUP1 SWAP2 SUB SWAP1 REVERT JUMPDEST PUSH1 0x8 SLOAD PUSH1 0x1 PUSH1 0x1 PUSH1 0xA0 SHL SUB AND CALLER EQ DUP1 ISZERO SWAP1 PUSH2 0xC63 JUMPI POP PUSH7 0xDB8EC5C71E8000 CALLVALUE LT JUMPDEST ISZERO PUSH2 0xC81 JUMPI PUSH1 0x40 MLOAD PUSH4 0xCD1C8867 PUSH1 0xE0 SHL DUP2 MSTORE PUSH1 0x4 ADD PUSH1 0x40 MLOAD DUP1 SWAP2 SUB SWAP1 REVERT JUMPDEST PUSH1 0x0 PUSH1 0xA PUSH1 0x0 DUP2 SLOAD PUSH2 0xC92 SWAP1 PUSH2 0x3539 JUMP JUMPDEST SWAP2 DUP3 SWAP1 SSTORE POP SWAP1 POP PUSH1 0x0 PUSH2 0xCA6 PUSH1 0x1 NUMBER PUSH2 0x3552 JUMP JUMPDEST PUSH1 0x40 DUP1 MLOAD SWAP2 BLOCKHASH PUSH1 0x20 DUP4 ADD MSTORE DUP2 ADD DUP4 SWAP1 MSTORE PUSH1 0x60 DUP5 DUP2 SHL PUSH12 0xFFFFFFFFFFFFFFFFFFFFFFFF NOT AND SWAP1 DUP3 ADD MSTORE TIMESTAMP PUSH1 0x74 DUP3 ADD MSTORE PUSH1 0x94 ADD PUSH1 0x40 DUP1 MLOAD PUSH1 0x1F NOT DUP2 DUP5 SUB ADD DUP2 MSTORE SWAP2 DUP2 MSTORE DUP2 MLOAD PUSH1 0x20 SWAP3 DUP4 ADD KECCAK256 PUSH1 0x0 DUP6 DUP2 MSTORE PUSH1 0xB SWAP1 SWAP4 MSTORE SWAP2 KECCAK256 DUP2 SWAP1 SSTORE SWAP1 POP PUSH2 0xD0A DUP4 DUP4 PUSH2 0x19A8 JUMP JUMPDEST DUP2 DUP4 PUSH1 0x1 PUSH1 0x1 PUSH1 0xA0 SHL SUB AND PUSH32 0xC263B302AEC62D29105026245F19E16F8E0137066CCD4A8BD941F716BD4096BB DUP4 PUSH1 0x40 MLOAD PUSH2 0xD46 SWAP2 DUP2 MSTORE PUSH1 0x20 ADD SWAP1 JUMP JUMPDEST PUSH1 0x40 MLOAD DUP1 SWAP2 SUB SWAP1 LOG3 PUSH1 0x0 PUSH7 0xDB8EC5C71E8000 CALLVALUE GT PUSH2 0xD65 JUMPI PUSH1 0x0 PUSH2 0xD76 JUMP JUMPDEST PUSH2 0xD76 PUSH7 0xDB8EC5C71E8000 CALLVALUE PUSH2 0x3552 JUMP JUMPDEST SWAP1 POP DUP1 ISZERO PUSH2 0x65C JUMPI PUSH1 0x40 MLOAD PUSH1 0x0 SWAP1 CALLER SWAP1 DUP4 SWAP1 DUP4 DUP2 DUP2 DUP2 DUP6 DUP8 GAS CALL SWAP3 POP POP POP RETURNDATASIZE DUP1 PUSH1 0x0 DUP2 EQ PUSH2 0xDC0 JUMPI PUSH1 0x40 MLOAD SWAP2 POP PUSH1 0x1F NOT PUSH1 0x3F RETURNDATASIZE ADD AND DUP3 ADD PUSH1 0x40 MSTORE RETURNDATASIZE DUP3 MSTORE RETURNDATASIZE PUSH1 0x0 PUSH1 0x20 DUP5 ADD RETURNDATACOPY PUSH2 0xDC5 JUMP JUMPDEST PUSH1 0x60 SWAP2 POP JUMPDEST POP POP POP POP POP POP POP POP JUMP JUMPDEST PUSH1 0x0 DUP3 DUP2 MSTORE PUSH1 0x2 PUSH1 0x20 MSTORE PUSH1 0x40 DUP2 KECCAK256 SLOAD PUSH1 0x1 PUSH1 0x1 PUSH1 0xA0 SHL SUB SWAP1 DUP2 AND SWAP1 DUP4 AND ISZERO PUSH2 0xDFC JUMPI PUSH2 0xDFC DUP2 DUP5 DUP7 PUSH2 0x1A0D JUMP JUMPDEST PUSH1 0x1 PUSH1 0x1 PUSH1 0xA0 SHL SUB DUP2 AND ISZERO PUSH2 0xE3A JUMPI PUSH2 0xE19 PUSH1 0x0 DUP6 PUSH1 0x0 DUP1 PUSH2 0x18A2 JUMP JUMPDEST PUSH1 0x1 PUSH1 0x1 PUSH1 0xA0 SHL SUB DUP2 AND PUSH1 0x0 SWAP1 DUP2 MSTORE PUSH1 0x3 PUSH1 0x20 MSTORE PUSH1 0x40 SWAP1 KECCAK256 DUP1 SLOAD PUSH1 0x0 NOT ADD SWAP1 SSTORE JUMPDEST PUSH1 0x1 PUSH1 0x1 PUSH1 0xA0 SHL SUB DUP6 AND ISZERO PUSH2 0xE69 JUMPI PUSH1 0x1 PUSH1 0x1 PUSH1 0xA0 SHL SUB DUP6 AND PUSH1 0x0 SWAP1 DUP2 MSTORE PUSH1 0x3 PUSH1 0x20 MSTORE PUSH1 0x40 SWAP1 KECCAK256 DUP1 SLOAD PUSH1 0x1 ADD SWAP1 SSTORE JUMPDEST PUSH1 0x0 DUP5 DUP2 MSTORE PUSH1 0x2 PUSH1 0x20 MSTORE PUSH1 0x40 DUP1 DUP3 KECCAK256 DUP1 SLOAD PUSH1 0x1 PUSH1 0x1 PUSH1 0xA0 SHL SUB NOT AND PUSH1 0x1 PUSH1 0x1 PUSH1 0xA0 SHL SUB DUP10 DUP2 AND SWAP2 DUP3 OR SWAP1 SWAP3 SSTORE SWAP2 MLOAD DUP8 SWAP4 SWAP2 DUP6 AND SWAP2 PUSH32 0xDDF252AD1BE2C89B69C2B068FC378DAA952BA7F163C4A11628F55A4DF523B3EF SWAP2 LOG4 SWAP1 POP JUMPDEST SWAP4 SWAP3 POP POP POP JUMP JUMPDEST PUSH1 0x8 SLOAD PUSH1 0x1 PUSH1 0x1 PUSH1 0xA0 SHL SUB AND CALLER EQ PUSH2 0x5D0 JUMPI PUSH1 0x40 MLOAD PUSH4 0x118CDAA7 PUSH1 0xE0 SHL DUP2 MSTORE CALLER PUSH1 0x4 DUP3 ADD MSTORE PUSH1 0x24 ADD PUSH2 0x5F8 JUMP JUMPDEST PUSH1 0x8 DUP1 SLOAD PUSH1 0x1 PUSH1 0x1 PUSH1 0xA0 SHL SUB DUP4 DUP2 AND PUSH1 0x1 PUSH1 0x1 PUSH1 0xA0 SHL SUB NOT DUP4 AND DUP2 OR SWAP1 SWAP4 SSTORE PUSH1 0x40 MLOAD SWAP2 AND SWAP2 SWAP1 DUP3 SWAP1 PUSH32 0x8BE0079C531659141344CD1FD0A4F28419497F9722A3DAAFE3B4186F6B6457E0 SWAP1 PUSH1 0x0 SWAP1 LOG3 POP POP JUMP JUMPDEST PUSH2 0x2710 PUSH1 0x1 PUSH1 0x1 PUSH1 0x60 SHL SUB DUP3 AND DUP2 LT ISZERO PUSH2 0xF88 JUMPI PUSH1 0x40 MLOAD PUSH4 0x6F483D09 PUSH1 0xE0 SHL DUP2 MSTORE PUSH1 0x1 PUSH1 0x1 PUSH1 0x60 SHL SUB DUP4 AND PUSH1 0x4 DUP3 ADD MSTORE PUSH1 0x24 DUP2 ADD DUP3 SWAP1 MSTORE PUSH1 0x44 ADD PUSH2 0x5F8 JUMP JUMPDEST PUSH1 0x1 PUSH1 0x1 PUSH1 0xA0 SHL SUB DUP4 AND PUSH2 0xFB2 JUMPI PUSH1 0x40 MLOAD PUSH4 0x5B6CC805 PUSH1 0xE1 SHL DUP2 MSTORE PUSH1 0x0 PUSH1 0x4 DUP3 ADD MSTORE PUSH1 0x24 ADD PUSH2 0x5F8 JUMP JUMPDEST POP PUSH1 0x40 DUP1 MLOAD DUP1 DUP3 ADD SWAP1 SWAP2 MSTORE PUSH1 0x1 PUSH1 0x1 PUSH1 0xA0 SHL SUB SWAP1 SWAP3 AND DUP1 DUP4 MSTORE PUSH1 0x1 PUSH1 0x1 PUSH1 0x60 SHL SUB SWAP1 SWAP2 AND PUSH1 0x20 SWAP1 SWAP3 ADD DUP3 SWAP1 MSTORE PUSH1 0x1 PUSH1 0xA0 SHL SWAP1 SWAP2 MUL OR PUSH1 0x6 SSTORE JUMP JUMPDEST PUSH1 0x1 PUSH1 0x1 PUSH1 0xA0 SHL SUB DUP3 AND PUSH2 0x101E JUMPI PUSH1 0x40 MLOAD PUSH4 0xB611743 PUSH1 0xE3 SHL DUP2 MSTORE PUSH1 0x1 PUSH1 0x1 PUSH1 0xA0 SHL SUB DUP4 AND PUSH1 0x4 DUP3 ADD MSTORE PUSH1 0x24 ADD PUSH2 0x5F8 JUMP JUMPDEST PUSH1 0x1 PUSH1 0x1 PUSH1 0xA0 SHL SUB DUP4 DUP2 AND PUSH1 0x0 DUP2 DUP2 MSTORE PUSH1 0x5 PUSH1 0x20 SWAP1 DUP2 MSTORE PUSH1 0x40 DUP1 DUP4 KECCAK256 SWAP5 DUP8 AND DUP1 DUP5 MSTORE SWAP5 DUP3 MSTORE SWAP2 DUP3 SWAP1 KECCAK256 DUP1 SLOAD PUSH1 0xFF NOT AND DUP7 ISZERO ISZERO SWAP1 DUP2 OR SWAP1 SWAP2 SSTORE SWAP2 MLOAD SWAP2 DUP3 MSTORE PUSH32 0x17307EAB39AB6107E8899845AD3D59BD9653F200F220920489CA2B5937696C31 SWAP2 ADD PUSH1 0x40 MLOAD DUP1 SWAP2 SUB SWAP1 LOG3 POP POP POP JUMP JUMPDEST PUSH1 0x1 PUSH1 0x1 PUSH1 0xA0 SHL SUB DUP4 AND EXTCODESIZE ISZERO PUSH2 0x11AF JUMPI PUSH1 0x40 MLOAD PUSH4 0xA85BD01 PUSH1 0xE1 SHL DUP2 MSTORE PUSH1 0x1 PUSH1 0x1 PUSH1 0xA0 SHL SUB DUP5 AND SWAP1 PUSH4 0x150B7A02 SWAP1 PUSH2 0x10CD SWAP1 DUP9 SWAP1 DUP9 SWAP1 DUP8 SWAP1 DUP8 SWAP1 PUSH1 0x4 ADD PUSH2 0x3565 JUMP JUMPDEST PUSH1 0x20 PUSH1 0x40 MLOAD DUP1 DUP4 SUB DUP2 PUSH1 0x0 DUP8 GAS CALL SWAP3 POP POP POP DUP1 ISZERO PUSH2 0x1108 JUMPI POP PUSH1 0x40 DUP1 MLOAD PUSH1 0x1F RETURNDATASIZE SWAP1 DUP2 ADD PUSH1 0x1F NOT AND DUP3 ADD SWAP1 SWAP3 MSTORE PUSH2 0x1105 SWAP2 DUP2 ADD SWAP1 PUSH2 0x35A2 JUMP JUMPDEST PUSH1 0x1 JUMPDEST PUSH2 0x1171 JUMPI RETURNDATASIZE DUP1 DUP1 ISZERO PUSH2 0x1136 JUMPI PUSH1 0x40 MLOAD SWAP2 POP PUSH1 0x1F NOT PUSH1 0x3F RETURNDATASIZE ADD AND DUP3 ADD PUSH1 0x40 MSTORE RETURNDATASIZE DUP3 MSTORE RETURNDATASIZE PUSH1 0x0 PUSH1 0x20 DUP5 ADD RETURNDATACOPY PUSH2 0x113B JUMP JUMPDEST PUSH1 0x60 SWAP2 POP JUMPDEST POP DUP1 MLOAD PUSH1 0x0 SUB PUSH2 0x1169 JUMPI PUSH1 0x40 MLOAD PUSH4 0x32505749 PUSH1 0xE1 SHL DUP2 MSTORE PUSH1 0x1 PUSH1 0x1 PUSH1 0xA0 SHL SUB DUP6 AND PUSH1 0x4 DUP3 ADD MSTORE PUSH1 0x24 ADD PUSH2 0x5F8 JUMP JUMPDEST DUP1 MLOAD PUSH1 0x20 DUP3 ADD REVERT JUMPDEST PUSH1 0x1 PUSH1 0x1 PUSH1 0xE0 SHL SUB NOT DUP2 AND PUSH4 0xA85BD01 PUSH1 0xE1 SHL EQ PUSH2 0x11AD JUMPI PUSH1 0x40 MLOAD PUSH4 0x32505749 PUSH1 0xE1 SHL DUP2 MSTORE PUSH1 0x1 PUSH1 0x1 PUSH1 0xA0 SHL SUB DUP6 AND PUSH1 0x4 DUP3 ADD MSTORE PUSH1 0x24 ADD PUSH2 0x5F8 JUMP JUMPDEST POP JUMPDEST POP POP POP POP POP JUMP JUMPDEST PUSH1 0x60 PUSH1 0x0 DUP1 PUSH1 0x0 DUP1 PUSH1 0x0 PUSH2 0x11C9 DUP8 PUSH2 0x1A71 JUMP JUMPDEST SWAP5 POP SWAP5 POP SWAP5 POP SWAP5 POP SWAP5 POP DUP5 DUP5 DUP5 DUP5 DUP5 DUP6 DUP7 PUSH2 0x11E3 DUP16 PUSH2 0x163F JUMP JUMPDEST PUSH1 0x40 MLOAD PUSH1 0x20 ADD PUSH2 0x11FA SWAP9 SWAP8 SWAP7 SWAP6 SWAP5 SWAP4 SWAP3 SWAP2 SWAP1 PUSH2 0x35BF JUMP JUMPDEST PUSH1 0x40 MLOAD PUSH1 0x20 DUP2 DUP4 SUB SUB DUP2 MSTORE SWAP1 PUSH1 0x40 MSTORE SWAP6 POP POP POP POP POP POP SWAP3 SWAP2 POP POP JUMP JUMPDEST PUSH1 0x60 PUSH2 0x4E5 DUP3 PUSH1 0x40 MLOAD DUP1 PUSH1 0x60 ADD PUSH1 0x40 MSTORE DUP1 PUSH1 0x40 DUP2 MSTORE PUSH1 0x20 ADD PUSH2 0x4578 PUSH1 0x40 SWAP2 CODECOPY PUSH1 0x1 PUSH2 0x202E JUMP JUMPDEST PUSH1 0x40 DUP1 MLOAD DUP1 DUP3 ADD DUP3 MSTORE PUSH1 0x10 DUP2 MSTORE PUSH16 0x181899199A1A9B1B9C1CB0B131B232B3 PUSH1 0x81 SHL PUSH1 0x20 DUP3 ADD MSTORE DUP2 MLOAD DUP3 DUP2 MSTORE PUSH1 0x60 DUP2 DUP2 ADD DUP5 MSTORE SWAP3 PUSH1 0x0 SWAP2 SWAP1 PUSH1 0x20 DUP3 ADD DUP2 DUP1 CALLDATASIZE DUP4 CALLDATACOPY ADD SWAP1 POP POP SWAP1 POP PUSH1 0x0 JUMPDEST PUSH1 0x20 DUP2 LT ISZERO PUSH2 0x1384 JUMPI DUP3 PUSH1 0x4 DUP7 DUP4 PUSH1 0x20 DUP2 LT PUSH2 0x12A3 JUMPI PUSH2 0x12A3 PUSH2 0x390E JUMP JUMPDEST DUP4 MLOAD SWAP2 SWAP1 BYTE SWAP1 SWAP2 SHR PUSH1 0xFF AND SWAP1 DUP2 LT PUSH2 0x12BD JUMPI PUSH2 0x12BD PUSH2 0x390E JUMP JUMPDEST ADD PUSH1 0x20 ADD MLOAD PUSH1 0x1 PUSH1 0x1 PUSH1 0xF8 SHL SUB NOT AND DUP3 PUSH2 0x12D8 DUP4 PUSH1 0x2 PUSH2 0x304A JUMP JUMPDEST DUP2 MLOAD DUP2 LT PUSH2 0x12E8 JUMPI PUSH2 0x12E8 PUSH2 0x390E JUMP JUMPDEST PUSH1 0x20 ADD ADD SWAP1 PUSH1 0x1 PUSH1 0x1 PUSH1 0xF8 SHL SUB NOT AND SWAP1 DUP2 PUSH1 0x0 BYTE SWAP1 MSTORE8 POP DUP3 DUP6 DUP3 PUSH1 0x20 DUP2 LT PUSH2 0x1312 JUMPI PUSH2 0x1312 PUSH2 0x390E JUMP JUMPDEST BYTE PUSH1 0xF8 SHL PUSH1 0xF8 SHR PUSH1 0xF AND PUSH1 0xFF AND DUP2 MLOAD DUP2 LT PUSH2 0x132F JUMPI PUSH2 0x132F PUSH2 0x390E JUMP JUMPDEST ADD PUSH1 0x20 ADD MLOAD PUSH1 0x1 PUSH1 0x1 PUSH1 0xF8 SHL SUB NOT AND DUP3 PUSH2 0x134A DUP4 PUSH1 0x2 PUSH2 0x304A JUMP JUMPDEST PUSH2 0x1355 SWAP1 PUSH1 0x1 PUSH2 0x3924 JUMP JUMPDEST DUP2 MLOAD DUP2 LT PUSH2 0x1365 JUMPI PUSH2 0x1365 PUSH2 0x390E JUMP JUMPDEST PUSH1 0x20 ADD ADD SWAP1 PUSH1 0x1 PUSH1 0x1 PUSH1 0xF8 SHL SUB NOT AND SWAP1 DUP2 PUSH1 0x0 BYTE SWAP1 MSTORE8 POP PUSH1 0x1 ADD PUSH2 0x1285 JUMP JUMPDEST POP SWAP4 SWAP3 POP POP POP JUMP JUMPDEST PUSH1 0x60 PUSH2 0x1396 PUSH2 0x21AE JUMP JUMPDEST DUP4 PUSH2 0x13A0 DUP5 PUSH2 0x163F JUMP JUMPDEST PUSH2 0x13A8 PUSH2 0x21D3 JUMP JUMPDEST PUSH2 0x13B0 PUSH2 0x21F6 JUMP JUMPDEST PUSH2 0x13B8 PUSH2 0x2207 JUMP JUMPDEST PUSH2 0x13C0 PUSH2 0x273E JUMP JUMPDEST PUSH1 0x40 MLOAD PUSH1 0x20 ADD PUSH2 0x13D6 SWAP8 SWAP7 SWAP6 SWAP5 SWAP4 SWAP3 SWAP2 SWAP1 PUSH2 0x3937 JUMP JUMPDEST PUSH1 0x40 MLOAD PUSH1 0x20 DUP2 DUP4 SUB SUB DUP2 MSTORE SWAP1 PUSH1 0x40 MSTORE SWAP1 POP SWAP3 SWAP2 POP POP JUMP JUMPDEST PUSH1 0x60 DUP2 PUSH1 0x0 SUB PUSH2 0x1423 JUMPI POP POP PUSH1 0x40 DUP1 MLOAD DUP1 DUP3 ADD SWAP1 SWAP2 MSTORE PUSH1 0x10 DUP2 MSTORE PUSH16 0x436972636C6520446F6D696E616E6365 PUSH1 0x80 SHL PUSH1 0x20 DUP3 ADD MSTORE SWAP1 JUMP JUMPDEST DUP2 PUSH1 0x1 SUB PUSH2 0x1454 JUMPI POP POP PUSH1 0x40 DUP1 MLOAD DUP1 DUP3 ADD SWAP1 SWAP2 MSTORE PUSH1 0xD DUP2 MSTORE PUSH13 0x11194814DD1A5A9B0811DC9A59 PUSH1 0x9A SHL PUSH1 0x20 DUP3 ADD MSTORE SWAP1 JUMP JUMPDEST DUP2 PUSH1 0x2 SUB PUSH2 0x1495 JUMPI POP POP PUSH1 0x40 DUP1 MLOAD DUP1 DUP3 ADD SWAP1 SWAP2 MSTORE PUSH1 0x17 DUP2 MSTORE PUSH32 0x436F6E737472756374697669737420446961676F6E616C000000000000000000 PUSH1 0x20 DUP3 ADD MSTORE SWAP1 JUMP JUMPDEST POP POP PUSH1 0x40 DUP1 MLOAD DUP1 DUP3 ADD SWAP1 SWAP2 MSTORE PUSH1 0xC DUP2 MSTORE PUSH12 0x4E657374656420466F726D73 PUSH1 0xA0 SHL PUSH1 0x20 DUP3 ADD MSTORE SWAP1 JUMP JUMPDEST PUSH1 0x60 DUP2 PUSH1 0x0 SUB PUSH2 0x14F2 JUMPI POP POP PUSH1 0x40 DUP1 MLOAD DUP1 DUP3 ADD SWAP1 SWAP2 MSTORE PUSH1 0xF DUP2 MSTORE PUSH15 0x436C61737369632042617568617573 PUSH1 0x88 SHL PUSH1 0x20 DUP3 ADD MSTORE SWAP1 JUMP JUMPDEST DUP2 PUSH1 0x1 SUB PUSH2 0x1522 JUMPI POP POP PUSH1 0x40 DUP1 MLOAD DUP1 DUP3 ADD SWAP1 SWAP2 MSTORE PUSH1 0xC DUP2 MSTORE PUSH12 0x4461726B205072696D617279 PUSH1 0xA0 SHL PUSH1 0x20 DUP3 ADD MSTORE SWAP1 JUMP JUMPDEST DUP2 PUSH1 0x2 SUB PUSH2 0x1552 JUMPI POP POP PUSH1 0x40 DUP1 MLOAD DUP1 DUP3 ADD SWAP1 SWAP2 MSTORE PUSH1 0xC DUP2 MSTORE PUSH12 0xAECAD2DAC2E4408AC2E4E8D PUSH1 0xA3 SHL PUSH1 0x20 DUP3 ADD MSTORE SWAP1 JUMP JUMPDEST DUP2 PUSH1 0x3 SUB PUSH2 0x1584 JUMPI POP POP PUSH1 0x40 DUP1 MLOAD DUP1 DUP3 ADD SWAP1 SWAP2 MSTORE PUSH1 0xE DUP2 MSTORE PUSH14 0x10DBDB9CDD1C9D58DD1A5D9A5CDD PUSH1 0x92 SHL PUSH1 0x20 DUP3 ADD MSTORE SWAP1 JUMP JUMPDEST DUP2 PUSH1 0x4 SUB PUSH2 0x15B5 JUMPI POP POP PUSH1 0x40 DUP1 MLOAD DUP1 DUP3 ADD SWAP1 SWAP2 MSTORE PUSH1 0xD DUP2 MSTORE PUSH13 0x4F63687265205072696D617279 PUSH1 0x98 SHL PUSH1 0x20 DUP3 ADD MSTORE SWAP1 JUMP JUMPDEST DUP2 PUSH1 0x5 SUB PUSH2 0x15E7 JUMPI POP POP PUSH1 0x40 DUP1 MLOAD DUP1 DUP3 ADD SWAP1 SWAP2 MSTORE PUSH1 0xE DUP2 MSTORE PUSH14 0x5761726D2047656F6D6574726963 PUSH1 0x90 SHL PUSH1 0x20 DUP3 ADD MSTORE SWAP1 JUMP JUMPDEST DUP2 PUSH1 0x6 SUB PUSH2 0x1618 JUMPI POP POP PUSH1 0x40 DUP1 MLOAD DUP1 DUP3 ADD SWAP1 SWAP2 MSTORE PUSH1 0xD DUP2 MSTORE PUSH13 0x4E696768742042617568617573 PUSH1 0x98 SHL PUSH1 0x20 DUP3 ADD MSTORE SWAP1 JUMP JUMPDEST POP POP PUSH1 0x40 DUP1 MLOAD DUP1 DUP3 ADD SWAP1 SWAP2 MSTORE PUSH1 0xB DUP2 MSTORE PUSH11 0x4465737361752047726179 PUSH1 0xA8 SHL PUSH1 0x20 DUP3 ADD MSTORE SWAP1 JUMP JUMPDEST PUSH1 0x60 PUSH1 0x0 PUSH2 0x164C DUP4 PUSH2 0x27D9 JUMP JUMPDEST PUSH1 0x1 ADD SWAP1 POP PUSH1 0x0 DUP2 PUSH8 0xFFFFFFFFFFFFFFFF DUP2 GT ISZERO PUSH2 0x166C JUMPI PUSH2 0x166C PUSH2 0x2ED5 JUMP JUMPDEST PUSH1 0x40 MLOAD SWAP1 DUP1 DUP3 MSTORE DUP1 PUSH1 0x1F ADD PUSH1 0x1F NOT AND PUSH1 0x20 ADD DUP3 ADD PUSH1 0x40 MSTORE DUP1 ISZERO PUSH2 0x1696 JUMPI PUSH1 0x20 DUP3 ADD DUP2 DUP1 CALLDATASIZE DUP4 CALLDATACOPY ADD SWAP1 POP JUMPDEST POP SWAP1 POP DUP2 DUP2 ADD PUSH1 0x20 ADD JUMPDEST PUSH1 0x0 NOT ADD PUSH16 0x181899199A1A9B1B9C1CB0B131B232B3 PUSH1 0x81 SHL PUSH1 0xA DUP7 MOD BYTE DUP2 MSTORE8 PUSH1 0xA DUP6 DIV SWAP5 POP DUP5 PUSH2 0x16A0 JUMPI POP SWAP4 SWAP3 POP POP POP JUMP JUMPDEST PUSH1 0x60 DUP3 PUSH1 0x0 PUSH2 0x16E2 DUP5 PUSH1 0x2 PUSH2 0x304A JUMP JUMPDEST PUSH2 0x16ED SWAP1 PUSH1 0x2 PUSH2 0x3924 JUMP JUMPDEST PUSH8 0xFFFFFFFFFFFFFFFF DUP2 GT ISZERO PUSH2 0x1705 JUMPI PUSH2 0x1705 PUSH2 0x2ED5 JUMP JUMPDEST PUSH1 0x40 MLOAD SWAP1 DUP1 DUP3 MSTORE DUP1 PUSH1 0x1F ADD PUSH1 0x1F NOT AND PUSH1 0x20 ADD DUP3 ADD PUSH1 0x40 MSTORE DUP1 ISZERO PUSH2 0x172F JUMPI PUSH1 0x20 DUP3 ADD DUP2 DUP1 CALLDATASIZE DUP4 CALLDATACOPY ADD SWAP1 POP JUMPDEST POP SWAP1 POP PUSH1 0x3 PUSH1 0xFC SHL DUP2 PUSH1 0x0 DUP2 MLOAD DUP2 LT PUSH2 0x174A JUMPI PUSH2 0x174A PUSH2 0x390E JUMP JUMPDEST PUSH1 0x20 ADD ADD SWAP1 PUSH1 0x1 PUSH1 0x1 PUSH1 0xF8 SHL SUB NOT AND SWAP1 DUP2 PUSH1 0x0 BYTE SWAP1 MSTORE8 POP PUSH1 0xF PUSH1 0xFB SHL DUP2 PUSH1 0x1 DUP2 MLOAD DUP2 LT PUSH2 0x1779 JUMPI PUSH2 0x1779 PUSH2 0x390E JUMP JUMPDEST PUSH1 0x20 ADD ADD SWAP1 PUSH1 0x1 PUSH1 0x1 PUSH1 0xF8 SHL SUB NOT AND SWAP1 DUP2 PUSH1 0x0 BYTE SWAP1 MSTORE8 POP PUSH1 0x0 PUSH2 0x179D DUP6 PUSH1 0x2 PUSH2 0x304A JUMP JUMPDEST PUSH2 0x17A8 SWAP1 PUSH1 0x1 PUSH2 0x3924 JUMP JUMPDEST SWAP1 POP JUMPDEST PUSH1 0x1 DUP2 GT ISZERO PUSH2 0x1820 JUMPI PUSH16 0x181899199A1A9B1B9C1CB0B131B232B3 PUSH1 0x81 SHL DUP4 PUSH1 0xF AND PUSH1 0x10 DUP2 LT PUSH2 0x17DC JUMPI PUSH2 0x17DC PUSH2 0x390E JUMP JUMPDEST BYTE PUSH1 0xF8 SHL DUP3 DUP3 DUP2 MLOAD DUP2 LT PUSH2 0x17F2 JUMPI PUSH2 0x17F2 PUSH2 0x390E JUMP JUMPDEST PUSH1 0x20 ADD ADD SWAP1 PUSH1 0x1 PUSH1 0x1 PUSH1 0xF8 SHL SUB NOT AND SWAP1 DUP2 PUSH1 0x0 BYTE SWAP1 MSTORE8 POP PUSH1 0x4 SWAP3 SWAP1 SWAP3 SHR SWAP2 PUSH2 0x1819 DUP2 PUSH2 0x3B22 JUMP JUMPDEST SWAP1 POP PUSH2 0x17AB JUMP JUMPDEST POP DUP2 ISZERO PUSH2 0x184A JUMPI PUSH1 0x40 MLOAD PUSH4 0xE22E27EB PUSH1 0xE0 SHL DUP2 MSTORE PUSH1 0x4 DUP2 ADD DUP7 SWAP1 MSTORE PUSH1 0x24 DUP2 ADD DUP6 SWAP1 MSTORE PUSH1 0x44 ADD PUSH2 0x5F8 JUMP JUMPDEST SWAP5 SWAP4 POP POP POP POP JUMP JUMPDEST PUSH1 0x0 PUSH1 0x1 PUSH1 0x1 PUSH1 0xE0 SHL SUB NOT DUP3 AND PUSH4 0x80AC58CD PUSH1 0xE0 SHL EQ DUP1 PUSH2 0x1883 JUMPI POP PUSH1 0x1 PUSH1 0x1 PUSH1 0xE0 SHL SUB NOT DUP3 AND PUSH4 0x5B5E139F PUSH1 0xE0 SHL EQ JUMPDEST DUP1 PUSH2 0x4E5 JUMPI POP PUSH4 0x1FFC9A7 PUSH1 0xE0 SHL PUSH1 0x1 PUSH1 0x1 PUSH1 0xE0 SHL SUB NOT DUP4 AND EQ PUSH2 0x4E5 JUMP JUMPDEST DUP1 DUP1 PUSH2 0x18B6 JUMPI POP PUSH1 0x1 PUSH1 0x1 PUSH1 0xA0 SHL SUB DUP3 AND ISZERO ISZERO JUMPDEST ISZERO PUSH2 0x1978 JUMPI PUSH1 0x0 PUSH2 0x18C6 DUP5 PUSH2 0xBAF JUMP JUMPDEST SWAP1 POP PUSH1 0x1 PUSH1 0x1 PUSH1 0xA0 SHL SUB DUP4 AND ISZERO DUP1 ISZERO SWAP1 PUSH2 0x18F2 JUMPI POP DUP3 PUSH1 0x1 PUSH1 0x1 PUSH1 0xA0 SHL SUB AND DUP2 PUSH1 0x1 PUSH1 0x1 PUSH1 0xA0 SHL SUB AND EQ ISZERO JUMPDEST DUP1 ISZERO PUSH2 0x1905 JUMPI POP PUSH2 0x1903 DUP2 DUP5 PUSH2 0xB21 JUMP JUMPDEST ISZERO JUMPDEST ISZERO PUSH2 0x192E JUMPI PUSH1 0x40 MLOAD PUSH4 0xA9FBF51F PUSH1 0xE0 SHL DUP2 MSTORE PUSH1 0x1 PUSH1 0x1 PUSH1 0xA0 SHL SUB DUP5 AND PUSH1 0x4 DUP3 ADD MSTORE PUSH1 0x24 ADD PUSH2 0x5F8 JUMP JUMPDEST DUP2 ISZERO PUSH2 0x1976 JUMPI DUP4 DUP6 PUSH1 0x1 PUSH1 0x1 PUSH1 0xA0 SHL SUB AND DUP3 PUSH1 0x1 PUSH1 0x1 PUSH1 0xA0 SHL SUB AND PUSH32 0x8C5BE1E5EBEC7D5BD14F71427D1E84F3DD0314C0F7B2291E5B200AC8C7C3B925 PUSH1 0x40 MLOAD PUSH1 0x40 MLOAD DUP1 SWAP2 SUB SWAP1 LOG4 JUMPDEST POP JUMPDEST POP POP PUSH1 0x0 SWAP1 DUP2 MSTORE PUSH1 0x4 PUSH1 0x20 MSTORE PUSH1 0x40 SWAP1 KECCAK256 DUP1 SLOAD PUSH1 0x1 PUSH1 0x1 PUSH1 0xA0 SHL SUB NOT AND PUSH1 0x1 PUSH1 0x1 PUSH1 0xA0 SHL SUB SWAP3 SWAP1 SWAP3 AND SWAP2 SWAP1 SWAP2 OR SWAP1 SSTORE JUMP JUMPDEST PUSH1 0x1 PUSH1 0x1 PUSH1 0xA0 SHL SUB DUP3 AND PUSH2 0x19D2 JUMPI PUSH1 0x40 MLOAD PUSH4 0x32505749 PUSH1 0xE1 SHL DUP2 MSTORE PUSH1 0x0 PUSH1 0x4 DUP3 ADD MSTORE PUSH1 0x24 ADD PUSH2 0x5F8 JUMP JUMPDEST PUSH1 0x0 PUSH2 0x19E0 DUP4 DUP4 PUSH1 0x0 PUSH2 0xDCF JUMP JUMPDEST SWAP1 POP PUSH1 0x1 PUSH1 0x1 PUSH1 0xA0 SHL SUB DUP2 AND ISZERO PUSH2 0x7B3 JUMPI PUSH1 0x40 MLOAD PUSH4 0x39E35637 PUSH1 0xE1 SHL DUP2 MSTORE PUSH1 0x0 PUSH1 0x4 DUP3 ADD MSTORE PUSH1 0x24 ADD PUSH2 0x5F8 JUMP JUMPDEST PUSH2 0x1A18 DUP4 DUP4 DUP4 PUSH2 0x28B1 JUMP JUMPDEST PUSH2 0x7B3 JUMPI PUSH1 0x1 PUSH1 0x1 PUSH1 0xA0 SHL SUB DUP4 AND PUSH2 0x1A46 JUMPI PUSH1 0x40 MLOAD PUSH4 0x7E273289 PUSH1 0xE0 SHL DUP2 MSTORE PUSH1 0x4 DUP2 ADD DUP3 SWAP1 MSTORE PUSH1 0x24 ADD PUSH2 0x5F8 JUMP JUMPDEST PUSH1 0x40 MLOAD PUSH4 0x177E802F PUSH1 0xE0 SHL DUP2 MSTORE PUSH1 0x1 PUSH1 0x1 PUSH1 0xA0 SHL SUB DUP4 AND PUSH1 0x4 DUP3 ADD MSTORE PUSH1 0x24 DUP2 ADD DUP3 SWAP1 MSTORE PUSH1 0x44 ADD PUSH2 0x5F8 JUMP JUMPDEST PUSH1 0x60 DUP1 PUSH1 0x60 DUP1 PUSH1 0x60 DUP6 PUSH1 0x0 SUB PUSH2 0x1B30 JUMPI PUSH1 0x40 MLOAD DUP1 PUSH1 0x40 ADD PUSH1 0x40 MSTORE DUP1 PUSH1 0x7 DUP2 MSTORE PUSH1 0x20 ADD PUSH7 0x2346384637463 PUSH1 0xCC SHL DUP2 MSTORE POP PUSH1 0x40 MLOAD DUP1 PUSH1 0x40 ADD PUSH1 0x40 MSTORE DUP1 PUSH1 0x7 DUP2 MSTORE PUSH1 0x20 ADD PUSH7 0x46886C6470647 PUSH1 0xCB SHL DUP2 MSTORE POP PUSH1 0x40 MLOAD DUP1 PUSH1 0x40 ADD PUSH1 0x40 MSTORE DUP1 PUSH1 0x7 DUP2 MSTORE PUSH1 0x20 ADD PUSH7 0x1198A11A231B99 PUSH1 0xC9 SHL DUP2 MSTORE POP PUSH1 0x40 MLOAD DUP1 PUSH1 0x40 ADD PUSH1 0x40 MSTORE DUP1 PUSH1 0x7 DUP2 MSTORE PUSH1 0x20 ADD PUSH7 0x11A3199CA19899 PUSH1 0xC9 SHL DUP2 MSTORE POP PUSH1 0x40 MLOAD DUP1 PUSH1 0x40 ADD PUSH1 0x40 MSTORE DUP1 PUSH1 0x7 DUP2 MSTORE PUSH1 0x20 ADD PUSH7 0x23314131413141 PUSH1 0xC8 SHL DUP2 MSTORE POP SWAP5 POP SWAP5 POP SWAP5 POP SWAP5 POP SWAP5 POP PUSH2 0x2025 JUMP JUMPDEST DUP6 PUSH1 0x1 SUB PUSH2 0x1BE7 JUMPI PUSH1 0x40 MLOAD DUP1 PUSH1 0x40 ADD PUSH1 0x40 MSTORE DUP1 PUSH1 0x7 DUP2 MSTORE PUSH1 0x20 ADD PUSH7 0x8CC110C110C11 PUSH1 0xCA SHL DUP2 MSTORE POP PUSH1 0x40 MLOAD DUP1 PUSH1 0x40 ADD PUSH1 0x40 MSTORE DUP1 PUSH1 0x7 DUP2 MSTORE PUSH1 0x20 ADD PUSH7 0x11A29B199C9A1B PUSH1 0xC9 SHL DUP2 MSTORE POP PUSH1 0x40 MLOAD DUP1 PUSH1 0x40 ADD PUSH1 0x40 MSTORE DUP1 PUSH1 0x7 DUP2 MSTORE PUSH1 0x20 ADD PUSH7 0x23463444333545 PUSH1 0xC8 SHL DUP2 MSTORE POP PUSH1 0x40 MLOAD DUP1 PUSH1 0x40 ADD PUSH1 0x40 MSTORE DUP1 PUSH1 0x7 DUP2 MSTORE PUSH1 0x20 ADD PUSH7 0x1198A09C999B23 PUSH1 0xC9 SHL DUP2 MSTORE POP PUSH1 0x40 MLOAD DUP1 PUSH1 0x40 ADD PUSH1 0x40 MSTORE DUP1 PUSH1 0x7 DUP2 MSTORE PUSH1 0x20 ADD PUSH7 0x23463546354635 PUSH1 0xC8 SHL DUP2 MSTORE POP SWAP5 POP SWAP5 POP SWAP5 POP SWAP5 POP SWAP5 POP PUSH2 0x2025 JUMP JUMPDEST DUP6 PUSH1 0x2 SUB PUSH2 0x1C9E JUMPI PUSH1 0x40 MLOAD DUP1 PUSH1 0x40 ADD PUSH1 0x40 MSTORE DUP1 PUSH1 0x7 DUP2 MSTORE PUSH1 0x20 ADD PUSH7 0x468C6A8C608A7 PUSH1 0xCB SHL DUP2 MSTORE POP PUSH1 0x40 MLOAD DUP1 PUSH1 0x40 ADD PUSH1 0x40 MSTORE DUP1 PUSH1 0x7 DUP2 MSTORE PUSH1 0x20 ADD PUSH7 0x23324534303537 PUSH1 0xC8 SHL DUP2 MSTORE POP PUSH1 0x40 MLOAD DUP1 PUSH1 0x40 ADD PUSH1 0x40 MSTORE DUP1 PUSH1 0x7 DUP2 MSTORE PUSH1 0x20 ADD PUSH7 0x23433834423331 PUSH1 0xC8 SHL DUP2 MSTORE POP PUSH1 0x40 MLOAD DUP1 PUSH1 0x40 ADD PUSH1 0x40 MSTORE DUP1 PUSH1 0x7 DUP2 MSTORE PUSH1 0x20 ADD PUSH7 0x23303438413831 PUSH1 0xC8 SHL DUP2 MSTORE POP PUSH1 0x40 MLOAD DUP1 PUSH1 0x40 ADD PUSH1 0x40 MSTORE DUP1 PUSH1 0x7 DUP2 MSTORE PUSH1 0x20 ADD PUSH7 0x23313131313131 PUSH1 0xC8 SHL DUP2 MSTORE POP SWAP5 POP SWAP5 POP SWAP5 POP SWAP5 POP SWAP5 POP PUSH2 0x2025 JUMP JUMPDEST DUP6 PUSH1 0x3 SUB PUSH2 0x1D55 JUMPI PUSH1 0x40 MLOAD DUP1 PUSH1 0x40 ADD PUSH1 0x40 MSTORE DUP1 PUSH1 0x7 DUP2 MSTORE PUSH1 0x20 ADD PUSH7 0x23463546354635 PUSH1 0xC8 SHL DUP2 MSTORE POP PUSH1 0x40 MLOAD DUP1 PUSH1 0x40 ADD PUSH1 0x40 MSTORE DUP1 PUSH1 0x7 DUP2 MSTORE PUSH1 0x20 ADD PUSH7 0x2342383030303 PUSH1 0xCC SHL DUP2 MSTORE POP PUSH1 0x40 MLOAD DUP1 PUSH1 0x40 ADD PUSH1 0x40 MSTORE DUP1 PUSH1 0x7 DUP2 MSTORE PUSH1 0x20 ADD PUSH7 0x23313131313131 PUSH1 0xC8 SHL DUP2 MSTORE POP PUSH1 0x40 MLOAD DUP1 PUSH1 0x40 ADD PUSH1 0x40 MSTORE DUP1 PUSH1 0x7 DUP2 MSTORE PUSH1 0x20 ADD PUSH7 0x23393939393939 PUSH1 0xC8 SHL DUP2 MSTORE POP PUSH1 0x40 MLOAD DUP1 PUSH1 0x40 ADD PUSH1 0x40 MSTORE DUP1 PUSH1 0x7 DUP2 MSTORE PUSH1 0x20 ADD PUSH7 0x2345304530453 PUSH1 0xCC SHL DUP2 MSTORE POP SWAP5 POP SWAP5 POP SWAP5 POP SWAP5 POP SWAP5 POP PUSH2 0x2025 JUMP JUMPDEST DUP6 PUSH1 0x4 SUB PUSH2 0x1E0C JUMPI PUSH1 0x40 MLOAD DUP1 PUSH1 0x40 ADD PUSH1 0x40 MSTORE DUP1 PUSH1 0x7 DUP2 MSTORE PUSH1 0x20 ADD PUSH7 0x23464646384531 PUSH1 0xC8 SHL DUP2 MSTORE POP PUSH1 0x40 MLOAD DUP1 PUSH1 0x40 ADD PUSH1 0x40 MSTORE DUP1 PUSH1 0x7 DUP2 MSTORE PUSH1 0x20 ADD PUSH7 0x23314131413141 PUSH1 0xC8 SHL DUP2 MSTORE POP PUSH1 0x40 MLOAD DUP1 PUSH1 0x40 ADD PUSH1 0x40 MSTORE DUP1 PUSH1 0x7 DUP2 MSTORE PUSH1 0x20 ADD PUSH7 0x46866C6470647 PUSH1 0xCB SHL DUP2 MSTORE POP PUSH1 0x40 MLOAD DUP1 PUSH1 0x40 ADD PUSH1 0x40 MSTORE DUP1 PUSH1 0x7 DUP2 MSTORE PUSH1 0x20 ADD PUSH7 0x2331353635433 PUSH1 0xCC SHL DUP2 MSTORE POP PUSH1 0x40 MLOAD DUP1 PUSH1 0x40 ADD PUSH1 0x40 MSTORE DUP1 PUSH1 0x7 DUP2 MSTORE PUSH1 0x20 ADD PUSH7 0x23394536423041 PUSH1 0xC8 SHL DUP2 MSTORE POP SWAP5 POP SWAP5 POP SWAP5 POP SWAP5 POP SWAP5 POP PUSH2 0x2025 JUMP JUMPDEST DUP6 PUSH1 0x5 SUB PUSH2 0x1EC3 JUMPI PUSH1 0x40 MLOAD DUP1 PUSH1 0x40 ADD PUSH1 0x40 MSTORE DUP1 PUSH1 0x7 DUP2 MSTORE PUSH1 0x20 ADD PUSH7 0x23463746374637 PUSH1 0xC8 SHL DUP2 MSTORE POP PUSH1 0x40 MLOAD DUP1 PUSH1 0x40 ADD PUSH1 0x40 MSTORE DUP1 PUSH1 0x7 DUP2 MSTORE PUSH1 0x20 ADD PUSH7 0x23464636423335 PUSH1 0xC8 SHL DUP2 MSTORE POP PUSH1 0x40 MLOAD DUP1 PUSH1 0x40 ADD PUSH1 0x40 MSTORE DUP1 PUSH1 0x7 DUP2 MSTORE PUSH1 0x20 ADD PUSH7 0x466060688A727 PUSH1 0xCB SHL DUP2 MSTORE POP PUSH1 0x40 MLOAD DUP1 PUSH1 0x40 ADD PUSH1 0x40 MSTORE DUP1 PUSH1 0x7 DUP2 MSTORE PUSH1 0x20 ADD PUSH7 0x23454545454545 PUSH1 0xC8 SHL DUP2 MSTORE POP PUSH1 0x40 MLOAD DUP1 PUSH1 0x40 ADD PUSH1 0x40 MSTORE DUP1 PUSH1 0x7 DUP2 MSTORE PUSH1 0x20 ADD PUSH7 0x23313131313131 PUSH1 0xC8 SHL DUP2 MSTORE POP SWAP5 POP SWAP5 POP SWAP5 POP SWAP5 POP SWAP5 POP PUSH2 0x2025 JUMP JUMPDEST DUP6 PUSH1 0x6 SUB PUSH2 0x1F7A JUMPI PUSH1 0x40 MLOAD DUP1 PUSH1 0x40 ADD PUSH1 0x40 MSTORE DUP1 PUSH1 0x7 DUP2 MSTORE PUSH1 0x20 ADD PUSH7 0x8CC4D0C4D0C4D PUSH1 0xCA SHL DUP2 MSTORE POP PUSH1 0x40 MLOAD DUP1 PUSH1 0x40 ADD PUSH1 0x40 MSTORE DUP1 PUSH1 0x7 DUP2 MSTORE PUSH1 0x20 ADD PUSH7 0x23464642373033 PUSH1 0xC8 SHL DUP2 MSTORE POP PUSH1 0x40 MLOAD DUP1 PUSH1 0x40 ADD PUSH1 0x40 MSTORE DUP1 PUSH1 0x7 DUP2 MSTORE PUSH1 0x20 ADD PUSH7 0x2346423835303 PUSH1 0xCC SHL DUP2 MSTORE POP PUSH1 0x40 MLOAD DUP1 PUSH1 0x40 ADD PUSH1 0x40 MSTORE DUP1 PUSH1 0x7 DUP2 MSTORE PUSH1 0x20 ADD PUSH7 0x23303233303437 PUSH1 0xC8 SHL DUP2 MSTORE POP PUSH1 0x40 MLOAD DUP1 PUSH1 0x40 ADD PUSH1 0x40 MSTORE DUP1 PUSH1 0x7 DUP2 MSTORE PUSH1 0x20 ADD PUSH7 0x119C22A1A0A29B PUSH1 0xC9 SHL DUP2 MSTORE POP SWAP5 POP SWAP5 POP SWAP5 POP SWAP5 POP SWAP5 POP PUSH2 0x2025 JUMP JUMPDEST PUSH1 0x40 MLOAD DUP1 PUSH1 0x40 ADD PUSH1 0x40 MSTORE DUP1 PUSH1 0x7 DUP2 MSTORE PUSH1 0x20 ADD PUSH7 0x468A708A708A7 PUSH1 0xCB SHL DUP2 MSTORE POP PUSH1 0x40 MLOAD DUP1 PUSH1 0x40 ADD PUSH1 0x40 MSTORE DUP1 PUSH1 0x7 DUP2 MSTORE PUSH1 0x20 ADD PUSH7 0x23323132353239 PUSH1 0xC8 SHL DUP2 MSTORE POP PUSH1 0x40 MLOAD DUP1 PUSH1 0x40 ADD PUSH1 0x40 MSTORE DUP1 PUSH1 0x7 DUP2 MSTORE PUSH1 0x20 ADD PUSH7 0x11A198199C9921 PUSH1 0xC9 SHL DUP2 MSTORE POP PUSH1 0x40 MLOAD DUP1 PUSH1 0x40 ADD PUSH1 0x40 MSTORE DUP1 PUSH1 0x7 DUP2 MSTORE PUSH1 0x20 ADD PUSH7 0x23323437314133 PUSH1 0xC8 SHL DUP2 MSTORE POP PUSH1 0x40 MLOAD DUP1 PUSH1 0x40 ADD PUSH1 0x40 MSTORE DUP1 PUSH1 0x7 DUP2 MSTORE PUSH1 0x20 ADD PUSH7 0x8CD90CDCD4DD1 PUSH1 0xCA SHL DUP2 MSTORE POP SWAP5 POP SWAP5 POP SWAP5 POP SWAP5 POP SWAP5 POP JUMPDEST SWAP2 SWAP4 SWAP6 SWAP1 SWAP3 SWAP5 POP JUMP JUMPDEST PUSH1 0x60 DUP4 MLOAD PUSH1 0x0 SUB PUSH2 0x204E JUMPI POP PUSH1 0x40 DUP1 MLOAD PUSH1 0x20 DUP2 ADD SWAP1 SWAP2 MSTORE PUSH1 0x0 DUP2 MSTORE PUSH2 0xEC3 JUMP JUMPDEST PUSH1 0x0 DUP3 PUSH2 0x207F JUMPI PUSH1 0x3 DUP6 MLOAD PUSH1 0x4 PUSH2 0x2065 SWAP2 SWAP1 PUSH2 0x304A JUMP JUMPDEST PUSH2 0x2070 SWAP1 PUSH1 0x2 PUSH2 0x3924 JUMP JUMPDEST PUSH2 0x207A SWAP2 SWAP1 PUSH2 0x3061 JUMP JUMPDEST PUSH2 0x20A4 JUMP JUMPDEST PUSH1 0x3 DUP6 MLOAD PUSH1 0x2 PUSH2 0x208F SWAP2 SWAP1 PUSH2 0x3924 JUMP JUMPDEST PUSH2 0x2099 SWAP2 SWAP1 PUSH2 0x3061 JUMP JUMPDEST PUSH2 0x20A4 SWAP1 PUSH1 0x4 PUSH2 0x304A JUMP JUMPDEST SWAP1 POP PUSH1 0x0 DUP2 PUSH8 0xFFFFFFFFFFFFFFFF DUP2 GT ISZERO PUSH2 0x20C1 JUMPI PUSH2 0x20C1 PUSH2 0x2ED5 JUMP JUMPDEST PUSH1 0x40 MLOAD SWAP1 DUP1 DUP3 MSTORE DUP1 PUSH1 0x1F ADD PUSH1 0x1F NOT AND PUSH1 0x20 ADD DUP3 ADD PUSH1 0x40 MSTORE DUP1 ISZERO PUSH2 0x20EB JUMPI PUSH1 0x20 DUP3 ADD DUP2 DUP1 CALLDATASIZE DUP4 CALLDATACOPY ADD SWAP1 POP JUMPDEST POP SWAP1 POP PUSH1 0x1 DUP6 ADD PUSH1 0x20 DUP3 ADD DUP8 DUP9 MLOAD DUP10 ADD PUSH1 0x20 DUP2 ADD DUP1 MLOAD PUSH1 0x0 DUP3 MSTORE JUMPDEST DUP3 DUP5 LT ISZERO PUSH2 0x2161 JUMPI PUSH1 0x3 DUP5 ADD SWAP4 POP DUP4 MLOAD PUSH1 0x3F DUP2 PUSH1 0x12 SHR AND DUP8 ADD MLOAD DUP7 MSTORE8 PUSH1 0x1 DUP7 ADD SWAP6 POP PUSH1 0x3F DUP2 PUSH1 0xC SHR AND DUP8 ADD MLOAD DUP7 MSTORE8 PUSH1 0x1 DUP7 ADD SWAP6 POP PUSH1 0x3F DUP2 PUSH1 0x6 SHR AND DUP8 ADD MLOAD DUP7 MSTORE8 PUSH1 0x1 DUP7 ADD SWAP6 POP PUSH1 0x3F DUP2 AND DUP8 ADD MLOAD DUP7 MSTORE8 POP PUSH1 0x1 DUP6 ADD SWAP5 POP PUSH2 0x2106 JUMP JUMPDEST SWAP1 MSTORE POP POP DUP6 ISZERO PUSH2 0x21A2 JUMPI PUSH1 0x3 DUP9 MLOAD MOD PUSH1 0x1 DUP2 EQ PUSH2 0x2185 JUMPI PUSH1 0x2 DUP2 EQ PUSH2 0x2198 JUMPI PUSH2 0x21A0 JUMP JUMPDEST PUSH1 0x3D PUSH1 0x1 DUP4 SUB MSTORE8 PUSH1 0x3D PUSH1 0x2 DUP4 SUB MSTORE8 PUSH2 0x21A0 JUMP JUMPDEST PUSH1 0x3D PUSH1 0x1 DUP4 SUB MSTORE8 JUMPDEST POP JUMPDEST POP SWAP1 SWAP7 SWAP6 POP POP POP POP POP POP JUMP JUMPDEST PUSH1 0x60 PUSH1 0x40 MLOAD PUSH1 0x20 ADD PUSH2 0x21BF SWAP1 PUSH2 0x3B39 JUMP JUMPDEST PUSH1 0x40 MLOAD PUSH1 0x20 DUP2 DUP4 SUB SUB DUP2 MSTORE SWAP1 PUSH1 0x40 MSTORE SWAP1 POP SWAP1 JUMP JUMPDEST PUSH1 0x60 PUSH2 0x21DD PUSH2 0x2914 JUMP JUMPDEST PUSH2 0x21E5 PUSH2 0x2B62 JUMP JUMPDEST PUSH1 0x40 MLOAD PUSH1 0x20 ADD PUSH2 0x21BF SWAP3 SWAP2 SWAP1 PUSH2 0x402E JUMP JUMPDEST PUSH1 0x60 PUSH1 0x40 MLOAD PUSH1 0x20 ADD PUSH2 0x21BF SWAP1 PUSH2 0x405D JUMP JUMPDEST PUSH1 0x60 PUSH1 0x40 MLOAD PUSH1 0x20 ADD PUSH2 0x21BF SWAP1 PUSH21 0x66756E6374696F6E2064726177436F6E737428297B PUSH1 0x58 SHL DUP2 MSTORE PUSH11 0x62672870616C5B305D293B PUSH1 0xA8 SHL PUSH1 0x15 DUP3 ADD DUP2 SWAP1 MSTORE PUSH32 0x636F6E737420616E673D5B50492F362C50492F342C50492F335D5B666C6F6F72 PUSH1 0x20 DUP4 ADD MSTORE PUSH8 0x2856312A33295D3B PUSH1 0xC0 SHL PUSH1 0x40 DUP4 ADD MSTORE PUSH32 0x5F63782E7361766528293B5F63782E7472616E736C617465283430302C343030 PUSH1 0x48 DUP4 ADD DUP2 SWAP1 MSTORE PUSH18 0x293B5F63782E726F7461746528616E67293B PUSH1 0x70 SHL PUSH1 0x68 DUP5 ADD MSTORE PUSH32 0x5F63782E66696C6C5374796C653D70616C5B315D3B5F63782E66696C6C526563 PUSH1 0x7A DUP5 ADD MSTORE PUSH21 0x74282D35352C2D3730302C3131302C31343030293B PUSH1 0x58 SHL PUSH1 0x9A DUP5 ADD MSTORE PUSH14 0x5F63782E726573746F726528293B PUSH1 0x90 SHL PUSH1 0xAF DUP5 ADD MSTORE PUSH1 0xBD DUP4 ADD MSTORE PUSH32 0x293B5F63782E726F7461746528616E672B50492F32293B000000000000000000 PUSH1 0xDD DUP4 ADD MSTORE PUSH32 0x5F63782E66696C6C5374796C653D70616C5B325D3B5F63782E676C6F62616C41 PUSH1 0xF4 DUP4 ADD MSTORE PUSH10 0x6C7068613D302E35353B PUSH1 0xB0 SHL PUSH2 0x114 DUP4 ADD MSTORE PUSH32 0x5F63782E66696C6C52656374282D32382C2D3730302C35362C31343030293B00 PUSH2 0x11E DUP4 ADD MSTORE PUSH32 0x5F63782E676C6F62616C416C7068613D313B5F63782E726573746F726528293B PUSH2 0x13D DUP4 ADD MSTORE PUSH32 0x636F6E737420523D666C6F6F72283132302B56322A3930293B00000000000000 PUSH2 0x15D DUP4 ADD MSTORE PUSH32 0x6369726328666C6F6F72283136302B56332A313230292C666C6F6F7228353630 PUSH2 0x176 DUP4 ADD MSTORE PUSH19 0x2B56342A313030292C522C70616C5B335D293B PUSH1 0x68 SHL PUSH2 0x196 DUP4 ADD MSTORE PUSH32 0x6369726328666C6F6F72283632302B56342A3830292C666C6F6F72283136302B PUSH2 0x1A9 DUP4 ADD MSTORE PUSH32 0x56312A3830292C666C6F6F7228522F504849292C70616C5B315D293B00000000 PUSH2 0x1C9 DUP4 ADD MSTORE PUSH32 0x636F6E73742074783D666C6F6F72283632302B56332A3630292C74793D666C6F PUSH2 0x1E5 DUP4 ADD MSTORE PUSH32 0x6F722838302B56322A3630292C74733D666C6F6F722836302B56312A3530293B PUSH2 0x205 DUP4 ADD MSTORE PUSH32 0x7472692874782C74792C74782B74732C74792B666C6F6F722874732A50484929 PUSH2 0x225 DUP4 ADD MSTORE PUSH32 0x2C74782D74732C74792B666C6F6F722874732A504849292C70616C5B325D293B PUSH2 0x245 DUP4 ADD MSTORE PUSH32 0x6C6E28302C666C6F6F72283830302F504849292C3830302C666C6F6F72283830 PUSH2 0x265 DUP4 ADD MSTORE PUSH18 0x302F504849292C70616C5B345D2C33293B7D PUSH1 0x70 SHL PUSH2 0x285 DUP4 ADD MSTORE PUSH22 0x66756E6374696F6E20647261774E657374656428297B PUSH1 0x50 SHL PUSH2 0x297 DUP4 ADD MSTORE PUSH2 0x2AD DUP3 ADD MSTORE PUSH32 0x636F6E737420757365436972636C653D56313E302E353B000000000000000000 PUSH2 0x2B8 DUP3 ADD MSTORE PUSH16 0x6C657420737A3D3732302C63693D303B PUSH1 0x80 SHL PUSH2 0x2CF DUP3 ADD MSTORE PUSH13 0x7768696C6528737A3E3234297B PUSH1 0x98 SHL PUSH2 0x2DF DUP3 ADD MSTORE PUSH32 0x636F6E737420633D70616C5B312B286369252870616C2E6C656E6774682D3129 PUSH2 0x2EC DUP3 ADD MSTORE PUSH32 0x295D2C783D283830302D737A292F322C793D283830302D737A292F323B000000 PUSH2 0x30C DUP3 ADD MSTORE PUSH32 0x636F6E737420796F3D757365436972636C653F303A666C6F6F722863692A2838 PUSH2 0x329 DUP3 ADD MSTORE PUSH9 0x2B56322A313229293B PUSH1 0xB8 SHL PUSH2 0x349 DUP3 ADD MSTORE PUSH32 0x696628757365436972636C652963697263283430302C3430302C737A2F322C63 PUSH2 0x352 DUP3 ADD MSTORE PUSH2 0x293B PUSH1 0xF0 SHL PUSH2 0x372 DUP3 ADD MSTORE PUSH32 0x656C73652072637428782C792B796F2C737A2C737A2D796F2A322C63293B0000 PUSH2 0x374 DUP3 ADD MSTORE PUSH32 0x737A3D666C6F6F7228737A2F504849293B63692B2B3B7D000000000000000000 PUSH2 0x392 DUP3 ADD MSTORE PUSH32 0x63697263283430302C3430302C666C6F6F722831322B56332A3136292C70616C PUSH2 0x3A9 DUP3 ADD MSTORE PUSH5 0x5B345D293B PUSH1 0xD8 SHL PUSH2 0x3C9 DUP3 ADD MSTORE PUSH12 0x7068694C696E657328293B7D PUSH1 0xA0 SHL PUSH2 0x3CE DUP3 ADD MSTORE PUSH2 0x3DA ADD SWAP1 JUMP JUMPDEST PUSH1 0x40 MLOAD PUSH32 0x696628434F4D503D3D3D302964726177436972636C6528293B00000000000000 PUSH1 0x20 DUP3 ADD MSTORE PUSH32 0x656C736520696628434F4D503D3D3D3129647261774772696428293B00000000 PUSH1 0x39 DUP3 ADD MSTORE PUSH32 0x656C736520696628434F4D503D3D3D322964726177436F6E737428293B000000 PUSH1 0x55 DUP3 ADD MSTORE PUSH18 0x656C736520647261774E657374656428293B PUSH1 0x70 SHL PUSH1 0x72 DUP3 ADD MSTORE PUSH1 0x60 SWAP1 PUSH1 0x84 ADD PUSH2 0x21BF JUMP JUMPDEST PUSH1 0x0 DUP1 PUSH19 0x184F03E93FF9F4DAA797ED6E38ED64BF6A1F01 PUSH1 0x40 SHL DUP4 LT PUSH2 0x2818 JUMPI PUSH19 0x184F03E93FF9F4DAA797ED6E38ED64BF6A1F01 PUSH1 0x40 SHL DUP4 DIV SWAP3 POP PUSH1 0x40 ADD JUMPDEST PUSH14 0x4EE2D6D415B85ACEF8100000000 DUP4 LT PUSH2 0x2844 JUMPI PUSH14 0x4EE2D6D415B85ACEF8100000000 DUP4 DIV SWAP3 POP PUSH1 0x20 ADD JUMPDEST PUSH7 0x2386F26FC10000 DUP4 LT PUSH2 0x2862 JUMPI PUSH7 0x2386F26FC10000 DUP4 DIV SWAP3 POP PUSH1 0x10 ADD JUMPDEST PUSH4 0x5F5E100 DUP4 LT PUSH2 0x287A JUMPI PUSH4 0x5F5E100 DUP4 DIV SWAP3 POP PUSH1 0x8 ADD JUMPDEST PUSH2 0x2710 DUP4 LT PUSH2 0x288E JUMPI PUSH2 0x2710 DUP4 DIV SWAP3 POP PUSH1 0x4 ADD JUMPDEST PUSH1 0x64 DUP4 LT PUSH2 0x28A0 JUMPI PUSH1 0x64 DUP4 DIV SWAP3 POP PUSH1 0x2 ADD JUMPDEST PUSH1 0xA DUP4 LT PUSH2 0x4E5 JUMPI PUSH1 0x1 ADD SWAP3 SWAP2 POP POP JUMP JUMPDEST PUSH1 0x0 PUSH1 0x1 PUSH1 0x1 PUSH1 0xA0 SHL SUB DUP4 AND ISZERO DUP1 ISZERO SWAP1 PUSH2 0x184A JUMPI POP DUP3 PUSH1 0x1 PUSH1 0x1 PUSH1 0xA0 SHL SUB AND DUP5 PUSH1 0x1 PUSH1 0x1 PUSH1 0xA0 SHL SUB AND EQ DUP1 PUSH2 0x28EB JUMPI POP PUSH2 0x28EB DUP5 DUP5 PUSH2 0xB21 JUMP JUMPDEST DUP1 PUSH2 0x184A JUMPI POP POP PUSH1 0x0 SWAP1 DUP2 MSTORE PUSH1 0x4 PUSH1 0x20 MSTORE PUSH1 0x40 SWAP1 KECCAK256 SLOAD PUSH1 0x1 PUSH1 0x1 PUSH1 0xA0 SHL SUB SWAP1 DUP2 AND SWAP2 AND EQ SWAP2 SWAP1 POP JUMP JUMPDEST PUSH1 0x60 PUSH1 0x40 MLOAD PUSH1 0x20 ADD PUSH2 0x21BF SWAP1 PUSH12 0x636F6E73742050414C533D5B PUSH1 0xA0 SHL DUP2 MSTORE PUSH32 0x5B2223463846374630222C2223443632383238222C2223314234463732222C22 PUSH1 0xC DUP3 ADD MSTORE PUSH20 0x8D18CCE50CC4C888B0888CC504C504C5048974B PUSH1 0x62 SHL PUSH1 0x2C DUP3 ADD MSTORE PUSH32 0x5B2223304430443044222C2223453633393436222C2223463444333545222C22 PUSH1 0x40 DUP3 ADD MSTORE PUSH20 0x8CC504E4CCD91888B0888D18D518D518D48974B PUSH1 0x62 SHL PUSH1 0x60 DUP3 ADD MSTORE PUSH32 0x5B2223463546304538222C2223324534303537222C2223433834423331222C22 PUSH1 0x74 DUP3 ADD MSTORE PUSH20 0x8CC0D0E104E0C488B0888CC4C4C4C4C4C48974B PUSH1 0x62 SHL PUSH1 0x94 DUP3 ADD MSTORE PUSH32 0x5B2223463546354635222C2223423830303030222C2223313131313131222C22 PUSH1 0xA8 DUP3 ADD MSTORE PUSH20 0x8CE4E4E4E4E4E488B0888D14C114C114C08974B PUSH1 0x62 SHL PUSH1 0xC8 DUP3 ADD MSTORE PUSH32 0x5B2223464646384531222C2223314131413141222C2223433632383238222C22 PUSH1 0xDC DUP3 ADD MSTORE PUSH20 0x8CC4D4D8D50CC088B0888CE514D908C1048974B PUSH1 0x62 SHL PUSH1 0xFC DUP3 ADD MSTORE PUSH32 0x5B2223463746374637222C2223464636423335222C2223303034453938222C22 PUSH2 0x110 DUP3 ADD MSTORE PUSH20 0x8D15151515151488B0888CC4C4C4C4C4C48974B PUSH1 0x62 SHL PUSH2 0x130 DUP3 ADD MSTORE PUSH32 0x5B2223313431343134222C2223464642373033222C2223464238353030222C22 PUSH2 0x144 DUP3 ADD MSTORE PUSH20 0x8CC0C8CCC0D0DC88B0888CE1150D0514D88974B PUSH1 0x62 SHL PUSH2 0x164 DUP3 ADD MSTORE PUSH32 0x5B2223453845384538222C2223323132353239222C2223433033393242222C22 PUSH2 0x178 DUP3 ADD MSTORE PUSH19 0x23323437314133222C2223364337353744225D PUSH1 0x68 SHL PUSH2 0x198 DUP3 ADD MSTORE PUSH2 0x5D3B PUSH1 0xF0 SHL PUSH2 0x1AB DUP3 ADD MSTORE PUSH2 0x1AD ADD SWAP1 JUMP JUMPDEST PUSH1 0x40 MLOAD PUSH32 0x636F6E7374205048493D312E3631383033333938383734393839353B00000000 PUSH1 0x20 DUP3 ADD MSTORE PUSH32 0x6C65742072733D426967496E7428223078222B53454544293B00000000000000 PUSH1 0x3C DUP3 ADD MSTORE PUSH15 0x636F6E737420726E643D28293D3E7B PUSH1 0x88 SHL PUSH1 0x55 DUP3 ADD MSTORE PUSH32 0x72733D2872732A363336343133363232333834363739333030356E2B31343432 PUSH1 0x64 DUP3 ADD MSTORE PUSH32 0x3639353034303838383936333430376E29263138343436373434303733373039 PUSH1 0x84 DUP3 ADD MSTORE PUSH8 0x3535313631356E3B PUSH1 0xC0 SHL PUSH1 0xA4 DUP3 ADD MSTORE PUSH32 0x72657475726E204E756D62657228727326343239343936373239356E292F3432 PUSH1 0xAC DUP3 ADD MSTORE PUSH11 0x39343936373239353B7D3B PUSH1 0xA8 SHL PUSH1 0xCC DUP3 ADD MSTORE PUSH32 0x636F6E73742070616C3D50414C535B666C6F6F7228726E6428292A38295D3B00 PUSH1 0xD7 DUP3 ADD MSTORE PUSH32 0x636F6E737420434F4D503D666C6F6F7228726E6428292A34293B000000000000 PUSH1 0xF6 DUP3 ADD MSTORE PUSH32 0x636F6E73742056313D726E6428292C56323D726E6428292C56333D726E642829 PUSH2 0x110 DUP3 ADD MSTORE PUSH10 0x2C56343D726E6428293B PUSH1 0xB0 SHL PUSH2 0x130 DUP3 ADD MSTORE PUSH1 0x60 SWAP1 PUSH2 0x13A ADD PUSH2 0x21BF JUMP JUMPDEST PUSH1 0x1 PUSH1 0x1 PUSH1 0xE0 SHL SUB NOT DUP2 AND DUP2 EQ PUSH2 0x795 JUMPI PUSH1 0x0 DUP1 REVERT JUMPDEST PUSH1 0x0 PUSH1 0x20 DUP3 DUP5 SUB SLT ISZERO PUSH2 0x2D1B JUMPI PUSH1 0x0 DUP1 REVERT JUMPDEST DUP2 CALLDATALOAD PUSH2 0xEC3 DUP2 PUSH2 0x2CF3 JUMP JUMPDEST PUSH1 0x0 JUMPDEST DUP4 DUP2 LT ISZERO PUSH2 0x2D41 JUMPI DUP2 DUP2 ADD MLOAD DUP4 DUP3 ADD MSTORE PUSH1 0x20 ADD PUSH2 0x2D29 JUMP JUMPDEST POP POP PUSH1 0x0 SWAP2 ADD MSTORE JUMP JUMPDEST PUSH1 0x0 DUP2 MLOAD DUP1 DUP5 MSTORE PUSH2 0x2D62 DUP2 PUSH1 0x20 DUP7 ADD PUSH1 0x20 DUP7 ADD PUSH2 0x2D26 JUMP JUMPDEST PUSH1 0x1F ADD PUSH1 0x1F NOT AND SWAP3 SWAP1 SWAP3 ADD PUSH1 0x20 ADD SWAP3 SWAP2 POP POP JUMP JUMPDEST PUSH1 0x20 DUP2 MSTORE PUSH1 0x0 PUSH2 0xEC3 PUSH1 0x20 DUP4 ADD DUP5 PUSH2 0x2D4A JUMP JUMPDEST PUSH1 0x0 PUSH1 0x20 DUP3 DUP5 SUB SLT ISZERO PUSH2 0x2D9B JUMPI PUSH1 0x0 DUP1 REVERT JUMPDEST POP CALLDATALOAD SWAP2 SWAP1 POP JUMP JUMPDEST DUP1 CALLDATALOAD PUSH1 0x1 PUSH1 0x1 PUSH1 0xA0 SHL SUB DUP2 AND DUP2 EQ PUSH2 0x2DB9 JUMPI PUSH1 0x0 DUP1 REVERT JUMPDEST SWAP2 SWAP1 POP JUMP JUMPDEST PUSH1 0x0 DUP1 PUSH1 0x40 DUP4 DUP6 SUB SLT ISZERO PUSH2 0x2DD1 JUMPI PUSH1 0x0 DUP1 REVERT JUMPDEST PUSH2 0x2DDA DUP4 PUSH2 0x2DA2 JUMP JUMPDEST SWAP5 PUSH1 0x20 SWAP4 SWAP1 SWAP4 ADD CALLDATALOAD SWAP4 POP POP POP JUMP JUMPDEST PUSH1 0x0 DUP1 PUSH1 0x0 PUSH1 0x60 DUP5 DUP7 SUB SLT ISZERO PUSH2 0x2DFD JUMPI PUSH1 0x0 DUP1 REVERT JUMPDEST PUSH2 0x2E06 DUP5 PUSH2 0x2DA2 JUMP JUMPDEST SWAP3 POP PUSH2 0x2E14 PUSH1 0x20 DUP6 ADD PUSH2 0x2DA2 JUMP JUMPDEST SWAP2 POP PUSH1 0x40 DUP5 ADD CALLDATALOAD SWAP1 POP SWAP3 POP SWAP3 POP SWAP3 JUMP JUMPDEST PUSH1 0x0 DUP1 PUSH1 0x40 DUP4 DUP6 SUB SLT ISZERO PUSH2 0x2E37 JUMPI PUSH1 0x0 DUP1 REVERT JUMPDEST POP POP DUP1 CALLDATALOAD SWAP3 PUSH1 0x20 SWAP1 SWAP2 ADD CALLDATALOAD SWAP2 POP JUMP JUMPDEST PUSH1 0x0 PUSH1 0x20 DUP3 DUP5 SUB SLT ISZERO PUSH2 0x2E58 JUMPI PUSH1 0x0 DUP1 REVERT JUMPDEST PUSH2 0xEC3 DUP3 PUSH2 0x2DA2 JUMP JUMPDEST PUSH1 0x0 DUP1 PUSH1 0x40 DUP4 DUP6 SUB SLT ISZERO PUSH2 0x2E74 JUMPI PUSH1 0x0 DUP1 REVERT JUMPDEST PUSH2 0x2E7D DUP4 PUSH2 0x2DA2 JUMP JUMPDEST SWAP2 POP PUSH1 0x20 DUP4 ADD CALLDATALOAD PUSH1 0x1 PUSH1 0x1 PUSH1 0x60 SHL SUB DUP2 AND DUP2 EQ PUSH2 0x2E99 JUMPI PUSH1 0x0 DUP1 REVERT JUMPDEST DUP1 SWAP2 POP POP SWAP3 POP SWAP3 SWAP1 POP JUMP JUMPDEST PUSH1 0x0 DUP1 PUSH1 0x40 DUP4 DUP6 SUB SLT ISZERO PUSH2 0x2EB7 JUMPI PUSH1 0x0 DUP1 REVERT JUMPDEST PUSH2 0x2EC0 DUP4 PUSH2 0x2DA2 JUMP JUMPDEST SWAP2 POP PUSH1 0x20 DUP4 ADD CALLDATALOAD DUP1 ISZERO ISZERO DUP2 EQ PUSH2 0x2E99 JUMPI PUSH1 0x0 DUP1 REVERT JUMPDEST PUSH4 0x4E487B71 PUSH1 0xE0 SHL PUSH1 0x0 MSTORE PUSH1 0x41 PUSH1 0x4 MSTORE PUSH1 0x24 PUSH1 0x0 REVERT JUMPDEST PUSH1 0x0 DUP1 PUSH1 0x0 DUP1 PUSH1 0x80 DUP6 DUP8 SUB SLT ISZERO PUSH2 0x2F01 JUMPI PUSH1 0x0 DUP1 REVERT JUMPDEST PUSH2 0x2F0A DUP6 PUSH2 0x2DA2 JUMP JUMPDEST SWAP4 POP PUSH2 0x2F18 PUSH1 0x20 DUP7 ADD PUSH2 0x2DA2 JUMP JUMPDEST SWAP3 POP PUSH1 0x40 DUP6 ADD CALLDATALOAD SWAP2 POP PUSH1 0x60 DUP6 ADD CALLDATALOAD PUSH8 0xFFFFFFFFFFFFFFFF DUP1 DUP3 GT ISZERO PUSH2 0x2F3C JUMPI PUSH1 0x0 DUP1 REVERT JUMPDEST DUP2 DUP8 ADD SWAP2 POP DUP8 PUSH1 0x1F DUP4 ADD SLT PUSH2 0x2F50 JUMPI PUSH1 0x0 DUP1 REVERT JUMPDEST DUP2 CALLDATALOAD DUP2 DUP2 GT ISZERO PUSH2 0x2F62 JUMPI PUSH2 0x2F62 PUSH2 0x2ED5 JUMP JUMPDEST PUSH1 0x40 MLOAD PUSH1 0x1F DUP3 ADD PUSH1 0x1F NOT SWAP1 DUP2 AND PUSH1 0x3F ADD AND DUP2 ADD SWAP1 DUP4 DUP3 GT DUP2 DUP4 LT OR ISZERO PUSH2 0x2F8A JUMPI PUSH2 0x2F8A PUSH2 0x2ED5 JUMP JUMPDEST DUP2 PUSH1 0x40 MSTORE DUP3 DUP2 MSTORE DUP11 PUSH1 0x20 DUP5 DUP8 ADD ADD GT ISZERO PUSH2 0x2FA3 JUMPI PUSH1 0x0 DUP1 REVERT JUMPDEST DUP3 PUSH1 0x20 DUP7 ADD PUSH1 0x20 DUP4 ADD CALLDATACOPY PUSH1 0x0 PUSH1 0x20 DUP5 DUP4 ADD ADD MSTORE DUP1 SWAP6 POP POP POP POP POP POP SWAP3 SWAP6 SWAP2 SWAP5 POP SWAP3 POP JUMP JUMPDEST PUSH1 0x0 DUP1 PUSH1 0x40 DUP4 DUP6 SUB SLT ISZERO PUSH2 0x2FDA JUMPI PUSH1 0x0 DUP1 REVERT JUMPDEST PUSH2 0x2FE3 DUP4 PUSH2 0x2DA2 JUMP JUMPDEST SWAP2 POP PUSH2 0x2FF1 PUSH1 0x20 DUP5 ADD PUSH2 0x2DA2 JUMP JUMPDEST SWAP1 POP SWAP3 POP SWAP3 SWAP1 POP JUMP JUMPDEST PUSH1 0x1 DUP2 DUP2 SHR SWAP1 DUP3 AND DUP1 PUSH2 0x300E JUMPI PUSH1 0x7F DUP3 AND SWAP2 POP JUMPDEST PUSH1 0x20 DUP3 LT DUP2 SUB PUSH2 0x302E JUMPI PUSH4 0x4E487B71 PUSH1 0xE0 SHL PUSH1 0x0 MSTORE PUSH1 0x22 PUSH1 0x4 MSTORE PUSH1 0x24 PUSH1 0x0 REVERT JUMPDEST POP SWAP2 SWAP1 POP JUMP JUMPDEST PUSH4 0x4E487B71 PUSH1 0xE0 SHL PUSH1 0x0 MSTORE PUSH1 0x11 PUSH1 0x4 MSTORE PUSH1 0x24 PUSH1 0x0 REVERT JUMPDEST DUP1 DUP3 MUL DUP2 ISZERO DUP3 DUP3 DIV DUP5 EQ OR PUSH2 0x4E5 JUMPI PUSH2 0x4E5 PUSH2 0x3034 JUMP JUMPDEST PUSH1 0x0 DUP3 PUSH2 0x307E JUMPI PUSH4 0x4E487B71 PUSH1 0xE0 SHL PUSH1 0x0 MSTORE PUSH1 0x12 PUSH1 0x4 MSTORE PUSH1 0x24 PUSH1 0x0 REVERT JUMPDEST POP DIV SWAP1 JUMP JUMPDEST PUSH1 0x0 DUP2 MLOAD PUSH2 0x3095 DUP2 DUP6 PUSH1 0x20 DUP7 ADD PUSH2 0x2D26 JUMP JUMPDEST SWAP3 SWAP1 SWAP3 ADD SWAP3 SWAP2 POP POP JUMP JUMPDEST PUSH1 0x5B PUSH1 0xF8 SHL DUP2 MSTORE PUSH32 0x7B2274726169745F74797065223A22436F6D706F736974696F6E222C2276616C PUSH1 0x1 DUP3 ADD MSTORE PUSH5 0x3AB2911D11 PUSH1 0xD9 SHL PUSH1 0x21 DUP3 ADD MSTORE DUP4 MLOAD PUSH1 0x0 SWAP1 PUSH2 0x30F0 DUP2 PUSH1 0x26 DUP6 ADD PUSH1 0x20 DUP10 ADD PUSH2 0x2D26 JUMP JUMPDEST PUSH3 0x89F4B PUSH1 0xEA SHL PUSH1 0x26 SWAP2 DUP5 ADD SWAP2 DUP3 ADD MSTORE PUSH32 0x7B2274726169745F74797065223A2250616C65747465222C2276616C7565223A PUSH1 0x29 DUP3 ADD MSTORE PUSH1 0x11 PUSH1 0xF9 SHL PUSH1 0x49 DUP3 ADD MSTORE DUP5 MLOAD PUSH2 0x3143 DUP2 PUSH1 0x4A DUP5 ADD PUSH1 0x20 DUP10 ADD PUSH2 0x2D26 JUMP JUMPDEST ADD PUSH2 0x3156 PUSH1 0x4A DUP3 ADD PUSH3 0x89F4B PUSH1 0xEA SHL SWAP1 MSTORE JUMP JUMPDEST PUSH32 0x7B2274726169745F74797065223A2245646974696F6E222C2276616C7565223A PUSH1 0x4D DUP3 ADD MSTORE PUSH1 0x11 PUSH1 0xF9 SHL PUSH1 0x6D DUP3 ADD MSTORE PUSH2 0x3194 PUSH1 0x6E DUP3 ADD JUMPDEST DUP6 PUSH2 0x3083 JUMP JUMPDEST PUSH5 0x2F3631227D PUSH1 0xD8 SHL DUP2 MSTORE PUSH1 0x5D PUSH1 0xF8 SHL PUSH1 0x5 DUP3 ADD MSTORE PUSH1 0x6 ADD SWAP7 SWAP6 POP POP POP POP POP POP JUMP JUMPDEST PUSH32 0x226465736372697074696F6E223A2246756C6C79206F6E636861696E20426175 DUP2 MSTORE PUSH21 0x3430BAB99033B2B732B930BA34BB329030B93A171 PUSH1 0x5D SHL PUSH1 0x20 DUP3 ADD MSTORE PUSH1 0x35 ADD SWAP1 JUMP JUMPDEST PUSH32 0x7B226E616D65223A22476F6C64656E20526174696F2023000000000000000000 DUP2 MSTORE PUSH1 0x0 DUP6 MLOAD PUSH2 0x3235 DUP2 PUSH1 0x17 DUP6 ADD PUSH1 0x20 DUP11 ADD PUSH2 0x2D26 JUMP JUMPDEST PUSH2 0x88B PUSH1 0xF2 SHL PUSH1 0x17 SWAP2 DUP5 ADD SWAP2 DUP3 ADD MSTORE PUSH2 0x3250 PUSH1 0x19 DUP3 ADD PUSH2 0x31B6 JUMP JUMPDEST PUSH32 0x47656F6D657472696320636F6D706F736974696F6E732064726976656E206279 DUP2 MSTORE PUSH14 0x10383434901E9018971B189C171 PUSH1 0x95 SHL PUSH1 0x20 DUP3 ADD MSTORE PUSH32 0x3420636F6D706F736974696F6E2074797065732C20382070616C65747465732C PUSH1 0x2E DUP3 ADD MSTORE PUSH20 0x80D8C481D5B9A5C5D59481C1A5958D95CCB888B PUSH1 0x62 SHL PUSH1 0x4E DUP3 ADD MSTORE PUSH32 0x22696D616765223A22646174613A696D6167652F7376672B786D6C3B62617365 PUSH1 0x62 DUP3 ADD MSTORE PUSH3 0xD8D0B PUSH1 0xEA SHL PUSH1 0x82 DUP3 ADD MSTORE SWAP1 POP PUSH2 0x330F PUSH1 0x85 DUP3 ADD JUMPDEST DUP8 PUSH2 0x3083 JUMP JUMPDEST PUSH2 0x88B PUSH1 0xF2 SHL DUP2 MSTORE SWAP1 POP PUSH32 0x22616E696D6174696F6E5F75726C223A22646174613A746578742F68746D6C3B PUSH1 0x2 DUP3 ADD MSTORE PUSH7 0x18985CD94D8D0B PUSH1 0xCA SHL PUSH1 0x22 DUP3 ADD MSTORE PUSH2 0x335D PUSH1 0x29 DUP3 ADD JUMPDEST DUP7 PUSH2 0x3083 JUMP JUMPDEST PUSH2 0x88B PUSH1 0xF2 SHL DUP2 MSTORE SWAP1 POP PUSH13 0x1130BA3A3934B13ABA32B9911D PUSH1 0x99 SHL PUSH1 0x2 DUP3 ADD MSTORE PUSH2 0x338A PUSH1 0xF DUP3 ADD DUP6 PUSH2 0x3083 JUMP JUMPDEST PUSH1 0x7D PUSH1 0xF8 SHL DUP2 MSTORE PUSH1 0x1 ADD SWAP8 SWAP7 POP POP POP POP POP POP POP JUMP JUMPDEST PUSH32 0x646174613A6170706C69636174696F6E2F6A736F6E3B6261736536342C000000 DUP2 MSTORE PUSH1 0x0 DUP3 MLOAD PUSH2 0x33D7 DUP2 PUSH1 0x1D DUP6 ADD PUSH1 0x20 DUP8 ADD PUSH2 0x2D26 JUMP JUMPDEST SWAP2 SWAP1 SWAP2 ADD PUSH1 0x1D ADD SWAP3 SWAP2 POP POP JUMP JUMPDEST PUSH32 0x7B226E616D65223A22476F6C64656E20526174696F222C000000000000000000 DUP2 MSTORE PUSH1 0x0 PUSH2 0x3415 PUSH1 0x17 DUP4 ADD PUSH2 0x31B6 JUMP JUMPDEST PUSH32 0x5068692D70726F706F7274696F6E65642067656F6D657472696320636F6D706F DUP2 MSTORE PUSH32 0x736974696F6E733A20436972636C6520446F6D696E616E63652C204465205374 PUSH1 0x20 DUP3 ADD MSTORE PUSH10 0x34B5361023B934B2161 PUSH1 0xB5 SHL PUSH1 0x40 DUP3 ADD MSTORE PUSH32 0x436F6E737472756374697669737420446961676F6E616C2C204E657374656420 PUSH1 0x4A DUP3 ADD MSTORE PUSH32 0x466F726D732E20363120756E69717565207069656365732E20302E3036313820 PUSH1 0x6A DUP3 ADD MSTORE PUSH6 0x1155120B888B PUSH1 0xD2 SHL PUSH1 0x8A DUP3 ADD MSTORE PUSH32 0x2273656C6C65725F6665655F62617369735F706F696E7473223A3530302C0000 PUSH1 0x90 DUP3 ADD MSTORE PUSH17 0x113332B2AFB932B1B4B834B2B73A111D11 PUSH1 0x79 SHL PUSH1 0xAE DUP3 ADD MSTORE DUP4 MLOAD PUSH2 0x351F DUP2 PUSH1 0xBF DUP5 ADD PUSH1 0x20 DUP9 ADD PUSH2 0x2D26 JUMP JUMPDEST PUSH2 0x227D PUSH1 0xF0 SHL PUSH1 0xBF SWAP3 SWAP1 SWAP2 ADD SWAP2 DUP3 ADD MSTORE PUSH1 0xC1 ADD SWAP4 SWAP3 POP POP POP JUMP JUMPDEST PUSH1 0x0 PUSH1 0x1 DUP3 ADD PUSH2 0x354B JUMPI PUSH2 0x354B PUSH2 0x3034 JUMP JUMPDEST POP PUSH1 0x1 ADD SWAP1 JUMP JUMPDEST DUP2 DUP2 SUB DUP2 DUP2 GT ISZERO PUSH2 0x4E5 JUMPI PUSH2 0x4E5 PUSH2 0x3034 JUMP JUMPDEST PUSH1 0x1 PUSH1 0x1 PUSH1 0xA0 SHL SUB DUP6 DUP2 AND DUP3 MSTORE DUP5 AND PUSH1 0x20 DUP3 ADD MSTORE PUSH1 0x40 DUP2 ADD DUP4 SWAP1 MSTORE PUSH1 0x80 PUSH1 0x60 DUP3 ADD DUP2 SWAP1 MSTORE PUSH1 0x0 SWAP1 PUSH2 0x3598 SWAP1 DUP4 ADD DUP5 PUSH2 0x2D4A JUMP JUMPDEST SWAP7 SWAP6 POP POP POP POP POP POP JUMP JUMPDEST PUSH1 0x0 PUSH1 0x20 DUP3 DUP5 SUB SLT ISZERO PUSH2 0x35B4 JUMPI PUSH1 0x0 DUP1 REVERT JUMPDEST DUP2 MLOAD PUSH2 0xEC3 DUP2 PUSH2 0x2CF3 JUMP JUMPDEST PUSH32 0x3C73766720786D6C6E733D22687474703A2F2F7777772E77332E6F72672F3230 DUP2 MSTORE PUSH32 0x30302F737667222076696577426F783D223020302038303020383030223E0000 PUSH1 0x20 DUP3 ADD MSTORE PUSH32 0x3C726563742077696474683D2238303022206865696768743D22383030222066 PUSH1 0x3E DUP3 ADD MSTORE PUSH5 0x34B6361E91 PUSH1 0xD9 SHL PUSH1 0x5E DUP3 ADD MSTORE PUSH1 0x0 PUSH2 0x364B PUSH1 0x63 DUP4 ADD DUP12 PUSH2 0x3083 JUMP JUMPDEST PUSH3 0x11179F PUSH1 0xE9 SHL DUP2 MSTORE PUSH32 0x3C7265637420783D223130302220793D22313030222077696474683D22343934 PUSH1 0x3 DUP3 ADD MSTORE PUSH21 0x11103432B4B3B43A1E9119981B11103334B6361E91 PUSH1 0x59 SHL PUSH1 0x23 DUP3 ADD MSTORE PUSH2 0x36A6 PUSH1 0x38 DUP3 ADD JUMPDEST DUP12 PUSH2 0x3083 JUMP JUMPDEST PUSH3 0x11179F PUSH1 0xE9 SHL DUP2 MSTORE SWAP1 POP PUSH32 0x3C636972636C652063783D22363230222063793D223538302220723D22313730 PUSH1 0x3 DUP3 ADD MSTORE PUSH8 0x11103334B6361E91 PUSH1 0xC1 SHL PUSH1 0x23 DUP3 ADD MSTORE PUSH2 0x36F5 PUSH1 0x2B DUP3 ADD DUP11 PUSH2 0x3083 JUMP JUMPDEST PUSH3 0x11179F PUSH1 0xE9 SHL DUP2 MSTORE SWAP1 POP PUSH32 0x3C7265637420783D223130302220793D22343530222077696474683D22313839 PUSH1 0x3 DUP3 ADD MSTORE PUSH21 0x11103432B4B3B43A1E91191A9811103334B6361E91 PUSH1 0x59 SHL PUSH1 0x23 DUP3 ADD MSTORE PUSH2 0x3752 PUSH1 0x38 DUP3 ADD JUMPDEST DUP10 PUSH2 0x3083 JUMP JUMPDEST PUSH3 0x11179F PUSH1 0xE9 SHL DUP2 MSTORE SWAP1 POP PUSH32 0x3C6C696E652078313D2230222079313D22343935222078323D22383030222079 PUSH1 0x3 DUP3 ADD MSTORE PUSH16 0x191E911A1C9A911039BA3937B5B29E91 PUSH1 0x81 SHL PUSH1 0x23 DUP3 ADD MSTORE PUSH2 0x38AE PUSH2 0x3357 PUSH2 0x386F PUSH2 0x3832 PUSH2 0x37BC PUSH2 0x36A0 PUSH2 0x37F0 DUP3 PUSH1 0x33 DUP10 ADD DUP16 PUSH2 0x3083 JUMP JUMPDEST PUSH32 0x22207374726F6B652D77696474683D223122206F7061636974793D22302E3322 DUP2 MSTORE PUSH2 0x179F PUSH1 0xF1 SHL PUSH1 0x20 DUP3 ADD MSTORE PUSH1 0x22 ADD SWAP1 JUMP JUMPDEST PUSH32 0x3C6C696E652078313D22343934222079313D2230222078323D22343934222079 DUP2 MSTORE PUSH16 0x191E911C1818111039BA3937B5B29E91 PUSH1 0x81 SHL PUSH1 0x20 DUP3 ADD MSTORE PUSH1 0x30 ADD SWAP1 JUMP JUMPDEST PUSH32 0x3C7465787420783D223430302220793D223737352220746578742D616E63686F DUP2 MSTORE PUSH11 0x391E9136B4B2323632911 PUSH1 0xAD SHL PUSH1 0x20 DUP3 ADD MSTORE PUSH1 0x2B ADD SWAP1 JUMP JUMPDEST PUSH32 0x666F6E742D66616D696C793D226D6F6E6F73706163652220666F6E742D73697A DUP2 MSTORE PUSH13 0x329E91191A11103334B6361E91 PUSH1 0x99 SHL PUSH1 0x20 DUP3 ADD MSTORE PUSH1 0x2D ADD SWAP1 JUMP JUMPDEST PUSH32 0x22206F7061636974793D22302E36223E474F4C44454E20524154494F20230000 DUP2 MSTORE SWAP1 POP PUSH2 0x38E0 PUSH1 0x1E DUP3 ADD DUP6 PUSH2 0x3083 JUMP JUMPDEST PUSH7 0x1E17BA32BC3A1F PUSH1 0xC9 SHL DUP2 MSTORE PUSH6 0x1E17B9BB339F PUSH1 0xD1 SHL PUSH1 0x7 DUP3 ADD MSTORE PUSH1 0xD ADD SWAP12 SWAP11 POP POP POP POP POP POP POP POP POP POP POP JUMP JUMPDEST PUSH4 0x4E487B71 PUSH1 0xE0 SHL PUSH1 0x0 MSTORE PUSH1 0x32 PUSH1 0x4 MSTORE PUSH1 0x24 PUSH1 0x0 REVERT JUMPDEST DUP1 DUP3 ADD DUP1 DUP3 GT ISZERO PUSH2 0x4E5 JUMPI PUSH2 0x4E5 PUSH2 0x3034 JUMP JUMPDEST PUSH32 0x3C21444F43545950452068746D6C3E3C68746D6C3E3C686561643E3C6D657461 DUP2 MSTORE PUSH17 0x1031B430B939B2BA1E913ABA33169C111F PUSH1 0x79 SHL PUSH1 0x20 DUP3 ADD MSTORE PUSH32 0x3C7374796C653E2A7B6D617267696E3A303B70616464696E673A307D626F6479 PUSH1 0x31 DUP3 ADD MSTORE PUSH32 0x7B6261636B67726F756E643A233030303B646973706C61793A666C65783B0000 PUSH1 0x51 DUP3 ADD MSTORE PUSH32 0x616C69676E2D6974656D733A63656E7465723B6A7573746966792D636F6E7465 PUSH1 0x6F DUP3 ADD MSTORE PUSH32 0x6E743A63656E7465723B6D696E2D6865696768743A31303076683B6F76657266 PUSH1 0x8F DUP3 ADD MSTORE PUSH11 0x6C6F773A68696464656E7D PUSH1 0xA8 SHL PUSH1 0xAF DUP3 ADD MSTORE PUSH32 0x63616E7661737B6D61782D77696474683A313030766D696E3B6D61782D686569 PUSH1 0xBA DUP3 ADD MSTORE PUSH20 0x33B43A1D1898183B36B4B73E9E17B9BA3CB6329F PUSH1 0x61 SHL PUSH1 0xDA DUP3 ADD MSTORE PUSH1 0x0 PUSH1 0xEE DUP3 ADD PUSH21 0x1E17B432B0B21F1E3137B23C9F1E39B1B934B83A1F PUSH1 0x59 SHL DUP2 MSTORE PUSH2 0x3A91 PUSH1 0x15 DUP3 ADD DUP12 PUSH2 0x3083 JUMP JUMPDEST PUSH12 0x31B7B739BA1029A2A2A21E91 PUSH1 0xA1 SHL DUP2 MSTORE SWAP1 POP PUSH2 0x3AB2 PUSH1 0xC DUP3 ADD DUP11 PUSH2 0x3083 JUMP JUMPDEST PUSH8 0x222C544F4B454E3D PUSH1 0xC0 SHL DUP2 MSTORE SWAP1 POP PUSH2 0x3ACF PUSH1 0x8 DUP3 ADD DUP10 PUSH2 0x3083 JUMP JUMPDEST PUSH1 0x3B PUSH1 0xF8 SHL DUP2 MSTORE SWAP1 POP PUSH2 0x3AEE PUSH2 0x318E PUSH2 0x3309 PUSH2 0x374C PUSH1 0x1 DUP6 ADD DUP12 PUSH2 0x3083 JUMP JUMPDEST PUSH32 0x3C2F7363726970743E3C2F626F64793E3C2F68746D6C3E000000000000000000 DUP2 MSTORE PUSH1 0x17 ADD SWAP11 SWAP10 POP POP POP POP POP POP POP POP POP POP JUMP JUMPDEST PUSH1 0x0 DUP2 PUSH2 0x3B31 JUMPI PUSH2 0x3B31 PUSH2 0x3034 JUMP JUMPDEST POP PUSH1 0x0 NOT ADD SWAP1 JUMP JUMPDEST PUSH32 0x636F6E7374205F63763D646F63756D656E742E637265617465456C656D656E74 DUP2 MSTORE PUSH11 0xA0898D85B9D985CC88A4B PUSH1 0xAA SHL PUSH1 0x20 DUP3 ADD MSTORE PUSH32 0x5F63783D5F63762E676574436F6E746578742822326422293B00000000000000 PUSH1 0x2B DUP3 ADD MSTORE PUSH32 0x5F63762E77696474683D5F63762E6865696768743D3830303B00000000000000 PUSH1 0x44 DUP3 ADD MSTORE PUSH32 0x646F63756D656E742E626F64792E617070656E644368696C64285F6376293B00 PUSH1 0x5D DUP3 ADD MSTORE PUSH32 0x636F6E737420636F733D4D6174682E636F732C73696E3D4D6174682E73696E2C PUSH1 0x7C DUP3 ADD MSTORE PUSH32 0x737172743D4D6174682E737172742C6162733D4D6174682E6162732C00000000 PUSH1 0x9C DUP3 ADD MSTORE PUSH32 0x50493D4D6174682E50492C54574F5F50493D50492A322C666C6F6F723D4D6174 PUSH1 0xB8 DUP3 ADD MSTORE PUSH32 0x682E666C6F6F722C726F756E643D4D6174682E726F756E643B00000000000000 PUSH1 0xD8 DUP3 ADD MSTORE PUSH32 0x66756E6374696F6E2062672863297B5F63782E66696C6C5374796C653D633B5F PUSH1 0xF1 DUP3 ADD MSTORE PUSH32 0x63782E66696C6C5265637428302C302C3830302C383030293B7D000000000000 PUSH2 0x111 DUP3 ADD MSTORE PUSH32 0x66756E6374696F6E206369726328782C792C722C66696C6C2C7363322C737729 PUSH2 0x12B DUP3 ADD MSTORE PUSH1 0x7B PUSH1 0xF8 SHL PUSH2 0x14B DUP3 ADD MSTORE PUSH32 0x5F63782E626567696E5061746828293B5F63782E61726328782C792C722C302C PUSH2 0x14C DUP3 ADD MSTORE PUSH8 0x54574F5F5049293B PUSH1 0xC0 SHL PUSH2 0x16C DUP3 ADD MSTORE PUSH32 0x69662866696C6C297B5F63782E66696C6C5374796C653D66696C6C3B5F63782E PUSH2 0x174 DUP3 ADD MSTORE PUSH8 0x66696C6C28293B7D PUSH1 0xC0 SHL PUSH2 0x194 DUP3 ADD MSTORE PUSH32 0x696628736332297B5F63782E7374726F6B655374796C653D7363323B5F63782E PUSH2 0x19C DUP3 ADD MSTORE PUSH32 0x6C696E6557696474683D73777C7C323B5F63782E7374726F6B6528293B7D7D00 PUSH2 0x1BC DUP3 ADD MSTORE PUSH32 0x66756E6374696F6E2072637428782C792C772C682C66696C6C2C7363322C7377 PUSH2 0x1DB DUP3 ADD MSTORE PUSH2 0x297B PUSH1 0xF0 SHL PUSH2 0x1FB DUP3 ADD MSTORE PUSH1 0x0 PUSH2 0x3EA0 PUSH2 0x3E3E PUSH2 0x1FD DUP5 ADD PUSH32 0x69662866696C6C297B5F63782E66696C6C5374796C653D66696C6C3B5F63782E DUP2 MSTORE PUSH19 0x66696C6C5265637428782C792C772C68293B7D PUSH1 0x68 SHL PUSH1 0x20 DUP3 ADD MSTORE PUSH1 0x33 ADD SWAP1 JUMP JUMPDEST PUSH32 0x696628736332297B5F63782E7374726F6B655374796C653D7363323B5F63782E DUP2 MSTORE PUSH32 0x6C696E6557696474683D73777C7C323B5F63782E7374726F6B65526563742878 PUSH1 0x20 DUP3 ADD MSTORE PUSH10 0x2C792C772C68293B7D7D PUSH1 0xB0 SHL PUSH1 0x40 DUP3 ADD MSTORE PUSH1 0x4A ADD SWAP1 JUMP JUMPDEST PUSH32 0x66756E6374696F6E206C6E2878312C79312C78322C79322C632C77297B000000 DUP2 MSTORE PUSH32 0x5F63782E626567696E5061746828293B5F63782E6D6F7665546F2878312C7931 PUSH1 0x1D DUP3 ADD MSTORE PUSH20 0x293B5F63782E6C696E65546F2878322C7932293B PUSH1 0x60 SHL PUSH1 0x3D DUP3 ADD MSTORE PUSH32 0x5F63782E7374726F6B655374796C653D633B5F63782E6C696E6557696474683D PUSH1 0x51 DUP3 ADD MSTORE PUSH19 0x777C7C323B5F63782E7374726F6B6528293B7D PUSH1 0x68 SHL PUSH1 0x71 DUP3 ADD MSTORE PUSH32 0x66756E6374696F6E207472692861782C61792C62782C62792C65782C65792C66 PUSH1 0x84 DUP3 ADD MSTORE PUSH5 0x696C6C297B PUSH1 0xD8 SHL PUSH1 0xA4 DUP3 ADD MSTORE PUSH32 0x5F63782E626567696E5061746828293B5F63782E6D6F7665546F2861782C6179 PUSH1 0xA9 DUP3 ADD MSTORE PUSH32 0x293B5F63782E6C696E65546F2862782C6279293B5F63782E6C696E65546F2865 PUSH1 0xC9 DUP3 ADD MSTORE PUSH6 0x782C6579293B PUSH1 0xD0 SHL PUSH1 0xE9 DUP3 ADD MSTORE PUSH32 0x5F63782E636C6F73655061746828293B69662866696C6C297B5F63782E66696C PUSH1 0xEF DUP3 ADD MSTORE PUSH32 0x6C5374796C653D66696C6C3B5F63782E66696C6C28293B7D7D00000000000000 PUSH2 0x10F DUP3 ADD MSTORE PUSH2 0x128 DUP2 ADD PUSH2 0xEC3 JUMP JUMPDEST PUSH1 0x0 DUP4 MLOAD PUSH2 0x4040 DUP2 DUP5 PUSH1 0x20 DUP9 ADD PUSH2 0x2D26 JUMP JUMPDEST DUP4 MLOAD SWAP1 DUP4 ADD SWAP1 PUSH2 0x4054 DUP2 DUP4 PUSH1 0x20 DUP9 ADD PUSH2 0x2D26 JUMP JUMPDEST ADD SWAP5 SWAP4 POP POP POP POP JUMP JUMPDEST PUSH20 0x66756E6374696F6E207068694C696E657328297B PUSH1 0x60 SHL DUP2 MSTORE PUSH32 0x636F6E73742067313D666C6F6F72283830302F504849292C67323D666C6F6F72 PUSH1 0x14 DUP3 ADD MSTORE PUSH32 0x283830302D3830302F504849292C6C633D70616C5B345D3B0000000000000000 PUSH1 0x34 DUP3 ADD MSTORE PUSH32 0x6C6E28302C67322C3830302C67322C6C632C31293B6C6E2867312C302C67312C PUSH1 0x4C DUP3 ADD MSTORE PUSH11 0x3830302C6C632C31293B7D PUSH1 0xA8 SHL PUSH1 0x6C DUP3 ADD MSTORE PUSH22 0x66756E6374696F6E2064726177436972636C6528297B PUSH1 0x50 SHL PUSH1 0x77 DUP3 ADD MSTORE PUSH11 0x62672870616C5B305D293B PUSH1 0xA8 SHL PUSH1 0x8D DUP3 ADD DUP2 SWAP1 MSTORE PUSH32 0x636F6E737420523D666C6F6F72283235302B56312A3530292C52323D666C6F6F PUSH1 0x98 DUP4 ADD MSTORE PUSH32 0x7228522F504849292C52333D666C6F6F7228522F5048492F504849293B000000 PUSH1 0xB8 DUP4 ADD MSTORE PUSH32 0x636F6E7374206F783D666C6F6F72282856322D2E35292A313430292C6F793D66 PUSH1 0xD5 DUP4 ADD MSTORE PUSH18 0x6C6F6F72282856332D2E35292A313030293B PUSH1 0x70 SHL PUSH1 0xF5 DUP4 ADD MSTORE PUSH32 0x63697263283430302B6F782C3430302B6F792C522C70616C5B315D293B000000 PUSH2 0x107 DUP4 ADD MSTORE PUSH32 0x63697263283430302B6F782B666C6F6F7228522A2E3535292C3430302B6F792D PUSH2 0x124 DUP4 ADD MSTORE PUSH32 0x666C6F6F722852322A2E3335292C52322C70616C5B325D293B00000000000000 PUSH2 0x144 DUP4 ADD MSTORE PUSH32 0x63697263283430302B6F782D666C6F6F722852332A2E39292C3430302B6F792B PUSH2 0x15D DUP4 ADD MSTORE PUSH32 0x666C6F6F722852322A2E38292C52332C70616C5B335D293B0000000000000000 PUSH2 0x17D DUP4 ADD MSTORE PUSH32 0x63697263283430302C3430302C666C6F6F7228522A5048492A2E3438292C6E75 PUSH2 0x195 DUP4 ADD MSTORE PUSH13 0x6C6C2C70616C5B345D2C32293B PUSH1 0x98 SHL PUSH2 0x1B5 DUP4 ADD MSTORE PUSH11 0x7068694C696E657328293B PUSH1 0xA8 SHL PUSH2 0x1C2 DUP4 ADD MSTORE PUSH32 0x6C6E28302C3430302C3830302C3430302C70616C5B345D2C31293B7D00000000 PUSH2 0x1CD DUP4 ADD MSTORE PUSH20 0x66756E6374696F6E20647261774772696428297B PUSH1 0x60 SHL PUSH2 0x1E9 DUP4 ADD MSTORE PUSH2 0x1FD DUP3 ADD MSTORE PUSH32 0x636F6E73742047313D666C6F6F72283830302F504849292C47323D3830302D47 PUSH2 0x208 DUP3 ADD MSTORE PUSH32 0x312C47333D666C6F6F722847322F504849292C47343D47322D47332C47353D66 PUSH2 0x228 DUP3 ADD MSTORE PUSH13 0x6C6F6F722847332F504849293B PUSH1 0x98 SHL PUSH2 0x248 DUP3 ADD MSTORE PUSH22 0x72637428302C302C47332C47332C70616C5B315D293B PUSH1 0x50 SHL PUSH2 0x255 DUP3 ADD MSTORE PUSH32 0x7263742847312C302C47322C47312C70616C5B325D293B000000000000000000 PUSH2 0x26B DUP3 ADD MSTORE PUSH32 0x72637428302C47312C47332C47322C70616C5B335D293B000000000000000000 PUSH2 0x282 DUP3 ADD MSTORE PUSH32 0x7263742847332C47312D47342C47312D47332C47342C70616C5B325D293B0000 PUSH2 0x299 DUP3 ADD MSTORE PUSH32 0x7263742847312B47352C47312B47352C47342D47352C47342D47352C70616C5B PUSH2 0x2B7 DUP3 ADD MSTORE PUSH4 0x335D293B PUSH1 0xE0 SHL PUSH2 0x2D7 DUP3 ADD MSTORE PUSH21 0x636F6E737420676C3D70616C5B345D2C67773D353B PUSH1 0x58 SHL PUSH2 0x2DB DUP3 ADD MSTORE PUSH32 0x6C6E2847332C302C47332C3830302C676C2C6777293B6C6E2847312C302C4731 PUSH2 0x2F0 DUP3 ADD MSTORE PUSH12 0x2C3830302C676C2C6777293B PUSH1 0xA0 SHL PUSH2 0x310 DUP3 ADD MSTORE PUSH32 0x6C6E28302C47332C3830302C47332C676C2C6777293B6C6E28302C47312C3830 PUSH2 0x31C DUP3 ADD MSTORE PUSH12 0x302C47312C676C2C6777293B PUSH1 0xA0 SHL PUSH2 0x33C DUP3 ADD MSTORE PUSH32 0x6C6E2847332C47312D47342C47312C47312D47342C676C2C6777293B00000000 PUSH2 0x348 DUP3 ADD SWAP1 DUP2 MSTORE PUSH32 0x5F63782E7374726F6B655374796C653D676C3B5F63782E6C696E655769647468 PUSH2 0x364 DUP4 ADD MSTORE PUSH32 0x3D67773B5F63782E7374726F6B655265637428302C302C3830302C383030293B PUSH2 0x384 DUP4 ADD MSTORE PUSH1 0x7D PUSH1 0xF8 SHL PUSH2 0x3A4 DUP4 ADD MSTORE PUSH1 0x0 SWAP1 PUSH2 0x3A5 DUP4 ADD PUSH2 0xEC3 JUMP INVALID COINBASE TIMESTAMP NUMBER PREVRANDAO GASLIMIT CHAINID SELFBALANCE BASEFEE BLOBHASH BLOBBASEFEE 0x4B 0x4C 0x4D 0x4E 0x4F POP MLOAD MSTORE MSTORE8 SLOAD SSTORE JUMP JUMPI PC MSIZE GAS PUSH2 0x6263 PUSH5 0x6566676869 PUSH11 0x6B6C6D6E6F707172737475 PUSH23 0x7778797A303132333435363738392B2FA2646970667358 0x22 SLT KECCAK256 0xCB REVERT 0xA6 0xAA DUP4 MSTORE8 PUSH25 0xAFADFF834E43B745DACA17044AAEE91D2D5645C2599A8F3838 PUSH5 0x736F6C6343 STOP ADDMOD XOR STOP CALLER "},"methodIdentifiers":{"MAX_SUPPLY()":"32cb6b0c","MINT_PRICE()":"c002d23d","approve(address,uint256)":"095ea7b3","balanceOf(address)":"70a08231","contractURI()":"e8a3d485","getApproved(uint256)":"081812fc","isApprovedForAll(address,address)":"e985e9c5","mint()":"1249c58b","mintTo(address)":"755edd17","name()":"06fdde03","owner()":"8da5cb5b","ownerOf(uint256)":"6352211e","renounceOwnership()":"715018a6","royaltyInfo(uint256,uint256)":"2a55205a","safeTransferFrom(address,address,uint256)":"42842e0e","safeTransferFrom(address,address,uint256,bytes)":"b88d4fde","seedOf(uint256)":"82829f74","setApprovalForAll(address,bool)":"a22cb465","setRoyalty(address,uint96)":"8f2fc60b","supportsInterface(bytes4)":"01ffc9a7","symbol()":"95d89b41","tokenURI(uint256)":"c87b56dd","totalMinted()":"a2309ff8","totalSupply()":"18160ddd","transferFrom(address,address,uint256)":"23b872dd","transferOwnership(address)":"f2fde38b","withdraw()":"3ccfd60b"}}}}}